{
	"tests/task_2/task_2_3_.sol": {
		"RomanNumerals": {
			"abi": [
				{
					"inputs": [],
					"stateMutability": "nonpayable",
					"type": "constructor"
				},
				{
					"inputs": [
						{
							"internalType": "uint256",
							"name": "num",
							"type": "uint256"
						}
					],
					"name": "toRoman",
					"outputs": [
						{
							"internalType": "string",
							"name": "",
							"type": "string"
						}
					],
					"stateMutability": "view",
					"type": "function"
				}
			],
			"devdoc": {
				"kind": "dev",
				"methods": {},
				"version": 1
			},
			"evm": {
				"assembly": "    /* \"tests/task_2/task_2_3_.sol\":110:1637  contract RomanNumerals {... */\n  mstore(0x40, 0x80)\n    /* \"tests/task_2/task_2_3_.sol\":265:1003  constructor() {... */\n  callvalue\n  dup1\n  iszero\n  tag_1\n  jumpi\n  revert(0x00, 0x00)\ntag_1:\n  pop\n    /* \"tests/task_2/task_2_3_.sol\":348:360  romanSymbols */\n  0x00\n    /* \"tests/task_2/task_2_3_.sol\":366:388  RomanSymbol(1000, \"M\") */\n  mload(0x40)\n  dup1\n  0x40\n  add\n  0x40\n  mstore\n  dup1\n    /* \"tests/task_2/task_2_3_.sol\":378:382  1000 */\n  0x03e8\n    /* \"tests/task_2/task_2_3_.sol\":366:388  RomanSymbol(1000, \"M\") */\n  dup2\n  mstore\n  0x20\n  add\n  mload(0x40)\n  dup1\n  0x40\n  add\n  0x40\n  mstore\n  dup1\n  0x01\n  dup2\n  mstore\n  0x20\n  add\n  0x4d00000000000000000000000000000000000000000000000000000000000000\n  dup2\n  mstore\n  pop\n  dup2\n  mstore\n  pop\n    /* \"tests/task_2/task_2_3_.sol\":348:389  romanSymbols.push(RomanSymbol(1000, \"M\")) */\n  swap1\n  dup1\n  0x01\n  dup2\n  sload\n  add\n  dup1\n  dup3\n  sstore\n  dup1\n  swap2\n  pop\n  pop\n  0x01\n  swap1\n  sub\n  swap1\n  0x00\n  mstore\n  keccak256(0x00, 0x20)\n  swap1\n  0x02\n  mul\n  add\n  0x00\n  swap1\n  swap2\n  swap1\n  swap2\n  swap1\n  swap2\n  pop\n  0x00\n  dup3\n  add\n  mload\n  dup2\n  0x00\n  add\n  sstore\n  0x20\n  dup3\n  add\n  mload\n  dup2\n  0x01\n  add\n  swap1\n  dup2\n  tag_5\n  swap2\n  swap1\n  tag_6\n  jump\t// in\ntag_5:\n  pop\n  pop\n  pop\n    /* \"tests/task_2/task_2_3_.sol\":400:412  romanSymbols */\n  0x00\n    /* \"tests/task_2/task_2_3_.sol\":418:440  RomanSymbol(900, \"CM\") */\n  mload(0x40)\n  dup1\n  0x40\n  add\n  0x40\n  mstore\n  dup1\n    /* \"tests/task_2/task_2_3_.sol\":430:433  900 */\n  0x0384\n    /* \"tests/task_2/task_2_3_.sol\":418:440  RomanSymbol(900, \"CM\") */\n  dup2\n  mstore\n  0x20\n  add\n  mload(0x40)\n  dup1\n  0x40\n  add\n  0x40\n  mstore\n  dup1\n  0x02\n  dup2\n  mstore\n  0x20\n  add\n  0x434d000000000000000000000000000000000000000000000000000000000000\n  dup2\n  mstore\n  pop\n  dup2\n  mstore\n  pop\n    /* \"tests/task_2/task_2_3_.sol\":400:441  romanSymbols.push(RomanSymbol(900, \"CM\")) */\n  swap1\n  dup1\n  0x01\n  dup2\n  sload\n  add\n  dup1\n  dup3\n  sstore\n  dup1\n  swap2\n  pop\n  pop\n  0x01\n  swap1\n  sub\n  swap1\n  0x00\n  mstore\n  keccak256(0x00, 0x20)\n  swap1\n  0x02\n  mul\n  add\n  0x00\n  swap1\n  swap2\n  swap1\n  swap2\n  swap1\n  swap2\n  pop\n  0x00\n  dup3\n  add\n  mload\n  dup2\n  0x00\n  add\n  sstore\n  0x20\n  dup3\n  add\n  mload\n  dup2\n  0x01\n  add\n  swap1\n  dup2\n  tag_8\n  swap2\n  swap1\n  tag_6\n  jump\t// in\ntag_8:\n  pop\n  pop\n  pop\n    /* \"tests/task_2/task_2_3_.sol\":452:464  romanSymbols */\n  0x00\n    /* \"tests/task_2/task_2_3_.sol\":470:491  RomanSymbol(500, \"D\") */\n  mload(0x40)\n  dup1\n  0x40\n  add\n  0x40\n  mstore\n  dup1\n    /* \"tests/task_2/task_2_3_.sol\":482:485  500 */\n  0x01f4\n    /* \"tests/task_2/task_2_3_.sol\":470:491  RomanSymbol(500, \"D\") */\n  dup2\n  mstore\n  0x20\n  add\n  mload(0x40)\n  dup1\n  0x40\n  add\n  0x40\n  mstore\n  dup1\n  0x01\n  dup2\n  mstore\n  0x20\n  add\n  0x4400000000000000000000000000000000000000000000000000000000000000\n  dup2\n  mstore\n  pop\n  dup2\n  mstore\n  pop\n    /* \"tests/task_2/task_2_3_.sol\":452:492  romanSymbols.push(RomanSymbol(500, \"D\")) */\n  swap1\n  dup1\n  0x01\n  dup2\n  sload\n  add\n  dup1\n  dup3\n  sstore\n  dup1\n  swap2\n  pop\n  pop\n  0x01\n  swap1\n  sub\n  swap1\n  0x00\n  mstore\n  keccak256(0x00, 0x20)\n  swap1\n  0x02\n  mul\n  add\n  0x00\n  swap1\n  swap2\n  swap1\n  swap2\n  swap1\n  swap2\n  pop\n  0x00\n  dup3\n  add\n  mload\n  dup2\n  0x00\n  add\n  sstore\n  0x20\n  dup3\n  add\n  mload\n  dup2\n  0x01\n  add\n  swap1\n  dup2\n  tag_10\n  swap2\n  swap1\n  tag_6\n  jump\t// in\ntag_10:\n  pop\n  pop\n  pop\n    /* \"tests/task_2/task_2_3_.sol\":503:515  romanSymbols */\n  0x00\n    /* \"tests/task_2/task_2_3_.sol\":521:543  RomanSymbol(400, \"CD\") */\n  mload(0x40)\n  dup1\n  0x40\n  add\n  0x40\n  mstore\n  dup1\n    /* \"tests/task_2/task_2_3_.sol\":533:536  400 */\n  0x0190\n    /* \"tests/task_2/task_2_3_.sol\":521:543  RomanSymbol(400, \"CD\") */\n  dup2\n  mstore\n  0x20\n  add\n  mload(0x40)\n  dup1\n  0x40\n  add\n  0x40\n  mstore\n  dup1\n  0x02\n  dup2\n  mstore\n  0x20\n  add\n  0x4344000000000000000000000000000000000000000000000000000000000000\n  dup2\n  mstore\n  pop\n  dup2\n  mstore\n  pop\n    /* \"tests/task_2/task_2_3_.sol\":503:544  romanSymbols.push(RomanSymbol(400, \"CD\")) */\n  swap1\n  dup1\n  0x01\n  dup2\n  sload\n  add\n  dup1\n  dup3\n  sstore\n  dup1\n  swap2\n  pop\n  pop\n  0x01\n  swap1\n  sub\n  swap1\n  0x00\n  mstore\n  keccak256(0x00, 0x20)\n  swap1\n  0x02\n  mul\n  add\n  0x00\n  swap1\n  swap2\n  swap1\n  swap2\n  swap1\n  swap2\n  pop\n  0x00\n  dup3\n  add\n  mload\n  dup2\n  0x00\n  add\n  sstore\n  0x20\n  dup3\n  add\n  mload\n  dup2\n  0x01\n  add\n  swap1\n  dup2\n  tag_12\n  swap2\n  swap1\n  tag_6\n  jump\t// in\ntag_12:\n  pop\n  pop\n  pop\n    /* \"tests/task_2/task_2_3_.sol\":555:567  romanSymbols */\n  0x00\n    /* \"tests/task_2/task_2_3_.sol\":573:594  RomanSymbol(100, \"C\") */\n  mload(0x40)\n  dup1\n  0x40\n  add\n  0x40\n  mstore\n  dup1\n    /* \"tests/task_2/task_2_3_.sol\":585:588  100 */\n  0x64\n    /* \"tests/task_2/task_2_3_.sol\":573:594  RomanSymbol(100, \"C\") */\n  dup2\n  mstore\n  0x20\n  add\n  mload(0x40)\n  dup1\n  0x40\n  add\n  0x40\n  mstore\n  dup1\n  0x01\n  dup2\n  mstore\n  0x20\n  add\n  0x4300000000000000000000000000000000000000000000000000000000000000\n  dup2\n  mstore\n  pop\n  dup2\n  mstore\n  pop\n    /* \"tests/task_2/task_2_3_.sol\":555:595  romanSymbols.push(RomanSymbol(100, \"C\")) */\n  swap1\n  dup1\n  0x01\n  dup2\n  sload\n  add\n  dup1\n  dup3\n  sstore\n  dup1\n  swap2\n  pop\n  pop\n  0x01\n  swap1\n  sub\n  swap1\n  0x00\n  mstore\n  keccak256(0x00, 0x20)\n  swap1\n  0x02\n  mul\n  add\n  0x00\n  swap1\n  swap2\n  swap1\n  swap2\n  swap1\n  swap2\n  pop\n  0x00\n  dup3\n  add\n  mload\n  dup2\n  0x00\n  add\n  sstore\n  0x20\n  dup3\n  add\n  mload\n  dup2\n  0x01\n  add\n  swap1\n  dup2\n  tag_14\n  swap2\n  swap1\n  tag_6\n  jump\t// in\ntag_14:\n  pop\n  pop\n  pop\n    /* \"tests/task_2/task_2_3_.sol\":606:618  romanSymbols */\n  0x00\n    /* \"tests/task_2/task_2_3_.sol\":624:645  RomanSymbol(90, \"XC\") */\n  mload(0x40)\n  dup1\n  0x40\n  add\n  0x40\n  mstore\n  dup1\n    /* \"tests/task_2/task_2_3_.sol\":636:638  90 */\n  0x5a\n    /* \"tests/task_2/task_2_3_.sol\":624:645  RomanSymbol(90, \"XC\") */\n  dup2\n  mstore\n  0x20\n  add\n  mload(0x40)\n  dup1\n  0x40\n  add\n  0x40\n  mstore\n  dup1\n  0x02\n  dup2\n  mstore\n  0x20\n  add\n  0x5843000000000000000000000000000000000000000000000000000000000000\n  dup2\n  mstore\n  pop\n  dup2\n  mstore\n  pop\n    /* \"tests/task_2/task_2_3_.sol\":606:646  romanSymbols.push(RomanSymbol(90, \"XC\")) */\n  swap1\n  dup1\n  0x01\n  dup2\n  sload\n  add\n  dup1\n  dup3\n  sstore\n  dup1\n  swap2\n  pop\n  pop\n  0x01\n  swap1\n  sub\n  swap1\n  0x00\n  mstore\n  keccak256(0x00, 0x20)\n  swap1\n  0x02\n  mul\n  add\n  0x00\n  swap1\n  swap2\n  swap1\n  swap2\n  swap1\n  swap2\n  pop\n  0x00\n  dup3\n  add\n  mload\n  dup2\n  0x00\n  add\n  sstore\n  0x20\n  dup3\n  add\n  mload\n  dup2\n  0x01\n  add\n  swap1\n  dup2\n  tag_16\n  swap2\n  swap1\n  tag_6\n  jump\t// in\ntag_16:\n  pop\n  pop\n  pop\n    /* \"tests/task_2/task_2_3_.sol\":657:669  romanSymbols */\n  0x00\n    /* \"tests/task_2/task_2_3_.sol\":675:695  RomanSymbol(50, \"L\") */\n  mload(0x40)\n  dup1\n  0x40\n  add\n  0x40\n  mstore\n  dup1\n    /* \"tests/task_2/task_2_3_.sol\":687:689  50 */\n  0x32\n    /* \"tests/task_2/task_2_3_.sol\":675:695  RomanSymbol(50, \"L\") */\n  dup2\n  mstore\n  0x20\n  add\n  mload(0x40)\n  dup1\n  0x40\n  add\n  0x40\n  mstore\n  dup1\n  0x01\n  dup2\n  mstore\n  0x20\n  add\n  0x4c00000000000000000000000000000000000000000000000000000000000000\n  dup2\n  mstore\n  pop\n  dup2\n  mstore\n  pop\n    /* \"tests/task_2/task_2_3_.sol\":657:696  romanSymbols.push(RomanSymbol(50, \"L\")) */\n  swap1\n  dup1\n  0x01\n  dup2\n  sload\n  add\n  dup1\n  dup3\n  sstore\n  dup1\n  swap2\n  pop\n  pop\n  0x01\n  swap1\n  sub\n  swap1\n  0x00\n  mstore\n  keccak256(0x00, 0x20)\n  swap1\n  0x02\n  mul\n  add\n  0x00\n  swap1\n  swap2\n  swap1\n  swap2\n  swap1\n  swap2\n  pop\n  0x00\n  dup3\n  add\n  mload\n  dup2\n  0x00\n  add\n  sstore\n  0x20\n  dup3\n  add\n  mload\n  dup2\n  0x01\n  add\n  swap1\n  dup2\n  tag_18\n  swap2\n  swap1\n  tag_6\n  jump\t// in\ntag_18:\n  pop\n  pop\n  pop\n    /* \"tests/task_2/task_2_3_.sol\":707:719  romanSymbols */\n  0x00\n    /* \"tests/task_2/task_2_3_.sol\":725:746  RomanSymbol(40, \"XL\") */\n  mload(0x40)\n  dup1\n  0x40\n  add\n  0x40\n  mstore\n  dup1\n    /* \"tests/task_2/task_2_3_.sol\":737:739  40 */\n  0x28\n    /* \"tests/task_2/task_2_3_.sol\":725:746  RomanSymbol(40, \"XL\") */\n  dup2\n  mstore\n  0x20\n  add\n  mload(0x40)\n  dup1\n  0x40\n  add\n  0x40\n  mstore\n  dup1\n  0x02\n  dup2\n  mstore\n  0x20\n  add\n  0x584c000000000000000000000000000000000000000000000000000000000000\n  dup2\n  mstore\n  pop\n  dup2\n  mstore\n  pop\n    /* \"tests/task_2/task_2_3_.sol\":707:747  romanSymbols.push(RomanSymbol(40, \"XL\")) */\n  swap1\n  dup1\n  0x01\n  dup2\n  sload\n  add\n  dup1\n  dup3\n  sstore\n  dup1\n  swap2\n  pop\n  pop\n  0x01\n  swap1\n  sub\n  swap1\n  0x00\n  mstore\n  keccak256(0x00, 0x20)\n  swap1\n  0x02\n  mul\n  add\n  0x00\n  swap1\n  swap2\n  swap1\n  swap2\n  swap1\n  swap2\n  pop\n  0x00\n  dup3\n  add\n  mload\n  dup2\n  0x00\n  add\n  sstore\n  0x20\n  dup3\n  add\n  mload\n  dup2\n  0x01\n  add\n  swap1\n  dup2\n  tag_20\n  swap2\n  swap1\n  tag_6\n  jump\t// in\ntag_20:\n  pop\n  pop\n  pop\n    /* \"tests/task_2/task_2_3_.sol\":758:770  romanSymbols */\n  0x00\n    /* \"tests/task_2/task_2_3_.sol\":776:796  RomanSymbol(10, \"X\") */\n  mload(0x40)\n  dup1\n  0x40\n  add\n  0x40\n  mstore\n  dup1\n    /* \"tests/task_2/task_2_3_.sol\":788:790  10 */\n  0x0a\n    /* \"tests/task_2/task_2_3_.sol\":776:796  RomanSymbol(10, \"X\") */\n  dup2\n  mstore\n  0x20\n  add\n  mload(0x40)\n  dup1\n  0x40\n  add\n  0x40\n  mstore\n  dup1\n  0x01\n  dup2\n  mstore\n  0x20\n  add\n  0x5800000000000000000000000000000000000000000000000000000000000000\n  dup2\n  mstore\n  pop\n  dup2\n  mstore\n  pop\n    /* \"tests/task_2/task_2_3_.sol\":758:797  romanSymbols.push(RomanSymbol(10, \"X\")) */\n  swap1\n  dup1\n  0x01\n  dup2\n  sload\n  add\n  dup1\n  dup3\n  sstore\n  dup1\n  swap2\n  pop\n  pop\n  0x01\n  swap1\n  sub\n  swap1\n  0x00\n  mstore\n  keccak256(0x00, 0x20)\n  swap1\n  0x02\n  mul\n  add\n  0x00\n  swap1\n  swap2\n  swap1\n  swap2\n  swap1\n  swap2\n  pop\n  0x00\n  dup3\n  add\n  mload\n  dup2\n  0x00\n  add\n  sstore\n  0x20\n  dup3\n  add\n  mload\n  dup2\n  0x01\n  add\n  swap1\n  dup2\n  tag_22\n  swap2\n  swap1\n  tag_6\n  jump\t// in\ntag_22:\n  pop\n  pop\n  pop\n    /* \"tests/task_2/task_2_3_.sol\":808:820  romanSymbols */\n  0x00\n    /* \"tests/task_2/task_2_3_.sol\":826:846  RomanSymbol(9, \"IX\") */\n  mload(0x40)\n  dup1\n  0x40\n  add\n  0x40\n  mstore\n  dup1\n    /* \"tests/task_2/task_2_3_.sol\":838:839  9 */\n  0x09\n    /* \"tests/task_2/task_2_3_.sol\":826:846  RomanSymbol(9, \"IX\") */\n  dup2\n  mstore\n  0x20\n  add\n  mload(0x40)\n  dup1\n  0x40\n  add\n  0x40\n  mstore\n  dup1\n  0x02\n  dup2\n  mstore\n  0x20\n  add\n  0x4958000000000000000000000000000000000000000000000000000000000000\n  dup2\n  mstore\n  pop\n  dup2\n  mstore\n  pop\n    /* \"tests/task_2/task_2_3_.sol\":808:847  romanSymbols.push(RomanSymbol(9, \"IX\")) */\n  swap1\n  dup1\n  0x01\n  dup2\n  sload\n  add\n  dup1\n  dup3\n  sstore\n  dup1\n  swap2\n  pop\n  pop\n  0x01\n  swap1\n  sub\n  swap1\n  0x00\n  mstore\n  keccak256(0x00, 0x20)\n  swap1\n  0x02\n  mul\n  add\n  0x00\n  swap1\n  swap2\n  swap1\n  swap2\n  swap1\n  swap2\n  pop\n  0x00\n  dup3\n  add\n  mload\n  dup2\n  0x00\n  add\n  sstore\n  0x20\n  dup3\n  add\n  mload\n  dup2\n  0x01\n  add\n  swap1\n  dup2\n  tag_24\n  swap2\n  swap1\n  tag_6\n  jump\t// in\ntag_24:\n  pop\n  pop\n  pop\n    /* \"tests/task_2/task_2_3_.sol\":858:870  romanSymbols */\n  0x00\n    /* \"tests/task_2/task_2_3_.sol\":876:895  RomanSymbol(5, \"V\") */\n  mload(0x40)\n  dup1\n  0x40\n  add\n  0x40\n  mstore\n  dup1\n    /* \"tests/task_2/task_2_3_.sol\":888:889  5 */\n  0x05\n    /* \"tests/task_2/task_2_3_.sol\":876:895  RomanSymbol(5, \"V\") */\n  dup2\n  mstore\n  0x20\n  add\n  mload(0x40)\n  dup1\n  0x40\n  add\n  0x40\n  mstore\n  dup1\n  0x01\n  dup2\n  mstore\n  0x20\n  add\n  0x5600000000000000000000000000000000000000000000000000000000000000\n  dup2\n  mstore\n  pop\n  dup2\n  mstore\n  pop\n    /* \"tests/task_2/task_2_3_.sol\":858:896  romanSymbols.push(RomanSymbol(5, \"V\")) */\n  swap1\n  dup1\n  0x01\n  dup2\n  sload\n  add\n  dup1\n  dup3\n  sstore\n  dup1\n  swap2\n  pop\n  pop\n  0x01\n  swap1\n  sub\n  swap1\n  0x00\n  mstore\n  keccak256(0x00, 0x20)\n  swap1\n  0x02\n  mul\n  add\n  0x00\n  swap1\n  swap2\n  swap1\n  swap2\n  swap1\n  swap2\n  pop\n  0x00\n  dup3\n  add\n  mload\n  dup2\n  0x00\n  add\n  sstore\n  0x20\n  dup3\n  add\n  mload\n  dup2\n  0x01\n  add\n  swap1\n  dup2\n  tag_26\n  swap2\n  swap1\n  tag_6\n  jump\t// in\ntag_26:\n  pop\n  pop\n  pop\n    /* \"tests/task_2/task_2_3_.sol\":907:919  romanSymbols */\n  0x00\n    /* \"tests/task_2/task_2_3_.sol\":925:945  RomanSymbol(4, \"IV\") */\n  mload(0x40)\n  dup1\n  0x40\n  add\n  0x40\n  mstore\n  dup1\n    /* \"tests/task_2/task_2_3_.sol\":937:938  4 */\n  0x04\n    /* \"tests/task_2/task_2_3_.sol\":925:945  RomanSymbol(4, \"IV\") */\n  dup2\n  mstore\n  0x20\n  add\n  mload(0x40)\n  dup1\n  0x40\n  add\n  0x40\n  mstore\n  dup1\n  0x02\n  dup2\n  mstore\n  0x20\n  add\n  0x4956000000000000000000000000000000000000000000000000000000000000\n  dup2\n  mstore\n  pop\n  dup2\n  mstore\n  pop\n    /* \"tests/task_2/task_2_3_.sol\":907:946  romanSymbols.push(RomanSymbol(4, \"IV\")) */\n  swap1\n  dup1\n  0x01\n  dup2\n  sload\n  add\n  dup1\n  dup3\n  sstore\n  dup1\n  swap2\n  pop\n  pop\n  0x01\n  swap1\n  sub\n  swap1\n  0x00\n  mstore\n  keccak256(0x00, 0x20)\n  swap1\n  0x02\n  mul\n  add\n  0x00\n  swap1\n  swap2\n  swap1\n  swap2\n  swap1\n  swap2\n  pop\n  0x00\n  dup3\n  add\n  mload\n  dup2\n  0x00\n  add\n  sstore\n  0x20\n  dup3\n  add\n  mload\n  dup2\n  0x01\n  add\n  swap1\n  dup2\n  tag_28\n  swap2\n  swap1\n  tag_6\n  jump\t// in\ntag_28:\n  pop\n  pop\n  pop\n    /* \"tests/task_2/task_2_3_.sol\":957:969  romanSymbols */\n  0x00\n    /* \"tests/task_2/task_2_3_.sol\":975:994  RomanSymbol(1, \"I\") */\n  mload(0x40)\n  dup1\n  0x40\n  add\n  0x40\n  mstore\n  dup1\n    /* \"tests/task_2/task_2_3_.sol\":987:988  1 */\n  0x01\n    /* \"tests/task_2/task_2_3_.sol\":975:994  RomanSymbol(1, \"I\") */\n  dup2\n  mstore\n  0x20\n  add\n  mload(0x40)\n  dup1\n  0x40\n  add\n  0x40\n  mstore\n  dup1\n  0x01\n  dup2\n  mstore\n  0x20\n  add\n  0x4900000000000000000000000000000000000000000000000000000000000000\n  dup2\n  mstore\n  pop\n  dup2\n  mstore\n  pop\n    /* \"tests/task_2/task_2_3_.sol\":957:995  romanSymbols.push(RomanSymbol(1, \"I\")) */\n  swap1\n  dup1\n  0x01\n  dup2\n  sload\n  add\n  dup1\n  dup3\n  sstore\n  dup1\n  swap2\n  pop\n  pop\n  0x01\n  swap1\n  sub\n  swap1\n  0x00\n  mstore\n  keccak256(0x00, 0x20)\n  swap1\n  0x02\n  mul\n  add\n  0x00\n  swap1\n  swap2\n  swap1\n  swap2\n  swap1\n  swap2\n  pop\n  0x00\n  dup3\n  add\n  mload\n  dup2\n  0x00\n  add\n  sstore\n  0x20\n  dup3\n  add\n  mload\n  dup2\n  0x01\n  add\n  swap1\n  dup2\n  tag_30\n  swap2\n  swap1\n  tag_6\n  jump\t// in\ntag_30:\n  pop\n  pop\n  pop\n    /* \"tests/task_2/task_2_3_.sol\":110:1637  contract RomanNumerals {... */\n  jump(tag_31)\n    /* \"#utility.yul\":7:106   */\ntag_32:\n    /* \"#utility.yul\":59:65   */\n  0x00\n    /* \"#utility.yul\":93:98   */\n  dup2\n    /* \"#utility.yul\":87:99   */\n  mload\n    /* \"#utility.yul\":77:99   */\n  swap1\n  pop\n    /* \"#utility.yul\":7:106   */\n  swap2\n  swap1\n  pop\n  jump\t// out\n    /* \"#utility.yul\":112:292   */\ntag_33:\n    /* \"#utility.yul\":160:237   */\n  0x4e487b7100000000000000000000000000000000000000000000000000000000\n    /* \"#utility.yul\":157:158   */\n  0x00\n    /* \"#utility.yul\":150:238   */\n  mstore\n    /* \"#utility.yul\":257:261   */\n  0x41\n    /* \"#utility.yul\":254:255   */\n  0x04\n    /* \"#utility.yul\":247:262   */\n  mstore\n    /* \"#utility.yul\":281:285   */\n  0x24\n    /* \"#utility.yul\":278:279   */\n  0x00\n    /* \"#utility.yul\":271:286   */\n  revert\n    /* \"#utility.yul\":298:478   */\ntag_34:\n    /* \"#utility.yul\":346:423   */\n  0x4e487b7100000000000000000000000000000000000000000000000000000000\n    /* \"#utility.yul\":343:344   */\n  0x00\n    /* \"#utility.yul\":336:424   */\n  mstore\n    /* \"#utility.yul\":443:447   */\n  0x22\n    /* \"#utility.yul\":440:441   */\n  0x04\n    /* \"#utility.yul\":433:448   */\n  mstore\n    /* \"#utility.yul\":467:471   */\n  0x24\n    /* \"#utility.yul\":464:465   */\n  0x00\n    /* \"#utility.yul\":457:472   */\n  revert\n    /* \"#utility.yul\":484:804   */\ntag_35:\n    /* \"#utility.yul\":528:534   */\n  0x00\n    /* \"#utility.yul\":565:566   */\n  0x02\n    /* \"#utility.yul\":559:563   */\n  dup3\n    /* \"#utility.yul\":555:567   */\n  div\n    /* \"#utility.yul\":545:567   */\n  swap1\n  pop\n    /* \"#utility.yul\":612:613   */\n  0x01\n    /* \"#utility.yul\":606:610   */\n  dup3\n    /* \"#utility.yul\":602:614   */\n  and\n    /* \"#utility.yul\":633:651   */\n  dup1\n    /* \"#utility.yul\":623:704   */\n  tag_57\n  jumpi\n    /* \"#utility.yul\":689:693   */\n  0x7f\n    /* \"#utility.yul\":681:687   */\n  dup3\n    /* \"#utility.yul\":677:694   */\n  and\n    /* \"#utility.yul\":667:694   */\n  swap2\n  pop\n    /* \"#utility.yul\":623:704   */\ntag_57:\n    /* \"#utility.yul\":751:753   */\n  0x20\n    /* \"#utility.yul\":743:749   */\n  dup3\n    /* \"#utility.yul\":740:754   */\n  lt\n    /* \"#utility.yul\":720:738   */\n  dup2\n    /* \"#utility.yul\":717:755   */\n  sub\n    /* \"#utility.yul\":714:798   */\n  tag_58\n  jumpi\n    /* \"#utility.yul\":770:788   */\n  tag_59\n  tag_34\n  jump\t// in\ntag_59:\n    /* \"#utility.yul\":714:798   */\ntag_58:\n    /* \"#utility.yul\":535:804   */\n  pop\n    /* \"#utility.yul\":484:804   */\n  swap2\n  swap1\n  pop\n  jump\t// out\n    /* \"#utility.yul\":810:951   */\ntag_36:\n    /* \"#utility.yul\":859:863   */\n  0x00\n    /* \"#utility.yul\":882:885   */\n  dup2\n    /* \"#utility.yul\":874:885   */\n  swap1\n  pop\n    /* \"#utility.yul\":905:908   */\n  dup2\n    /* \"#utility.yul\":902:903   */\n  0x00\n    /* \"#utility.yul\":895:909   */\n  mstore\n    /* \"#utility.yul\":939:943   */\n  0x20\n    /* \"#utility.yul\":936:937   */\n  0x00\n    /* \"#utility.yul\":926:944   */\n  keccak256\n    /* \"#utility.yul\":918:944   */\n  swap1\n  pop\n    /* \"#utility.yul\":810:951   */\n  swap2\n  swap1\n  pop\n  jump\t// out\n    /* \"#utility.yul\":957:1050   */\ntag_37:\n    /* \"#utility.yul\":994:1000   */\n  0x00\n    /* \"#utility.yul\":1041:1043   */\n  0x20\n    /* \"#utility.yul\":1036:1038   */\n  0x1f\n    /* \"#utility.yul\":1029:1034   */\n  dup4\n    /* \"#utility.yul\":1025:1039   */\n  add\n    /* \"#utility.yul\":1021:1044   */\n  div\n    /* \"#utility.yul\":1011:1044   */\n  swap1\n  pop\n    /* \"#utility.yul\":957:1050   */\n  swap2\n  swap1\n  pop\n  jump\t// out\n    /* \"#utility.yul\":1056:1163   */\ntag_38:\n    /* \"#utility.yul\":1100:1108   */\n  0x00\n    /* \"#utility.yul\":1150:1155   */\n  dup3\n    /* \"#utility.yul\":1144:1148   */\n  dup3\n    /* \"#utility.yul\":1140:1156   */\n  shl\n    /* \"#utility.yul\":1119:1156   */\n  swap1\n  pop\n    /* \"#utility.yul\":1056:1163   */\n  swap3\n  swap2\n  pop\n  pop\n  jump\t// out\n    /* \"#utility.yul\":1169:1562   */\ntag_39:\n    /* \"#utility.yul\":1238:1244   */\n  0x00\n    /* \"#utility.yul\":1288:1289   */\n  0x08\n    /* \"#utility.yul\":1276:1286   */\n  dup4\n    /* \"#utility.yul\":1272:1290   */\n  mul\n    /* \"#utility.yul\":1311:1408   */\n  tag_64\n    /* \"#utility.yul\":1341:1407   */\n  0xffffffffffffffffffffffffffffffffffffffffffffffffffffffffffffffff\n    /* \"#utility.yul\":1330:1339   */\n  dup3\n    /* \"#utility.yul\":1311:1408   */\n  tag_38\n  jump\t// in\ntag_64:\n    /* \"#utility.yul\":1429:1468   */\n  tag_65\n    /* \"#utility.yul\":1459:1467   */\n  dup7\n    /* \"#utility.yul\":1448:1457   */\n  dup4\n    /* \"#utility.yul\":1429:1468   */\n  tag_38\n  jump\t// in\ntag_65:\n    /* \"#utility.yul\":1417:1468   */\n  swap6\n  pop\n    /* \"#utility.yul\":1501:1505   */\n  dup1\n    /* \"#utility.yul\":1497:1506   */\n  not\n    /* \"#utility.yul\":1490:1495   */\n  dup5\n    /* \"#utility.yul\":1486:1507   */\n  and\n    /* \"#utility.yul\":1477:1507   */\n  swap4\n  pop\n    /* \"#utility.yul\":1550:1554   */\n  dup1\n    /* \"#utility.yul\":1540:1548   */\n  dup7\n    /* \"#utility.yul\":1536:1555   */\n  and\n    /* \"#utility.yul\":1529:1534   */\n  dup5\n    /* \"#utility.yul\":1526:1556   */\n  or\n    /* \"#utility.yul\":1516:1556   */\n  swap3\n  pop\n    /* \"#utility.yul\":1245:1562   */\n  pop\n  pop\n    /* \"#utility.yul\":1169:1562   */\n  swap4\n  swap3\n  pop\n  pop\n  pop\n  jump\t// out\n    /* \"#utility.yul\":1568:1645   */\ntag_40:\n    /* \"#utility.yul\":1605:1612   */\n  0x00\n    /* \"#utility.yul\":1634:1639   */\n  dup2\n    /* \"#utility.yul\":1623:1639   */\n  swap1\n  pop\n    /* \"#utility.yul\":1568:1645   */\n  swap2\n  swap1\n  pop\n  jump\t// out\n    /* \"#utility.yul\":1651:1711   */\ntag_41:\n    /* \"#utility.yul\":1679:1682   */\n  0x00\n    /* \"#utility.yul\":1700:1705   */\n  dup2\n    /* \"#utility.yul\":1693:1705   */\n  swap1\n  pop\n    /* \"#utility.yul\":1651:1711   */\n  swap2\n  swap1\n  pop\n  jump\t// out\n    /* \"#utility.yul\":1717:1859   */\ntag_42:\n    /* \"#utility.yul\":1767:1776   */\n  0x00\n    /* \"#utility.yul\":1800:1853   */\n  tag_69\n    /* \"#utility.yul\":1818:1852   */\n  tag_70\n    /* \"#utility.yul\":1827:1851   */\n  tag_71\n    /* \"#utility.yul\":1845:1850   */\n  dup5\n    /* \"#utility.yul\":1827:1851   */\n  tag_40\n  jump\t// in\ntag_71:\n    /* \"#utility.yul\":1818:1852   */\n  tag_41\n  jump\t// in\ntag_70:\n    /* \"#utility.yul\":1800:1853   */\n  tag_40\n  jump\t// in\ntag_69:\n    /* \"#utility.yul\":1787:1853   */\n  swap1\n  pop\n    /* \"#utility.yul\":1717:1859   */\n  swap2\n  swap1\n  pop\n  jump\t// out\n    /* \"#utility.yul\":1865:1940   */\ntag_43:\n    /* \"#utility.yul\":1908:1911   */\n  0x00\n    /* \"#utility.yul\":1929:1934   */\n  dup2\n    /* \"#utility.yul\":1922:1934   */\n  swap1\n  pop\n    /* \"#utility.yul\":1865:1940   */\n  swap2\n  swap1\n  pop\n  jump\t// out\n    /* \"#utility.yul\":1946:2215   */\ntag_44:\n    /* \"#utility.yul\":2056:2095   */\n  tag_74\n    /* \"#utility.yul\":2087:2094   */\n  dup4\n    /* \"#utility.yul\":2056:2095   */\n  tag_42\n  jump\t// in\ntag_74:\n    /* \"#utility.yul\":2117:2208   */\n  tag_75\n    /* \"#utility.yul\":2166:2207   */\n  tag_76\n    /* \"#utility.yul\":2190:2206   */\n  dup3\n    /* \"#utility.yul\":2166:2207   */\n  tag_43\n  jump\t// in\ntag_76:\n    /* \"#utility.yul\":2158:2164   */\n  dup5\n    /* \"#utility.yul\":2151:2155   */\n  dup5\n    /* \"#utility.yul\":2145:2156   */\n  sload\n    /* \"#utility.yul\":2117:2208   */\n  tag_39\n  jump\t// in\ntag_75:\n    /* \"#utility.yul\":2111:2115   */\n  dup3\n    /* \"#utility.yul\":2104:2209   */\n  sstore\n    /* \"#utility.yul\":2022:2215   */\n  pop\n    /* \"#utility.yul\":1946:2215   */\n  pop\n  pop\n  pop\n  jump\t// out\n    /* \"#utility.yul\":2221:2294   */\ntag_45:\n    /* \"#utility.yul\":2266:2269   */\n  0x00\n    /* \"#utility.yul\":2287:2288   */\n  0x00\n    /* \"#utility.yul\":2280:2288   */\n  swap1\n  pop\n    /* \"#utility.yul\":2221:2294   */\n  swap1\n  jump\t// out\n    /* \"#utility.yul\":2300:2489   */\ntag_46:\n    /* \"#utility.yul\":2377:2409   */\n  tag_79\n  tag_45\n  jump\t// in\ntag_79:\n    /* \"#utility.yul\":2418:2483   */\n  tag_80\n    /* \"#utility.yul\":2476:2482   */\n  dup2\n    /* \"#utility.yul\":2468:2474   */\n  dup5\n    /* \"#utility.yul\":2462:2466   */\n  dup5\n    /* \"#utility.yul\":2418:2483   */\n  tag_44\n  jump\t// in\ntag_80:\n    /* \"#utility.yul\":2353:2489   */\n  pop\n    /* \"#utility.yul\":2300:2489   */\n  pop\n  pop\n  jump\t// out\n    /* \"#utility.yul\":2495:2681   */\ntag_47:\n    /* \"#utility.yul\":2555:2675   */\ntag_82:\n    /* \"#utility.yul\":2572:2575   */\n  dup2\n    /* \"#utility.yul\":2565:2570   */\n  dup2\n    /* \"#utility.yul\":2562:2576   */\n  lt\n    /* \"#utility.yul\":2555:2675   */\n  iszero\n  tag_84\n  jumpi\n    /* \"#utility.yul\":2626:2665   */\n  tag_85\n    /* \"#utility.yul\":2663:2664   */\n  0x00\n    /* \"#utility.yul\":2656:2661   */\n  dup3\n    /* \"#utility.yul\":2626:2665   */\n  tag_46\n  jump\t// in\ntag_85:\n    /* \"#utility.yul\":2599:2600   */\n  0x01\n    /* \"#utility.yul\":2592:2597   */\n  dup2\n    /* \"#utility.yul\":2588:2601   */\n  add\n    /* \"#utility.yul\":2579:2601   */\n  swap1\n  pop\n    /* \"#utility.yul\":2555:2675   */\n  jump(tag_82)\ntag_84:\n    /* \"#utility.yul\":2495:2681   */\n  pop\n  pop\n  jump\t// out\n    /* \"#utility.yul\":2687:3230   */\ntag_48:\n    /* \"#utility.yul\":2788:2790   */\n  0x1f\n    /* \"#utility.yul\":2783:2786   */\n  dup3\n    /* \"#utility.yul\":2780:2791   */\n  gt\n    /* \"#utility.yul\":2777:3223   */\n  iszero\n  tag_87\n  jumpi\n    /* \"#utility.yul\":2822:2860   */\n  tag_88\n    /* \"#utility.yul\":2854:2859   */\n  dup2\n    /* \"#utility.yul\":2822:2860   */\n  tag_36\n  jump\t// in\ntag_88:\n    /* \"#utility.yul\":2906:2935   */\n  tag_89\n    /* \"#utility.yul\":2924:2934   */\n  dup5\n    /* \"#utility.yul\":2906:2935   */\n  tag_37\n  jump\t// in\ntag_89:\n    /* \"#utility.yul\":2896:2904   */\n  dup2\n    /* \"#utility.yul\":2892:2936   */\n  add\n    /* \"#utility.yul\":3089:3091   */\n  0x20\n    /* \"#utility.yul\":3077:3087   */\n  dup6\n    /* \"#utility.yul\":3074:3092   */\n  lt\n    /* \"#utility.yul\":3071:3120   */\n  iszero\n  tag_90\n  jumpi\n    /* \"#utility.yul\":3110:3118   */\n  dup2\n    /* \"#utility.yul\":3095:3118   */\n  swap1\n  pop\n    /* \"#utility.yul\":3071:3120   */\ntag_90:\n    /* \"#utility.yul\":3133:3213   */\n  tag_91\n    /* \"#utility.yul\":3189:3211   */\n  tag_92\n    /* \"#utility.yul\":3207:3210   */\n  dup6\n    /* \"#utility.yul\":3189:3211   */\n  tag_37\n  jump\t// in\ntag_92:\n    /* \"#utility.yul\":3179:3187   */\n  dup4\n    /* \"#utility.yul\":3175:3212   */\n  add\n    /* \"#utility.yul\":3162:3173   */\n  dup3\n    /* \"#utility.yul\":3133:3213   */\n  tag_47\n  jump\t// in\ntag_91:\n    /* \"#utility.yul\":2792:3223   */\n  pop\n  pop\n    /* \"#utility.yul\":2777:3223   */\ntag_87:\n    /* \"#utility.yul\":2687:3230   */\n  pop\n  pop\n  pop\n  jump\t// out\n    /* \"#utility.yul\":3236:3353   */\ntag_49:\n    /* \"#utility.yul\":3290:3298   */\n  0x00\n    /* \"#utility.yul\":3340:3345   */\n  dup3\n    /* \"#utility.yul\":3334:3338   */\n  dup3\n    /* \"#utility.yul\":3330:3346   */\n  shr\n    /* \"#utility.yul\":3309:3346   */\n  swap1\n  pop\n    /* \"#utility.yul\":3236:3353   */\n  swap3\n  swap2\n  pop\n  pop\n  jump\t// out\n    /* \"#utility.yul\":3359:3528   */\ntag_50:\n    /* \"#utility.yul\":3403:3409   */\n  0x00\n    /* \"#utility.yul\":3436:3487   */\n  tag_95\n    /* \"#utility.yul\":3484:3485   */\n  0x00\n    /* \"#utility.yul\":3480:3486   */\n  not\n    /* \"#utility.yul\":3472:3477   */\n  dup5\n    /* \"#utility.yul\":3469:3470   */\n  0x08\n    /* \"#utility.yul\":3465:3478   */\n  mul\n    /* \"#utility.yul\":3436:3487   */\n  tag_49\n  jump\t// in\ntag_95:\n    /* \"#utility.yul\":3432:3488   */\n  not\n    /* \"#utility.yul\":3517:3521   */\n  dup1\n    /* \"#utility.yul\":3511:3515   */\n  dup4\n    /* \"#utility.yul\":3507:3522   */\n  and\n    /* \"#utility.yul\":3497:3522   */\n  swap2\n  pop\n    /* \"#utility.yul\":3410:3528   */\n  pop\n    /* \"#utility.yul\":3359:3528   */\n  swap3\n  swap2\n  pop\n  pop\n  jump\t// out\n    /* \"#utility.yul\":3533:3828   */\ntag_51:\n    /* \"#utility.yul\":3609:3613   */\n  0x00\n    /* \"#utility.yul\":3755:3784   */\n  tag_97\n    /* \"#utility.yul\":3780:3783   */\n  dup4\n    /* \"#utility.yul\":3774:3778   */\n  dup4\n    /* \"#utility.yul\":3755:3784   */\n  tag_50\n  jump\t// in\ntag_97:\n    /* \"#utility.yul\":3747:3784   */\n  swap2\n  pop\n    /* \"#utility.yul\":3817:3820   */\n  dup3\n    /* \"#utility.yul\":3814:3815   */\n  0x02\n    /* \"#utility.yul\":3810:3821   */\n  mul\n    /* \"#utility.yul\":3804:3808   */\n  dup3\n    /* \"#utility.yul\":3801:3822   */\n  or\n    /* \"#utility.yul\":3793:3822   */\n  swap1\n  pop\n    /* \"#utility.yul\":3533:3828   */\n  swap3\n  swap2\n  pop\n  pop\n  jump\t// out\n    /* \"#utility.yul\":3833:5228   */\ntag_6:\n    /* \"#utility.yul\":3950:3987   */\n  tag_99\n    /* \"#utility.yul\":3983:3986   */\n  dup3\n    /* \"#utility.yul\":3950:3987   */\n  tag_32\n  jump\t// in\ntag_99:\n    /* \"#utility.yul\":4052:4070   */\n  0xffffffffffffffff\n    /* \"#utility.yul\":4044:4050   */\n  dup2\n    /* \"#utility.yul\":4041:4071   */\n  gt\n    /* \"#utility.yul\":4038:4094   */\n  iszero\n  tag_100\n  jumpi\n    /* \"#utility.yul\":4074:4092   */\n  tag_101\n  tag_33\n  jump\t// in\ntag_101:\n    /* \"#utility.yul\":4038:4094   */\ntag_100:\n    /* \"#utility.yul\":4118:4156   */\n  tag_102\n    /* \"#utility.yul\":4150:4154   */\n  dup3\n    /* \"#utility.yul\":4144:4155   */\n  sload\n    /* \"#utility.yul\":4118:4156   */\n  tag_35\n  jump\t// in\ntag_102:\n    /* \"#utility.yul\":4203:4270   */\n  tag_103\n    /* \"#utility.yul\":4263:4269   */\n  dup3\n    /* \"#utility.yul\":4255:4261   */\n  dup3\n    /* \"#utility.yul\":4249:4253   */\n  dup6\n    /* \"#utility.yul\":4203:4270   */\n  tag_48\n  jump\t// in\ntag_103:\n    /* \"#utility.yul\":4297:4298   */\n  0x00\n    /* \"#utility.yul\":4321:4325   */\n  0x20\n    /* \"#utility.yul\":4308:4325   */\n  swap1\n  pop\n    /* \"#utility.yul\":4353:4355   */\n  0x1f\n    /* \"#utility.yul\":4345:4351   */\n  dup4\n    /* \"#utility.yul\":4342:4356   */\n  gt\n    /* \"#utility.yul\":4370:4371   */\n  0x01\n    /* \"#utility.yul\":4365:4983   */\n  dup2\n  eq\n  tag_105\n  jumpi\n    /* \"#utility.yul\":5027:5028   */\n  0x00\n    /* \"#utility.yul\":5044:5050   */\n  dup5\n    /* \"#utility.yul\":5041:5118   */\n  iszero\n  tag_106\n  jumpi\n    /* \"#utility.yul\":5093:5102   */\n  dup3\n    /* \"#utility.yul\":5088:5091   */\n  dup8\n    /* \"#utility.yul\":5084:5103   */\n  add\n    /* \"#utility.yul\":5078:5104   */\n  mload\n    /* \"#utility.yul\":5069:5104   */\n  swap1\n  pop\n    /* \"#utility.yul\":5041:5118   */\ntag_106:\n    /* \"#utility.yul\":5144:5211   */\n  tag_107\n    /* \"#utility.yul\":5204:5210   */\n  dup6\n    /* \"#utility.yul\":5197:5202   */\n  dup3\n    /* \"#utility.yul\":5144:5211   */\n  tag_51\n  jump\t// in\ntag_107:\n    /* \"#utility.yul\":5138:5142   */\n  dup7\n    /* \"#utility.yul\":5131:5212   */\n  sstore\n    /* \"#utility.yul\":5000:5222   */\n  pop\n    /* \"#utility.yul\":4335:5222   */\n  jump(tag_104)\n    /* \"#utility.yul\":4365:4983   */\ntag_105:\n    /* \"#utility.yul\":4417:4421   */\n  0x1f\n    /* \"#utility.yul\":4413:4422   */\n  not\n    /* \"#utility.yul\":4405:4411   */\n  dup5\n    /* \"#utility.yul\":4401:4423   */\n  and\n    /* \"#utility.yul\":4451:4488   */\n  tag_108\n    /* \"#utility.yul\":4483:4487   */\n  dup7\n    /* \"#utility.yul\":4451:4488   */\n  tag_36\n  jump\t// in\ntag_108:\n    /* \"#utility.yul\":4510:4511   */\n  0x00\n    /* \"#utility.yul\":4524:4732   */\ntag_109:\n    /* \"#utility.yul\":4538:4545   */\n  dup3\n    /* \"#utility.yul\":4535:4536   */\n  dup2\n    /* \"#utility.yul\":4532:4546   */\n  lt\n    /* \"#utility.yul\":4524:4732   */\n  iszero\n  tag_111\n  jumpi\n    /* \"#utility.yul\":4617:4626   */\n  dup5\n    /* \"#utility.yul\":4612:4615   */\n  dup10\n    /* \"#utility.yul\":4608:4627   */\n  add\n    /* \"#utility.yul\":4602:4628   */\n  mload\n    /* \"#utility.yul\":4594:4600   */\n  dup3\n    /* \"#utility.yul\":4587:4629   */\n  sstore\n    /* \"#utility.yul\":4668:4669   */\n  0x01\n    /* \"#utility.yul\":4660:4666   */\n  dup3\n    /* \"#utility.yul\":4656:4670   */\n  add\n    /* \"#utility.yul\":4646:4670   */\n  swap2\n  pop\n    /* \"#utility.yul\":4715:4717   */\n  0x20\n    /* \"#utility.yul\":4704:4713   */\n  dup6\n    /* \"#utility.yul\":4700:4718   */\n  add\n    /* \"#utility.yul\":4687:4718   */\n  swap5\n  pop\n    /* \"#utility.yul\":4561:4565   */\n  0x20\n    /* \"#utility.yul\":4558:4559   */\n  dup2\n    /* \"#utility.yul\":4554:4566   */\n  add\n    /* \"#utility.yul\":4549:4566   */\n  swap1\n  pop\n    /* \"#utility.yul\":4524:4732   */\n  jump(tag_109)\ntag_111:\n    /* \"#utility.yul\":4760:4766   */\n  dup7\n    /* \"#utility.yul\":4751:4758   */\n  dup4\n    /* \"#utility.yul\":4748:4767   */\n  lt\n    /* \"#utility.yul\":4745:4924   */\n  iszero\n  tag_112\n  jumpi\n    /* \"#utility.yul\":4818:4827   */\n  dup5\n    /* \"#utility.yul\":4813:4816   */\n  dup10\n    /* \"#utility.yul\":4809:4828   */\n  add\n    /* \"#utility.yul\":4803:4829   */\n  mload\n    /* \"#utility.yul\":4861:4909   */\n  tag_113\n    /* \"#utility.yul\":4903:4907   */\n  0x1f\n    /* \"#utility.yul\":4895:4901   */\n  dup10\n    /* \"#utility.yul\":4891:4908   */\n  and\n    /* \"#utility.yul\":4880:4889   */\n  dup3\n    /* \"#utility.yul\":4861:4909   */\n  tag_50\n  jump\t// in\ntag_113:\n    /* \"#utility.yul\":4853:4859   */\n  dup4\n    /* \"#utility.yul\":4846:4910   */\n  sstore\n    /* \"#utility.yul\":4768:4924   */\n  pop\n    /* \"#utility.yul\":4745:4924   */\ntag_112:\n    /* \"#utility.yul\":4970:4971   */\n  0x01\n    /* \"#utility.yul\":4966:4967   */\n  0x02\n    /* \"#utility.yul\":4958:4964   */\n  dup9\n    /* \"#utility.yul\":4954:4968   */\n  mul\n    /* \"#utility.yul\":4950:4972   */\n  add\n    /* \"#utility.yul\":4944:4948   */\n  dup9\n    /* \"#utility.yul\":4937:4973   */\n  sstore\n    /* \"#utility.yul\":4372:4983   */\n  pop\n  pop\n  pop\n    /* \"#utility.yul\":4335:5222   */\ntag_104:\n  pop\n    /* \"#utility.yul\":3925:5228   */\n  pop\n  pop\n  pop\n    /* \"#utility.yul\":3833:5228   */\n  pop\n  pop\n  jump\t// out\n    /* \"tests/task_2/task_2_3_.sol\":110:1637  contract RomanNumerals {... */\ntag_31:\n  dataSize(sub_0)\n  dup1\n  dataOffset(sub_0)\n  0x00\n  codecopy\n  0x00\n  return\nstop\n\nsub_0: assembly {\n        /* \"tests/task_2/task_2_3_.sol\":110:1637  contract RomanNumerals {... */\n      mstore(0x40, 0x80)\n      callvalue\n      dup1\n      iszero\n      tag_1\n      jumpi\n      revert(0x00, 0x00)\n    tag_1:\n      pop\n      jumpi(tag_2, lt(calldatasize, 0x04))\n      shr(0xe0, calldataload(0x00))\n      dup1\n      0xab7baabe\n      eq\n      tag_3\n      jumpi\n    tag_2:\n      revert(0x00, 0x00)\n        /* \"tests/task_2/task_2_3_.sol\":1010:1624  function toRoman(uint256 num) public view returns (string memory) {... */\n    tag_3:\n      tag_4\n      0x04\n      dup1\n      calldatasize\n      sub\n      dup2\n      add\n      swap1\n      tag_5\n      swap2\n      swap1\n      tag_6\n      jump\t// in\n    tag_5:\n      tag_7\n      jump\t// in\n    tag_4:\n      mload(0x40)\n      tag_8\n      swap2\n      swap1\n      tag_9\n      jump\t// in\n    tag_8:\n      mload(0x40)\n      dup1\n      swap2\n      sub\n      swap1\n      return\n    tag_7:\n        /* \"tests/task_2/task_2_3_.sol\":1061:1074  string memory */\n      0x60\n        /* \"tests/task_2/task_2_3_.sol\":1101:1102  0 */\n      0x00\n        /* \"tests/task_2/task_2_3_.sol\":1095:1098  num */\n      dup3\n        /* \"tests/task_2/task_2_3_.sol\":1095:1102  num > 0 */\n      gt\n        /* \"tests/task_2/task_2_3_.sol\":1095:1116  num > 0 && num < 4000 */\n      dup1\n      iszero\n      tag_11\n      jumpi\n      pop\n        /* \"tests/task_2/task_2_3_.sol\":1112:1116  4000 */\n      0x0fa0\n        /* \"tests/task_2/task_2_3_.sol\":1106:1109  num */\n      dup3\n        /* \"tests/task_2/task_2_3_.sol\":1106:1116  num < 4000 */\n      lt\n        /* \"tests/task_2/task_2_3_.sol\":1095:1116  num > 0 && num < 4000 */\n    tag_11:\n        /* \"tests/task_2/task_2_3_.sol\":1087:1149  require(num > 0 && num < 4000, \"Number out of range (1-3999)\") */\n      tag_12\n      jumpi\n      mload(0x40)\n      0x08c379a000000000000000000000000000000000000000000000000000000000\n      dup2\n      mstore\n      0x04\n      add\n      tag_13\n      swap1\n      tag_14\n      jump\t// in\n    tag_13:\n      mload(0x40)\n      dup1\n      swap2\n      sub\n      swap1\n      revert\n    tag_12:\n        /* \"tests/task_2/task_2_3_.sol\":1170:1188  bytes memory roman */\n      0x60\n        /* \"tests/task_2/task_2_3_.sol\":1199:1216  uint256 remaining */\n      0x00\n        /* \"tests/task_2/task_2_3_.sol\":1219:1222  num */\n      dup4\n        /* \"tests/task_2/task_2_3_.sol\":1199:1222  uint256 remaining = num */\n      swap1\n      pop\n        /* \"tests/task_2/task_2_3_.sol\":1298:1307  uint256 i */\n      0x00\n        /* \"tests/task_2/task_2_3_.sol\":1310:1311  0 */\n      0x00\n        /* \"tests/task_2/task_2_3_.sol\":1298:1311  uint256 i = 0 */\n      swap1\n      pop\n        /* \"tests/task_2/task_2_3_.sol\":1293:1586  for (uint256 i = 0; i < romanSymbols.length; i++) {... */\n    tag_15:\n        /* \"tests/task_2/task_2_3_.sol\":1317:1329  romanSymbols */\n      0x00\n        /* \"tests/task_2/task_2_3_.sol\":1317:1336  romanSymbols.length */\n      dup1\n      sload\n      swap1\n      pop\n        /* \"tests/task_2/task_2_3_.sol\":1313:1314  i */\n      dup2\n        /* \"tests/task_2/task_2_3_.sol\":1313:1336  i < romanSymbols.length */\n      lt\n        /* \"tests/task_2/task_2_3_.sol\":1293:1586  for (uint256 i = 0; i < romanSymbols.length; i++) {... */\n      iszero\n      tag_16\n      jumpi\n        /* \"tests/task_2/task_2_3_.sol\":1358:1383  RomanSymbol memory symbol */\n      0x00\n        /* \"tests/task_2/task_2_3_.sol\":1386:1398  romanSymbols */\n      0x00\n        /* \"tests/task_2/task_2_3_.sol\":1399:1400  i */\n      dup3\n        /* \"tests/task_2/task_2_3_.sol\":1386:1401  romanSymbols[i] */\n      dup2\n      sload\n      dup2\n      lt\n      tag_18\n      jumpi\n      tag_19\n      tag_20\n      jump\t// in\n    tag_19:\n    tag_18:\n      swap1\n      0x00\n      mstore\n      keccak256(0x00, 0x20)\n      swap1\n      0x02\n      mul\n      add\n        /* \"tests/task_2/task_2_3_.sol\":1358:1401  RomanSymbol memory symbol = romanSymbols[i] */\n      mload(0x40)\n      dup1\n      0x40\n      add\n      0x40\n      mstore\n      swap1\n      dup2\n      0x00\n      dup3\n      add\n      sload\n      dup2\n      mstore\n      0x20\n      add\n      0x01\n      dup3\n      add\n      dup1\n      sload\n      tag_22\n      swap1\n      tag_23\n      jump\t// in\n    tag_22:\n      dup1\n      0x1f\n      add\n      0x20\n      dup1\n      swap2\n      div\n      mul\n      0x20\n      add\n      mload(0x40)\n      swap1\n      dup2\n      add\n      0x40\n      mstore\n      dup1\n      swap3\n      swap2\n      swap1\n      dup2\n      dup2\n      mstore\n      0x20\n      add\n      dup3\n      dup1\n      sload\n      tag_24\n      swap1\n      tag_23\n      jump\t// in\n    tag_24:\n      dup1\n      iszero\n      tag_25\n      jumpi\n      dup1\n      0x1f\n      lt\n      tag_26\n      jumpi\n      0x0100\n      dup1\n      dup4\n      sload\n      div\n      mul\n      dup4\n      mstore\n      swap2\n      0x20\n      add\n      swap2\n      jump(tag_25)\n    tag_26:\n      dup3\n      add\n      swap2\n      swap1\n      0x00\n      mstore\n      keccak256(0x00, 0x20)\n      swap1\n    tag_27:\n      dup2\n      sload\n      dup2\n      mstore\n      swap1\n      0x01\n      add\n      swap1\n      0x20\n      add\n      dup1\n      dup4\n      gt\n      tag_27\n      jumpi\n      dup3\n      swap1\n      sub\n      0x1f\n      and\n      dup3\n      add\n      swap2\n    tag_25:\n      pop\n      pop\n      pop\n      pop\n      pop\n      dup2\n      mstore\n      pop\n      pop\n      swap1\n      pop\n        /* \"tests/task_2/task_2_3_.sol\":1416:1575  while (remaining >= symbol.value) {... */\n    tag_28:\n        /* \"tests/task_2/task_2_3_.sol\":1436:1442  symbol */\n      dup1\n        /* \"tests/task_2/task_2_3_.sol\":1436:1448  symbol.value */\n      0x00\n      add\n      mload\n        /* \"tests/task_2/task_2_3_.sol\":1423:1432  remaining */\n      dup4\n        /* \"tests/task_2/task_2_3_.sol\":1423:1448  remaining >= symbol.value */\n      lt\n        /* \"tests/task_2/task_2_3_.sol\":1416:1575  while (remaining >= symbol.value) {... */\n      tag_29\n      jumpi\n        /* \"tests/task_2/task_2_3_.sol\":1494:1499  roman */\n      dup4\n        /* \"tests/task_2/task_2_3_.sol\":1501:1507  symbol */\n      dup2\n        /* \"tests/task_2/task_2_3_.sol\":1501:1514  symbol.symbol */\n      0x20\n      add\n      mload\n        /* \"tests/task_2/task_2_3_.sol\":1477:1515  abi.encodePacked(roman, symbol.symbol) */\n      add(0x20, mload(0x40))\n      tag_30\n      swap3\n      swap2\n      swap1\n      tag_31\n      jump\t// in\n    tag_30:\n      mload(0x40)\n      0x20\n      dup2\n      dup4\n      sub\n      sub\n      dup2\n      mstore\n      swap1\n      0x40\n      mstore\n        /* \"tests/task_2/task_2_3_.sol\":1469:1515  roman = abi.encodePacked(roman, symbol.symbol) */\n      swap4\n      pop\n        /* \"tests/task_2/task_2_3_.sol\":1547:1553  symbol */\n      dup1\n        /* \"tests/task_2/task_2_3_.sol\":1547:1559  symbol.value */\n      0x00\n      add\n      mload\n        /* \"tests/task_2/task_2_3_.sol\":1534:1559  remaining -= symbol.value */\n      dup4\n      tag_32\n      swap2\n      swap1\n      tag_33\n      jump\t// in\n    tag_32:\n      swap3\n      pop\n        /* \"tests/task_2/task_2_3_.sol\":1416:1575  while (remaining >= symbol.value) {... */\n      jump(tag_28)\n    tag_29:\n        /* \"tests/task_2/task_2_3_.sol\":1343:1586  {... */\n      pop\n        /* \"tests/task_2/task_2_3_.sol\":1338:1341  i++ */\n      dup1\n      dup1\n      0x01\n      add\n      swap2\n      pop\n      pop\n        /* \"tests/task_2/task_2_3_.sol\":1293:1586  for (uint256 i = 0; i < romanSymbols.length; i++) {... */\n      jump(tag_15)\n    tag_16:\n      pop\n        /* \"tests/task_2/task_2_3_.sol\":1610:1615  roman */\n      dup2\n        /* \"tests/task_2/task_2_3_.sol\":1596:1616  return string(roman) */\n      swap3\n      pop\n      pop\n      pop\n        /* \"tests/task_2/task_2_3_.sol\":1010:1624  function toRoman(uint256 num) public view returns (string memory) {... */\n      swap2\n      swap1\n      pop\n      jump\t// out\n        /* \"#utility.yul\":88:205   */\n    tag_35:\n        /* \"#utility.yul\":197:198   */\n      0x00\n        /* \"#utility.yul\":194:195   */\n      0x00\n        /* \"#utility.yul\":187:199   */\n      revert\n        /* \"#utility.yul\":334:411   */\n    tag_37:\n        /* \"#utility.yul\":371:378   */\n      0x00\n        /* \"#utility.yul\":400:405   */\n      dup2\n        /* \"#utility.yul\":389:405   */\n      swap1\n      pop\n        /* \"#utility.yul\":334:411   */\n      swap2\n      swap1\n      pop\n      jump\t// out\n        /* \"#utility.yul\":417:539   */\n    tag_38:\n        /* \"#utility.yul\":490:514   */\n      tag_60\n        /* \"#utility.yul\":508:513   */\n      dup2\n        /* \"#utility.yul\":490:514   */\n      tag_37\n      jump\t// in\n    tag_60:\n        /* \"#utility.yul\":483:488   */\n      dup2\n        /* \"#utility.yul\":480:515   */\n      eq\n        /* \"#utility.yul\":470:533   */\n      tag_61\n      jumpi\n        /* \"#utility.yul\":529:530   */\n      0x00\n        /* \"#utility.yul\":526:527   */\n      0x00\n        /* \"#utility.yul\":519:531   */\n      revert\n        /* \"#utility.yul\":470:533   */\n    tag_61:\n        /* \"#utility.yul\":417:539   */\n      pop\n      jump\t// out\n        /* \"#utility.yul\":545:684   */\n    tag_39:\n        /* \"#utility.yul\":591:596   */\n      0x00\n        /* \"#utility.yul\":629:635   */\n      dup2\n        /* \"#utility.yul\":616:636   */\n      calldataload\n        /* \"#utility.yul\":607:636   */\n      swap1\n      pop\n        /* \"#utility.yul\":645:678   */\n      tag_63\n        /* \"#utility.yul\":672:677   */\n      dup2\n        /* \"#utility.yul\":645:678   */\n      tag_38\n      jump\t// in\n    tag_63:\n        /* \"#utility.yul\":545:684   */\n      swap3\n      swap2\n      pop\n      pop\n      jump\t// out\n        /* \"#utility.yul\":690:1019   */\n    tag_6:\n        /* \"#utility.yul\":749:755   */\n      0x00\n        /* \"#utility.yul\":798:800   */\n      0x20\n        /* \"#utility.yul\":786:795   */\n      dup3\n        /* \"#utility.yul\":777:784   */\n      dup5\n        /* \"#utility.yul\":773:796   */\n      sub\n        /* \"#utility.yul\":769:801   */\n      slt\n        /* \"#utility.yul\":766:885   */\n      iszero\n      tag_65\n      jumpi\n        /* \"#utility.yul\":804:883   */\n      tag_66\n      tag_35\n      jump\t// in\n    tag_66:\n        /* \"#utility.yul\":766:885   */\n    tag_65:\n        /* \"#utility.yul\":924:925   */\n      0x00\n        /* \"#utility.yul\":949:1002   */\n      tag_67\n        /* \"#utility.yul\":994:1001   */\n      dup5\n        /* \"#utility.yul\":985:991   */\n      dup3\n        /* \"#utility.yul\":974:983   */\n      dup6\n        /* \"#utility.yul\":970:992   */\n      add\n        /* \"#utility.yul\":949:1002   */\n      tag_39\n      jump\t// in\n    tag_67:\n        /* \"#utility.yul\":939:1002   */\n      swap2\n      pop\n        /* \"#utility.yul\":895:1012   */\n      pop\n        /* \"#utility.yul\":690:1019   */\n      swap3\n      swap2\n      pop\n      pop\n      jump\t// out\n        /* \"#utility.yul\":1025:1124   */\n    tag_40:\n        /* \"#utility.yul\":1077:1083   */\n      0x00\n        /* \"#utility.yul\":1111:1116   */\n      dup2\n        /* \"#utility.yul\":1105:1117   */\n      mload\n        /* \"#utility.yul\":1095:1117   */\n      swap1\n      pop\n        /* \"#utility.yul\":1025:1124   */\n      swap2\n      swap1\n      pop\n      jump\t// out\n        /* \"#utility.yul\":1130:1299   */\n    tag_41:\n        /* \"#utility.yul\":1214:1225   */\n      0x00\n        /* \"#utility.yul\":1248:1254   */\n      dup3\n        /* \"#utility.yul\":1243:1246   */\n      dup3\n        /* \"#utility.yul\":1236:1255   */\n      mstore\n        /* \"#utility.yul\":1288:1292   */\n      0x20\n        /* \"#utility.yul\":1283:1286   */\n      dup3\n        /* \"#utility.yul\":1279:1293   */\n      add\n        /* \"#utility.yul\":1264:1293   */\n      swap1\n      pop\n        /* \"#utility.yul\":1130:1299   */\n      swap3\n      swap2\n      pop\n      pop\n      jump\t// out\n        /* \"#utility.yul\":1305:1444   */\n    tag_42:\n        /* \"#utility.yul\":1394:1400   */\n      dup3\n        /* \"#utility.yul\":1389:1392   */\n      dup2\n        /* \"#utility.yul\":1384:1387   */\n      dup4\n        /* \"#utility.yul\":1378:1401   */\n      mcopy\n        /* \"#utility.yul\":1435:1436   */\n      0x00\n        /* \"#utility.yul\":1426:1432   */\n      dup4\n        /* \"#utility.yul\":1421:1424   */\n      dup4\n        /* \"#utility.yul\":1417:1433   */\n      add\n        /* \"#utility.yul\":1410:1437   */\n      mstore\n        /* \"#utility.yul\":1305:1444   */\n      pop\n      pop\n      pop\n      jump\t// out\n        /* \"#utility.yul\":1450:1552   */\n    tag_43:\n        /* \"#utility.yul\":1491:1497   */\n      0x00\n        /* \"#utility.yul\":1542:1544   */\n      0x1f\n        /* \"#utility.yul\":1538:1545   */\n      not\n        /* \"#utility.yul\":1533:1535   */\n      0x1f\n        /* \"#utility.yul\":1526:1531   */\n      dup4\n        /* \"#utility.yul\":1522:1536   */\n      add\n        /* \"#utility.yul\":1518:1546   */\n      and\n        /* \"#utility.yul\":1508:1546   */\n      swap1\n      pop\n        /* \"#utility.yul\":1450:1552   */\n      swap2\n      swap1\n      pop\n      jump\t// out\n        /* \"#utility.yul\":1558:1935   */\n    tag_44:\n        /* \"#utility.yul\":1646:1649   */\n      0x00\n        /* \"#utility.yul\":1674:1713   */\n      tag_73\n        /* \"#utility.yul\":1707:1712   */\n      dup3\n        /* \"#utility.yul\":1674:1713   */\n      tag_40\n      jump\t// in\n    tag_73:\n        /* \"#utility.yul\":1729:1800   */\n      tag_74\n        /* \"#utility.yul\":1793:1799   */\n      dup2\n        /* \"#utility.yul\":1788:1791   */\n      dup6\n        /* \"#utility.yul\":1729:1800   */\n      tag_41\n      jump\t// in\n    tag_74:\n        /* \"#utility.yul\":1722:1800   */\n      swap4\n      pop\n        /* \"#utility.yul\":1809:1874   */\n      tag_75\n        /* \"#utility.yul\":1867:1873   */\n      dup2\n        /* \"#utility.yul\":1862:1865   */\n      dup6\n        /* \"#utility.yul\":1855:1859   */\n      0x20\n        /* \"#utility.yul\":1848:1853   */\n      dup7\n        /* \"#utility.yul\":1844:1860   */\n      add\n        /* \"#utility.yul\":1809:1874   */\n      tag_42\n      jump\t// in\n    tag_75:\n        /* \"#utility.yul\":1899:1928   */\n      tag_76\n        /* \"#utility.yul\":1921:1927   */\n      dup2\n        /* \"#utility.yul\":1899:1928   */\n      tag_43\n      jump\t// in\n    tag_76:\n        /* \"#utility.yul\":1894:1897   */\n      dup5\n        /* \"#utility.yul\":1890:1929   */\n      add\n        /* \"#utility.yul\":1883:1929   */\n      swap2\n      pop\n        /* \"#utility.yul\":1650:1935   */\n      pop\n        /* \"#utility.yul\":1558:1935   */\n      swap3\n      swap2\n      pop\n      pop\n      jump\t// out\n        /* \"#utility.yul\":1941:2254   */\n    tag_9:\n        /* \"#utility.yul\":2054:2058   */\n      0x00\n        /* \"#utility.yul\":2092:2094   */\n      0x20\n        /* \"#utility.yul\":2081:2090   */\n      dup3\n        /* \"#utility.yul\":2077:2095   */\n      add\n        /* \"#utility.yul\":2069:2095   */\n      swap1\n      pop\n        /* \"#utility.yul\":2141:2150   */\n      dup2\n        /* \"#utility.yul\":2135:2139   */\n      dup2\n        /* \"#utility.yul\":2131:2151   */\n      sub\n        /* \"#utility.yul\":2127:2128   */\n      0x00\n        /* \"#utility.yul\":2116:2125   */\n      dup4\n        /* \"#utility.yul\":2112:2129   */\n      add\n        /* \"#utility.yul\":2105:2152   */\n      mstore\n        /* \"#utility.yul\":2169:2247   */\n      tag_78\n        /* \"#utility.yul\":2242:2246   */\n      dup2\n        /* \"#utility.yul\":2233:2239   */\n      dup5\n        /* \"#utility.yul\":2169:2247   */\n      tag_44\n      jump\t// in\n    tag_78:\n        /* \"#utility.yul\":2161:2247   */\n      swap1\n      pop\n        /* \"#utility.yul\":1941:2254   */\n      swap3\n      swap2\n      pop\n      pop\n      jump\t// out\n        /* \"#utility.yul\":2260:2438   */\n    tag_45:\n        /* \"#utility.yul\":2400:2430   */\n      0x4e756d626572206f7574206f662072616e67652028312d333939392900000000\n        /* \"#utility.yul\":2396:2397   */\n      0x00\n        /* \"#utility.yul\":2388:2394   */\n      dup3\n        /* \"#utility.yul\":2384:2398   */\n      add\n        /* \"#utility.yul\":2377:2431   */\n      mstore\n        /* \"#utility.yul\":2260:2438   */\n      pop\n      jump\t// out\n        /* \"#utility.yul\":2444:2810   */\n    tag_46:\n        /* \"#utility.yul\":2586:2589   */\n      0x00\n        /* \"#utility.yul\":2607:2674   */\n      tag_81\n        /* \"#utility.yul\":2671:2673   */\n      0x1c\n        /* \"#utility.yul\":2666:2669   */\n      dup4\n        /* \"#utility.yul\":2607:2674   */\n      tag_41\n      jump\t// in\n    tag_81:\n        /* \"#utility.yul\":2600:2674   */\n      swap2\n      pop\n        /* \"#utility.yul\":2683:2776   */\n      tag_82\n        /* \"#utility.yul\":2772:2775   */\n      dup3\n        /* \"#utility.yul\":2683:2776   */\n      tag_45\n      jump\t// in\n    tag_82:\n        /* \"#utility.yul\":2801:2803   */\n      0x20\n        /* \"#utility.yul\":2796:2799   */\n      dup3\n        /* \"#utility.yul\":2792:2804   */\n      add\n        /* \"#utility.yul\":2785:2804   */\n      swap1\n      pop\n        /* \"#utility.yul\":2444:2810   */\n      swap2\n      swap1\n      pop\n      jump\t// out\n        /* \"#utility.yul\":2816:3235   */\n    tag_14:\n        /* \"#utility.yul\":2982:2986   */\n      0x00\n        /* \"#utility.yul\":3020:3022   */\n      0x20\n        /* \"#utility.yul\":3009:3018   */\n      dup3\n        /* \"#utility.yul\":3005:3023   */\n      add\n        /* \"#utility.yul\":2997:3023   */\n      swap1\n      pop\n        /* \"#utility.yul\":3069:3078   */\n      dup2\n        /* \"#utility.yul\":3063:3067   */\n      dup2\n        /* \"#utility.yul\":3059:3079   */\n      sub\n        /* \"#utility.yul\":3055:3056   */\n      0x00\n        /* \"#utility.yul\":3044:3053   */\n      dup4\n        /* \"#utility.yul\":3040:3057   */\n      add\n        /* \"#utility.yul\":3033:3080   */\n      mstore\n        /* \"#utility.yul\":3097:3228   */\n      tag_84\n        /* \"#utility.yul\":3223:3227   */\n      dup2\n        /* \"#utility.yul\":3097:3228   */\n      tag_46\n      jump\t// in\n    tag_84:\n        /* \"#utility.yul\":3089:3228   */\n      swap1\n      pop\n        /* \"#utility.yul\":2816:3235   */\n      swap2\n      swap1\n      pop\n      jump\t// out\n        /* \"#utility.yul\":3241:3421   */\n    tag_20:\n        /* \"#utility.yul\":3289:3366   */\n      0x4e487b7100000000000000000000000000000000000000000000000000000000\n        /* \"#utility.yul\":3286:3287   */\n      0x00\n        /* \"#utility.yul\":3279:3367   */\n      mstore\n        /* \"#utility.yul\":3386:3390   */\n      0x32\n        /* \"#utility.yul\":3383:3384   */\n      0x04\n        /* \"#utility.yul\":3376:3391   */\n      mstore\n        /* \"#utility.yul\":3410:3414   */\n      0x24\n        /* \"#utility.yul\":3407:3408   */\n      0x00\n        /* \"#utility.yul\":3400:3415   */\n      revert\n        /* \"#utility.yul\":3427:3607   */\n    tag_47:\n        /* \"#utility.yul\":3475:3552   */\n      0x4e487b7100000000000000000000000000000000000000000000000000000000\n        /* \"#utility.yul\":3472:3473   */\n      0x00\n        /* \"#utility.yul\":3465:3553   */\n      mstore\n        /* \"#utility.yul\":3572:3576   */\n      0x22\n        /* \"#utility.yul\":3569:3570   */\n      0x04\n        /* \"#utility.yul\":3562:3577   */\n      mstore\n        /* \"#utility.yul\":3596:3600   */\n      0x24\n        /* \"#utility.yul\":3593:3594   */\n      0x00\n        /* \"#utility.yul\":3586:3601   */\n      revert\n        /* \"#utility.yul\":3613:3933   */\n    tag_23:\n        /* \"#utility.yul\":3657:3663   */\n      0x00\n        /* \"#utility.yul\":3694:3695   */\n      0x02\n        /* \"#utility.yul\":3688:3692   */\n      dup3\n        /* \"#utility.yul\":3684:3696   */\n      div\n        /* \"#utility.yul\":3674:3696   */\n      swap1\n      pop\n        /* \"#utility.yul\":3741:3742   */\n      0x01\n        /* \"#utility.yul\":3735:3739   */\n      dup3\n        /* \"#utility.yul\":3731:3743   */\n      and\n        /* \"#utility.yul\":3762:3780   */\n      dup1\n        /* \"#utility.yul\":3752:3833   */\n      tag_88\n      jumpi\n        /* \"#utility.yul\":3818:3822   */\n      0x7f\n        /* \"#utility.yul\":3810:3816   */\n      dup3\n        /* \"#utility.yul\":3806:3823   */\n      and\n        /* \"#utility.yul\":3796:3823   */\n      swap2\n      pop\n        /* \"#utility.yul\":3752:3833   */\n    tag_88:\n        /* \"#utility.yul\":3880:3882   */\n      0x20\n        /* \"#utility.yul\":3872:3878   */\n      dup3\n        /* \"#utility.yul\":3869:3883   */\n      lt\n        /* \"#utility.yul\":3849:3867   */\n      dup2\n        /* \"#utility.yul\":3846:3884   */\n      sub\n        /* \"#utility.yul\":3843:3927   */\n      tag_89\n      jumpi\n        /* \"#utility.yul\":3899:3917   */\n      tag_90\n      tag_47\n      jump\t// in\n    tag_90:\n        /* \"#utility.yul\":3843:3927   */\n    tag_89:\n        /* \"#utility.yul\":3664:3933   */\n      pop\n        /* \"#utility.yul\":3613:3933   */\n      swap2\n      swap1\n      pop\n      jump\t// out\n        /* \"#utility.yul\":3939:4037   */\n    tag_48:\n        /* \"#utility.yul\":3990:3996   */\n      0x00\n        /* \"#utility.yul\":4024:4029   */\n      dup2\n        /* \"#utility.yul\":4018:4030   */\n      mload\n        /* \"#utility.yul\":4008:4030   */\n      swap1\n      pop\n        /* \"#utility.yul\":3939:4037   */\n      swap2\n      swap1\n      pop\n      jump\t// out\n        /* \"#utility.yul\":4043:4190   */\n    tag_49:\n        /* \"#utility.yul\":4144:4155   */\n      0x00\n        /* \"#utility.yul\":4181:4184   */\n      dup2\n        /* \"#utility.yul\":4166:4184   */\n      swap1\n      pop\n        /* \"#utility.yul\":4043:4190   */\n      swap3\n      swap2\n      pop\n      pop\n      jump\t// out\n        /* \"#utility.yul\":4196:4582   */\n    tag_50:\n        /* \"#utility.yul\":4300:4303   */\n      0x00\n        /* \"#utility.yul\":4328:4366   */\n      tag_94\n        /* \"#utility.yul\":4360:4365   */\n      dup3\n        /* \"#utility.yul\":4328:4366   */\n      tag_48\n      jump\t// in\n    tag_94:\n        /* \"#utility.yul\":4382:4470   */\n      tag_95\n        /* \"#utility.yul\":4463:4469   */\n      dup2\n        /* \"#utility.yul\":4458:4461   */\n      dup6\n        /* \"#utility.yul\":4382:4470   */\n      tag_49\n      jump\t// in\n    tag_95:\n        /* \"#utility.yul\":4375:4470   */\n      swap4\n      pop\n        /* \"#utility.yul\":4479:4544   */\n      tag_96\n        /* \"#utility.yul\":4537:4543   */\n      dup2\n        /* \"#utility.yul\":4532:4535   */\n      dup6\n        /* \"#utility.yul\":4525:4529   */\n      0x20\n        /* \"#utility.yul\":4518:4523   */\n      dup7\n        /* \"#utility.yul\":4514:4530   */\n      add\n        /* \"#utility.yul\":4479:4544   */\n      tag_42\n      jump\t// in\n    tag_96:\n        /* \"#utility.yul\":4569:4575   */\n      dup1\n        /* \"#utility.yul\":4564:4567   */\n      dup5\n        /* \"#utility.yul\":4560:4576   */\n      add\n        /* \"#utility.yul\":4553:4576   */\n      swap2\n      pop\n        /* \"#utility.yul\":4304:4582   */\n      pop\n        /* \"#utility.yul\":4196:4582   */\n      swap3\n      swap2\n      pop\n      pop\n      jump\t// out\n        /* \"#utility.yul\":4588:4736   */\n    tag_51:\n        /* \"#utility.yul\":4690:4701   */\n      0x00\n        /* \"#utility.yul\":4727:4730   */\n      dup2\n        /* \"#utility.yul\":4712:4730   */\n      swap1\n      pop\n        /* \"#utility.yul\":4588:4736   */\n      swap3\n      swap2\n      pop\n      pop\n      jump\t// out\n        /* \"#utility.yul\":4742:5132   */\n    tag_52:\n        /* \"#utility.yul\":4848:4851   */\n      0x00\n        /* \"#utility.yul\":4876:4915   */\n      tag_99\n        /* \"#utility.yul\":4909:4914   */\n      dup3\n        /* \"#utility.yul\":4876:4915   */\n      tag_40\n      jump\t// in\n    tag_99:\n        /* \"#utility.yul\":4931:5020   */\n      tag_100\n        /* \"#utility.yul\":5013:5019   */\n      dup2\n        /* \"#utility.yul\":5008:5011   */\n      dup6\n        /* \"#utility.yul\":4931:5020   */\n      tag_51\n      jump\t// in\n    tag_100:\n        /* \"#utility.yul\":4924:5020   */\n      swap4\n      pop\n        /* \"#utility.yul\":5029:5094   */\n      tag_101\n        /* \"#utility.yul\":5087:5093   */\n      dup2\n        /* \"#utility.yul\":5082:5085   */\n      dup6\n        /* \"#utility.yul\":5075:5079   */\n      0x20\n        /* \"#utility.yul\":5068:5073   */\n      dup7\n        /* \"#utility.yul\":5064:5080   */\n      add\n        /* \"#utility.yul\":5029:5094   */\n      tag_42\n      jump\t// in\n    tag_101:\n        /* \"#utility.yul\":5119:5125   */\n      dup1\n        /* \"#utility.yul\":5114:5117   */\n      dup5\n        /* \"#utility.yul\":5110:5126   */\n      add\n        /* \"#utility.yul\":5103:5126   */\n      swap2\n      pop\n        /* \"#utility.yul\":4852:5132   */\n      pop\n        /* \"#utility.yul\":4742:5132   */\n      swap3\n      swap2\n      pop\n      pop\n      jump\t// out\n        /* \"#utility.yul\":5138:5569   */\n    tag_31:\n        /* \"#utility.yul\":5316:5319   */\n      0x00\n        /* \"#utility.yul\":5338:5431   */\n      tag_103\n        /* \"#utility.yul\":5427:5430   */\n      dup3\n        /* \"#utility.yul\":5418:5424   */\n      dup6\n        /* \"#utility.yul\":5338:5431   */\n      tag_50\n      jump\t// in\n    tag_103:\n        /* \"#utility.yul\":5331:5431   */\n      swap2\n      pop\n        /* \"#utility.yul\":5448:5543   */\n      tag_104\n        /* \"#utility.yul\":5539:5542   */\n      dup3\n        /* \"#utility.yul\":5530:5536   */\n      dup5\n        /* \"#utility.yul\":5448:5543   */\n      tag_52\n      jump\t// in\n    tag_104:\n        /* \"#utility.yul\":5441:5543   */\n      swap2\n      pop\n        /* \"#utility.yul\":5560:5563   */\n      dup2\n        /* \"#utility.yul\":5553:5563   */\n      swap1\n      pop\n        /* \"#utility.yul\":5138:5569   */\n      swap4\n      swap3\n      pop\n      pop\n      pop\n      jump\t// out\n        /* \"#utility.yul\":5575:5755   */\n    tag_53:\n        /* \"#utility.yul\":5623:5700   */\n      0x4e487b7100000000000000000000000000000000000000000000000000000000\n        /* \"#utility.yul\":5620:5621   */\n      0x00\n        /* \"#utility.yul\":5613:5701   */\n      mstore\n        /* \"#utility.yul\":5720:5724   */\n      0x11\n        /* \"#utility.yul\":5717:5718   */\n      0x04\n        /* \"#utility.yul\":5710:5725   */\n      mstore\n        /* \"#utility.yul\":5744:5748   */\n      0x24\n        /* \"#utility.yul\":5741:5742   */\n      0x00\n        /* \"#utility.yul\":5734:5749   */\n      revert\n        /* \"#utility.yul\":5761:5955   */\n    tag_33:\n        /* \"#utility.yul\":5801:5805   */\n      0x00\n        /* \"#utility.yul\":5821:5841   */\n      tag_107\n        /* \"#utility.yul\":5839:5840   */\n      dup3\n        /* \"#utility.yul\":5821:5841   */\n      tag_37\n      jump\t// in\n    tag_107:\n        /* \"#utility.yul\":5816:5841   */\n      swap2\n      pop\n        /* \"#utility.yul\":5855:5875   */\n      tag_108\n        /* \"#utility.yul\":5873:5874   */\n      dup4\n        /* \"#utility.yul\":5855:5875   */\n      tag_37\n      jump\t// in\n    tag_108:\n        /* \"#utility.yul\":5850:5875   */\n      swap3\n      pop\n        /* \"#utility.yul\":5899:5900   */\n      dup3\n        /* \"#utility.yul\":5896:5897   */\n      dup3\n        /* \"#utility.yul\":5892:5901   */\n      sub\n        /* \"#utility.yul\":5884:5901   */\n      swap1\n      pop\n        /* \"#utility.yul\":5923:5924   */\n      dup2\n        /* \"#utility.yul\":5917:5921   */\n      dup2\n        /* \"#utility.yul\":5914:5925   */\n      gt\n        /* \"#utility.yul\":5911:5948   */\n      iszero\n      tag_109\n      jumpi\n        /* \"#utility.yul\":5928:5946   */\n      tag_110\n      tag_53\n      jump\t// in\n    tag_110:\n        /* \"#utility.yul\":5911:5948   */\n    tag_109:\n        /* \"#utility.yul\":5761:5955   */\n      swap3\n      swap2\n      pop\n      pop\n      jump\t// out\n\n    auxdata: 0xa26469706673582212207ea521139064428b15470c62bba702d1a980764eea173dc7371bb3872ad3a91464736f6c634300081d0033\n}\n",
				"bytecode": {
					"linkReferences": {},
					"object": "608060405234801561000f575f5ffd5b505f60405180604001604052806103e881526020016040518060400160405280600181526020017f4d00000000000000000000000000000000000000000000000000000000000000815250815250908060018154018082558091505060019003905f5260205f2090600202015f909190919091505f820151815f015560208201518160010190816100a091906109c0565b5050505f604051806040016040528061038481526020016040518060400160405280600281526020017f434d000000000000000000000000000000000000000000000000000000000000815250815250908060018154018082558091505060019003905f5260205f2090600202015f909190919091505f820151815f0155602082015181600101908161013391906109c0565b5050505f60405180604001604052806101f481526020016040518060400160405280600181526020017f4400000000000000000000000000000000000000000000000000000000000000815250815250908060018154018082558091505060019003905f5260205f2090600202015f909190919091505f820151815f015560208201518160010190816101c691906109c0565b5050505f604051806040016040528061019081526020016040518060400160405280600281526020017f4344000000000000000000000000000000000000000000000000000000000000815250815250908060018154018082558091505060019003905f5260205f2090600202015f909190919091505f820151815f0155602082015181600101908161025991906109c0565b5050505f6040518060400160405280606481526020016040518060400160405280600181526020017f4300000000000000000000000000000000000000000000000000000000000000815250815250908060018154018082558091505060019003905f5260205f2090600202015f909190919091505f820151815f015560208201518160010190816102eb91906109c0565b5050505f6040518060400160405280605a81526020016040518060400160405280600281526020017f5843000000000000000000000000000000000000000000000000000000000000815250815250908060018154018082558091505060019003905f5260205f2090600202015f909190919091505f820151815f0155602082015181600101908161037d91906109c0565b5050505f6040518060400160405280603281526020016040518060400160405280600181526020017f4c00000000000000000000000000000000000000000000000000000000000000815250815250908060018154018082558091505060019003905f5260205f2090600202015f909190919091505f820151815f0155602082015181600101908161040f91906109c0565b5050505f6040518060400160405280602881526020016040518060400160405280600281526020017f584c000000000000000000000000000000000000000000000000000000000000815250815250908060018154018082558091505060019003905f5260205f2090600202015f909190919091505f820151815f015560208201518160010190816104a191906109c0565b5050505f6040518060400160405280600a81526020016040518060400160405280600181526020017f5800000000000000000000000000000000000000000000000000000000000000815250815250908060018154018082558091505060019003905f5260205f2090600202015f909190919091505f820151815f0155602082015181600101908161053391906109c0565b5050505f6040518060400160405280600981526020016040518060400160405280600281526020017f4958000000000000000000000000000000000000000000000000000000000000815250815250908060018154018082558091505060019003905f5260205f2090600202015f909190919091505f820151815f015560208201518160010190816105c591906109c0565b5050505f6040518060400160405280600581526020016040518060400160405280600181526020017f5600000000000000000000000000000000000000000000000000000000000000815250815250908060018154018082558091505060019003905f5260205f2090600202015f909190919091505f820151815f0155602082015181600101908161065791906109c0565b5050505f6040518060400160405280600481526020016040518060400160405280600281526020017f4956000000000000000000000000000000000000000000000000000000000000815250815250908060018154018082558091505060019003905f5260205f2090600202015f909190919091505f820151815f015560208201518160010190816106e991906109c0565b5050505f6040518060400160405280600181526020016040518060400160405280600181526020017f4900000000000000000000000000000000000000000000000000000000000000815250815250908060018154018082558091505060019003905f5260205f2090600202015f909190919091505f820151815f0155602082015181600101908161077b91906109c0565b505050610a8f565b5f81519050919050565b7f4e487b71000000000000000000000000000000000000000000000000000000005f52604160045260245ffd5b7f4e487b71000000000000000000000000000000000000000000000000000000005f52602260045260245ffd5b5f60028204905060018216806107fe57607f821691505b602082108103610811576108106107ba565b5b50919050565b5f819050815f5260205f209050919050565b5f6020601f8301049050919050565b5f82821b905092915050565b5f600883026108737fffffffffffffffffffffffffffffffffffffffffffffffffffffffffffffffff82610838565b61087d8683610838565b95508019841693508086168417925050509392505050565b5f819050919050565b5f819050919050565b5f6108c16108bc6108b784610895565b61089e565b610895565b9050919050565b5f819050919050565b6108da836108a7565b6108ee6108e6826108c8565b848454610844565b825550505050565b5f5f905090565b6109056108f6565b6109108184846108d1565b505050565b5b81811015610933576109285f826108fd565b600181019050610916565b5050565b601f8211156109785761094981610817565b61095284610829565b81016020851015610961578190505b61097561096d85610829565b830182610915565b50505b505050565b5f82821c905092915050565b5f6109985f198460080261097d565b1980831691505092915050565b5f6109b08383610989565b9150826002028217905092915050565b6109c982610783565b67ffffffffffffffff8111156109e2576109e161078d565b5b6109ec82546107e7565b6109f7828285610937565b5f60209050601f831160018114610a28575f8415610a16578287015190505b610a2085826109a5565b865550610a87565b601f198416610a3686610817565b5f5b82811015610a5d57848901518255600182019150602085019450602081019050610a38565b86831015610a7a5784890151610a76601f891682610989565b8355505b6001600288020188555050505b505050505050565b61050880610a9c5f395ff3fe608060405234801561000f575f5ffd5b5060043610610029575f3560e01c8063ab7baabe1461002d575b5f5ffd5b61004760048036038101906100429190610224565b61005d565b60405161005491906102bf565b60405180910390f35b60605f8211801561006f5750610fa082105b6100ae576040517f08c379a00000000000000000000000000000000000000000000000000000000081526004016100a590610329565b60405180910390fd5b60605f8390505f5f90505b5f805490508110156101e2575f5f82815481106100d9576100d8610347565b5b905f5260205f2090600202016040518060400160405290815f8201548152602001600182018054610109906103a1565b80601f0160208091040260200160405190810160405280929190818152602001828054610135906103a1565b80156101805780601f1061015757610100808354040283529160200191610180565b820191905f5260205f20905b81548152906001019060200180831161016357829003601f168201915b50505050508152505090505b805f015183106101d4578381602001516040516020016101ad92919061044f565b6040516020818303038152906040529350805f0151836101cd919061049f565b925061018c565b5080806001019150506100b9565b508192505050919050565b5f5ffd5b5f819050919050565b610203816101f1565b811461020d575f5ffd5b50565b5f8135905061021e816101fa565b92915050565b5f60208284031215610239576102386101ed565b5b5f61024684828501610210565b91505092915050565b5f81519050919050565b5f82825260208201905092915050565b8281835e5f83830152505050565b5f601f19601f8301169050919050565b5f6102918261024f565b61029b8185610259565b93506102ab818560208601610269565b6102b481610277565b840191505092915050565b5f6020820190508181035f8301526102d78184610287565b905092915050565b7f4e756d626572206f7574206f662072616e67652028312d3339393929000000005f82015250565b5f610313601c83610259565b915061031e826102df565b602082019050919050565b5f6020820190508181035f83015261034081610307565b9050919050565b7f4e487b71000000000000000000000000000000000000000000000000000000005f52603260045260245ffd5b7f4e487b71000000000000000000000000000000000000000000000000000000005f52602260045260245ffd5b5f60028204905060018216806103b857607f821691505b6020821081036103cb576103ca610374565b5b50919050565b5f81519050919050565b5f81905092915050565b5f6103ef826103d1565b6103f981856103db565b9350610409818560208601610269565b80840191505092915050565b5f81905092915050565b5f6104298261024f565b6104338185610415565b9350610443818560208601610269565b80840191505092915050565b5f61045a82856103e5565b9150610466828461041f565b91508190509392505050565b7f4e487b71000000000000000000000000000000000000000000000000000000005f52601160045260245ffd5b5f6104a9826101f1565b91506104b4836101f1565b92508282039050818111156104cc576104cb610472565b5b9291505056fea26469706673582212207ea521139064428b15470c62bba702d1a980764eea173dc7371bb3872ad3a91464736f6c634300081d0033",
					"opcodes": "PUSH1 0x80 PUSH1 0x40 MSTORE CALLVALUE DUP1 ISZERO PUSH2 0xF JUMPI PUSH0 PUSH0 REVERT JUMPDEST POP PUSH0 PUSH1 0x40 MLOAD DUP1 PUSH1 0x40 ADD PUSH1 0x40 MSTORE DUP1 PUSH2 0x3E8 DUP2 MSTORE PUSH1 0x20 ADD PUSH1 0x40 MLOAD DUP1 PUSH1 0x40 ADD PUSH1 0x40 MSTORE DUP1 PUSH1 0x1 DUP2 MSTORE PUSH1 0x20 ADD PUSH32 0x4D00000000000000000000000000000000000000000000000000000000000000 DUP2 MSTORE POP DUP2 MSTORE POP SWAP1 DUP1 PUSH1 0x1 DUP2 SLOAD ADD DUP1 DUP3 SSTORE DUP1 SWAP2 POP POP PUSH1 0x1 SWAP1 SUB SWAP1 PUSH0 MSTORE PUSH1 0x20 PUSH0 KECCAK256 SWAP1 PUSH1 0x2 MUL ADD PUSH0 SWAP1 SWAP2 SWAP1 SWAP2 SWAP1 SWAP2 POP PUSH0 DUP3 ADD MLOAD DUP2 PUSH0 ADD SSTORE PUSH1 0x20 DUP3 ADD MLOAD DUP2 PUSH1 0x1 ADD SWAP1 DUP2 PUSH2 0xA0 SWAP2 SWAP1 PUSH2 0x9C0 JUMP JUMPDEST POP POP POP PUSH0 PUSH1 0x40 MLOAD DUP1 PUSH1 0x40 ADD PUSH1 0x40 MSTORE DUP1 PUSH2 0x384 DUP2 MSTORE PUSH1 0x20 ADD PUSH1 0x40 MLOAD DUP1 PUSH1 0x40 ADD PUSH1 0x40 MSTORE DUP1 PUSH1 0x2 DUP2 MSTORE PUSH1 0x20 ADD PUSH32 0x434D000000000000000000000000000000000000000000000000000000000000 DUP2 MSTORE POP DUP2 MSTORE POP SWAP1 DUP1 PUSH1 0x1 DUP2 SLOAD ADD DUP1 DUP3 SSTORE DUP1 SWAP2 POP POP PUSH1 0x1 SWAP1 SUB SWAP1 PUSH0 MSTORE PUSH1 0x20 PUSH0 KECCAK256 SWAP1 PUSH1 0x2 MUL ADD PUSH0 SWAP1 SWAP2 SWAP1 SWAP2 SWAP1 SWAP2 POP PUSH0 DUP3 ADD MLOAD DUP2 PUSH0 ADD SSTORE PUSH1 0x20 DUP3 ADD MLOAD DUP2 PUSH1 0x1 ADD SWAP1 DUP2 PUSH2 0x133 SWAP2 SWAP1 PUSH2 0x9C0 JUMP JUMPDEST POP POP POP PUSH0 PUSH1 0x40 MLOAD DUP1 PUSH1 0x40 ADD PUSH1 0x40 MSTORE DUP1 PUSH2 0x1F4 DUP2 MSTORE PUSH1 0x20 ADD PUSH1 0x40 MLOAD DUP1 PUSH1 0x40 ADD PUSH1 0x40 MSTORE DUP1 PUSH1 0x1 DUP2 MSTORE PUSH1 0x20 ADD PUSH32 0x4400000000000000000000000000000000000000000000000000000000000000 DUP2 MSTORE POP DUP2 MSTORE POP SWAP1 DUP1 PUSH1 0x1 DUP2 SLOAD ADD DUP1 DUP3 SSTORE DUP1 SWAP2 POP POP PUSH1 0x1 SWAP1 SUB SWAP1 PUSH0 MSTORE PUSH1 0x20 PUSH0 KECCAK256 SWAP1 PUSH1 0x2 MUL ADD PUSH0 SWAP1 SWAP2 SWAP1 SWAP2 SWAP1 SWAP2 POP PUSH0 DUP3 ADD MLOAD DUP2 PUSH0 ADD SSTORE PUSH1 0x20 DUP3 ADD MLOAD DUP2 PUSH1 0x1 ADD SWAP1 DUP2 PUSH2 0x1C6 SWAP2 SWAP1 PUSH2 0x9C0 JUMP JUMPDEST POP POP POP PUSH0 PUSH1 0x40 MLOAD DUP1 PUSH1 0x40 ADD PUSH1 0x40 MSTORE DUP1 PUSH2 0x190 DUP2 MSTORE PUSH1 0x20 ADD PUSH1 0x40 MLOAD DUP1 PUSH1 0x40 ADD PUSH1 0x40 MSTORE DUP1 PUSH1 0x2 DUP2 MSTORE PUSH1 0x20 ADD PUSH32 0x4344000000000000000000000000000000000000000000000000000000000000 DUP2 MSTORE POP DUP2 MSTORE POP SWAP1 DUP1 PUSH1 0x1 DUP2 SLOAD ADD DUP1 DUP3 SSTORE DUP1 SWAP2 POP POP PUSH1 0x1 SWAP1 SUB SWAP1 PUSH0 MSTORE PUSH1 0x20 PUSH0 KECCAK256 SWAP1 PUSH1 0x2 MUL ADD PUSH0 SWAP1 SWAP2 SWAP1 SWAP2 SWAP1 SWAP2 POP PUSH0 DUP3 ADD MLOAD DUP2 PUSH0 ADD SSTORE PUSH1 0x20 DUP3 ADD MLOAD DUP2 PUSH1 0x1 ADD SWAP1 DUP2 PUSH2 0x259 SWAP2 SWAP1 PUSH2 0x9C0 JUMP JUMPDEST POP POP POP PUSH0 PUSH1 0x40 MLOAD DUP1 PUSH1 0x40 ADD PUSH1 0x40 MSTORE DUP1 PUSH1 0x64 DUP2 MSTORE PUSH1 0x20 ADD PUSH1 0x40 MLOAD DUP1 PUSH1 0x40 ADD PUSH1 0x40 MSTORE DUP1 PUSH1 0x1 DUP2 MSTORE PUSH1 0x20 ADD PUSH32 0x4300000000000000000000000000000000000000000000000000000000000000 DUP2 MSTORE POP DUP2 MSTORE POP SWAP1 DUP1 PUSH1 0x1 DUP2 SLOAD ADD DUP1 DUP3 SSTORE DUP1 SWAP2 POP POP PUSH1 0x1 SWAP1 SUB SWAP1 PUSH0 MSTORE PUSH1 0x20 PUSH0 KECCAK256 SWAP1 PUSH1 0x2 MUL ADD PUSH0 SWAP1 SWAP2 SWAP1 SWAP2 SWAP1 SWAP2 POP PUSH0 DUP3 ADD MLOAD DUP2 PUSH0 ADD SSTORE PUSH1 0x20 DUP3 ADD MLOAD DUP2 PUSH1 0x1 ADD SWAP1 DUP2 PUSH2 0x2EB SWAP2 SWAP1 PUSH2 0x9C0 JUMP JUMPDEST POP POP POP PUSH0 PUSH1 0x40 MLOAD DUP1 PUSH1 0x40 ADD PUSH1 0x40 MSTORE DUP1 PUSH1 0x5A DUP2 MSTORE PUSH1 0x20 ADD PUSH1 0x40 MLOAD DUP1 PUSH1 0x40 ADD PUSH1 0x40 MSTORE DUP1 PUSH1 0x2 DUP2 MSTORE PUSH1 0x20 ADD PUSH32 0x5843000000000000000000000000000000000000000000000000000000000000 DUP2 MSTORE POP DUP2 MSTORE POP SWAP1 DUP1 PUSH1 0x1 DUP2 SLOAD ADD DUP1 DUP3 SSTORE DUP1 SWAP2 POP POP PUSH1 0x1 SWAP1 SUB SWAP1 PUSH0 MSTORE PUSH1 0x20 PUSH0 KECCAK256 SWAP1 PUSH1 0x2 MUL ADD PUSH0 SWAP1 SWAP2 SWAP1 SWAP2 SWAP1 SWAP2 POP PUSH0 DUP3 ADD MLOAD DUP2 PUSH0 ADD SSTORE PUSH1 0x20 DUP3 ADD MLOAD DUP2 PUSH1 0x1 ADD SWAP1 DUP2 PUSH2 0x37D SWAP2 SWAP1 PUSH2 0x9C0 JUMP JUMPDEST POP POP POP PUSH0 PUSH1 0x40 MLOAD DUP1 PUSH1 0x40 ADD PUSH1 0x40 MSTORE DUP1 PUSH1 0x32 DUP2 MSTORE PUSH1 0x20 ADD PUSH1 0x40 MLOAD DUP1 PUSH1 0x40 ADD PUSH1 0x40 MSTORE DUP1 PUSH1 0x1 DUP2 MSTORE PUSH1 0x20 ADD PUSH32 0x4C00000000000000000000000000000000000000000000000000000000000000 DUP2 MSTORE POP DUP2 MSTORE POP SWAP1 DUP1 PUSH1 0x1 DUP2 SLOAD ADD DUP1 DUP3 SSTORE DUP1 SWAP2 POP POP PUSH1 0x1 SWAP1 SUB SWAP1 PUSH0 MSTORE PUSH1 0x20 PUSH0 KECCAK256 SWAP1 PUSH1 0x2 MUL ADD PUSH0 SWAP1 SWAP2 SWAP1 SWAP2 SWAP1 SWAP2 POP PUSH0 DUP3 ADD MLOAD DUP2 PUSH0 ADD SSTORE PUSH1 0x20 DUP3 ADD MLOAD DUP2 PUSH1 0x1 ADD SWAP1 DUP2 PUSH2 0x40F SWAP2 SWAP1 PUSH2 0x9C0 JUMP JUMPDEST POP POP POP PUSH0 PUSH1 0x40 MLOAD DUP1 PUSH1 0x40 ADD PUSH1 0x40 MSTORE DUP1 PUSH1 0x28 DUP2 MSTORE PUSH1 0x20 ADD PUSH1 0x40 MLOAD DUP1 PUSH1 0x40 ADD PUSH1 0x40 MSTORE DUP1 PUSH1 0x2 DUP2 MSTORE PUSH1 0x20 ADD PUSH32 0x584C000000000000000000000000000000000000000000000000000000000000 DUP2 MSTORE POP DUP2 MSTORE POP SWAP1 DUP1 PUSH1 0x1 DUP2 SLOAD ADD DUP1 DUP3 SSTORE DUP1 SWAP2 POP POP PUSH1 0x1 SWAP1 SUB SWAP1 PUSH0 MSTORE PUSH1 0x20 PUSH0 KECCAK256 SWAP1 PUSH1 0x2 MUL ADD PUSH0 SWAP1 SWAP2 SWAP1 SWAP2 SWAP1 SWAP2 POP PUSH0 DUP3 ADD MLOAD DUP2 PUSH0 ADD SSTORE PUSH1 0x20 DUP3 ADD MLOAD DUP2 PUSH1 0x1 ADD SWAP1 DUP2 PUSH2 0x4A1 SWAP2 SWAP1 PUSH2 0x9C0 JUMP JUMPDEST POP POP POP PUSH0 PUSH1 0x40 MLOAD DUP1 PUSH1 0x40 ADD PUSH1 0x40 MSTORE DUP1 PUSH1 0xA DUP2 MSTORE PUSH1 0x20 ADD PUSH1 0x40 MLOAD DUP1 PUSH1 0x40 ADD PUSH1 0x40 MSTORE DUP1 PUSH1 0x1 DUP2 MSTORE PUSH1 0x20 ADD PUSH32 0x5800000000000000000000000000000000000000000000000000000000000000 DUP2 MSTORE POP DUP2 MSTORE POP SWAP1 DUP1 PUSH1 0x1 DUP2 SLOAD ADD DUP1 DUP3 SSTORE DUP1 SWAP2 POP POP PUSH1 0x1 SWAP1 SUB SWAP1 PUSH0 MSTORE PUSH1 0x20 PUSH0 KECCAK256 SWAP1 PUSH1 0x2 MUL ADD PUSH0 SWAP1 SWAP2 SWAP1 SWAP2 SWAP1 SWAP2 POP PUSH0 DUP3 ADD MLOAD DUP2 PUSH0 ADD SSTORE PUSH1 0x20 DUP3 ADD MLOAD DUP2 PUSH1 0x1 ADD SWAP1 DUP2 PUSH2 0x533 SWAP2 SWAP1 PUSH2 0x9C0 JUMP JUMPDEST POP POP POP PUSH0 PUSH1 0x40 MLOAD DUP1 PUSH1 0x40 ADD PUSH1 0x40 MSTORE DUP1 PUSH1 0x9 DUP2 MSTORE PUSH1 0x20 ADD PUSH1 0x40 MLOAD DUP1 PUSH1 0x40 ADD PUSH1 0x40 MSTORE DUP1 PUSH1 0x2 DUP2 MSTORE PUSH1 0x20 ADD PUSH32 0x4958000000000000000000000000000000000000000000000000000000000000 DUP2 MSTORE POP DUP2 MSTORE POP SWAP1 DUP1 PUSH1 0x1 DUP2 SLOAD ADD DUP1 DUP3 SSTORE DUP1 SWAP2 POP POP PUSH1 0x1 SWAP1 SUB SWAP1 PUSH0 MSTORE PUSH1 0x20 PUSH0 KECCAK256 SWAP1 PUSH1 0x2 MUL ADD PUSH0 SWAP1 SWAP2 SWAP1 SWAP2 SWAP1 SWAP2 POP PUSH0 DUP3 ADD MLOAD DUP2 PUSH0 ADD SSTORE PUSH1 0x20 DUP3 ADD MLOAD DUP2 PUSH1 0x1 ADD SWAP1 DUP2 PUSH2 0x5C5 SWAP2 SWAP1 PUSH2 0x9C0 JUMP JUMPDEST POP POP POP PUSH0 PUSH1 0x40 MLOAD DUP1 PUSH1 0x40 ADD PUSH1 0x40 MSTORE DUP1 PUSH1 0x5 DUP2 MSTORE PUSH1 0x20 ADD PUSH1 0x40 MLOAD DUP1 PUSH1 0x40 ADD PUSH1 0x40 MSTORE DUP1 PUSH1 0x1 DUP2 MSTORE PUSH1 0x20 ADD PUSH32 0x5600000000000000000000000000000000000000000000000000000000000000 DUP2 MSTORE POP DUP2 MSTORE POP SWAP1 DUP1 PUSH1 0x1 DUP2 SLOAD ADD DUP1 DUP3 SSTORE DUP1 SWAP2 POP POP PUSH1 0x1 SWAP1 SUB SWAP1 PUSH0 MSTORE PUSH1 0x20 PUSH0 KECCAK256 SWAP1 PUSH1 0x2 MUL ADD PUSH0 SWAP1 SWAP2 SWAP1 SWAP2 SWAP1 SWAP2 POP PUSH0 DUP3 ADD MLOAD DUP2 PUSH0 ADD SSTORE PUSH1 0x20 DUP3 ADD MLOAD DUP2 PUSH1 0x1 ADD SWAP1 DUP2 PUSH2 0x657 SWAP2 SWAP1 PUSH2 0x9C0 JUMP JUMPDEST POP POP POP PUSH0 PUSH1 0x40 MLOAD DUP1 PUSH1 0x40 ADD PUSH1 0x40 MSTORE DUP1 PUSH1 0x4 DUP2 MSTORE PUSH1 0x20 ADD PUSH1 0x40 MLOAD DUP1 PUSH1 0x40 ADD PUSH1 0x40 MSTORE DUP1 PUSH1 0x2 DUP2 MSTORE PUSH1 0x20 ADD PUSH32 0x4956000000000000000000000000000000000000000000000000000000000000 DUP2 MSTORE POP DUP2 MSTORE POP SWAP1 DUP1 PUSH1 0x1 DUP2 SLOAD ADD DUP1 DUP3 SSTORE DUP1 SWAP2 POP POP PUSH1 0x1 SWAP1 SUB SWAP1 PUSH0 MSTORE PUSH1 0x20 PUSH0 KECCAK256 SWAP1 PUSH1 0x2 MUL ADD PUSH0 SWAP1 SWAP2 SWAP1 SWAP2 SWAP1 SWAP2 POP PUSH0 DUP3 ADD MLOAD DUP2 PUSH0 ADD SSTORE PUSH1 0x20 DUP3 ADD MLOAD DUP2 PUSH1 0x1 ADD SWAP1 DUP2 PUSH2 0x6E9 SWAP2 SWAP1 PUSH2 0x9C0 JUMP JUMPDEST POP POP POP PUSH0 PUSH1 0x40 MLOAD DUP1 PUSH1 0x40 ADD PUSH1 0x40 MSTORE DUP1 PUSH1 0x1 DUP2 MSTORE PUSH1 0x20 ADD PUSH1 0x40 MLOAD DUP1 PUSH1 0x40 ADD PUSH1 0x40 MSTORE DUP1 PUSH1 0x1 DUP2 MSTORE PUSH1 0x20 ADD PUSH32 0x4900000000000000000000000000000000000000000000000000000000000000 DUP2 MSTORE POP DUP2 MSTORE POP SWAP1 DUP1 PUSH1 0x1 DUP2 SLOAD ADD DUP1 DUP3 SSTORE DUP1 SWAP2 POP POP PUSH1 0x1 SWAP1 SUB SWAP1 PUSH0 MSTORE PUSH1 0x20 PUSH0 KECCAK256 SWAP1 PUSH1 0x2 MUL ADD PUSH0 SWAP1 SWAP2 SWAP1 SWAP2 SWAP1 SWAP2 POP PUSH0 DUP3 ADD MLOAD DUP2 PUSH0 ADD SSTORE PUSH1 0x20 DUP3 ADD MLOAD DUP2 PUSH1 0x1 ADD SWAP1 DUP2 PUSH2 0x77B SWAP2 SWAP1 PUSH2 0x9C0 JUMP JUMPDEST POP POP POP PUSH2 0xA8F JUMP JUMPDEST PUSH0 DUP2 MLOAD SWAP1 POP SWAP2 SWAP1 POP JUMP JUMPDEST PUSH32 0x4E487B7100000000000000000000000000000000000000000000000000000000 PUSH0 MSTORE PUSH1 0x41 PUSH1 0x4 MSTORE PUSH1 0x24 PUSH0 REVERT JUMPDEST PUSH32 0x4E487B7100000000000000000000000000000000000000000000000000000000 PUSH0 MSTORE PUSH1 0x22 PUSH1 0x4 MSTORE PUSH1 0x24 PUSH0 REVERT JUMPDEST PUSH0 PUSH1 0x2 DUP3 DIV SWAP1 POP PUSH1 0x1 DUP3 AND DUP1 PUSH2 0x7FE JUMPI PUSH1 0x7F DUP3 AND SWAP2 POP JUMPDEST PUSH1 0x20 DUP3 LT DUP2 SUB PUSH2 0x811 JUMPI PUSH2 0x810 PUSH2 0x7BA JUMP JUMPDEST JUMPDEST POP SWAP2 SWAP1 POP JUMP JUMPDEST PUSH0 DUP2 SWAP1 POP DUP2 PUSH0 MSTORE PUSH1 0x20 PUSH0 KECCAK256 SWAP1 POP SWAP2 SWAP1 POP JUMP JUMPDEST PUSH0 PUSH1 0x20 PUSH1 0x1F DUP4 ADD DIV SWAP1 POP SWAP2 SWAP1 POP JUMP JUMPDEST PUSH0 DUP3 DUP3 SHL SWAP1 POP SWAP3 SWAP2 POP POP JUMP JUMPDEST PUSH0 PUSH1 0x8 DUP4 MUL PUSH2 0x873 PUSH32 0xFFFFFFFFFFFFFFFFFFFFFFFFFFFFFFFFFFFFFFFFFFFFFFFFFFFFFFFFFFFFFFFF DUP3 PUSH2 0x838 JUMP JUMPDEST PUSH2 0x87D DUP7 DUP4 PUSH2 0x838 JUMP JUMPDEST SWAP6 POP DUP1 NOT DUP5 AND SWAP4 POP DUP1 DUP7 AND DUP5 OR SWAP3 POP POP POP SWAP4 SWAP3 POP POP POP JUMP JUMPDEST PUSH0 DUP2 SWAP1 POP SWAP2 SWAP1 POP JUMP JUMPDEST PUSH0 DUP2 SWAP1 POP SWAP2 SWAP1 POP JUMP JUMPDEST PUSH0 PUSH2 0x8C1 PUSH2 0x8BC PUSH2 0x8B7 DUP5 PUSH2 0x895 JUMP JUMPDEST PUSH2 0x89E JUMP JUMPDEST PUSH2 0x895 JUMP JUMPDEST SWAP1 POP SWAP2 SWAP1 POP JUMP JUMPDEST PUSH0 DUP2 SWAP1 POP SWAP2 SWAP1 POP JUMP JUMPDEST PUSH2 0x8DA DUP4 PUSH2 0x8A7 JUMP JUMPDEST PUSH2 0x8EE PUSH2 0x8E6 DUP3 PUSH2 0x8C8 JUMP JUMPDEST DUP5 DUP5 SLOAD PUSH2 0x844 JUMP JUMPDEST DUP3 SSTORE POP POP POP POP JUMP JUMPDEST PUSH0 PUSH0 SWAP1 POP SWAP1 JUMP JUMPDEST PUSH2 0x905 PUSH2 0x8F6 JUMP JUMPDEST PUSH2 0x910 DUP2 DUP5 DUP5 PUSH2 0x8D1 JUMP JUMPDEST POP POP POP JUMP JUMPDEST JUMPDEST DUP2 DUP2 LT ISZERO PUSH2 0x933 JUMPI PUSH2 0x928 PUSH0 DUP3 PUSH2 0x8FD JUMP JUMPDEST PUSH1 0x1 DUP2 ADD SWAP1 POP PUSH2 0x916 JUMP JUMPDEST POP POP JUMP JUMPDEST PUSH1 0x1F DUP3 GT ISZERO PUSH2 0x978 JUMPI PUSH2 0x949 DUP2 PUSH2 0x817 JUMP JUMPDEST PUSH2 0x952 DUP5 PUSH2 0x829 JUMP JUMPDEST DUP2 ADD PUSH1 0x20 DUP6 LT ISZERO PUSH2 0x961 JUMPI DUP2 SWAP1 POP JUMPDEST PUSH2 0x975 PUSH2 0x96D DUP6 PUSH2 0x829 JUMP JUMPDEST DUP4 ADD DUP3 PUSH2 0x915 JUMP JUMPDEST POP POP JUMPDEST POP POP POP JUMP JUMPDEST PUSH0 DUP3 DUP3 SHR SWAP1 POP SWAP3 SWAP2 POP POP JUMP JUMPDEST PUSH0 PUSH2 0x998 PUSH0 NOT DUP5 PUSH1 0x8 MUL PUSH2 0x97D JUMP JUMPDEST NOT DUP1 DUP4 AND SWAP2 POP POP SWAP3 SWAP2 POP POP JUMP JUMPDEST PUSH0 PUSH2 0x9B0 DUP4 DUP4 PUSH2 0x989 JUMP JUMPDEST SWAP2 POP DUP3 PUSH1 0x2 MUL DUP3 OR SWAP1 POP SWAP3 SWAP2 POP POP JUMP JUMPDEST PUSH2 0x9C9 DUP3 PUSH2 0x783 JUMP JUMPDEST PUSH8 0xFFFFFFFFFFFFFFFF DUP2 GT ISZERO PUSH2 0x9E2 JUMPI PUSH2 0x9E1 PUSH2 0x78D JUMP JUMPDEST JUMPDEST PUSH2 0x9EC DUP3 SLOAD PUSH2 0x7E7 JUMP JUMPDEST PUSH2 0x9F7 DUP3 DUP3 DUP6 PUSH2 0x937 JUMP JUMPDEST PUSH0 PUSH1 0x20 SWAP1 POP PUSH1 0x1F DUP4 GT PUSH1 0x1 DUP2 EQ PUSH2 0xA28 JUMPI PUSH0 DUP5 ISZERO PUSH2 0xA16 JUMPI DUP3 DUP8 ADD MLOAD SWAP1 POP JUMPDEST PUSH2 0xA20 DUP6 DUP3 PUSH2 0x9A5 JUMP JUMPDEST DUP7 SSTORE POP PUSH2 0xA87 JUMP JUMPDEST PUSH1 0x1F NOT DUP5 AND PUSH2 0xA36 DUP7 PUSH2 0x817 JUMP JUMPDEST PUSH0 JUMPDEST DUP3 DUP2 LT ISZERO PUSH2 0xA5D JUMPI DUP5 DUP10 ADD MLOAD DUP3 SSTORE PUSH1 0x1 DUP3 ADD SWAP2 POP PUSH1 0x20 DUP6 ADD SWAP5 POP PUSH1 0x20 DUP2 ADD SWAP1 POP PUSH2 0xA38 JUMP JUMPDEST DUP7 DUP4 LT ISZERO PUSH2 0xA7A JUMPI DUP5 DUP10 ADD MLOAD PUSH2 0xA76 PUSH1 0x1F DUP10 AND DUP3 PUSH2 0x989 JUMP JUMPDEST DUP4 SSTORE POP JUMPDEST PUSH1 0x1 PUSH1 0x2 DUP9 MUL ADD DUP9 SSTORE POP POP POP JUMPDEST POP POP POP POP POP POP JUMP JUMPDEST PUSH2 0x508 DUP1 PUSH2 0xA9C PUSH0 CODECOPY PUSH0 RETURN INVALID PUSH1 0x80 PUSH1 0x40 MSTORE CALLVALUE DUP1 ISZERO PUSH2 0xF JUMPI PUSH0 PUSH0 REVERT JUMPDEST POP PUSH1 0x4 CALLDATASIZE LT PUSH2 0x29 JUMPI PUSH0 CALLDATALOAD PUSH1 0xE0 SHR DUP1 PUSH4 0xAB7BAABE EQ PUSH2 0x2D JUMPI JUMPDEST PUSH0 PUSH0 REVERT JUMPDEST PUSH2 0x47 PUSH1 0x4 DUP1 CALLDATASIZE SUB DUP2 ADD SWAP1 PUSH2 0x42 SWAP2 SWAP1 PUSH2 0x224 JUMP JUMPDEST PUSH2 0x5D JUMP JUMPDEST PUSH1 0x40 MLOAD PUSH2 0x54 SWAP2 SWAP1 PUSH2 0x2BF JUMP JUMPDEST PUSH1 0x40 MLOAD DUP1 SWAP2 SUB SWAP1 RETURN JUMPDEST PUSH1 0x60 PUSH0 DUP3 GT DUP1 ISZERO PUSH2 0x6F JUMPI POP PUSH2 0xFA0 DUP3 LT JUMPDEST PUSH2 0xAE JUMPI PUSH1 0x40 MLOAD PUSH32 0x8C379A000000000000000000000000000000000000000000000000000000000 DUP2 MSTORE PUSH1 0x4 ADD PUSH2 0xA5 SWAP1 PUSH2 0x329 JUMP JUMPDEST PUSH1 0x40 MLOAD DUP1 SWAP2 SUB SWAP1 REVERT JUMPDEST PUSH1 0x60 PUSH0 DUP4 SWAP1 POP PUSH0 PUSH0 SWAP1 POP JUMPDEST PUSH0 DUP1 SLOAD SWAP1 POP DUP2 LT ISZERO PUSH2 0x1E2 JUMPI PUSH0 PUSH0 DUP3 DUP2 SLOAD DUP2 LT PUSH2 0xD9 JUMPI PUSH2 0xD8 PUSH2 0x347 JUMP JUMPDEST JUMPDEST SWAP1 PUSH0 MSTORE PUSH1 0x20 PUSH0 KECCAK256 SWAP1 PUSH1 0x2 MUL ADD PUSH1 0x40 MLOAD DUP1 PUSH1 0x40 ADD PUSH1 0x40 MSTORE SWAP1 DUP2 PUSH0 DUP3 ADD SLOAD DUP2 MSTORE PUSH1 0x20 ADD PUSH1 0x1 DUP3 ADD DUP1 SLOAD PUSH2 0x109 SWAP1 PUSH2 0x3A1 JUMP JUMPDEST DUP1 PUSH1 0x1F ADD PUSH1 0x20 DUP1 SWAP2 DIV MUL PUSH1 0x20 ADD PUSH1 0x40 MLOAD SWAP1 DUP2 ADD PUSH1 0x40 MSTORE DUP1 SWAP3 SWAP2 SWAP1 DUP2 DUP2 MSTORE PUSH1 0x20 ADD DUP3 DUP1 SLOAD PUSH2 0x135 SWAP1 PUSH2 0x3A1 JUMP JUMPDEST DUP1 ISZERO PUSH2 0x180 JUMPI DUP1 PUSH1 0x1F LT PUSH2 0x157 JUMPI PUSH2 0x100 DUP1 DUP4 SLOAD DIV MUL DUP4 MSTORE SWAP2 PUSH1 0x20 ADD SWAP2 PUSH2 0x180 JUMP JUMPDEST DUP3 ADD SWAP2 SWAP1 PUSH0 MSTORE PUSH1 0x20 PUSH0 KECCAK256 SWAP1 JUMPDEST DUP2 SLOAD DUP2 MSTORE SWAP1 PUSH1 0x1 ADD SWAP1 PUSH1 0x20 ADD DUP1 DUP4 GT PUSH2 0x163 JUMPI DUP3 SWAP1 SUB PUSH1 0x1F AND DUP3 ADD SWAP2 JUMPDEST POP POP POP POP POP DUP2 MSTORE POP POP SWAP1 POP JUMPDEST DUP1 PUSH0 ADD MLOAD DUP4 LT PUSH2 0x1D4 JUMPI DUP4 DUP2 PUSH1 0x20 ADD MLOAD PUSH1 0x40 MLOAD PUSH1 0x20 ADD PUSH2 0x1AD SWAP3 SWAP2 SWAP1 PUSH2 0x44F JUMP JUMPDEST PUSH1 0x40 MLOAD PUSH1 0x20 DUP2 DUP4 SUB SUB DUP2 MSTORE SWAP1 PUSH1 0x40 MSTORE SWAP4 POP DUP1 PUSH0 ADD MLOAD DUP4 PUSH2 0x1CD SWAP2 SWAP1 PUSH2 0x49F JUMP JUMPDEST SWAP3 POP PUSH2 0x18C JUMP JUMPDEST POP DUP1 DUP1 PUSH1 0x1 ADD SWAP2 POP POP PUSH2 0xB9 JUMP JUMPDEST POP DUP2 SWAP3 POP POP POP SWAP2 SWAP1 POP JUMP JUMPDEST PUSH0 PUSH0 REVERT JUMPDEST PUSH0 DUP2 SWAP1 POP SWAP2 SWAP1 POP JUMP JUMPDEST PUSH2 0x203 DUP2 PUSH2 0x1F1 JUMP JUMPDEST DUP2 EQ PUSH2 0x20D JUMPI PUSH0 PUSH0 REVERT JUMPDEST POP JUMP JUMPDEST PUSH0 DUP2 CALLDATALOAD SWAP1 POP PUSH2 0x21E DUP2 PUSH2 0x1FA JUMP JUMPDEST SWAP3 SWAP2 POP POP JUMP JUMPDEST PUSH0 PUSH1 0x20 DUP3 DUP5 SUB SLT ISZERO PUSH2 0x239 JUMPI PUSH2 0x238 PUSH2 0x1ED JUMP JUMPDEST JUMPDEST PUSH0 PUSH2 0x246 DUP5 DUP3 DUP6 ADD PUSH2 0x210 JUMP JUMPDEST SWAP2 POP POP SWAP3 SWAP2 POP POP JUMP JUMPDEST PUSH0 DUP2 MLOAD SWAP1 POP SWAP2 SWAP1 POP JUMP JUMPDEST PUSH0 DUP3 DUP3 MSTORE PUSH1 0x20 DUP3 ADD SWAP1 POP SWAP3 SWAP2 POP POP JUMP JUMPDEST DUP3 DUP2 DUP4 MCOPY PUSH0 DUP4 DUP4 ADD MSTORE POP POP POP JUMP JUMPDEST PUSH0 PUSH1 0x1F NOT PUSH1 0x1F DUP4 ADD AND SWAP1 POP SWAP2 SWAP1 POP JUMP JUMPDEST PUSH0 PUSH2 0x291 DUP3 PUSH2 0x24F JUMP JUMPDEST PUSH2 0x29B DUP2 DUP6 PUSH2 0x259 JUMP JUMPDEST SWAP4 POP PUSH2 0x2AB DUP2 DUP6 PUSH1 0x20 DUP7 ADD PUSH2 0x269 JUMP JUMPDEST PUSH2 0x2B4 DUP2 PUSH2 0x277 JUMP JUMPDEST DUP5 ADD SWAP2 POP POP SWAP3 SWAP2 POP POP JUMP JUMPDEST PUSH0 PUSH1 0x20 DUP3 ADD SWAP1 POP DUP2 DUP2 SUB PUSH0 DUP4 ADD MSTORE PUSH2 0x2D7 DUP2 DUP5 PUSH2 0x287 JUMP JUMPDEST SWAP1 POP SWAP3 SWAP2 POP POP JUMP JUMPDEST PUSH32 0x4E756D626572206F7574206F662072616E67652028312D333939392900000000 PUSH0 DUP3 ADD MSTORE POP JUMP JUMPDEST PUSH0 PUSH2 0x313 PUSH1 0x1C DUP4 PUSH2 0x259 JUMP JUMPDEST SWAP2 POP PUSH2 0x31E DUP3 PUSH2 0x2DF JUMP JUMPDEST PUSH1 0x20 DUP3 ADD SWAP1 POP SWAP2 SWAP1 POP JUMP JUMPDEST PUSH0 PUSH1 0x20 DUP3 ADD SWAP1 POP DUP2 DUP2 SUB PUSH0 DUP4 ADD MSTORE PUSH2 0x340 DUP2 PUSH2 0x307 JUMP JUMPDEST SWAP1 POP SWAP2 SWAP1 POP JUMP JUMPDEST PUSH32 0x4E487B7100000000000000000000000000000000000000000000000000000000 PUSH0 MSTORE PUSH1 0x32 PUSH1 0x4 MSTORE PUSH1 0x24 PUSH0 REVERT JUMPDEST PUSH32 0x4E487B7100000000000000000000000000000000000000000000000000000000 PUSH0 MSTORE PUSH1 0x22 PUSH1 0x4 MSTORE PUSH1 0x24 PUSH0 REVERT JUMPDEST PUSH0 PUSH1 0x2 DUP3 DIV SWAP1 POP PUSH1 0x1 DUP3 AND DUP1 PUSH2 0x3B8 JUMPI PUSH1 0x7F DUP3 AND SWAP2 POP JUMPDEST PUSH1 0x20 DUP3 LT DUP2 SUB PUSH2 0x3CB JUMPI PUSH2 0x3CA PUSH2 0x374 JUMP JUMPDEST JUMPDEST POP SWAP2 SWAP1 POP JUMP JUMPDEST PUSH0 DUP2 MLOAD SWAP1 POP SWAP2 SWAP1 POP JUMP JUMPDEST PUSH0 DUP2 SWAP1 POP SWAP3 SWAP2 POP POP JUMP JUMPDEST PUSH0 PUSH2 0x3EF DUP3 PUSH2 0x3D1 JUMP JUMPDEST PUSH2 0x3F9 DUP2 DUP6 PUSH2 0x3DB JUMP JUMPDEST SWAP4 POP PUSH2 0x409 DUP2 DUP6 PUSH1 0x20 DUP7 ADD PUSH2 0x269 JUMP JUMPDEST DUP1 DUP5 ADD SWAP2 POP POP SWAP3 SWAP2 POP POP JUMP JUMPDEST PUSH0 DUP2 SWAP1 POP SWAP3 SWAP2 POP POP JUMP JUMPDEST PUSH0 PUSH2 0x429 DUP3 PUSH2 0x24F JUMP JUMPDEST PUSH2 0x433 DUP2 DUP6 PUSH2 0x415 JUMP JUMPDEST SWAP4 POP PUSH2 0x443 DUP2 DUP6 PUSH1 0x20 DUP7 ADD PUSH2 0x269 JUMP JUMPDEST DUP1 DUP5 ADD SWAP2 POP POP SWAP3 SWAP2 POP POP JUMP JUMPDEST PUSH0 PUSH2 0x45A DUP3 DUP6 PUSH2 0x3E5 JUMP JUMPDEST SWAP2 POP PUSH2 0x466 DUP3 DUP5 PUSH2 0x41F JUMP JUMPDEST SWAP2 POP DUP2 SWAP1 POP SWAP4 SWAP3 POP POP POP JUMP JUMPDEST PUSH32 0x4E487B7100000000000000000000000000000000000000000000000000000000 PUSH0 MSTORE PUSH1 0x11 PUSH1 0x4 MSTORE PUSH1 0x24 PUSH0 REVERT JUMPDEST PUSH0 PUSH2 0x4A9 DUP3 PUSH2 0x1F1 JUMP JUMPDEST SWAP2 POP PUSH2 0x4B4 DUP4 PUSH2 0x1F1 JUMP JUMPDEST SWAP3 POP DUP3 DUP3 SUB SWAP1 POP DUP2 DUP2 GT ISZERO PUSH2 0x4CC JUMPI PUSH2 0x4CB PUSH2 0x472 JUMP JUMPDEST JUMPDEST SWAP3 SWAP2 POP POP JUMP INVALID LOG2 PUSH5 0x6970667358 0x22 SLT KECCAK256 PUSH31 0xA521139064428B15470C62BBA702D1A980764EEA173DC7371BB3872AD3A914 PUSH5 0x736F6C6343 STOP ADDMOD SAR STOP CALLER "
				},
				"gasEstimates": {
					"creation": {
						"codeDepositCost": "257600",
						"executionCost": "infinite",
						"totalCost": "infinite"
					},
					"external": {
						"toRoman(uint256)": "infinite"
					}
				},
				"methodIdentifiers": {
					"toRoman(uint256)": "ab7baabe"
				}
			},
			"storageLayout": {
				"storage": [
					{
						"astId": 10,
						"contract": "tests/task_2/task_2_3_.sol:RomanNumerals",
						"label": "romanSymbols",
						"offset": 0,
						"slot": "0",
						"type": "t_array(t_struct(RomanSymbol)6_storage)dyn_storage"
					}
				],
				"types": {
					"t_array(t_struct(RomanSymbol)6_storage)dyn_storage": {
						"base": "t_struct(RomanSymbol)6_storage",
						"encoding": "dynamic_array",
						"label": "struct RomanNumerals.RomanSymbol[]",
						"numberOfBytes": "32"
					},
					"t_string_storage": {
						"encoding": "bytes",
						"label": "string",
						"numberOfBytes": "32"
					},
					"t_struct(RomanSymbol)6_storage": {
						"encoding": "inplace",
						"label": "struct RomanNumerals.RomanSymbol",
						"members": [
							{
								"astId": 3,
								"contract": "tests/task_2/task_2_3_.sol:RomanNumerals",
								"label": "value",
								"offset": 0,
								"slot": "0",
								"type": "t_uint256"
							},
							{
								"astId": 5,
								"contract": "tests/task_2/task_2_3_.sol:RomanNumerals",
								"label": "symbol",
								"offset": 0,
								"slot": "1",
								"type": "t_string_storage"
							}
						],
						"numberOfBytes": "64"
					},
					"t_uint256": {
						"encoding": "inplace",
						"label": "uint256",
						"numberOfBytes": "32"
					}
				}
			},
			"userdoc": {
				"kind": "user",
				"methods": {},
				"version": 1
			}
		}
	}
}