{
	"tests/simp.sol": {
		"ExampleContract": {
			"abi": [
				{
					"inputs": [],
					"stateMutability": "nonpayable",
					"type": "constructor"
				},
				{
					"inputs": [],
					"name": "CONSTANT_VAR",
					"outputs": [
						{
							"internalType": "uint256",
							"name": "",
							"type": "uint256"
						}
					],
					"stateMutability": "view",
					"type": "function"
				},
				{
					"inputs": [],
					"name": "IMMUTABLE_VAR",
					"outputs": [
						{
							"internalType": "uint256",
							"name": "",
							"type": "uint256"
						}
					],
					"stateMutability": "view",
					"type": "function"
				},
				{
					"inputs": [
						{
							"components": [
								{
									"internalType": "uint256",
									"name": "value",
									"type": "uint256"
								},
								{
									"internalType": "string",
									"name": "name",
									"type": "string"
								}
							],
							"internalType": "struct ExampleContract.TempStruct",
							"name": "ts",
							"type": "tuple"
						}
					],
					"name": "_call",
					"outputs": [
						{
							"components": [
								{
									"internalType": "uint256",
									"name": "value",
									"type": "uint256"
								},
								{
									"internalType": "string",
									"name": "name",
									"type": "string"
								}
							],
							"internalType": "struct ExampleContract.TempStruct",
							"name": "",
							"type": "tuple"
						}
					],
					"stateMutability": "pure",
					"type": "function"
				},
				{
					"inputs": [
						{
							"internalType": "address",
							"name": "",
							"type": "address"
						}
					],
					"name": "balances",
					"outputs": [
						{
							"internalType": "uint256",
							"name": "",
							"type": "uint256"
						}
					],
					"stateMutability": "view",
					"type": "function"
				},
				{
					"inputs": [
						{
							"components": [
								{
									"internalType": "uint256",
									"name": "value",
									"type": "uint256"
								},
								{
									"internalType": "string",
									"name": "name",
									"type": "string"
								}
							],
							"internalType": "struct ExampleContract.TempStruct",
							"name": "ts",
							"type": "tuple"
						}
					],
					"name": "calldataTempStruct",
					"outputs": [
						{
							"components": [
								{
									"internalType": "uint256",
									"name": "value",
									"type": "uint256"
								},
								{
									"internalType": "string",
									"name": "name",
									"type": "string"
								}
							],
							"internalType": "struct ExampleContract.TempStruct",
							"name": "",
							"type": "tuple"
						}
					],
					"stateMutability": "view",
					"type": "function"
				},
				{
					"inputs": [],
					"name": "claimVar",
					"outputs": [
						{
							"internalType": "uint256",
							"name": "",
							"type": "uint256"
						}
					],
					"stateMutability": "view",
					"type": "function"
				},
				{
					"inputs": [
						{
							"internalType": "string",
							"name": "name",
							"type": "string"
						},
						{
							"internalType": "uint256",
							"name": "val",
							"type": "uint256"
						}
					],
					"name": "memoryTempStruct",
					"outputs": [
						{
							"components": [
								{
									"internalType": "uint256",
									"name": "value",
									"type": "uint256"
								},
								{
									"internalType": "string",
									"name": "name",
									"type": "string"
								}
							],
							"internalType": "struct ExampleContract.TempStruct",
							"name": "",
							"type": "tuple"
						}
					],
					"stateMutability": "view",
					"type": "function"
				},
				{
					"inputs": [
						{
							"internalType": "uint256",
							"name": "x",
							"type": "uint256"
						}
					],
					"name": "pureFunction",
					"outputs": [
						{
							"internalType": "uint256",
							"name": "",
							"type": "uint256"
						}
					],
					"stateMutability": "pure",
					"type": "function"
				},
				{
					"inputs": [
						{
							"internalType": "uint256[]",
							"name": "inputArray",
							"type": "uint256[]"
						}
					],
					"name": "referenceExample",
					"outputs": [],
					"stateMutability": "nonpayable",
					"type": "function"
				},
				{
					"inputs": [],
					"name": "stateVar",
					"outputs": [
						{
							"internalType": "uint256",
							"name": "",
							"type": "uint256"
						}
					],
					"stateMutability": "view",
					"type": "function"
				},
				{
					"inputs": [],
					"name": "testMemory",
					"outputs": [
						{
							"internalType": "string",
							"name": "",
							"type": "string"
						}
					],
					"stateMutability": "pure",
					"type": "function"
				},
				{
					"inputs": [],
					"name": "viewFunction",
					"outputs": [
						{
							"internalType": "uint256",
							"name": "",
							"type": "uint256"
						}
					],
					"stateMutability": "view",
					"type": "function"
				}
			],
			"devdoc": {
				"kind": "dev",
				"methods": {},
				"version": 1
			},
			"evm": {
				"assembly": "    /* \"tests/simp.sol\":60:3510  contract ExampleContract {... */\n  mstore(0x40, 0xa0)\n    /* \"tests/simp.sol\":173:176  100 */\n  0x64\n    /* \"tests/simp.sol\":147:176  uint256 public stateVar = 100 */\n  0x00\n  sstore\n    /* \"tests/simp.sol\":522:576  constructor() {... */\n  callvalue\n  dup1\n  iszero\n  tag_1\n  jumpi\n  0x00\n  dup1\n  revert\ntag_1:\n  pop\n    /* \"tests/simp.sol\":565:568  500 */\n  0x01f4\n    /* \"tests/simp.sol\":549:568  IMMUTABLE_VAR = 500 */\n  0x80\n  dup2\n  dup2\n  mstore\n  pop\n  pop\n    /* \"tests/simp.sol\":60:3510  contract ExampleContract {... */\n  mload(0x80)\n  codecopy(0x00, dataOffset(sub_0), dataSize(sub_0))\n  0x00\n  assignImmutable(\"0x277ab82e5a4641341820a4a2933a62c1de997e42e92548657ae21b3728d580fe\")\n  return(0x00, dataSize(sub_0))\nstop\n\nsub_0: assembly {\n        /* \"tests/simp.sol\":60:3510  contract ExampleContract {... */\n      mstore(0x40, 0x80)\n      callvalue\n      dup1\n      iszero\n      tag_1\n      jumpi\n      0x00\n      dup1\n      revert\n    tag_1:\n      pop\n      jumpi(tag_2, lt(calldatasize, 0x04))\n      shr(0xe0, calldataload(0x00))\n      dup1\n      0x9080b79b\n      gt\n      tag_15\n      jumpi\n      dup1\n      0x9080b79b\n      eq\n      tag_9\n      jumpi\n      dup1\n      0x90ca396a\n      eq\n      tag_10\n      jumpi\n      dup1\n      0x91644803\n      eq\n      tag_11\n      jumpi\n      dup1\n      0x9b05bf81\n      eq\n      tag_12\n      jumpi\n      dup1\n      0xb9c03b9a\n      eq\n      tag_13\n      jumpi\n      dup1\n      0xed36b3d8\n      eq\n      tag_14\n      jumpi\n      jump(tag_2)\n    tag_15:\n      dup1\n      0x27e235e3\n      eq\n      tag_3\n      jumpi\n      dup1\n      0x507aab7f\n      eq\n      tag_4\n      jumpi\n      dup1\n      0x52ba01ef\n      eq\n      tag_5\n      jumpi\n      dup1\n      0x793816ec\n      eq\n      tag_6\n      jumpi\n      dup1\n      0x80c1f5f6\n      eq\n      tag_7\n      jumpi\n      dup1\n      0x884180a7\n      eq\n      tag_8\n      jumpi\n    tag_2:\n      0x00\n      dup1\n      revert\n        /* \"tests/simp.sol\":183:226  mapping(address => uint256) public balances */\n    tag_3:\n      tag_16\n      0x04\n      dup1\n      calldatasize\n      sub\n      dup2\n      add\n      swap1\n      tag_17\n      swap2\n      swap1\n      tag_18\n      jump\t// in\n    tag_17:\n      tag_19\n      jump\t// in\n    tag_16:\n      mload(0x40)\n      tag_20\n      swap2\n      swap1\n      tag_21\n      jump\t// in\n    tag_20:\n      mload(0x40)\n      dup1\n      swap2\n      sub\n      swap1\n      return\n        /* \"tests/simp.sol\":327:370  uint256 public constant CONSTANT_VAR = 1000 */\n    tag_4:\n      tag_22\n      tag_23\n      jump\t// in\n    tag_22:\n      mload(0x40)\n      tag_24\n      swap2\n      swap1\n      tag_21\n      jump\t// in\n    tag_24:\n      mload(0x40)\n      dup1\n      swap2\n      sub\n      swap1\n      return\n        /* \"tests/simp.sol\":705:1685  function claimVar() public view returns (uint256) {... */\n    tag_5:\n      tag_25\n      tag_26\n      jump\t// in\n    tag_25:\n      mload(0x40)\n      tag_27\n      swap2\n      swap1\n      tag_21\n      jump\t// in\n    tag_27:\n      mload(0x40)\n      dup1\n      swap2\n      sub\n      swap1\n      return\n        /* \"tests/simp.sol\":147:176  uint256 public stateVar = 100 */\n    tag_6:\n      tag_28\n      tag_29\n      jump\t// in\n    tag_28:\n      mload(0x40)\n      tag_30\n      swap2\n      swap1\n      tag_21\n      jump\t// in\n    tag_30:\n      mload(0x40)\n      dup1\n      swap2\n      sub\n      swap1\n      return\n        /* \"tests/simp.sol\":596:693  function testMemory() public pure returns(string memory) {... */\n    tag_7:\n      tag_31\n      tag_32\n      jump\t// in\n    tag_31:\n      mload(0x40)\n      tag_33\n      swap2\n      swap1\n      tag_34\n      jump\t// in\n    tag_33:\n      mload(0x40)\n      dup1\n      swap2\n      sub\n      swap1\n      return\n        /* \"tests/simp.sol\":2730:2837  function _call(TempStruct calldata ts) public pure returns (TempStruct memory) {... */\n    tag_8:\n      tag_35\n      0x04\n      dup1\n      calldatasize\n      sub\n      dup2\n      add\n      swap1\n      tag_36\n      swap2\n      swap1\n      tag_37\n      jump\t// in\n    tag_36:\n      tag_38\n      jump\t// in\n    tag_35:\n      mload(0x40)\n      tag_39\n      swap2\n      swap1\n      tag_40\n      jump\t// in\n    tag_39:\n      mload(0x40)\n      dup1\n      swap2\n      sub\n      swap1\n      return\n        /* \"tests/simp.sol\":2035:2351  function referenceExample(uint256[] memory inputArray) public {... */\n    tag_9:\n      tag_41\n      0x04\n      dup1\n      calldatasize\n      sub\n      dup2\n      add\n      swap1\n      tag_42\n      swap2\n      swap1\n      tag_43\n      jump\t// in\n    tag_42:\n      tag_44\n      jump\t// in\n    tag_41:\n      stop\n        /* \"tests/simp.sol\":2439:2722  function memoryTempStruct(string calldata name, uint val) public view returns(TempStruct memory) {... */\n    tag_10:\n      tag_45\n      0x04\n      dup1\n      calldatasize\n      sub\n      dup2\n      add\n      swap1\n      tag_46\n      swap2\n      swap1\n      tag_47\n      jump\t// in\n    tag_46:\n      tag_48\n      jump\t// in\n    tag_45:\n      mload(0x40)\n      tag_49\n      swap2\n      swap1\n      tag_40\n      jump\t// in\n    tag_49:\n      mload(0x40)\n      dup1\n      swap2\n      sub\n      swap1\n      return\n        /* \"tests/simp.sol\":3015:3324  function calldataTempStruct(TempStruct calldata ts) external view returns (TempStruct memory) {... */\n    tag_11:\n      tag_50\n      0x04\n      dup1\n      calldatasize\n      sub\n      dup2\n      add\n      swap1\n      tag_51\n      swap2\n      swap1\n      tag_37\n      jump\t// in\n    tag_51:\n      tag_52\n      jump\t// in\n    tag_50:\n      mload(0x40)\n      tag_53\n      swap2\n      swap1\n      tag_40\n      jump\t// in\n    tag_53:\n      mload(0x40)\n      dup1\n      swap2\n      sub\n      swap1\n      return\n        /* \"tests/simp.sol\":437:475  uint256 public immutable IMMUTABLE_VAR */\n    tag_12:\n      tag_54\n      tag_55\n      jump\t// in\n    tag_54:\n      mload(0x40)\n      tag_56\n      swap2\n      swap1\n      tag_21\n      jump\t// in\n    tag_56:\n      mload(0x40)\n      dup1\n      swap2\n      sub\n      swap1\n      return\n        /* \"tests/simp.sol\":1758:1876  function pureFunction(uint256 x) public pure returns (uint256) {... */\n    tag_13:\n      tag_57\n      0x04\n      dup1\n      calldatasize\n      sub\n      dup2\n      add\n      swap1\n      tag_58\n      swap2\n      swap1\n      tag_59\n      jump\t// in\n    tag_58:\n      tag_60\n      jump\t// in\n    tag_57:\n      mload(0x40)\n      tag_61\n      swap2\n      swap1\n      tag_21\n      jump\t// in\n    tag_61:\n      mload(0x40)\n      dup1\n      swap2\n      sub\n      swap1\n      return\n        /* \"tests/simp.sol\":1906:1994  function viewFunction() public view returns (uint256) {... */\n    tag_14:\n      tag_62\n      tag_63\n      jump\t// in\n    tag_62:\n      mload(0x40)\n      tag_64\n      swap2\n      swap1\n      tag_21\n      jump\t// in\n    tag_64:\n      mload(0x40)\n      dup1\n      swap2\n      sub\n      swap1\n      return\n        /* \"tests/simp.sol\":183:226  mapping(address => uint256) public balances */\n    tag_19:\n      mstore(0x20, 0x01)\n      dup1\n      0x00\n      mstore\n      keccak256(0x00, 0x40)\n      0x00\n      swap2\n      pop\n      swap1\n      pop\n      sload\n      dup2\n      jump\t// out\n        /* \"tests/simp.sol\":327:370  uint256 public constant CONSTANT_VAR = 1000 */\n    tag_23:\n        /* \"tests/simp.sol\":366:370  1000 */\n      0x03e8\n        /* \"tests/simp.sol\":327:370  uint256 public constant CONSTANT_VAR = 1000 */\n      dup2\n      jump\t// out\n        /* \"tests/simp.sol\":705:1685  function claimVar() public view returns (uint256) {... */\n    tag_26:\n        /* \"tests/simp.sol\":746:753  uint256 */\n      0x00\n        /* \"tests/simp.sol\":807:835  uint256[] memory memoryArray */\n      dup1\n        /* \"tests/simp.sol\":852:853  3 */\n      0x03\n        /* \"tests/simp.sol\":838:854  new uint256[](3) */\n      0xffffffffffffffff\n      dup2\n      gt\n      iszero\n      tag_66\n      jumpi\n      tag_67\n      tag_68\n      jump\t// in\n    tag_67:\n    tag_66:\n      mload(0x40)\n      swap1\n      dup1\n      dup3\n      mstore\n      dup1\n      0x20\n      mul\n      0x20\n      add\n      dup3\n      add\n      0x40\n      mstore\n      dup1\n      iszero\n      tag_69\n      jumpi\n      dup2\n      0x20\n      add\n      0x20\n      dup3\n      mul\n      dup1\n      calldatasize\n      dup4\n      calldatacopy\n      dup1\n      dup3\n      add\n      swap2\n      pop\n      pop\n      swap1\n      pop\n    tag_69:\n      pop\n        /* \"tests/simp.sol\":807:854  uint256[] memory memoryArray = new uint256[](3) */\n      swap1\n      pop\n        /* \"tests/simp.sol\":865:882  string memory str */\n      0x00\n        /* \"tests/simp.sol\":865:892  string memory str = \"Hello\" */\n      mload(0x40)\n      dup1\n      0x40\n      add\n      0x40\n      mstore\n      dup1\n      0x05\n      dup2\n      mstore\n      0x20\n      add\n      0x48656c6c6f000000000000000000000000000000000000000000000000000000\n      dup2\n      mstore\n      pop\n      swap1\n      pop\n        /* \"tests/simp.sol\":903:925  bytes memory tempBytes */\n      0x00\n        /* \"tests/simp.sol\":938:940  10 */\n      0x0a\n        /* \"tests/simp.sol\":928:941  new bytes(10) */\n      0xffffffffffffffff\n      dup2\n      gt\n      iszero\n      tag_70\n      jumpi\n      tag_71\n      tag_68\n      jump\t// in\n    tag_71:\n    tag_70:\n      mload(0x40)\n      swap1\n      dup1\n      dup3\n      mstore\n      dup1\n      0x1f\n      add\n      not(0x1f)\n      and\n      0x20\n      add\n      dup3\n      add\n      0x40\n      mstore\n      dup1\n      iszero\n      tag_72\n      jumpi\n      dup2\n      0x20\n      add\n      0x01\n      dup3\n      mul\n      dup1\n      calldatasize\n      dup4\n      calldatacopy\n      dup1\n      dup3\n      add\n      swap2\n      pop\n      pop\n      swap1\n      pop\n    tag_72:\n      pop\n        /* \"tests/simp.sol\":903:941  bytes memory tempBytes = new bytes(10) */\n      swap1\n      pop\n        /* \"tests/simp.sol\":1009:1025  uint256 stackVar */\n      0x00\n        /* \"tests/simp.sol\":1028:1031  123 */\n      0x7b\n        /* \"tests/simp.sol\":1009:1031  uint256 stackVar = 123 */\n      swap1\n      pop\n        /* \"tests/simp.sol\":1042:1051  bool flag */\n      0x00\n        /* \"tests/simp.sol\":1054:1058  true */\n      0x01\n        /* \"tests/simp.sol\":1042:1058  bool flag = true */\n      swap1\n      pop\n        /* \"tests/simp.sol\":1069:1083  address sender */\n      0x00\n        /* \"tests/simp.sol\":1086:1096  msg.sender */\n      caller\n        /* \"tests/simp.sol\":1069:1096  address sender = msg.sender */\n      swap1\n      pop\n        /* \"tests/simp.sol\":1107:1121  uint8 smallNum */\n      0x00\n        /* \"tests/simp.sol\":1124:1127  255 */\n      0xff\n        /* \"tests/simp.sol\":1107:1127  uint8 smallNum = 255 */\n      swap1\n      pop\n        /* \"tests/simp.sol\":1210:1240  uint256[] storage storageArray */\n      0x00\n        /* \"tests/simp.sol\":1243:1259  someStorageArray */\n      0x02\n        /* \"tests/simp.sol\":1210:1259  uint256[] storage storageArray = someStorageArray */\n      swap1\n      pop\n        /* \"tests/simp.sol\":1270:1316  mapping(address => uint256) storage storageMap */\n      0x00\n        /* \"tests/simp.sol\":1319:1327  balances */\n      0x01\n        /* \"tests/simp.sol\":1270:1327  mapping(address => uint256) storage storageMap = balances */\n      swap1\n      pop\n        /* \"tests/simp.sol\":1350:1378  TempStruct memory tempStruct */\n      0x00\n        /* \"tests/simp.sol\":1381:1456  TempStruct({... */\n      mload(0x40)\n      dup1\n      0x40\n      add\n      0x40\n      mstore\n      dup1\n        /* \"tests/simp.sol\":1414:1417  100 */\n      0x64\n        /* \"tests/simp.sol\":1381:1456  TempStruct({... */\n      dup2\n      mstore\n      0x20\n      add\n      mload(0x40)\n      dup1\n      0x40\n      add\n      0x40\n      mstore\n      dup1\n      0x04\n      dup2\n      mstore\n      0x20\n      add\n      0x5465737400000000000000000000000000000000000000000000000000000000\n      dup2\n      mstore\n      pop\n      dup2\n      mstore\n      pop\n        /* \"tests/simp.sol\":1350:1456  TempStruct memory tempStruct = TempStruct({... */\n      swap1\n      pop\n        /* \"tests/simp.sol\":1528:1535  uint8 i */\n      0x00\n        /* \"tests/simp.sol\":1523:1642  for (uint8 i = 0; i < 3; i++) {... */\n    tag_73:\n        /* \"tests/simp.sol\":1545:1546  3 */\n      0x03\n        /* \"tests/simp.sol\":1541:1542  i */\n      dup2\n        /* \"tests/simp.sol\":1541:1546  i < 3 */\n      0xff\n      and\n      lt\n        /* \"tests/simp.sol\":1523:1642  for (uint8 i = 0; i < 3; i++) {... */\n      iszero\n      tag_74\n      jumpi\n        /* \"tests/simp.sol\":1568:1583  uint256 loopVar */\n      0x00\n        /* \"tests/simp.sol\":1590:1591  2 */\n      0x02\n        /* \"tests/simp.sol\":1586:1587  i */\n      dup3\n        /* \"tests/simp.sol\":1586:1591  i * 2 */\n      tag_76\n      swap2\n      swap1\n      tag_77\n      jump\t// in\n    tag_76:\n        /* \"tests/simp.sol\":1568:1591  uint256 loopVar = i * 2 */\n      0xff\n      and\n      swap1\n      pop\n        /* \"tests/simp.sol\":1623:1630  loopVar */\n      dup1\n        /* \"tests/simp.sol\":1606:1617  memoryArray */\n      dup13\n        /* \"tests/simp.sol\":1618:1619  i */\n      dup4\n        /* \"tests/simp.sol\":1606:1620  memoryArray[i] */\n      0xff\n      and\n      dup2\n      mload\n      dup2\n      lt\n      tag_78\n      jumpi\n      tag_79\n      tag_80\n      jump\t// in\n    tag_79:\n    tag_78:\n      0x20\n      mul\n      0x20\n      add\n      add\n        /* \"tests/simp.sol\":1606:1630  memoryArray[i] = loopVar */\n      dup2\n      dup2\n      mstore\n      pop\n      pop\n        /* \"tests/simp.sol\":1553:1642  {... */\n      pop\n        /* \"tests/simp.sol\":1548:1551  i++ */\n      dup1\n      dup1\n      0x01\n      add\n      swap2\n      pop\n      pop\n        /* \"tests/simp.sol\":1523:1642  for (uint8 i = 0; i < 3; i++) {... */\n      jump(tag_73)\n    tag_74:\n      pop\n        /* \"tests/simp.sol\":1669:1677  stackVar */\n      dup7\n        /* \"tests/simp.sol\":1662:1677  return stackVar */\n      swap11\n      pop\n      pop\n      pop\n      pop\n      pop\n      pop\n      pop\n      pop\n      pop\n      pop\n      pop\n        /* \"tests/simp.sol\":705:1685  function claimVar() public view returns (uint256) {... */\n      swap1\n      jump\t// out\n        /* \"tests/simp.sol\":147:176  uint256 public stateVar = 100 */\n    tag_29:\n      sload(0x00)\n      dup2\n      jump\t// out\n        /* \"tests/simp.sol\":596:693  function testMemory() public pure returns(string memory) {... */\n    tag_32:\n        /* \"tests/simp.sol\":638:651  string memory */\n      0x60\n        /* \"tests/simp.sol\":666:685  return \"testMemory\" */\n      mload(0x40)\n      dup1\n      0x40\n      add\n      0x40\n      mstore\n      dup1\n      0x0a\n      dup2\n      mstore\n      0x20\n      add\n      0x746573744d656d6f727900000000000000000000000000000000000000000000\n      dup2\n      mstore\n      pop\n      swap1\n      pop\n        /* \"tests/simp.sol\":596:693  function testMemory() public pure returns(string memory) {... */\n      swap1\n      jump\t// out\n        /* \"tests/simp.sol\":2730:2837  function _call(TempStruct calldata ts) public pure returns (TempStruct memory) {... */\n    tag_38:\n        /* \"tests/simp.sol\":2790:2807  TempStruct memory */\n      tag_82\n      tag_83\n      jump\t// in\n    tag_82:\n        /* \"tests/simp.sol\":2827:2829  ts */\n      dup2\n        /* \"tests/simp.sol\":2820:2829  return ts */\n      tag_85\n      swap1\n      tag_86\n      jump\t// in\n    tag_85:\n      swap1\n      pop\n        /* \"tests/simp.sol\":2730:2837  function _call(TempStruct calldata ts) public pure returns (TempStruct memory) {... */\n      swap2\n      swap1\n      pop\n      jump\t// out\n        /* \"tests/simp.sol\":2035:2351  function referenceExample(uint256[] memory inputArray) public {... */\n    tag_44:\n        /* \"tests/simp.sol\":2148:2175  uint256[] memory localArray */\n      0x00\n        /* \"tests/simp.sol\":2178:2188  inputArray */\n      dup2\n        /* \"tests/simp.sol\":2148:2188  uint256[] memory localArray = inputArray */\n      swap1\n      pop\n        /* \"tests/simp.sol\":2317:2333  someStorageArray */\n      0x02\n        /* \"tests/simp.sol\":2339:2342  100 */\n      0x64\n        /* \"tests/simp.sol\":2317:2343  someStorageArray.push(100) */\n      swap1\n      dup1\n      0x01\n      dup2\n      sload\n      add\n      dup1\n      dup3\n      sstore\n      dup1\n      swap2\n      pop\n      pop\n      0x01\n      swap1\n      sub\n      swap1\n      0x00\n      mstore\n      keccak256(0x00, 0x20)\n      add\n      0x00\n      swap1\n      swap2\n      swap1\n      swap2\n      swap1\n      swap2\n      pop\n      sstore\n        /* \"tests/simp.sol\":2097:2351  {... */\n      pop\n        /* \"tests/simp.sol\":2035:2351  function referenceExample(uint256[] memory inputArray) public {... */\n      pop\n      jump\t// out\n        /* \"tests/simp.sol\":2439:2722  function memoryTempStruct(string calldata name, uint val) public view returns(TempStruct memory) {... */\n    tag_48:\n        /* \"tests/simp.sol\":2517:2534  TempStruct memory */\n      tag_89\n      tag_83\n      jump\t// in\n    tag_89:\n        /* \"tests/simp.sol\":2598:2618  TempStruct memory ts */\n      0x00\n        /* \"tests/simp.sol\":2621:2694  TempStruct({... */\n      mload(0x40)\n      dup1\n      0x40\n      add\n      0x40\n      mstore\n      dup1\n        /* \"tests/simp.sol\":2679:2682  val */\n      dup5\n        /* \"tests/simp.sol\":2621:2694  TempStruct({... */\n      dup2\n      mstore\n      0x20\n      add\n        /* \"tests/simp.sol\":2653:2657  name */\n      dup7\n      dup7\n        /* \"tests/simp.sol\":2621:2694  TempStruct({... */\n      dup1\n      dup1\n      0x1f\n      add\n      0x20\n      dup1\n      swap2\n      div\n      mul\n      0x20\n      add\n      mload(0x40)\n      swap1\n      dup2\n      add\n      0x40\n      mstore\n      dup1\n      swap4\n      swap3\n      swap2\n      swap1\n      dup2\n      dup2\n      mstore\n      0x20\n      add\n      dup4\n      dup4\n      dup1\n      dup3\n      dup5\n      calldatacopy\n      0x00\n      dup2\n      dup5\n      add\n      mstore\n      not(0x1f)\n      0x1f\n      dup3\n      add\n      and\n      swap1\n      pop\n      dup1\n      dup4\n      add\n      swap3\n      pop\n      pop\n      pop\n      pop\n      pop\n      pop\n      pop\n      dup2\n      mstore\n      pop\n        /* \"tests/simp.sol\":2598:2694  TempStruct memory ts = TempStruct({... */\n      swap1\n      pop\n        /* \"tests/simp.sol\":2712:2714  ts */\n      dup1\n        /* \"tests/simp.sol\":2705:2714  return ts */\n      swap2\n      pop\n      pop\n        /* \"tests/simp.sol\":2439:2722  function memoryTempStruct(string calldata name, uint val) public view returns(TempStruct memory) {... */\n      swap4\n      swap3\n      pop\n      pop\n      pop\n      jump\t// out\n        /* \"tests/simp.sol\":3015:3324  function calldataTempStruct(TempStruct calldata ts) external view returns (TempStruct memory) {... */\n    tag_52:\n        /* \"tests/simp.sol\":3090:3107  TempStruct memory */\n      tag_91\n      tag_83\n      jump\t// in\n    tag_91:\n        /* \"tests/simp.sol\":3286:3295  _call(ts) */\n      tag_93\n        /* \"tests/simp.sol\":3292:3294  ts */\n      dup3\n        /* \"tests/simp.sol\":3286:3291  _call */\n      tag_38\n        /* \"tests/simp.sol\":3286:3295  _call(ts) */\n      jump\t// in\n    tag_93:\n        /* \"tests/simp.sol\":3279:3295  return _call(ts) */\n      swap1\n      pop\n        /* \"tests/simp.sol\":3015:3324  function calldataTempStruct(TempStruct calldata ts) external view returns (TempStruct memory) {... */\n      swap2\n      swap1\n      pop\n      jump\t// out\n        /* \"tests/simp.sol\":437:475  uint256 public immutable IMMUTABLE_VAR */\n    tag_55:\n      immutable(\"0x277ab82e5a4641341820a4a2933a62c1de997e42e92548657ae21b3728d580fe\")\n      dup2\n      jump\t// out\n        /* \"tests/simp.sol\":1758:1876  function pureFunction(uint256 x) public pure returns (uint256) {... */\n    tag_60:\n        /* \"tests/simp.sol\":1812:1819  uint256 */\n      0x00\n        /* \"tests/simp.sol\":1832:1841  uint256 y */\n      dup1\n        /* \"tests/simp.sol\":1848:1849  2 */\n      0x02\n        /* \"tests/simp.sol\":1844:1845  x */\n      dup4\n        /* \"tests/simp.sol\":1844:1849  x * 2 */\n      tag_95\n      swap2\n      swap1\n      tag_96\n      jump\t// in\n    tag_95:\n        /* \"tests/simp.sol\":1832:1849  uint256 y = x * 2 */\n      swap1\n      pop\n        /* \"tests/simp.sol\":1867:1868  y */\n      dup1\n        /* \"tests/simp.sol\":1860:1868  return y */\n      swap2\n      pop\n      pop\n        /* \"tests/simp.sol\":1758:1876  function pureFunction(uint256 x) public pure returns (uint256) {... */\n      swap2\n      swap1\n      pop\n      jump\t// out\n        /* \"tests/simp.sol\":1906:1994  function viewFunction() public view returns (uint256) {... */\n    tag_63:\n        /* \"tests/simp.sol\":1951:1958  uint256 */\n      0x00\n        /* \"tests/simp.sol\":1978:1986  stateVar */\n      dup1\n      sload\n        /* \"tests/simp.sol\":1971:1986  return stateVar */\n      swap1\n      pop\n        /* \"tests/simp.sol\":1906:1994  function viewFunction() public view returns (uint256) {... */\n      swap1\n      jump\t// out\n    tag_83:\n      mload(0x40)\n      dup1\n      0x40\n      add\n      0x40\n      mstore\n      dup1\n      0x00\n      dup2\n      mstore\n      0x20\n      add\n      0x60\n      dup2\n      mstore\n      pop\n      swap1\n      jump\t// out\n        /* \"#utility.yul\":7:82   */\n    tag_98:\n        /* \"#utility.yul\":40:46   */\n      0x00\n        /* \"#utility.yul\":73:75   */\n      0x40\n        /* \"#utility.yul\":67:76   */\n      mload\n        /* \"#utility.yul\":57:76   */\n      swap1\n      pop\n        /* \"#utility.yul\":7:82   */\n      swap1\n      jump\t// out\n        /* \"#utility.yul\":88:205   */\n    tag_99:\n        /* \"#utility.yul\":197:198   */\n      0x00\n        /* \"#utility.yul\":194:195   */\n      dup1\n        /* \"#utility.yul\":187:199   */\n      revert\n        /* \"#utility.yul\":211:328   */\n    tag_100:\n        /* \"#utility.yul\":320:321   */\n      0x00\n        /* \"#utility.yul\":317:318   */\n      dup1\n        /* \"#utility.yul\":310:322   */\n      revert\n        /* \"#utility.yul\":334:460   */\n    tag_101:\n        /* \"#utility.yul\":371:378   */\n      0x00\n        /* \"#utility.yul\":411:453   */\n      0xffffffffffffffffffffffffffffffffffffffff\n        /* \"#utility.yul\":404:409   */\n      dup3\n        /* \"#utility.yul\":400:454   */\n      and\n        /* \"#utility.yul\":389:454   */\n      swap1\n      pop\n        /* \"#utility.yul\":334:460   */\n      swap2\n      swap1\n      pop\n      jump\t// out\n        /* \"#utility.yul\":466:562   */\n    tag_102:\n        /* \"#utility.yul\":503:510   */\n      0x00\n        /* \"#utility.yul\":532:556   */\n      tag_145\n        /* \"#utility.yul\":550:555   */\n      dup3\n        /* \"#utility.yul\":532:556   */\n      tag_101\n      jump\t// in\n    tag_145:\n        /* \"#utility.yul\":521:556   */\n      swap1\n      pop\n        /* \"#utility.yul\":466:562   */\n      swap2\n      swap1\n      pop\n      jump\t// out\n        /* \"#utility.yul\":568:690   */\n    tag_103:\n        /* \"#utility.yul\":641:665   */\n      tag_147\n        /* \"#utility.yul\":659:664   */\n      dup2\n        /* \"#utility.yul\":641:665   */\n      tag_102\n      jump\t// in\n    tag_147:\n        /* \"#utility.yul\":634:639   */\n      dup2\n        /* \"#utility.yul\":631:666   */\n      eq\n        /* \"#utility.yul\":621:684   */\n      tag_148\n      jumpi\n        /* \"#utility.yul\":680:681   */\n      0x00\n        /* \"#utility.yul\":677:678   */\n      dup1\n        /* \"#utility.yul\":670:682   */\n      revert\n        /* \"#utility.yul\":621:684   */\n    tag_148:\n        /* \"#utility.yul\":568:690   */\n      pop\n      jump\t// out\n        /* \"#utility.yul\":696:835   */\n    tag_104:\n        /* \"#utility.yul\":742:747   */\n      0x00\n        /* \"#utility.yul\":780:786   */\n      dup2\n        /* \"#utility.yul\":767:787   */\n      calldataload\n        /* \"#utility.yul\":758:787   */\n      swap1\n      pop\n        /* \"#utility.yul\":796:829   */\n      tag_150\n        /* \"#utility.yul\":823:828   */\n      dup2\n        /* \"#utility.yul\":796:829   */\n      tag_103\n      jump\t// in\n    tag_150:\n        /* \"#utility.yul\":696:835   */\n      swap3\n      swap2\n      pop\n      pop\n      jump\t// out\n        /* \"#utility.yul\":841:1170   */\n    tag_18:\n        /* \"#utility.yul\":900:906   */\n      0x00\n        /* \"#utility.yul\":949:951   */\n      0x20\n        /* \"#utility.yul\":937:946   */\n      dup3\n        /* \"#utility.yul\":928:935   */\n      dup5\n        /* \"#utility.yul\":924:947   */\n      sub\n        /* \"#utility.yul\":920:952   */\n      slt\n        /* \"#utility.yul\":917:1036   */\n      iszero\n      tag_152\n      jumpi\n        /* \"#utility.yul\":955:1034   */\n      tag_153\n      tag_99\n      jump\t// in\n    tag_153:\n        /* \"#utility.yul\":917:1036   */\n    tag_152:\n        /* \"#utility.yul\":1075:1076   */\n      0x00\n        /* \"#utility.yul\":1100:1153   */\n      tag_154\n        /* \"#utility.yul\":1145:1152   */\n      dup5\n        /* \"#utility.yul\":1136:1142   */\n      dup3\n        /* \"#utility.yul\":1125:1134   */\n      dup6\n        /* \"#utility.yul\":1121:1143   */\n      add\n        /* \"#utility.yul\":1100:1153   */\n      tag_104\n      jump\t// in\n    tag_154:\n        /* \"#utility.yul\":1090:1153   */\n      swap2\n      pop\n        /* \"#utility.yul\":1046:1163   */\n      pop\n        /* \"#utility.yul\":841:1170   */\n      swap3\n      swap2\n      pop\n      pop\n      jump\t// out\n        /* \"#utility.yul\":1176:1253   */\n    tag_105:\n        /* \"#utility.yul\":1213:1220   */\n      0x00\n        /* \"#utility.yul\":1242:1247   */\n      dup2\n        /* \"#utility.yul\":1231:1247   */\n      swap1\n      pop\n        /* \"#utility.yul\":1176:1253   */\n      swap2\n      swap1\n      pop\n      jump\t// out\n        /* \"#utility.yul\":1259:1377   */\n    tag_106:\n        /* \"#utility.yul\":1346:1370   */\n      tag_157\n        /* \"#utility.yul\":1364:1369   */\n      dup2\n        /* \"#utility.yul\":1346:1370   */\n      tag_105\n      jump\t// in\n    tag_157:\n        /* \"#utility.yul\":1341:1344   */\n      dup3\n        /* \"#utility.yul\":1334:1371   */\n      mstore\n        /* \"#utility.yul\":1259:1377   */\n      pop\n      pop\n      jump\t// out\n        /* \"#utility.yul\":1383:1605   */\n    tag_21:\n        /* \"#utility.yul\":1476:1480   */\n      0x00\n        /* \"#utility.yul\":1514:1516   */\n      0x20\n        /* \"#utility.yul\":1503:1512   */\n      dup3\n        /* \"#utility.yul\":1499:1517   */\n      add\n        /* \"#utility.yul\":1491:1517   */\n      swap1\n      pop\n        /* \"#utility.yul\":1527:1598   */\n      tag_159\n        /* \"#utility.yul\":1595:1596   */\n      0x00\n        /* \"#utility.yul\":1584:1593   */\n      dup4\n        /* \"#utility.yul\":1580:1597   */\n      add\n        /* \"#utility.yul\":1571:1577   */\n      dup5\n        /* \"#utility.yul\":1527:1598   */\n      tag_106\n      jump\t// in\n    tag_159:\n        /* \"#utility.yul\":1383:1605   */\n      swap3\n      swap2\n      pop\n      pop\n      jump\t// out\n        /* \"#utility.yul\":1611:1710   */\n    tag_107:\n        /* \"#utility.yul\":1663:1669   */\n      0x00\n        /* \"#utility.yul\":1697:1702   */\n      dup2\n        /* \"#utility.yul\":1691:1703   */\n      mload\n        /* \"#utility.yul\":1681:1703   */\n      swap1\n      pop\n        /* \"#utility.yul\":1611:1710   */\n      swap2\n      swap1\n      pop\n      jump\t// out\n        /* \"#utility.yul\":1716:1885   */\n    tag_108:\n        /* \"#utility.yul\":1800:1811   */\n      0x00\n        /* \"#utility.yul\":1834:1840   */\n      dup3\n        /* \"#utility.yul\":1829:1832   */\n      dup3\n        /* \"#utility.yul\":1822:1841   */\n      mstore\n        /* \"#utility.yul\":1874:1878   */\n      0x20\n        /* \"#utility.yul\":1869:1872   */\n      dup3\n        /* \"#utility.yul\":1865:1879   */\n      add\n        /* \"#utility.yul\":1850:1879   */\n      swap1\n      pop\n        /* \"#utility.yul\":1716:1885   */\n      swap3\n      swap2\n      pop\n      pop\n      jump\t// out\n        /* \"#utility.yul\":1891:2137   */\n    tag_109:\n        /* \"#utility.yul\":1972:1973   */\n      0x00\n        /* \"#utility.yul\":1982:2095   */\n    tag_163:\n        /* \"#utility.yul\":1996:2002   */\n      dup4\n        /* \"#utility.yul\":1993:1994   */\n      dup2\n        /* \"#utility.yul\":1990:2003   */\n      lt\n        /* \"#utility.yul\":1982:2095   */\n      iszero\n      tag_165\n      jumpi\n        /* \"#utility.yul\":2081:2082   */\n      dup1\n        /* \"#utility.yul\":2076:2079   */\n      dup3\n        /* \"#utility.yul\":2072:2083   */\n      add\n        /* \"#utility.yul\":2066:2084   */\n      mload\n        /* \"#utility.yul\":2062:2063   */\n      dup2\n        /* \"#utility.yul\":2057:2060   */\n      dup5\n        /* \"#utility.yul\":2053:2064   */\n      add\n        /* \"#utility.yul\":2046:2085   */\n      mstore\n        /* \"#utility.yul\":2018:2020   */\n      0x20\n        /* \"#utility.yul\":2015:2016   */\n      dup2\n        /* \"#utility.yul\":2011:2021   */\n      add\n        /* \"#utility.yul\":2006:2021   */\n      swap1\n      pop\n        /* \"#utility.yul\":1982:2095   */\n      jump(tag_163)\n    tag_165:\n        /* \"#utility.yul\":2129:2130   */\n      0x00\n        /* \"#utility.yul\":2120:2126   */\n      dup5\n        /* \"#utility.yul\":2115:2118   */\n      dup5\n        /* \"#utility.yul\":2111:2127   */\n      add\n        /* \"#utility.yul\":2104:2131   */\n      mstore\n        /* \"#utility.yul\":1953:2137   */\n      pop\n        /* \"#utility.yul\":1891:2137   */\n      pop\n      pop\n      pop\n      jump\t// out\n        /* \"#utility.yul\":2143:2245   */\n    tag_110:\n        /* \"#utility.yul\":2184:2190   */\n      0x00\n        /* \"#utility.yul\":2235:2237   */\n      0x1f\n        /* \"#utility.yul\":2231:2238   */\n      not\n        /* \"#utility.yul\":2226:2228   */\n      0x1f\n        /* \"#utility.yul\":2219:2224   */\n      dup4\n        /* \"#utility.yul\":2215:2229   */\n      add\n        /* \"#utility.yul\":2211:2239   */\n      and\n        /* \"#utility.yul\":2201:2239   */\n      swap1\n      pop\n        /* \"#utility.yul\":2143:2245   */\n      swap2\n      swap1\n      pop\n      jump\t// out\n        /* \"#utility.yul\":2251:2628   */\n    tag_111:\n        /* \"#utility.yul\":2339:2342   */\n      0x00\n        /* \"#utility.yul\":2367:2406   */\n      tag_168\n        /* \"#utility.yul\":2400:2405   */\n      dup3\n        /* \"#utility.yul\":2367:2406   */\n      tag_107\n      jump\t// in\n    tag_168:\n        /* \"#utility.yul\":2422:2493   */\n      tag_169\n        /* \"#utility.yul\":2486:2492   */\n      dup2\n        /* \"#utility.yul\":2481:2484   */\n      dup6\n        /* \"#utility.yul\":2422:2493   */\n      tag_108\n      jump\t// in\n    tag_169:\n        /* \"#utility.yul\":2415:2493   */\n      swap4\n      pop\n        /* \"#utility.yul\":2502:2567   */\n      tag_170\n        /* \"#utility.yul\":2560:2566   */\n      dup2\n        /* \"#utility.yul\":2555:2558   */\n      dup6\n        /* \"#utility.yul\":2548:2552   */\n      0x20\n        /* \"#utility.yul\":2541:2546   */\n      dup7\n        /* \"#utility.yul\":2537:2553   */\n      add\n        /* \"#utility.yul\":2502:2567   */\n      tag_109\n      jump\t// in\n    tag_170:\n        /* \"#utility.yul\":2592:2621   */\n      tag_171\n        /* \"#utility.yul\":2614:2620   */\n      dup2\n        /* \"#utility.yul\":2592:2621   */\n      tag_110\n      jump\t// in\n    tag_171:\n        /* \"#utility.yul\":2587:2590   */\n      dup5\n        /* \"#utility.yul\":2583:2622   */\n      add\n        /* \"#utility.yul\":2576:2622   */\n      swap2\n      pop\n        /* \"#utility.yul\":2343:2628   */\n      pop\n        /* \"#utility.yul\":2251:2628   */\n      swap3\n      swap2\n      pop\n      pop\n      jump\t// out\n        /* \"#utility.yul\":2634:2947   */\n    tag_34:\n        /* \"#utility.yul\":2747:2751   */\n      0x00\n        /* \"#utility.yul\":2785:2787   */\n      0x20\n        /* \"#utility.yul\":2774:2783   */\n      dup3\n        /* \"#utility.yul\":2770:2788   */\n      add\n        /* \"#utility.yul\":2762:2788   */\n      swap1\n      pop\n        /* \"#utility.yul\":2834:2843   */\n      dup2\n        /* \"#utility.yul\":2828:2832   */\n      dup2\n        /* \"#utility.yul\":2824:2844   */\n      sub\n        /* \"#utility.yul\":2820:2821   */\n      0x00\n        /* \"#utility.yul\":2809:2818   */\n      dup4\n        /* \"#utility.yul\":2805:2822   */\n      add\n        /* \"#utility.yul\":2798:2845   */\n      mstore\n        /* \"#utility.yul\":2862:2940   */\n      tag_173\n        /* \"#utility.yul\":2935:2939   */\n      dup2\n        /* \"#utility.yul\":2926:2932   */\n      dup5\n        /* \"#utility.yul\":2862:2940   */\n      tag_111\n      jump\t// in\n    tag_173:\n        /* \"#utility.yul\":2854:2940   */\n      swap1\n      pop\n        /* \"#utility.yul\":2634:2947   */\n      swap3\n      swap2\n      pop\n      pop\n      jump\t// out\n        /* \"#utility.yul\":2953:3070   */\n    tag_112:\n        /* \"#utility.yul\":3062:3063   */\n      0x00\n        /* \"#utility.yul\":3059:3060   */\n      dup1\n        /* \"#utility.yul\":3052:3064   */\n      revert\n        /* \"#utility.yul\":3117:3350   */\n    tag_113:\n        /* \"#utility.yul\":3192:3197   */\n      0x00\n        /* \"#utility.yul\":3233:3235   */\n      0x40\n        /* \"#utility.yul\":3224:3230   */\n      dup3\n        /* \"#utility.yul\":3219:3222   */\n      dup5\n        /* \"#utility.yul\":3215:3231   */\n      sub\n        /* \"#utility.yul\":3211:3236   */\n      slt\n        /* \"#utility.yul\":3208:3320   */\n      iszero\n      tag_176\n      jumpi\n        /* \"#utility.yul\":3239:3318   */\n      tag_177\n      tag_112\n      jump\t// in\n    tag_177:\n        /* \"#utility.yul\":3208:3320   */\n    tag_176:\n        /* \"#utility.yul\":3338:3344   */\n      dup2\n        /* \"#utility.yul\":3329:3344   */\n      swap1\n      pop\n        /* \"#utility.yul\":3117:3350   */\n      swap3\n      swap2\n      pop\n      pop\n      jump\t// out\n        /* \"#utility.yul\":3356:3903   */\n    tag_37:\n        /* \"#utility.yul\":3444:3450   */\n      0x00\n        /* \"#utility.yul\":3493:3495   */\n      0x20\n        /* \"#utility.yul\":3481:3490   */\n      dup3\n        /* \"#utility.yul\":3472:3479   */\n      dup5\n        /* \"#utility.yul\":3468:3491   */\n      sub\n        /* \"#utility.yul\":3464:3496   */\n      slt\n        /* \"#utility.yul\":3461:3580   */\n      iszero\n      tag_179\n      jumpi\n        /* \"#utility.yul\":3499:3578   */\n      tag_180\n      tag_99\n      jump\t// in\n    tag_180:\n        /* \"#utility.yul\":3461:3580   */\n    tag_179:\n        /* \"#utility.yul\":3647:3648   */\n      0x00\n        /* \"#utility.yul\":3636:3645   */\n      dup3\n        /* \"#utility.yul\":3632:3649   */\n      add\n        /* \"#utility.yul\":3619:3650   */\n      calldataload\n        /* \"#utility.yul\":3677:3695   */\n      0xffffffffffffffff\n        /* \"#utility.yul\":3669:3675   */\n      dup2\n        /* \"#utility.yul\":3666:3696   */\n      gt\n        /* \"#utility.yul\":3663:3780   */\n      iszero\n      tag_181\n      jumpi\n        /* \"#utility.yul\":3699:3778   */\n      tag_182\n      tag_100\n      jump\t// in\n    tag_182:\n        /* \"#utility.yul\":3663:3780   */\n    tag_181:\n        /* \"#utility.yul\":3804:3886   */\n      tag_183\n        /* \"#utility.yul\":3878:3885   */\n      dup5\n        /* \"#utility.yul\":3869:3875   */\n      dup3\n        /* \"#utility.yul\":3858:3867   */\n      dup6\n        /* \"#utility.yul\":3854:3876   */\n      add\n        /* \"#utility.yul\":3804:3886   */\n      tag_113\n      jump\t// in\n    tag_183:\n        /* \"#utility.yul\":3794:3886   */\n      swap2\n      pop\n        /* \"#utility.yul\":3590:3896   */\n      pop\n        /* \"#utility.yul\":3356:3903   */\n      swap3\n      swap2\n      pop\n      pop\n      jump\t// out\n        /* \"#utility.yul\":3909:4017   */\n    tag_114:\n        /* \"#utility.yul\":3986:4010   */\n      tag_185\n        /* \"#utility.yul\":4004:4009   */\n      dup2\n        /* \"#utility.yul\":3986:4010   */\n      tag_105\n      jump\t// in\n    tag_185:\n        /* \"#utility.yul\":3981:3984   */\n      dup3\n        /* \"#utility.yul\":3974:4011   */\n      mstore\n        /* \"#utility.yul\":3909:4017   */\n      pop\n      pop\n      jump\t// out\n        /* \"#utility.yul\":4023:4182   */\n    tag_115:\n        /* \"#utility.yul\":4097:4108   */\n      0x00\n        /* \"#utility.yul\":4131:4137   */\n      dup3\n        /* \"#utility.yul\":4126:4129   */\n      dup3\n        /* \"#utility.yul\":4119:4138   */\n      mstore\n        /* \"#utility.yul\":4171:4175   */\n      0x20\n        /* \"#utility.yul\":4166:4169   */\n      dup3\n        /* \"#utility.yul\":4162:4176   */\n      add\n        /* \"#utility.yul\":4147:4176   */\n      swap1\n      pop\n        /* \"#utility.yul\":4023:4182   */\n      swap3\n      swap2\n      pop\n      pop\n      jump\t// out\n        /* \"#utility.yul\":4188:4545   */\n    tag_116:\n        /* \"#utility.yul\":4266:4269   */\n      0x00\n        /* \"#utility.yul\":4294:4333   */\n      tag_188\n        /* \"#utility.yul\":4327:4332   */\n      dup3\n        /* \"#utility.yul\":4294:4333   */\n      tag_107\n      jump\t// in\n    tag_188:\n        /* \"#utility.yul\":4349:4410   */\n      tag_189\n        /* \"#utility.yul\":4403:4409   */\n      dup2\n        /* \"#utility.yul\":4398:4401   */\n      dup6\n        /* \"#utility.yul\":4349:4410   */\n      tag_115\n      jump\t// in\n    tag_189:\n        /* \"#utility.yul\":4342:4410   */\n      swap4\n      pop\n        /* \"#utility.yul\":4419:4484   */\n      tag_190\n        /* \"#utility.yul\":4477:4483   */\n      dup2\n        /* \"#utility.yul\":4472:4475   */\n      dup6\n        /* \"#utility.yul\":4465:4469   */\n      0x20\n        /* \"#utility.yul\":4458:4463   */\n      dup7\n        /* \"#utility.yul\":4454:4470   */\n      add\n        /* \"#utility.yul\":4419:4484   */\n      tag_109\n      jump\t// in\n    tag_190:\n        /* \"#utility.yul\":4509:4538   */\n      tag_191\n        /* \"#utility.yul\":4531:4537   */\n      dup2\n        /* \"#utility.yul\":4509:4538   */\n      tag_110\n      jump\t// in\n    tag_191:\n        /* \"#utility.yul\":4504:4507   */\n      dup5\n        /* \"#utility.yul\":4500:4539   */\n      add\n        /* \"#utility.yul\":4493:4539   */\n      swap2\n      pop\n        /* \"#utility.yul\":4270:4545   */\n      pop\n        /* \"#utility.yul\":4188:4545   */\n      swap3\n      swap2\n      pop\n      pop\n      jump\t// out\n        /* \"#utility.yul\":4629:5240   */\n    tag_117:\n        /* \"#utility.yul\":4752:4755   */\n      0x00\n        /* \"#utility.yul\":4788:4792   */\n      0x40\n        /* \"#utility.yul\":4783:4786   */\n      dup4\n        /* \"#utility.yul\":4779:4793   */\n      add\n        /* \"#utility.yul\":4876:4880   */\n      0x00\n        /* \"#utility.yul\":4869:4874   */\n      dup4\n        /* \"#utility.yul\":4865:4881   */\n      add\n        /* \"#utility.yul\":4859:4882   */\n      mload\n        /* \"#utility.yul\":4895:4958   */\n      tag_193\n        /* \"#utility.yul\":4952:4956   */\n      0x00\n        /* \"#utility.yul\":4947:4950   */\n      dup7\n        /* \"#utility.yul\":4943:4957   */\n      add\n        /* \"#utility.yul\":4929:4941   */\n      dup3\n        /* \"#utility.yul\":4895:4958   */\n      tag_114\n      jump\t// in\n    tag_193:\n        /* \"#utility.yul\":4803:4968   */\n      pop\n        /* \"#utility.yul\":5050:5054   */\n      0x20\n        /* \"#utility.yul\":5043:5048   */\n      dup4\n        /* \"#utility.yul\":5039:5055   */\n      add\n        /* \"#utility.yul\":5033:5056   */\n      mload\n        /* \"#utility.yul\":5103:5106   */\n      dup5\n        /* \"#utility.yul\":5097:5101   */\n      dup3\n        /* \"#utility.yul\":5093:5107   */\n      sub\n        /* \"#utility.yul\":5086:5090   */\n      0x20\n        /* \"#utility.yul\":5081:5084   */\n      dup7\n        /* \"#utility.yul\":5077:5091   */\n      add\n        /* \"#utility.yul\":5070:5108   */\n      mstore\n        /* \"#utility.yul\":5129:5202   */\n      tag_194\n        /* \"#utility.yul\":5197:5201   */\n      dup3\n        /* \"#utility.yul\":5183:5195   */\n      dup3\n        /* \"#utility.yul\":5129:5202   */\n      tag_116\n      jump\t// in\n    tag_194:\n        /* \"#utility.yul\":5121:5202   */\n      swap2\n      pop\n        /* \"#utility.yul\":4978:5213   */\n      pop\n        /* \"#utility.yul\":5230:5234   */\n      dup1\n        /* \"#utility.yul\":5223:5234   */\n      swap2\n      pop\n        /* \"#utility.yul\":4757:5240   */\n      pop\n        /* \"#utility.yul\":4629:5240   */\n      swap3\n      swap2\n      pop\n      pop\n      jump\t// out\n        /* \"#utility.yul\":5246:5627   */\n    tag_40:\n        /* \"#utility.yul\":5393:5397   */\n      0x00\n        /* \"#utility.yul\":5431:5433   */\n      0x20\n        /* \"#utility.yul\":5420:5429   */\n      dup3\n        /* \"#utility.yul\":5416:5434   */\n      add\n        /* \"#utility.yul\":5408:5434   */\n      swap1\n      pop\n        /* \"#utility.yul\":5480:5489   */\n      dup2\n        /* \"#utility.yul\":5474:5478   */\n      dup2\n        /* \"#utility.yul\":5470:5490   */\n      sub\n        /* \"#utility.yul\":5466:5467   */\n      0x00\n        /* \"#utility.yul\":5455:5464   */\n      dup4\n        /* \"#utility.yul\":5451:5468   */\n      add\n        /* \"#utility.yul\":5444:5491   */\n      mstore\n        /* \"#utility.yul\":5508:5620   */\n      tag_196\n        /* \"#utility.yul\":5615:5619   */\n      dup2\n        /* \"#utility.yul\":5606:5612   */\n      dup5\n        /* \"#utility.yul\":5508:5620   */\n      tag_117\n      jump\t// in\n    tag_196:\n        /* \"#utility.yul\":5500:5620   */\n      swap1\n      pop\n        /* \"#utility.yul\":5246:5627   */\n      swap3\n      swap2\n      pop\n      pop\n      jump\t// out\n        /* \"#utility.yul\":5633:5750   */\n    tag_118:\n        /* \"#utility.yul\":5742:5743   */\n      0x00\n        /* \"#utility.yul\":5739:5740   */\n      dup1\n        /* \"#utility.yul\":5732:5744   */\n      revert\n        /* \"#utility.yul\":5756:5936   */\n    tag_68:\n        /* \"#utility.yul\":5804:5881   */\n      0x4e487b7100000000000000000000000000000000000000000000000000000000\n        /* \"#utility.yul\":5801:5802   */\n      0x00\n        /* \"#utility.yul\":5794:5882   */\n      mstore\n        /* \"#utility.yul\":5901:5905   */\n      0x41\n        /* \"#utility.yul\":5898:5899   */\n      0x04\n        /* \"#utility.yul\":5891:5906   */\n      mstore\n        /* \"#utility.yul\":5925:5929   */\n      0x24\n        /* \"#utility.yul\":5922:5923   */\n      0x00\n        /* \"#utility.yul\":5915:5930   */\n      revert\n        /* \"#utility.yul\":5942:6223   */\n    tag_119:\n        /* \"#utility.yul\":6025:6052   */\n      tag_200\n        /* \"#utility.yul\":6047:6051   */\n      dup3\n        /* \"#utility.yul\":6025:6052   */\n      tag_110\n      jump\t// in\n    tag_200:\n        /* \"#utility.yul\":6017:6023   */\n      dup2\n        /* \"#utility.yul\":6013:6053   */\n      add\n        /* \"#utility.yul\":6155:6161   */\n      dup2\n        /* \"#utility.yul\":6143:6153   */\n      dup2\n        /* \"#utility.yul\":6140:6162   */\n      lt\n        /* \"#utility.yul\":6119:6137   */\n      0xffffffffffffffff\n        /* \"#utility.yul\":6107:6117   */\n      dup3\n        /* \"#utility.yul\":6104:6138   */\n      gt\n        /* \"#utility.yul\":6101:6163   */\n      or\n        /* \"#utility.yul\":6098:6186   */\n      iszero\n      tag_201\n      jumpi\n        /* \"#utility.yul\":6166:6184   */\n      tag_202\n      tag_68\n      jump\t// in\n    tag_202:\n        /* \"#utility.yul\":6098:6186   */\n    tag_201:\n        /* \"#utility.yul\":6206:6216   */\n      dup1\n        /* \"#utility.yul\":6202:6204   */\n      0x40\n        /* \"#utility.yul\":6195:6217   */\n      mstore\n        /* \"#utility.yul\":5985:6223   */\n      pop\n        /* \"#utility.yul\":5942:6223   */\n      pop\n      pop\n      jump\t// out\n        /* \"#utility.yul\":6229:6358   */\n    tag_120:\n        /* \"#utility.yul\":6263:6269   */\n      0x00\n        /* \"#utility.yul\":6290:6310   */\n      tag_204\n      tag_98\n      jump\t// in\n    tag_204:\n        /* \"#utility.yul\":6280:6310   */\n      swap1\n      pop\n        /* \"#utility.yul\":6319:6352   */\n      tag_205\n        /* \"#utility.yul\":6347:6351   */\n      dup3\n        /* \"#utility.yul\":6339:6345   */\n      dup3\n        /* \"#utility.yul\":6319:6352   */\n      tag_119\n      jump\t// in\n    tag_205:\n        /* \"#utility.yul\":6229:6358   */\n      swap2\n      swap1\n      pop\n      jump\t// out\n        /* \"#utility.yul\":6364:6675   */\n    tag_121:\n        /* \"#utility.yul\":6441:6445   */\n      0x00\n        /* \"#utility.yul\":6531:6549   */\n      0xffffffffffffffff\n        /* \"#utility.yul\":6523:6529   */\n      dup3\n        /* \"#utility.yul\":6520:6550   */\n      gt\n        /* \"#utility.yul\":6517:6573   */\n      iszero\n      tag_207\n      jumpi\n        /* \"#utility.yul\":6553:6571   */\n      tag_208\n      tag_68\n      jump\t// in\n    tag_208:\n        /* \"#utility.yul\":6517:6573   */\n    tag_207:\n        /* \"#utility.yul\":6603:6607   */\n      0x20\n        /* \"#utility.yul\":6595:6601   */\n      dup3\n        /* \"#utility.yul\":6591:6608   */\n      mul\n        /* \"#utility.yul\":6583:6608   */\n      swap1\n      pop\n        /* \"#utility.yul\":6663:6667   */\n      0x20\n        /* \"#utility.yul\":6657:6661   */\n      dup2\n        /* \"#utility.yul\":6653:6668   */\n      add\n        /* \"#utility.yul\":6645:6668   */\n      swap1\n      pop\n        /* \"#utility.yul\":6364:6675   */\n      swap2\n      swap1\n      pop\n      jump\t// out\n        /* \"#utility.yul\":6681:6798   */\n    tag_122:\n        /* \"#utility.yul\":6790:6791   */\n      0x00\n        /* \"#utility.yul\":6787:6788   */\n      dup1\n        /* \"#utility.yul\":6780:6792   */\n      revert\n        /* \"#utility.yul\":6804:6926   */\n    tag_123:\n        /* \"#utility.yul\":6877:6901   */\n      tag_211\n        /* \"#utility.yul\":6895:6900   */\n      dup2\n        /* \"#utility.yul\":6877:6901   */\n      tag_105\n      jump\t// in\n    tag_211:\n        /* \"#utility.yul\":6870:6875   */\n      dup2\n        /* \"#utility.yul\":6867:6902   */\n      eq\n        /* \"#utility.yul\":6857:6920   */\n      tag_212\n      jumpi\n        /* \"#utility.yul\":6916:6917   */\n      0x00\n        /* \"#utility.yul\":6913:6914   */\n      dup1\n        /* \"#utility.yul\":6906:6918   */\n      revert\n        /* \"#utility.yul\":6857:6920   */\n    tag_212:\n        /* \"#utility.yul\":6804:6926   */\n      pop\n      jump\t// out\n        /* \"#utility.yul\":6932:7071   */\n    tag_124:\n        /* \"#utility.yul\":6978:6983   */\n      0x00\n        /* \"#utility.yul\":7016:7022   */\n      dup2\n        /* \"#utility.yul\":7003:7023   */\n      calldataload\n        /* \"#utility.yul\":6994:7023   */\n      swap1\n      pop\n        /* \"#utility.yul\":7032:7065   */\n      tag_214\n        /* \"#utility.yul\":7059:7064   */\n      dup2\n        /* \"#utility.yul\":7032:7065   */\n      tag_123\n      jump\t// in\n    tag_214:\n        /* \"#utility.yul\":6932:7071   */\n      swap3\n      swap2\n      pop\n      pop\n      jump\t// out\n        /* \"#utility.yul\":7094:7804   */\n    tag_125:\n        /* \"#utility.yul\":7190:7195   */\n      0x00\n        /* \"#utility.yul\":7215:7296   */\n      tag_216\n        /* \"#utility.yul\":7231:7295   */\n      tag_217\n        /* \"#utility.yul\":7288:7294   */\n      dup5\n        /* \"#utility.yul\":7231:7295   */\n      tag_121\n      jump\t// in\n    tag_217:\n        /* \"#utility.yul\":7215:7296   */\n      tag_120\n      jump\t// in\n    tag_216:\n        /* \"#utility.yul\":7206:7296   */\n      swap1\n      pop\n        /* \"#utility.yul\":7316:7321   */\n      dup1\n        /* \"#utility.yul\":7345:7351   */\n      dup4\n        /* \"#utility.yul\":7338:7343   */\n      dup3\n        /* \"#utility.yul\":7331:7352   */\n      mstore\n        /* \"#utility.yul\":7379:7383   */\n      0x20\n        /* \"#utility.yul\":7372:7377   */\n      dup3\n        /* \"#utility.yul\":7368:7384   */\n      add\n        /* \"#utility.yul\":7361:7384   */\n      swap1\n      pop\n        /* \"#utility.yul\":7432:7436   */\n      0x20\n        /* \"#utility.yul\":7424:7430   */\n      dup5\n        /* \"#utility.yul\":7420:7437   */\n      mul\n        /* \"#utility.yul\":7412:7418   */\n      dup4\n        /* \"#utility.yul\":7408:7438   */\n      add\n        /* \"#utility.yul\":7461:7464   */\n      dup6\n        /* \"#utility.yul\":7453:7459   */\n      dup2\n        /* \"#utility.yul\":7450:7465   */\n      gt\n        /* \"#utility.yul\":7447:7569   */\n      iszero\n      tag_218\n      jumpi\n        /* \"#utility.yul\":7480:7559   */\n      tag_219\n      tag_122\n      jump\t// in\n    tag_219:\n        /* \"#utility.yul\":7447:7569   */\n    tag_218:\n        /* \"#utility.yul\":7595:7601   */\n      dup4\n        /* \"#utility.yul\":7578:7798   */\n    tag_220:\n        /* \"#utility.yul\":7612:7618   */\n      dup2\n        /* \"#utility.yul\":7607:7610   */\n      dup2\n        /* \"#utility.yul\":7604:7619   */\n      lt\n        /* \"#utility.yul\":7578:7798   */\n      iszero\n      tag_222\n      jumpi\n        /* \"#utility.yul\":7687:7690   */\n      dup1\n        /* \"#utility.yul\":7716:7753   */\n      tag_223\n        /* \"#utility.yul\":7749:7752   */\n      dup9\n        /* \"#utility.yul\":7737:7747   */\n      dup3\n        /* \"#utility.yul\":7716:7753   */\n      tag_124\n      jump\t// in\n    tag_223:\n        /* \"#utility.yul\":7711:7714   */\n      dup5\n        /* \"#utility.yul\":7704:7754   */\n      mstore\n        /* \"#utility.yul\":7783:7787   */\n      0x20\n        /* \"#utility.yul\":7778:7781   */\n      dup5\n        /* \"#utility.yul\":7774:7788   */\n      add\n        /* \"#utility.yul\":7767:7788   */\n      swap4\n      pop\n        /* \"#utility.yul\":7654:7798   */\n      pop\n        /* \"#utility.yul\":7638:7642   */\n      0x20\n        /* \"#utility.yul\":7633:7636   */\n      dup2\n        /* \"#utility.yul\":7629:7643   */\n      add\n        /* \"#utility.yul\":7622:7643   */\n      swap1\n      pop\n        /* \"#utility.yul\":7578:7798   */\n      jump(tag_220)\n    tag_222:\n        /* \"#utility.yul\":7582:7603   */\n      pop\n        /* \"#utility.yul\":7196:7804   */\n      pop\n      pop\n        /* \"#utility.yul\":7094:7804   */\n      swap4\n      swap3\n      pop\n      pop\n      pop\n      jump\t// out\n        /* \"#utility.yul\":7827:8197   */\n    tag_126:\n        /* \"#utility.yul\":7898:7903   */\n      0x00\n        /* \"#utility.yul\":7947:7950   */\n      dup3\n        /* \"#utility.yul\":7940:7944   */\n      0x1f\n        /* \"#utility.yul\":7932:7938   */\n      dup4\n        /* \"#utility.yul\":7928:7945   */\n      add\n        /* \"#utility.yul\":7924:7951   */\n      slt\n        /* \"#utility.yul\":7914:8036   */\n      tag_225\n      jumpi\n        /* \"#utility.yul\":7955:8034   */\n      tag_226\n      tag_118\n      jump\t// in\n    tag_226:\n        /* \"#utility.yul\":7914:8036   */\n    tag_225:\n        /* \"#utility.yul\":8072:8078   */\n      dup2\n        /* \"#utility.yul\":8059:8079   */\n      calldataload\n        /* \"#utility.yul\":8097:8191   */\n      tag_227\n        /* \"#utility.yul\":8187:8190   */\n      dup5\n        /* \"#utility.yul\":8179:8185   */\n      dup3\n        /* \"#utility.yul\":8172:8176   */\n      0x20\n        /* \"#utility.yul\":8164:8170   */\n      dup7\n        /* \"#utility.yul\":8160:8177   */\n      add\n        /* \"#utility.yul\":8097:8191   */\n      tag_125\n      jump\t// in\n    tag_227:\n        /* \"#utility.yul\":8088:8191   */\n      swap2\n      pop\n        /* \"#utility.yul\":7904:8197   */\n      pop\n        /* \"#utility.yul\":7827:8197   */\n      swap3\n      swap2\n      pop\n      pop\n      jump\t// out\n        /* \"#utility.yul\":8203:8742   */\n    tag_43:\n        /* \"#utility.yul\":8287:8293   */\n      0x00\n        /* \"#utility.yul\":8336:8338   */\n      0x20\n        /* \"#utility.yul\":8324:8333   */\n      dup3\n        /* \"#utility.yul\":8315:8322   */\n      dup5\n        /* \"#utility.yul\":8311:8334   */\n      sub\n        /* \"#utility.yul\":8307:8339   */\n      slt\n        /* \"#utility.yul\":8304:8423   */\n      iszero\n      tag_229\n      jumpi\n        /* \"#utility.yul\":8342:8421   */\n      tag_230\n      tag_99\n      jump\t// in\n    tag_230:\n        /* \"#utility.yul\":8304:8423   */\n    tag_229:\n        /* \"#utility.yul\":8490:8491   */\n      0x00\n        /* \"#utility.yul\":8479:8488   */\n      dup3\n        /* \"#utility.yul\":8475:8492   */\n      add\n        /* \"#utility.yul\":8462:8493   */\n      calldataload\n        /* \"#utility.yul\":8520:8538   */\n      0xffffffffffffffff\n        /* \"#utility.yul\":8512:8518   */\n      dup2\n        /* \"#utility.yul\":8509:8539   */\n      gt\n        /* \"#utility.yul\":8506:8623   */\n      iszero\n      tag_231\n      jumpi\n        /* \"#utility.yul\":8542:8621   */\n      tag_232\n      tag_100\n      jump\t// in\n    tag_232:\n        /* \"#utility.yul\":8506:8623   */\n    tag_231:\n        /* \"#utility.yul\":8647:8725   */\n      tag_233\n        /* \"#utility.yul\":8717:8724   */\n      dup5\n        /* \"#utility.yul\":8708:8714   */\n      dup3\n        /* \"#utility.yul\":8697:8706   */\n      dup6\n        /* \"#utility.yul\":8693:8715   */\n      add\n        /* \"#utility.yul\":8647:8725   */\n      tag_126\n      jump\t// in\n    tag_233:\n        /* \"#utility.yul\":8637:8725   */\n      swap2\n      pop\n        /* \"#utility.yul\":8433:8735   */\n      pop\n        /* \"#utility.yul\":8203:8742   */\n      swap3\n      swap2\n      pop\n      pop\n      jump\t// out\n        /* \"#utility.yul\":8748:8865   */\n    tag_127:\n        /* \"#utility.yul\":8857:8858   */\n      0x00\n        /* \"#utility.yul\":8854:8855   */\n      dup1\n        /* \"#utility.yul\":8847:8859   */\n      revert\n        /* \"#utility.yul\":8885:9438   */\n    tag_128:\n        /* \"#utility.yul\":8943:8951   */\n      0x00\n        /* \"#utility.yul\":8953:8959   */\n      dup1\n        /* \"#utility.yul\":9003:9006   */\n      dup4\n        /* \"#utility.yul\":8996:9000   */\n      0x1f\n        /* \"#utility.yul\":8988:8994   */\n      dup5\n        /* \"#utility.yul\":8984:9001   */\n      add\n        /* \"#utility.yul\":8980:9007   */\n      slt\n        /* \"#utility.yul\":8970:9092   */\n      tag_236\n      jumpi\n        /* \"#utility.yul\":9011:9090   */\n      tag_237\n      tag_118\n      jump\t// in\n    tag_237:\n        /* \"#utility.yul\":8970:9092   */\n    tag_236:\n        /* \"#utility.yul\":9124:9130   */\n      dup3\n        /* \"#utility.yul\":9111:9131   */\n      calldataload\n        /* \"#utility.yul\":9101:9131   */\n      swap1\n      pop\n        /* \"#utility.yul\":9154:9172   */\n      0xffffffffffffffff\n        /* \"#utility.yul\":9146:9152   */\n      dup2\n        /* \"#utility.yul\":9143:9173   */\n      gt\n        /* \"#utility.yul\":9140:9257   */\n      iszero\n      tag_238\n      jumpi\n        /* \"#utility.yul\":9176:9255   */\n      tag_239\n      tag_127\n      jump\t// in\n    tag_239:\n        /* \"#utility.yul\":9140:9257   */\n    tag_238:\n        /* \"#utility.yul\":9290:9294   */\n      0x20\n        /* \"#utility.yul\":9282:9288   */\n      dup4\n        /* \"#utility.yul\":9278:9295   */\n      add\n        /* \"#utility.yul\":9266:9295   */\n      swap2\n      pop\n        /* \"#utility.yul\":9344:9347   */\n      dup4\n        /* \"#utility.yul\":9336:9340   */\n      0x01\n        /* \"#utility.yul\":9328:9334   */\n      dup3\n        /* \"#utility.yul\":9324:9341   */\n      mul\n        /* \"#utility.yul\":9314:9322   */\n      dup4\n        /* \"#utility.yul\":9310:9342   */\n      add\n        /* \"#utility.yul\":9307:9348   */\n      gt\n        /* \"#utility.yul\":9304:9432   */\n      iszero\n      tag_240\n      jumpi\n        /* \"#utility.yul\":9351:9430   */\n      tag_241\n      tag_122\n      jump\t// in\n    tag_241:\n        /* \"#utility.yul\":9304:9432   */\n    tag_240:\n        /* \"#utility.yul\":8885:9438   */\n      swap3\n      pop\n      swap3\n      swap1\n      pop\n      jump\t// out\n        /* \"#utility.yul\":9444:10118   */\n    tag_47:\n        /* \"#utility.yul\":9524:9530   */\n      0x00\n        /* \"#utility.yul\":9532:9538   */\n      dup1\n        /* \"#utility.yul\":9540:9546   */\n      0x00\n        /* \"#utility.yul\":9589:9591   */\n      0x40\n        /* \"#utility.yul\":9577:9586   */\n      dup5\n        /* \"#utility.yul\":9568:9575   */\n      dup7\n        /* \"#utility.yul\":9564:9587   */\n      sub\n        /* \"#utility.yul\":9560:9592   */\n      slt\n        /* \"#utility.yul\":9557:9676   */\n      iszero\n      tag_243\n      jumpi\n        /* \"#utility.yul\":9595:9674   */\n      tag_244\n      tag_99\n      jump\t// in\n    tag_244:\n        /* \"#utility.yul\":9557:9676   */\n    tag_243:\n        /* \"#utility.yul\":9743:9744   */\n      0x00\n        /* \"#utility.yul\":9732:9741   */\n      dup5\n        /* \"#utility.yul\":9728:9745   */\n      add\n        /* \"#utility.yul\":9715:9746   */\n      calldataload\n        /* \"#utility.yul\":9773:9791   */\n      0xffffffffffffffff\n        /* \"#utility.yul\":9765:9771   */\n      dup2\n        /* \"#utility.yul\":9762:9792   */\n      gt\n        /* \"#utility.yul\":9759:9876   */\n      iszero\n      tag_245\n      jumpi\n        /* \"#utility.yul\":9795:9874   */\n      tag_246\n      tag_100\n      jump\t// in\n    tag_246:\n        /* \"#utility.yul\":9759:9876   */\n    tag_245:\n        /* \"#utility.yul\":9908:9973   */\n      tag_247\n        /* \"#utility.yul\":9965:9972   */\n      dup7\n        /* \"#utility.yul\":9956:9962   */\n      dup3\n        /* \"#utility.yul\":9945:9954   */\n      dup8\n        /* \"#utility.yul\":9941:9963   */\n      add\n        /* \"#utility.yul\":9908:9973   */\n      tag_128\n      jump\t// in\n    tag_247:\n        /* \"#utility.yul\":9890:9973   */\n      swap4\n      pop\n      swap4\n      pop\n        /* \"#utility.yul\":9686:9983   */\n      pop\n        /* \"#utility.yul\":10022:10024   */\n      0x20\n        /* \"#utility.yul\":10048:10101   */\n      tag_248\n        /* \"#utility.yul\":10093:10100   */\n      dup7\n        /* \"#utility.yul\":10084:10090   */\n      dup3\n        /* \"#utility.yul\":10073:10082   */\n      dup8\n        /* \"#utility.yul\":10069:10091   */\n      add\n        /* \"#utility.yul\":10048:10101   */\n      tag_124\n      jump\t// in\n    tag_248:\n        /* \"#utility.yul\":10038:10101   */\n      swap2\n      pop\n        /* \"#utility.yul\":9993:10111   */\n      pop\n        /* \"#utility.yul\":9444:10118   */\n      swap3\n      pop\n      swap3\n      pop\n      swap3\n      jump\t// out\n        /* \"#utility.yul\":10124:10453   */\n    tag_59:\n        /* \"#utility.yul\":10183:10189   */\n      0x00\n        /* \"#utility.yul\":10232:10234   */\n      0x20\n        /* \"#utility.yul\":10220:10229   */\n      dup3\n        /* \"#utility.yul\":10211:10218   */\n      dup5\n        /* \"#utility.yul\":10207:10230   */\n      sub\n        /* \"#utility.yul\":10203:10235   */\n      slt\n        /* \"#utility.yul\":10200:10319   */\n      iszero\n      tag_250\n      jumpi\n        /* \"#utility.yul\":10238:10317   */\n      tag_251\n      tag_99\n      jump\t// in\n    tag_251:\n        /* \"#utility.yul\":10200:10319   */\n    tag_250:\n        /* \"#utility.yul\":10358:10359   */\n      0x00\n        /* \"#utility.yul\":10383:10436   */\n      tag_252\n        /* \"#utility.yul\":10428:10435   */\n      dup5\n        /* \"#utility.yul\":10419:10425   */\n      dup3\n        /* \"#utility.yul\":10408:10417   */\n      dup6\n        /* \"#utility.yul\":10404:10426   */\n      add\n        /* \"#utility.yul\":10383:10436   */\n      tag_124\n      jump\t// in\n    tag_252:\n        /* \"#utility.yul\":10373:10436   */\n      swap2\n      pop\n        /* \"#utility.yul\":10329:10446   */\n      pop\n        /* \"#utility.yul\":10124:10453   */\n      swap3\n      swap2\n      pop\n      pop\n      jump\t// out\n        /* \"#utility.yul\":10459:10545   */\n    tag_129:\n        /* \"#utility.yul\":10494:10501   */\n      0x00\n        /* \"#utility.yul\":10534:10538   */\n      0xff\n        /* \"#utility.yul\":10527:10532   */\n      dup3\n        /* \"#utility.yul\":10523:10539   */\n      and\n        /* \"#utility.yul\":10512:10539   */\n      swap1\n      pop\n        /* \"#utility.yul\":10459:10545   */\n      swap2\n      swap1\n      pop\n      jump\t// out\n        /* \"#utility.yul\":10551:10731   */\n    tag_130:\n        /* \"#utility.yul\":10599:10676   */\n      0x4e487b7100000000000000000000000000000000000000000000000000000000\n        /* \"#utility.yul\":10596:10597   */\n      0x00\n        /* \"#utility.yul\":10589:10677   */\n      mstore\n        /* \"#utility.yul\":10696:10700   */\n      0x11\n        /* \"#utility.yul\":10693:10694   */\n      0x04\n        /* \"#utility.yul\":10686:10701   */\n      mstore\n        /* \"#utility.yul\":10720:10724   */\n      0x24\n        /* \"#utility.yul\":10717:10718   */\n      0x00\n        /* \"#utility.yul\":10710:10725   */\n      revert\n        /* \"#utility.yul\":10737:11008   */\n    tag_77:\n        /* \"#utility.yul\":10775:10782   */\n      0x00\n        /* \"#utility.yul\":10798:10816   */\n      tag_256\n        /* \"#utility.yul\":10814:10815   */\n      dup3\n        /* \"#utility.yul\":10798:10816   */\n      tag_129\n      jump\t// in\n    tag_256:\n        /* \"#utility.yul\":10793:10816   */\n      swap2\n      pop\n        /* \"#utility.yul\":10830:10848   */\n      tag_257\n        /* \"#utility.yul\":10846:10847   */\n      dup4\n        /* \"#utility.yul\":10830:10848   */\n      tag_129\n      jump\t// in\n    tag_257:\n        /* \"#utility.yul\":10825:10848   */\n      swap3\n      pop\n        /* \"#utility.yul\":10883:10884   */\n      dup3\n        /* \"#utility.yul\":10880:10881   */\n      dup3\n        /* \"#utility.yul\":10876:10885   */\n      mul\n        /* \"#utility.yul\":10905:10933   */\n      tag_258\n        /* \"#utility.yul\":10921:10932   */\n      dup2\n        /* \"#utility.yul\":10905:10933   */\n      tag_129\n      jump\t// in\n    tag_258:\n        /* \"#utility.yul\":10894:10933   */\n      swap2\n      pop\n        /* \"#utility.yul\":10965:10976   */\n      dup1\n        /* \"#utility.yul\":10956:10963   */\n      dup3\n        /* \"#utility.yul\":10953:10977   */\n      eq\n        /* \"#utility.yul\":10943:11001   */\n      tag_259\n      jumpi\n        /* \"#utility.yul\":10981:10999   */\n      tag_260\n      tag_130\n      jump\t// in\n    tag_260:\n        /* \"#utility.yul\":10943:11001   */\n    tag_259:\n        /* \"#utility.yul\":10783:11008   */\n      pop\n        /* \"#utility.yul\":10737:11008   */\n      swap3\n      swap2\n      pop\n      pop\n      jump\t// out\n        /* \"#utility.yul\":11014:11194   */\n    tag_80:\n        /* \"#utility.yul\":11062:11139   */\n      0x4e487b7100000000000000000000000000000000000000000000000000000000\n        /* \"#utility.yul\":11059:11060   */\n      0x00\n        /* \"#utility.yul\":11052:11140   */\n      mstore\n        /* \"#utility.yul\":11159:11163   */\n      0x32\n        /* \"#utility.yul\":11156:11157   */\n      0x04\n        /* \"#utility.yul\":11149:11164   */\n      mstore\n        /* \"#utility.yul\":11183:11187   */\n      0x24\n        /* \"#utility.yul\":11180:11181   */\n      0x00\n        /* \"#utility.yul\":11173:11188   */\n      revert\n        /* \"#utility.yul\":11200:11317   */\n    tag_131:\n        /* \"#utility.yul\":11309:11310   */\n      0x00\n        /* \"#utility.yul\":11306:11307   */\n      dup1\n        /* \"#utility.yul\":11299:11311   */\n      revert\n        /* \"#utility.yul\":11323:11440   */\n    tag_132:\n        /* \"#utility.yul\":11432:11433   */\n      0x00\n        /* \"#utility.yul\":11429:11430   */\n      dup1\n        /* \"#utility.yul\":11422:11434   */\n      revert\n        /* \"#utility.yul\":11446:11563   */\n    tag_133:\n        /* \"#utility.yul\":11555:11556   */\n      0x00\n        /* \"#utility.yul\":11552:11553   */\n      dup1\n        /* \"#utility.yul\":11545:11557   */\n      revert\n        /* \"#utility.yul\":11569:11877   */\n    tag_134:\n        /* \"#utility.yul\":11631:11635   */\n      0x00\n        /* \"#utility.yul\":11721:11739   */\n      0xffffffffffffffff\n        /* \"#utility.yul\":11713:11719   */\n      dup3\n        /* \"#utility.yul\":11710:11740   */\n      gt\n        /* \"#utility.yul\":11707:11763   */\n      iszero\n      tag_266\n      jumpi\n        /* \"#utility.yul\":11743:11761   */\n      tag_267\n      tag_68\n      jump\t// in\n    tag_267:\n        /* \"#utility.yul\":11707:11763   */\n    tag_266:\n        /* \"#utility.yul\":11781:11810   */\n      tag_268\n        /* \"#utility.yul\":11803:11809   */\n      dup3\n        /* \"#utility.yul\":11781:11810   */\n      tag_110\n      jump\t// in\n    tag_268:\n        /* \"#utility.yul\":11773:11810   */\n      swap1\n      pop\n        /* \"#utility.yul\":11865:11869   */\n      0x20\n        /* \"#utility.yul\":11859:11863   */\n      dup2\n        /* \"#utility.yul\":11855:11870   */\n      add\n        /* \"#utility.yul\":11847:11870   */\n      swap1\n      pop\n        /* \"#utility.yul\":11569:11877   */\n      swap2\n      swap1\n      pop\n      jump\t// out\n        /* \"#utility.yul\":11883:12029   */\n    tag_135:\n        /* \"#utility.yul\":11980:11986   */\n      dup3\n        /* \"#utility.yul\":11975:11978   */\n      dup2\n        /* \"#utility.yul\":11970:11973   */\n      dup4\n        /* \"#utility.yul\":11957:11987   */\n      calldatacopy\n        /* \"#utility.yul\":12021:12022   */\n      0x00\n        /* \"#utility.yul\":12012:12018   */\n      dup4\n        /* \"#utility.yul\":12007:12010   */\n      dup4\n        /* \"#utility.yul\":12003:12019   */\n      add\n        /* \"#utility.yul\":11996:12023   */\n      mstore\n        /* \"#utility.yul\":11883:12029   */\n      pop\n      pop\n      pop\n      jump\t// out\n        /* \"#utility.yul\":12035:12460   */\n    tag_136:\n        /* \"#utility.yul\":12113:12118   */\n      0x00\n        /* \"#utility.yul\":12138:12204   */\n      tag_271\n        /* \"#utility.yul\":12154:12203   */\n      tag_272\n        /* \"#utility.yul\":12196:12202   */\n      dup5\n        /* \"#utility.yul\":12154:12203   */\n      tag_134\n      jump\t// in\n    tag_272:\n        /* \"#utility.yul\":12138:12204   */\n      tag_120\n      jump\t// in\n    tag_271:\n        /* \"#utility.yul\":12129:12204   */\n      swap1\n      pop\n        /* \"#utility.yul\":12227:12233   */\n      dup3\n        /* \"#utility.yul\":12220:12225   */\n      dup2\n        /* \"#utility.yul\":12213:12234   */\n      mstore\n        /* \"#utility.yul\":12265:12269   */\n      0x20\n        /* \"#utility.yul\":12258:12263   */\n      dup2\n        /* \"#utility.yul\":12254:12270   */\n      add\n        /* \"#utility.yul\":12303:12306   */\n      dup5\n        /* \"#utility.yul\":12294:12300   */\n      dup5\n        /* \"#utility.yul\":12289:12292   */\n      dup5\n        /* \"#utility.yul\":12285:12301   */\n      add\n        /* \"#utility.yul\":12282:12307   */\n      gt\n        /* \"#utility.yul\":12279:12391   */\n      iszero\n      tag_273\n      jumpi\n        /* \"#utility.yul\":12310:12389   */\n      tag_274\n      tag_133\n      jump\t// in\n    tag_274:\n        /* \"#utility.yul\":12279:12391   */\n    tag_273:\n        /* \"#utility.yul\":12400:12454   */\n      tag_275\n        /* \"#utility.yul\":12447:12453   */\n      dup5\n        /* \"#utility.yul\":12442:12445   */\n      dup3\n        /* \"#utility.yul\":12437:12440   */\n      dup6\n        /* \"#utility.yul\":12400:12454   */\n      tag_135\n      jump\t// in\n    tag_275:\n        /* \"#utility.yul\":12119:12460   */\n      pop\n        /* \"#utility.yul\":12035:12460   */\n      swap4\n      swap3\n      pop\n      pop\n      pop\n      jump\t// out\n        /* \"#utility.yul\":12480:12820   */\n    tag_137:\n        /* \"#utility.yul\":12536:12541   */\n      0x00\n        /* \"#utility.yul\":12585:12588   */\n      dup3\n        /* \"#utility.yul\":12578:12582   */\n      0x1f\n        /* \"#utility.yul\":12570:12576   */\n      dup4\n        /* \"#utility.yul\":12566:12583   */\n      add\n        /* \"#utility.yul\":12562:12589   */\n      slt\n        /* \"#utility.yul\":12552:12674   */\n      tag_277\n      jumpi\n        /* \"#utility.yul\":12593:12672   */\n      tag_278\n      tag_118\n      jump\t// in\n    tag_278:\n        /* \"#utility.yul\":12552:12674   */\n    tag_277:\n        /* \"#utility.yul\":12710:12716   */\n      dup2\n        /* \"#utility.yul\":12697:12717   */\n      calldataload\n        /* \"#utility.yul\":12735:12814   */\n      tag_279\n        /* \"#utility.yul\":12810:12813   */\n      dup5\n        /* \"#utility.yul\":12802:12808   */\n      dup3\n        /* \"#utility.yul\":12795:12799   */\n      0x20\n        /* \"#utility.yul\":12787:12793   */\n      dup7\n        /* \"#utility.yul\":12783:12800   */\n      add\n        /* \"#utility.yul\":12735:12814   */\n      tag_136\n      jump\t// in\n    tag_279:\n        /* \"#utility.yul\":12726:12814   */\n      swap2\n      pop\n        /* \"#utility.yul\":12542:12820   */\n      pop\n        /* \"#utility.yul\":12480:12820   */\n      swap3\n      swap2\n      pop\n      pop\n      jump\t// out\n        /* \"#utility.yul\":12867:13614   */\n    tag_138:\n        /* \"#utility.yul\":12943:12948   */\n      0x00\n        /* \"#utility.yul\":12987:12991   */\n      0x40\n        /* \"#utility.yul\":12975:12984   */\n      dup3\n        /* \"#utility.yul\":12970:12973   */\n      dup5\n        /* \"#utility.yul\":12966:12985   */\n      sub\n        /* \"#utility.yul\":12962:12992   */\n      slt\n        /* \"#utility.yul\":12959:13076   */\n      iszero\n      tag_281\n      jumpi\n        /* \"#utility.yul\":12995:13074   */\n      tag_282\n      tag_131\n      jump\t// in\n    tag_282:\n        /* \"#utility.yul\":12959:13076   */\n    tag_281:\n        /* \"#utility.yul\":13094:13115   */\n      tag_283\n        /* \"#utility.yul\":13110:13114   */\n      0x40\n        /* \"#utility.yul\":13094:13115   */\n      tag_120\n      jump\t// in\n    tag_283:\n        /* \"#utility.yul\":13085:13115   */\n      swap1\n      pop\n        /* \"#utility.yul\":13175:13176   */\n      0x00\n        /* \"#utility.yul\":13215:13264   */\n      tag_284\n        /* \"#utility.yul\":13260:13263   */\n      dup5\n        /* \"#utility.yul\":13251:13257   */\n      dup3\n        /* \"#utility.yul\":13240:13249   */\n      dup6\n        /* \"#utility.yul\":13236:13258   */\n      add\n        /* \"#utility.yul\":13215:13264   */\n      tag_124\n      jump\t// in\n    tag_284:\n        /* \"#utility.yul\":13208:13212   */\n      0x00\n        /* \"#utility.yul\":13201:13206   */\n      dup4\n        /* \"#utility.yul\":13197:13213   */\n      add\n        /* \"#utility.yul\":13190:13265   */\n      mstore\n        /* \"#utility.yul\":13125:13276   */\n      pop\n        /* \"#utility.yul\":13363:13365   */\n      0x20\n        /* \"#utility.yul\":13352:13361   */\n      dup3\n        /* \"#utility.yul\":13348:13366   */\n      add\n        /* \"#utility.yul\":13335:13367   */\n      calldataload\n        /* \"#utility.yul\":13394:13412   */\n      0xffffffffffffffff\n        /* \"#utility.yul\":13386:13392   */\n      dup2\n        /* \"#utility.yul\":13383:13413   */\n      gt\n        /* \"#utility.yul\":13380:13497   */\n      iszero\n      tag_285\n      jumpi\n        /* \"#utility.yul\":13416:13495   */\n      tag_286\n      tag_132\n      jump\t// in\n    tag_286:\n        /* \"#utility.yul\":13380:13497   */\n    tag_285:\n        /* \"#utility.yul\":13536:13595   */\n      tag_287\n        /* \"#utility.yul\":13591:13594   */\n      dup5\n        /* \"#utility.yul\":13582:13588   */\n      dup3\n        /* \"#utility.yul\":13571:13580   */\n      dup6\n        /* \"#utility.yul\":13567:13589   */\n      add\n        /* \"#utility.yul\":13536:13595   */\n      tag_137\n      jump\t// in\n    tag_287:\n        /* \"#utility.yul\":13529:13533   */\n      0x20\n        /* \"#utility.yul\":13522:13527   */\n      dup4\n        /* \"#utility.yul\":13518:13534   */\n      add\n        /* \"#utility.yul\":13511:13596   */\n      mstore\n        /* \"#utility.yul\":13286:13607   */\n      pop\n        /* \"#utility.yul\":12867:13614   */\n      swap3\n      swap2\n      pop\n      pop\n      jump\t// out\n        /* \"#utility.yul\":13620:13837   */\n    tag_86:\n        /* \"#utility.yul\":13726:13735   */\n      0x00\n        /* \"#utility.yul\":13760:13830   */\n      tag_289\n        /* \"#utility.yul\":13815:13829   */\n      calldatasize\n        /* \"#utility.yul\":13808:13813   */\n      dup4\n        /* \"#utility.yul\":13760:13830   */\n      tag_138\n      jump\t// in\n    tag_289:\n        /* \"#utility.yul\":13747:13830   */\n      swap1\n      pop\n        /* \"#utility.yul\":13620:13837   */\n      swap2\n      swap1\n      pop\n      jump\t// out\n        /* \"#utility.yul\":13843:14253   */\n    tag_96:\n        /* \"#utility.yul\":13883:13890   */\n      0x00\n        /* \"#utility.yul\":13906:13926   */\n      tag_291\n        /* \"#utility.yul\":13924:13925   */\n      dup3\n        /* \"#utility.yul\":13906:13926   */\n      tag_105\n      jump\t// in\n    tag_291:\n        /* \"#utility.yul\":13901:13926   */\n      swap2\n      pop\n        /* \"#utility.yul\":13940:13960   */\n      tag_292\n        /* \"#utility.yul\":13958:13959   */\n      dup4\n        /* \"#utility.yul\":13940:13960   */\n      tag_105\n      jump\t// in\n    tag_292:\n        /* \"#utility.yul\":13935:13960   */\n      swap3\n      pop\n        /* \"#utility.yul\":13995:13996   */\n      dup3\n        /* \"#utility.yul\":13992:13993   */\n      dup3\n        /* \"#utility.yul\":13988:13997   */\n      mul\n        /* \"#utility.yul\":14017:14047   */\n      tag_293\n        /* \"#utility.yul\":14035:14046   */\n      dup2\n        /* \"#utility.yul\":14017:14047   */\n      tag_105\n      jump\t// in\n    tag_293:\n        /* \"#utility.yul\":14006:14047   */\n      swap2\n      pop\n        /* \"#utility.yul\":14196:14197   */\n      dup3\n        /* \"#utility.yul\":14187:14194   */\n      dup3\n        /* \"#utility.yul\":14183:14198   */\n      div\n        /* \"#utility.yul\":14180:14181   */\n      dup5\n        /* \"#utility.yul\":14177:14199   */\n      eq\n        /* \"#utility.yul\":14157:14158   */\n      dup4\n        /* \"#utility.yul\":14150:14159   */\n      iszero\n        /* \"#utility.yul\":14130:14213   */\n      or\n        /* \"#utility.yul\":14107:14246   */\n      tag_294\n      jumpi\n        /* \"#utility.yul\":14226:14244   */\n      tag_295\n      tag_130\n      jump\t// in\n    tag_295:\n        /* \"#utility.yul\":14107:14246   */\n    tag_294:\n        /* \"#utility.yul\":13891:14253   */\n      pop\n        /* \"#utility.yul\":13843:14253   */\n      swap3\n      swap2\n      pop\n      pop\n      jump\t// out\n\n    auxdata: 0xa2646970667358221220f6a65f80926471f05ea280a10790ffc7dc6cddc294689a6ea151f106ec19891a64736f6c63430008170033\n}\n",
				"bytecode": {
					"linkReferences": {},
					"object": "60a060405260645f55348015610013575f80fd5b506101f460808181525050608051610d0f6100365f395f6105490152610d0f5ff3fe608060405234801561000f575f80fd5b50600436106100b2575f3560e01c80639080b79b1161006f5780639080b79b1461018e57806390ca396a146101aa57806391644803146101da5780639b05bf811461020a578063b9c03b9a14610228578063ed36b3d814610258576100b2565b806327e235e3146100b6578063507aab7f146100e657806352ba01ef14610104578063793816ec1461012257806380c1f5f614610140578063884180a71461015e575b5f80fd5b6100d060048036038101906100cb9190610611565b610276565b6040516100dd9190610654565b60405180910390f35b6100ee61028b565b6040516100fb9190610654565b60405180910390f35b61010c610291565b6040516101199190610654565b60405180910390f35b61012a610437565b6040516101379190610654565b60405180910390f35b61014861043c565b60405161015591906106f7565b60405180910390f35b61017860048036038101906101739190610739565b610479565b6040516101859190610811565b60405180910390f35b6101a860048036038101906101a3919061099b565b610492565b005b6101c460048036038101906101bf9190610a3b565b6104c1565b6040516101d19190610811565b60405180910390f35b6101f460048036038101906101ef9190610739565b61052f565b6040516102019190610811565b60405180910390f35b610212610547565b60405161021f9190610654565b60405180910390f35b610242600480360381019061023d9190610a98565b61056b565b60405161024f9190610654565b60405180910390f35b610260610585565b60405161026d9190610654565b60405180910390f35b6001602052805f5260405f205f915090505481565b6103e881565b5f80600367ffffffffffffffff8111156102ae576102ad610835565b5b6040519080825280602002602001820160405280156102dc5781602001602082028036833780820191505090505b5090505f6040518060400160405280600581526020017f48656c6c6f00000000000000000000000000000000000000000000000000000081525090505f600a67ffffffffffffffff81111561033457610333610835565b5b6040519080825280601f01601f1916602001820160405280156103665781602001600182028036833780820191505090505b5090505f607b90505f600190505f3390505f60ff90505f600290505f600190505f6040518060400160405280606481526020016040518060400160405280600481526020017f546573740000000000000000000000000000000000000000000000000000000081525081525090505f5b60038160ff161015610426575f6002826103f09190610afc565b60ff169050808c8360ff168151811061040c5761040b610b38565b5b6020026020010181815250505080806001019150506103d6565b50869a505050505050505050505090565b5f5481565b60606040518060400160405280600a81526020017f746573744d656d6f727900000000000000000000000000000000000000000000815250905090565b61048161058d565b8161048b90610c86565b9050919050565b5f81905060026064908060018154018082558091505060019003905f5260205f20015f90919091909150555050565b6104c961058d565b5f604051806040016040528084815260200186868080601f0160208091040260200160405190810160405280939291908181526020018383808284375f81840152601f19601f820116905080830192505050505050508152509050809150509392505050565b61053761058d565b61054082610479565b9050919050565b7f000000000000000000000000000000000000000000000000000000000000000081565b5f8060028361057a9190610c98565b905080915050919050565b5f8054905090565b60405180604001604052805f8152602001606081525090565b5f604051905090565b5f80fd5b5f80fd5b5f73ffffffffffffffffffffffffffffffffffffffff82169050919050565b5f6105e0826105b7565b9050919050565b6105f0816105d6565b81146105fa575f80fd5b50565b5f8135905061060b816105e7565b92915050565b5f60208284031215610626576106256105af565b5b5f610633848285016105fd565b91505092915050565b5f819050919050565b61064e8161063c565b82525050565b5f6020820190506106675f830184610645565b92915050565b5f81519050919050565b5f82825260208201905092915050565b5f5b838110156106a4578082015181840152602081019050610689565b5f8484015250505050565b5f601f19601f8301169050919050565b5f6106c98261066d565b6106d38185610677565b93506106e3818560208601610687565b6106ec816106af565b840191505092915050565b5f6020820190508181035f83015261070f81846106bf565b905092915050565b5f80fd5b5f604082840312156107305761072f610717565b5b81905092915050565b5f6020828403121561074e5761074d6105af565b5b5f82013567ffffffffffffffff81111561076b5761076a6105b3565b5b6107778482850161071b565b91505092915050565b6107898161063c565b82525050565b5f82825260208201905092915050565b5f6107a98261066d565b6107b3818561078f565b93506107c3818560208601610687565b6107cc816106af565b840191505092915050565b5f604083015f8301516107ec5f860182610780565b5060208301518482036020860152610804828261079f565b9150508091505092915050565b5f6020820190508181035f83015261082981846107d7565b905092915050565b5f80fd5b7f4e487b71000000000000000000000000000000000000000000000000000000005f52604160045260245ffd5b61086b826106af565b810181811067ffffffffffffffff8211171561088a57610889610835565b5b80604052505050565b5f61089c6105a6565b90506108a88282610862565b919050565b5f67ffffffffffffffff8211156108c7576108c6610835565b5b602082029050602081019050919050565b5f80fd5b6108e58161063c565b81146108ef575f80fd5b50565b5f81359050610900816108dc565b92915050565b5f610918610913846108ad565b610893565b9050808382526020820190506020840283018581111561093b5761093a6108d8565b5b835b81811015610964578061095088826108f2565b84526020840193505060208101905061093d565b5050509392505050565b5f82601f83011261098257610981610831565b5b8135610992848260208601610906565b91505092915050565b5f602082840312156109b0576109af6105af565b5b5f82013567ffffffffffffffff8111156109cd576109cc6105b3565b5b6109d98482850161096e565b91505092915050565b5f80fd5b5f8083601f8401126109fb576109fa610831565b5b8235905067ffffffffffffffff811115610a1857610a176109e2565b5b602083019150836001820283011115610a3457610a336108d8565b5b9250929050565b5f805f60408486031215610a5257610a516105af565b5b5f84013567ffffffffffffffff811115610a6f57610a6e6105b3565b5b610a7b868287016109e6565b93509350506020610a8e868287016108f2565b9150509250925092565b5f60208284031215610aad57610aac6105af565b5b5f610aba848285016108f2565b91505092915050565b5f60ff82169050919050565b7f4e487b71000000000000000000000000000000000000000000000000000000005f52601160045260245ffd5b5f610b0682610ac3565b9150610b1183610ac3565b9250828202610b1f81610ac3565b9150808214610b3157610b30610acf565b5b5092915050565b7f4e487b71000000000000000000000000000000000000000000000000000000005f52603260045260245ffd5b5f80fd5b5f80fd5b5f80fd5b5f67ffffffffffffffff821115610b8b57610b8a610835565b5b610b94826106af565b9050602081019050919050565b828183375f83830152505050565b5f610bc1610bbc84610b71565b610893565b905082815260208101848484011115610bdd57610bdc610b6d565b5b610be8848285610ba1565b509392505050565b5f82601f830112610c0457610c03610831565b5b8135610c14848260208601610baf565b91505092915050565b5f60408284031215610c3257610c31610b65565b5b610c3c6040610893565b90505f610c4b848285016108f2565b5f83015250602082013567ffffffffffffffff811115610c6e57610c6d610b69565b5b610c7a84828501610bf0565b60208301525092915050565b5f610c913683610c1d565b9050919050565b5f610ca28261063c565b9150610cad8361063c565b9250828202610cbb8161063c565b91508282048414831517610cd257610cd1610acf565b5b509291505056fea2646970667358221220f6a65f80926471f05ea280a10790ffc7dc6cddc294689a6ea151f106ec19891a64736f6c63430008170033",
					"opcodes": "PUSH1 0xA0 PUSH1 0x40 MSTORE PUSH1 0x64 PUSH0 SSTORE CALLVALUE DUP1 ISZERO PUSH2 0x13 JUMPI PUSH0 DUP1 REVERT JUMPDEST POP PUSH2 0x1F4 PUSH1 0x80 DUP2 DUP2 MSTORE POP POP PUSH1 0x80 MLOAD PUSH2 0xD0F PUSH2 0x36 PUSH0 CODECOPY PUSH0 PUSH2 0x549 ADD MSTORE PUSH2 0xD0F PUSH0 RETURN INVALID PUSH1 0x80 PUSH1 0x40 MSTORE CALLVALUE DUP1 ISZERO PUSH2 0xF JUMPI PUSH0 DUP1 REVERT JUMPDEST POP PUSH1 0x4 CALLDATASIZE LT PUSH2 0xB2 JUMPI PUSH0 CALLDATALOAD PUSH1 0xE0 SHR DUP1 PUSH4 0x9080B79B GT PUSH2 0x6F JUMPI DUP1 PUSH4 0x9080B79B EQ PUSH2 0x18E JUMPI DUP1 PUSH4 0x90CA396A EQ PUSH2 0x1AA JUMPI DUP1 PUSH4 0x91644803 EQ PUSH2 0x1DA JUMPI DUP1 PUSH4 0x9B05BF81 EQ PUSH2 0x20A JUMPI DUP1 PUSH4 0xB9C03B9A EQ PUSH2 0x228 JUMPI DUP1 PUSH4 0xED36B3D8 EQ PUSH2 0x258 JUMPI PUSH2 0xB2 JUMP JUMPDEST DUP1 PUSH4 0x27E235E3 EQ PUSH2 0xB6 JUMPI DUP1 PUSH4 0x507AAB7F EQ PUSH2 0xE6 JUMPI DUP1 PUSH4 0x52BA01EF EQ PUSH2 0x104 JUMPI DUP1 PUSH4 0x793816EC EQ PUSH2 0x122 JUMPI DUP1 PUSH4 0x80C1F5F6 EQ PUSH2 0x140 JUMPI DUP1 PUSH4 0x884180A7 EQ PUSH2 0x15E JUMPI JUMPDEST PUSH0 DUP1 REVERT JUMPDEST PUSH2 0xD0 PUSH1 0x4 DUP1 CALLDATASIZE SUB DUP2 ADD SWAP1 PUSH2 0xCB SWAP2 SWAP1 PUSH2 0x611 JUMP JUMPDEST PUSH2 0x276 JUMP JUMPDEST PUSH1 0x40 MLOAD PUSH2 0xDD SWAP2 SWAP1 PUSH2 0x654 JUMP JUMPDEST PUSH1 0x40 MLOAD DUP1 SWAP2 SUB SWAP1 RETURN JUMPDEST PUSH2 0xEE PUSH2 0x28B JUMP JUMPDEST PUSH1 0x40 MLOAD PUSH2 0xFB SWAP2 SWAP1 PUSH2 0x654 JUMP JUMPDEST PUSH1 0x40 MLOAD DUP1 SWAP2 SUB SWAP1 RETURN JUMPDEST PUSH2 0x10C PUSH2 0x291 JUMP JUMPDEST PUSH1 0x40 MLOAD PUSH2 0x119 SWAP2 SWAP1 PUSH2 0x654 JUMP JUMPDEST PUSH1 0x40 MLOAD DUP1 SWAP2 SUB SWAP1 RETURN JUMPDEST PUSH2 0x12A PUSH2 0x437 JUMP JUMPDEST PUSH1 0x40 MLOAD PUSH2 0x137 SWAP2 SWAP1 PUSH2 0x654 JUMP JUMPDEST PUSH1 0x40 MLOAD DUP1 SWAP2 SUB SWAP1 RETURN JUMPDEST PUSH2 0x148 PUSH2 0x43C JUMP JUMPDEST PUSH1 0x40 MLOAD PUSH2 0x155 SWAP2 SWAP1 PUSH2 0x6F7 JUMP JUMPDEST PUSH1 0x40 MLOAD DUP1 SWAP2 SUB SWAP1 RETURN JUMPDEST PUSH2 0x178 PUSH1 0x4 DUP1 CALLDATASIZE SUB DUP2 ADD SWAP1 PUSH2 0x173 SWAP2 SWAP1 PUSH2 0x739 JUMP JUMPDEST PUSH2 0x479 JUMP JUMPDEST PUSH1 0x40 MLOAD PUSH2 0x185 SWAP2 SWAP1 PUSH2 0x811 JUMP JUMPDEST PUSH1 0x40 MLOAD DUP1 SWAP2 SUB SWAP1 RETURN JUMPDEST PUSH2 0x1A8 PUSH1 0x4 DUP1 CALLDATASIZE SUB DUP2 ADD SWAP1 PUSH2 0x1A3 SWAP2 SWAP1 PUSH2 0x99B JUMP JUMPDEST PUSH2 0x492 JUMP JUMPDEST STOP JUMPDEST PUSH2 0x1C4 PUSH1 0x4 DUP1 CALLDATASIZE SUB DUP2 ADD SWAP1 PUSH2 0x1BF SWAP2 SWAP1 PUSH2 0xA3B JUMP JUMPDEST PUSH2 0x4C1 JUMP JUMPDEST PUSH1 0x40 MLOAD PUSH2 0x1D1 SWAP2 SWAP1 PUSH2 0x811 JUMP JUMPDEST PUSH1 0x40 MLOAD DUP1 SWAP2 SUB SWAP1 RETURN JUMPDEST PUSH2 0x1F4 PUSH1 0x4 DUP1 CALLDATASIZE SUB DUP2 ADD SWAP1 PUSH2 0x1EF SWAP2 SWAP1 PUSH2 0x739 JUMP JUMPDEST PUSH2 0x52F JUMP JUMPDEST PUSH1 0x40 MLOAD PUSH2 0x201 SWAP2 SWAP1 PUSH2 0x811 JUMP JUMPDEST PUSH1 0x40 MLOAD DUP1 SWAP2 SUB SWAP1 RETURN JUMPDEST PUSH2 0x212 PUSH2 0x547 JUMP JUMPDEST PUSH1 0x40 MLOAD PUSH2 0x21F SWAP2 SWAP1 PUSH2 0x654 JUMP JUMPDEST PUSH1 0x40 MLOAD DUP1 SWAP2 SUB SWAP1 RETURN JUMPDEST PUSH2 0x242 PUSH1 0x4 DUP1 CALLDATASIZE SUB DUP2 ADD SWAP1 PUSH2 0x23D SWAP2 SWAP1 PUSH2 0xA98 JUMP JUMPDEST PUSH2 0x56B JUMP JUMPDEST PUSH1 0x40 MLOAD PUSH2 0x24F SWAP2 SWAP1 PUSH2 0x654 JUMP JUMPDEST PUSH1 0x40 MLOAD DUP1 SWAP2 SUB SWAP1 RETURN JUMPDEST PUSH2 0x260 PUSH2 0x585 JUMP JUMPDEST PUSH1 0x40 MLOAD PUSH2 0x26D SWAP2 SWAP1 PUSH2 0x654 JUMP JUMPDEST PUSH1 0x40 MLOAD DUP1 SWAP2 SUB SWAP1 RETURN JUMPDEST PUSH1 0x1 PUSH1 0x20 MSTORE DUP1 PUSH0 MSTORE PUSH1 0x40 PUSH0 KECCAK256 PUSH0 SWAP2 POP SWAP1 POP SLOAD DUP2 JUMP JUMPDEST PUSH2 0x3E8 DUP2 JUMP JUMPDEST PUSH0 DUP1 PUSH1 0x3 PUSH8 0xFFFFFFFFFFFFFFFF DUP2 GT ISZERO PUSH2 0x2AE JUMPI PUSH2 0x2AD PUSH2 0x835 JUMP JUMPDEST JUMPDEST PUSH1 0x40 MLOAD SWAP1 DUP1 DUP3 MSTORE DUP1 PUSH1 0x20 MUL PUSH1 0x20 ADD DUP3 ADD PUSH1 0x40 MSTORE DUP1 ISZERO PUSH2 0x2DC JUMPI DUP2 PUSH1 0x20 ADD PUSH1 0x20 DUP3 MUL DUP1 CALLDATASIZE DUP4 CALLDATACOPY DUP1 DUP3 ADD SWAP2 POP POP SWAP1 POP JUMPDEST POP SWAP1 POP PUSH0 PUSH1 0x40 MLOAD DUP1 PUSH1 0x40 ADD PUSH1 0x40 MSTORE DUP1 PUSH1 0x5 DUP2 MSTORE PUSH1 0x20 ADD PUSH32 0x48656C6C6F000000000000000000000000000000000000000000000000000000 DUP2 MSTORE POP SWAP1 POP PUSH0 PUSH1 0xA PUSH8 0xFFFFFFFFFFFFFFFF DUP2 GT ISZERO PUSH2 0x334 JUMPI PUSH2 0x333 PUSH2 0x835 JUMP JUMPDEST JUMPDEST PUSH1 0x40 MLOAD SWAP1 DUP1 DUP3 MSTORE DUP1 PUSH1 0x1F ADD PUSH1 0x1F NOT AND PUSH1 0x20 ADD DUP3 ADD PUSH1 0x40 MSTORE DUP1 ISZERO PUSH2 0x366 JUMPI DUP2 PUSH1 0x20 ADD PUSH1 0x1 DUP3 MUL DUP1 CALLDATASIZE DUP4 CALLDATACOPY DUP1 DUP3 ADD SWAP2 POP POP SWAP1 POP JUMPDEST POP SWAP1 POP PUSH0 PUSH1 0x7B SWAP1 POP PUSH0 PUSH1 0x1 SWAP1 POP PUSH0 CALLER SWAP1 POP PUSH0 PUSH1 0xFF SWAP1 POP PUSH0 PUSH1 0x2 SWAP1 POP PUSH0 PUSH1 0x1 SWAP1 POP PUSH0 PUSH1 0x40 MLOAD DUP1 PUSH1 0x40 ADD PUSH1 0x40 MSTORE DUP1 PUSH1 0x64 DUP2 MSTORE PUSH1 0x20 ADD PUSH1 0x40 MLOAD DUP1 PUSH1 0x40 ADD PUSH1 0x40 MSTORE DUP1 PUSH1 0x4 DUP2 MSTORE PUSH1 0x20 ADD PUSH32 0x5465737400000000000000000000000000000000000000000000000000000000 DUP2 MSTORE POP DUP2 MSTORE POP SWAP1 POP PUSH0 JUMPDEST PUSH1 0x3 DUP2 PUSH1 0xFF AND LT ISZERO PUSH2 0x426 JUMPI PUSH0 PUSH1 0x2 DUP3 PUSH2 0x3F0 SWAP2 SWAP1 PUSH2 0xAFC JUMP JUMPDEST PUSH1 0xFF AND SWAP1 POP DUP1 DUP13 DUP4 PUSH1 0xFF AND DUP2 MLOAD DUP2 LT PUSH2 0x40C JUMPI PUSH2 0x40B PUSH2 0xB38 JUMP JUMPDEST JUMPDEST PUSH1 0x20 MUL PUSH1 0x20 ADD ADD DUP2 DUP2 MSTORE POP POP POP DUP1 DUP1 PUSH1 0x1 ADD SWAP2 POP POP PUSH2 0x3D6 JUMP JUMPDEST POP DUP7 SWAP11 POP POP POP POP POP POP POP POP POP POP POP SWAP1 JUMP JUMPDEST PUSH0 SLOAD DUP2 JUMP JUMPDEST PUSH1 0x60 PUSH1 0x40 MLOAD DUP1 PUSH1 0x40 ADD PUSH1 0x40 MSTORE DUP1 PUSH1 0xA DUP2 MSTORE PUSH1 0x20 ADD PUSH32 0x746573744D656D6F727900000000000000000000000000000000000000000000 DUP2 MSTORE POP SWAP1 POP SWAP1 JUMP JUMPDEST PUSH2 0x481 PUSH2 0x58D JUMP JUMPDEST DUP2 PUSH2 0x48B SWAP1 PUSH2 0xC86 JUMP JUMPDEST SWAP1 POP SWAP2 SWAP1 POP JUMP JUMPDEST PUSH0 DUP2 SWAP1 POP PUSH1 0x2 PUSH1 0x64 SWAP1 DUP1 PUSH1 0x1 DUP2 SLOAD ADD DUP1 DUP3 SSTORE DUP1 SWAP2 POP POP PUSH1 0x1 SWAP1 SUB SWAP1 PUSH0 MSTORE PUSH1 0x20 PUSH0 KECCAK256 ADD PUSH0 SWAP1 SWAP2 SWAP1 SWAP2 SWAP1 SWAP2 POP SSTORE POP POP JUMP JUMPDEST PUSH2 0x4C9 PUSH2 0x58D JUMP JUMPDEST PUSH0 PUSH1 0x40 MLOAD DUP1 PUSH1 0x40 ADD PUSH1 0x40 MSTORE DUP1 DUP5 DUP2 MSTORE PUSH1 0x20 ADD DUP7 DUP7 DUP1 DUP1 PUSH1 0x1F ADD PUSH1 0x20 DUP1 SWAP2 DIV MUL PUSH1 0x20 ADD PUSH1 0x40 MLOAD SWAP1 DUP2 ADD PUSH1 0x40 MSTORE DUP1 SWAP4 SWAP3 SWAP2 SWAP1 DUP2 DUP2 MSTORE PUSH1 0x20 ADD DUP4 DUP4 DUP1 DUP3 DUP5 CALLDATACOPY PUSH0 DUP2 DUP5 ADD MSTORE PUSH1 0x1F NOT PUSH1 0x1F DUP3 ADD AND SWAP1 POP DUP1 DUP4 ADD SWAP3 POP POP POP POP POP POP POP DUP2 MSTORE POP SWAP1 POP DUP1 SWAP2 POP POP SWAP4 SWAP3 POP POP POP JUMP JUMPDEST PUSH2 0x537 PUSH2 0x58D JUMP JUMPDEST PUSH2 0x540 DUP3 PUSH2 0x479 JUMP JUMPDEST SWAP1 POP SWAP2 SWAP1 POP JUMP JUMPDEST PUSH32 0x0 DUP2 JUMP JUMPDEST PUSH0 DUP1 PUSH1 0x2 DUP4 PUSH2 0x57A SWAP2 SWAP1 PUSH2 0xC98 JUMP JUMPDEST SWAP1 POP DUP1 SWAP2 POP POP SWAP2 SWAP1 POP JUMP JUMPDEST PUSH0 DUP1 SLOAD SWAP1 POP SWAP1 JUMP JUMPDEST PUSH1 0x40 MLOAD DUP1 PUSH1 0x40 ADD PUSH1 0x40 MSTORE DUP1 PUSH0 DUP2 MSTORE PUSH1 0x20 ADD PUSH1 0x60 DUP2 MSTORE POP SWAP1 JUMP JUMPDEST PUSH0 PUSH1 0x40 MLOAD SWAP1 POP SWAP1 JUMP JUMPDEST PUSH0 DUP1 REVERT JUMPDEST PUSH0 DUP1 REVERT JUMPDEST PUSH0 PUSH20 0xFFFFFFFFFFFFFFFFFFFFFFFFFFFFFFFFFFFFFFFF DUP3 AND SWAP1 POP SWAP2 SWAP1 POP JUMP JUMPDEST PUSH0 PUSH2 0x5E0 DUP3 PUSH2 0x5B7 JUMP JUMPDEST SWAP1 POP SWAP2 SWAP1 POP JUMP JUMPDEST PUSH2 0x5F0 DUP2 PUSH2 0x5D6 JUMP JUMPDEST DUP2 EQ PUSH2 0x5FA JUMPI PUSH0 DUP1 REVERT JUMPDEST POP JUMP JUMPDEST PUSH0 DUP2 CALLDATALOAD SWAP1 POP PUSH2 0x60B DUP2 PUSH2 0x5E7 JUMP JUMPDEST SWAP3 SWAP2 POP POP JUMP JUMPDEST PUSH0 PUSH1 0x20 DUP3 DUP5 SUB SLT ISZERO PUSH2 0x626 JUMPI PUSH2 0x625 PUSH2 0x5AF JUMP JUMPDEST JUMPDEST PUSH0 PUSH2 0x633 DUP5 DUP3 DUP6 ADD PUSH2 0x5FD JUMP JUMPDEST SWAP2 POP POP SWAP3 SWAP2 POP POP JUMP JUMPDEST PUSH0 DUP2 SWAP1 POP SWAP2 SWAP1 POP JUMP JUMPDEST PUSH2 0x64E DUP2 PUSH2 0x63C JUMP JUMPDEST DUP3 MSTORE POP POP JUMP JUMPDEST PUSH0 PUSH1 0x20 DUP3 ADD SWAP1 POP PUSH2 0x667 PUSH0 DUP4 ADD DUP5 PUSH2 0x645 JUMP JUMPDEST SWAP3 SWAP2 POP POP JUMP JUMPDEST PUSH0 DUP2 MLOAD SWAP1 POP SWAP2 SWAP1 POP JUMP JUMPDEST PUSH0 DUP3 DUP3 MSTORE PUSH1 0x20 DUP3 ADD SWAP1 POP SWAP3 SWAP2 POP POP JUMP JUMPDEST PUSH0 JUMPDEST DUP4 DUP2 LT ISZERO PUSH2 0x6A4 JUMPI DUP1 DUP3 ADD MLOAD DUP2 DUP5 ADD MSTORE PUSH1 0x20 DUP2 ADD SWAP1 POP PUSH2 0x689 JUMP JUMPDEST PUSH0 DUP5 DUP5 ADD MSTORE POP POP POP POP JUMP JUMPDEST PUSH0 PUSH1 0x1F NOT PUSH1 0x1F DUP4 ADD AND SWAP1 POP SWAP2 SWAP1 POP JUMP JUMPDEST PUSH0 PUSH2 0x6C9 DUP3 PUSH2 0x66D JUMP JUMPDEST PUSH2 0x6D3 DUP2 DUP6 PUSH2 0x677 JUMP JUMPDEST SWAP4 POP PUSH2 0x6E3 DUP2 DUP6 PUSH1 0x20 DUP7 ADD PUSH2 0x687 JUMP JUMPDEST PUSH2 0x6EC DUP2 PUSH2 0x6AF JUMP JUMPDEST DUP5 ADD SWAP2 POP POP SWAP3 SWAP2 POP POP JUMP JUMPDEST PUSH0 PUSH1 0x20 DUP3 ADD SWAP1 POP DUP2 DUP2 SUB PUSH0 DUP4 ADD MSTORE PUSH2 0x70F DUP2 DUP5 PUSH2 0x6BF JUMP JUMPDEST SWAP1 POP SWAP3 SWAP2 POP POP JUMP JUMPDEST PUSH0 DUP1 REVERT JUMPDEST PUSH0 PUSH1 0x40 DUP3 DUP5 SUB SLT ISZERO PUSH2 0x730 JUMPI PUSH2 0x72F PUSH2 0x717 JUMP JUMPDEST JUMPDEST DUP2 SWAP1 POP SWAP3 SWAP2 POP POP JUMP JUMPDEST PUSH0 PUSH1 0x20 DUP3 DUP5 SUB SLT ISZERO PUSH2 0x74E JUMPI PUSH2 0x74D PUSH2 0x5AF JUMP JUMPDEST JUMPDEST PUSH0 DUP3 ADD CALLDATALOAD PUSH8 0xFFFFFFFFFFFFFFFF DUP2 GT ISZERO PUSH2 0x76B JUMPI PUSH2 0x76A PUSH2 0x5B3 JUMP JUMPDEST JUMPDEST PUSH2 0x777 DUP5 DUP3 DUP6 ADD PUSH2 0x71B JUMP JUMPDEST SWAP2 POP POP SWAP3 SWAP2 POP POP JUMP JUMPDEST PUSH2 0x789 DUP2 PUSH2 0x63C JUMP JUMPDEST DUP3 MSTORE POP POP JUMP JUMPDEST PUSH0 DUP3 DUP3 MSTORE PUSH1 0x20 DUP3 ADD SWAP1 POP SWAP3 SWAP2 POP POP JUMP JUMPDEST PUSH0 PUSH2 0x7A9 DUP3 PUSH2 0x66D JUMP JUMPDEST PUSH2 0x7B3 DUP2 DUP6 PUSH2 0x78F JUMP JUMPDEST SWAP4 POP PUSH2 0x7C3 DUP2 DUP6 PUSH1 0x20 DUP7 ADD PUSH2 0x687 JUMP JUMPDEST PUSH2 0x7CC DUP2 PUSH2 0x6AF JUMP JUMPDEST DUP5 ADD SWAP2 POP POP SWAP3 SWAP2 POP POP JUMP JUMPDEST PUSH0 PUSH1 0x40 DUP4 ADD PUSH0 DUP4 ADD MLOAD PUSH2 0x7EC PUSH0 DUP7 ADD DUP3 PUSH2 0x780 JUMP JUMPDEST POP PUSH1 0x20 DUP4 ADD MLOAD DUP5 DUP3 SUB PUSH1 0x20 DUP7 ADD MSTORE PUSH2 0x804 DUP3 DUP3 PUSH2 0x79F JUMP JUMPDEST SWAP2 POP POP DUP1 SWAP2 POP POP SWAP3 SWAP2 POP POP JUMP JUMPDEST PUSH0 PUSH1 0x20 DUP3 ADD SWAP1 POP DUP2 DUP2 SUB PUSH0 DUP4 ADD MSTORE PUSH2 0x829 DUP2 DUP5 PUSH2 0x7D7 JUMP JUMPDEST SWAP1 POP SWAP3 SWAP2 POP POP JUMP JUMPDEST PUSH0 DUP1 REVERT JUMPDEST PUSH32 0x4E487B7100000000000000000000000000000000000000000000000000000000 PUSH0 MSTORE PUSH1 0x41 PUSH1 0x4 MSTORE PUSH1 0x24 PUSH0 REVERT JUMPDEST PUSH2 0x86B DUP3 PUSH2 0x6AF JUMP JUMPDEST DUP2 ADD DUP2 DUP2 LT PUSH8 0xFFFFFFFFFFFFFFFF DUP3 GT OR ISZERO PUSH2 0x88A JUMPI PUSH2 0x889 PUSH2 0x835 JUMP JUMPDEST JUMPDEST DUP1 PUSH1 0x40 MSTORE POP POP POP JUMP JUMPDEST PUSH0 PUSH2 0x89C PUSH2 0x5A6 JUMP JUMPDEST SWAP1 POP PUSH2 0x8A8 DUP3 DUP3 PUSH2 0x862 JUMP JUMPDEST SWAP2 SWAP1 POP JUMP JUMPDEST PUSH0 PUSH8 0xFFFFFFFFFFFFFFFF DUP3 GT ISZERO PUSH2 0x8C7 JUMPI PUSH2 0x8C6 PUSH2 0x835 JUMP JUMPDEST JUMPDEST PUSH1 0x20 DUP3 MUL SWAP1 POP PUSH1 0x20 DUP2 ADD SWAP1 POP SWAP2 SWAP1 POP JUMP JUMPDEST PUSH0 DUP1 REVERT JUMPDEST PUSH2 0x8E5 DUP2 PUSH2 0x63C JUMP JUMPDEST DUP2 EQ PUSH2 0x8EF JUMPI PUSH0 DUP1 REVERT JUMPDEST POP JUMP JUMPDEST PUSH0 DUP2 CALLDATALOAD SWAP1 POP PUSH2 0x900 DUP2 PUSH2 0x8DC JUMP JUMPDEST SWAP3 SWAP2 POP POP JUMP JUMPDEST PUSH0 PUSH2 0x918 PUSH2 0x913 DUP5 PUSH2 0x8AD JUMP JUMPDEST PUSH2 0x893 JUMP JUMPDEST SWAP1 POP DUP1 DUP4 DUP3 MSTORE PUSH1 0x20 DUP3 ADD SWAP1 POP PUSH1 0x20 DUP5 MUL DUP4 ADD DUP6 DUP2 GT ISZERO PUSH2 0x93B JUMPI PUSH2 0x93A PUSH2 0x8D8 JUMP JUMPDEST JUMPDEST DUP4 JUMPDEST DUP2 DUP2 LT ISZERO PUSH2 0x964 JUMPI DUP1 PUSH2 0x950 DUP9 DUP3 PUSH2 0x8F2 JUMP JUMPDEST DUP5 MSTORE PUSH1 0x20 DUP5 ADD SWAP4 POP POP PUSH1 0x20 DUP2 ADD SWAP1 POP PUSH2 0x93D JUMP JUMPDEST POP POP POP SWAP4 SWAP3 POP POP POP JUMP JUMPDEST PUSH0 DUP3 PUSH1 0x1F DUP4 ADD SLT PUSH2 0x982 JUMPI PUSH2 0x981 PUSH2 0x831 JUMP JUMPDEST JUMPDEST DUP2 CALLDATALOAD PUSH2 0x992 DUP5 DUP3 PUSH1 0x20 DUP7 ADD PUSH2 0x906 JUMP JUMPDEST SWAP2 POP POP SWAP3 SWAP2 POP POP JUMP JUMPDEST PUSH0 PUSH1 0x20 DUP3 DUP5 SUB SLT ISZERO PUSH2 0x9B0 JUMPI PUSH2 0x9AF PUSH2 0x5AF JUMP JUMPDEST JUMPDEST PUSH0 DUP3 ADD CALLDATALOAD PUSH8 0xFFFFFFFFFFFFFFFF DUP2 GT ISZERO PUSH2 0x9CD JUMPI PUSH2 0x9CC PUSH2 0x5B3 JUMP JUMPDEST JUMPDEST PUSH2 0x9D9 DUP5 DUP3 DUP6 ADD PUSH2 0x96E JUMP JUMPDEST SWAP2 POP POP SWAP3 SWAP2 POP POP JUMP JUMPDEST PUSH0 DUP1 REVERT JUMPDEST PUSH0 DUP1 DUP4 PUSH1 0x1F DUP5 ADD SLT PUSH2 0x9FB JUMPI PUSH2 0x9FA PUSH2 0x831 JUMP JUMPDEST JUMPDEST DUP3 CALLDATALOAD SWAP1 POP PUSH8 0xFFFFFFFFFFFFFFFF DUP2 GT ISZERO PUSH2 0xA18 JUMPI PUSH2 0xA17 PUSH2 0x9E2 JUMP JUMPDEST JUMPDEST PUSH1 0x20 DUP4 ADD SWAP2 POP DUP4 PUSH1 0x1 DUP3 MUL DUP4 ADD GT ISZERO PUSH2 0xA34 JUMPI PUSH2 0xA33 PUSH2 0x8D8 JUMP JUMPDEST JUMPDEST SWAP3 POP SWAP3 SWAP1 POP JUMP JUMPDEST PUSH0 DUP1 PUSH0 PUSH1 0x40 DUP5 DUP7 SUB SLT ISZERO PUSH2 0xA52 JUMPI PUSH2 0xA51 PUSH2 0x5AF JUMP JUMPDEST JUMPDEST PUSH0 DUP5 ADD CALLDATALOAD PUSH8 0xFFFFFFFFFFFFFFFF DUP2 GT ISZERO PUSH2 0xA6F JUMPI PUSH2 0xA6E PUSH2 0x5B3 JUMP JUMPDEST JUMPDEST PUSH2 0xA7B DUP7 DUP3 DUP8 ADD PUSH2 0x9E6 JUMP JUMPDEST SWAP4 POP SWAP4 POP POP PUSH1 0x20 PUSH2 0xA8E DUP7 DUP3 DUP8 ADD PUSH2 0x8F2 JUMP JUMPDEST SWAP2 POP POP SWAP3 POP SWAP3 POP SWAP3 JUMP JUMPDEST PUSH0 PUSH1 0x20 DUP3 DUP5 SUB SLT ISZERO PUSH2 0xAAD JUMPI PUSH2 0xAAC PUSH2 0x5AF JUMP JUMPDEST JUMPDEST PUSH0 PUSH2 0xABA DUP5 DUP3 DUP6 ADD PUSH2 0x8F2 JUMP JUMPDEST SWAP2 POP POP SWAP3 SWAP2 POP POP JUMP JUMPDEST PUSH0 PUSH1 0xFF DUP3 AND SWAP1 POP SWAP2 SWAP1 POP JUMP JUMPDEST PUSH32 0x4E487B7100000000000000000000000000000000000000000000000000000000 PUSH0 MSTORE PUSH1 0x11 PUSH1 0x4 MSTORE PUSH1 0x24 PUSH0 REVERT JUMPDEST PUSH0 PUSH2 0xB06 DUP3 PUSH2 0xAC3 JUMP JUMPDEST SWAP2 POP PUSH2 0xB11 DUP4 PUSH2 0xAC3 JUMP JUMPDEST SWAP3 POP DUP3 DUP3 MUL PUSH2 0xB1F DUP2 PUSH2 0xAC3 JUMP JUMPDEST SWAP2 POP DUP1 DUP3 EQ PUSH2 0xB31 JUMPI PUSH2 0xB30 PUSH2 0xACF JUMP JUMPDEST JUMPDEST POP SWAP3 SWAP2 POP POP JUMP JUMPDEST PUSH32 0x4E487B7100000000000000000000000000000000000000000000000000000000 PUSH0 MSTORE PUSH1 0x32 PUSH1 0x4 MSTORE PUSH1 0x24 PUSH0 REVERT JUMPDEST PUSH0 DUP1 REVERT JUMPDEST PUSH0 DUP1 REVERT JUMPDEST PUSH0 DUP1 REVERT JUMPDEST PUSH0 PUSH8 0xFFFFFFFFFFFFFFFF DUP3 GT ISZERO PUSH2 0xB8B JUMPI PUSH2 0xB8A PUSH2 0x835 JUMP JUMPDEST JUMPDEST PUSH2 0xB94 DUP3 PUSH2 0x6AF JUMP JUMPDEST SWAP1 POP PUSH1 0x20 DUP2 ADD SWAP1 POP SWAP2 SWAP1 POP JUMP JUMPDEST DUP3 DUP2 DUP4 CALLDATACOPY PUSH0 DUP4 DUP4 ADD MSTORE POP POP POP JUMP JUMPDEST PUSH0 PUSH2 0xBC1 PUSH2 0xBBC DUP5 PUSH2 0xB71 JUMP JUMPDEST PUSH2 0x893 JUMP JUMPDEST SWAP1 POP DUP3 DUP2 MSTORE PUSH1 0x20 DUP2 ADD DUP5 DUP5 DUP5 ADD GT ISZERO PUSH2 0xBDD JUMPI PUSH2 0xBDC PUSH2 0xB6D JUMP JUMPDEST JUMPDEST PUSH2 0xBE8 DUP5 DUP3 DUP6 PUSH2 0xBA1 JUMP JUMPDEST POP SWAP4 SWAP3 POP POP POP JUMP JUMPDEST PUSH0 DUP3 PUSH1 0x1F DUP4 ADD SLT PUSH2 0xC04 JUMPI PUSH2 0xC03 PUSH2 0x831 JUMP JUMPDEST JUMPDEST DUP2 CALLDATALOAD PUSH2 0xC14 DUP5 DUP3 PUSH1 0x20 DUP7 ADD PUSH2 0xBAF JUMP JUMPDEST SWAP2 POP POP SWAP3 SWAP2 POP POP JUMP JUMPDEST PUSH0 PUSH1 0x40 DUP3 DUP5 SUB SLT ISZERO PUSH2 0xC32 JUMPI PUSH2 0xC31 PUSH2 0xB65 JUMP JUMPDEST JUMPDEST PUSH2 0xC3C PUSH1 0x40 PUSH2 0x893 JUMP JUMPDEST SWAP1 POP PUSH0 PUSH2 0xC4B DUP5 DUP3 DUP6 ADD PUSH2 0x8F2 JUMP JUMPDEST PUSH0 DUP4 ADD MSTORE POP PUSH1 0x20 DUP3 ADD CALLDATALOAD PUSH8 0xFFFFFFFFFFFFFFFF DUP2 GT ISZERO PUSH2 0xC6E JUMPI PUSH2 0xC6D PUSH2 0xB69 JUMP JUMPDEST JUMPDEST PUSH2 0xC7A DUP5 DUP3 DUP6 ADD PUSH2 0xBF0 JUMP JUMPDEST PUSH1 0x20 DUP4 ADD MSTORE POP SWAP3 SWAP2 POP POP JUMP JUMPDEST PUSH0 PUSH2 0xC91 CALLDATASIZE DUP4 PUSH2 0xC1D JUMP JUMPDEST SWAP1 POP SWAP2 SWAP1 POP JUMP JUMPDEST PUSH0 PUSH2 0xCA2 DUP3 PUSH2 0x63C JUMP JUMPDEST SWAP2 POP PUSH2 0xCAD DUP4 PUSH2 0x63C JUMP JUMPDEST SWAP3 POP DUP3 DUP3 MUL PUSH2 0xCBB DUP2 PUSH2 0x63C JUMP JUMPDEST SWAP2 POP DUP3 DUP3 DIV DUP5 EQ DUP4 ISZERO OR PUSH2 0xCD2 JUMPI PUSH2 0xCD1 PUSH2 0xACF JUMP JUMPDEST JUMPDEST POP SWAP3 SWAP2 POP POP JUMP INVALID LOG2 PUSH5 0x6970667358 0x22 SLT KECCAK256 0xF6 0xA6 PUSH0 DUP1 SWAP3 PUSH5 0x71F05EA280 LOG1 SMOD SWAP1 SELFDESTRUCT 0xC7 0xDC PUSH13 0xDDC294689A6EA151F106EC1989 BYTE PUSH5 0x736F6C6343 STOP ADDMOD OR STOP CALLER "
				},
				"gasEstimates": {
					"creation": {
						"codeDepositCost": "668600",
						"executionCost": "infinite",
						"totalCost": "infinite"
					},
					"external": {
						"CONSTANT_VAR()": "348",
						"IMMUTABLE_VAR()": "infinite",
						"_call((uint256,string))": "infinite",
						"balances(address)": "2803",
						"calldataTempStruct((uint256,string))": "infinite",
						"claimVar()": "infinite",
						"memoryTempStruct(string,uint256)": "infinite",
						"pureFunction(uint256)": "infinite",
						"referenceExample(uint256[])": "infinite",
						"stateVar()": "2491",
						"testMemory()": "infinite",
						"viewFunction()": "2542"
					}
				},
				"methodIdentifiers": {
					"CONSTANT_VAR()": "507aab7f",
					"IMMUTABLE_VAR()": "9b05bf81",
					"_call((uint256,string))": "884180a7",
					"balances(address)": "27e235e3",
					"calldataTempStruct((uint256,string))": "91644803",
					"claimVar()": "52ba01ef",
					"memoryTempStruct(string,uint256)": "90ca396a",
					"pureFunction(uint256)": "b9c03b9a",
					"referenceExample(uint256[])": "9080b79b",
					"stateVar()": "793816ec",
					"testMemory()": "80c1f5f6",
					"viewFunction()": "ed36b3d8"
				}
			},
			"storageLayout": {
				"storage": [
					{
						"astId": 4,
						"contract": "tests/simp.sol:ExampleContract",
						"label": "stateVar",
						"offset": 0,
						"slot": "0",
						"type": "t_uint256"
					},
					{
						"astId": 8,
						"contract": "tests/simp.sol:ExampleContract",
						"label": "balances",
						"offset": 0,
						"slot": "1",
						"type": "t_mapping(t_address,t_uint256)"
					},
					{
						"astId": 11,
						"contract": "tests/simp.sol:ExampleContract",
						"label": "someStorageArray",
						"offset": 0,
						"slot": "2",
						"type": "t_array(t_uint256)dyn_storage"
					}
				],
				"types": {
					"t_address": {
						"encoding": "inplace",
						"label": "address",
						"numberOfBytes": "20"
					},
					"t_array(t_uint256)dyn_storage": {
						"base": "t_uint256",
						"encoding": "dynamic_array",
						"label": "uint256[]",
						"numberOfBytes": "32"
					},
					"t_mapping(t_address,t_uint256)": {
						"encoding": "mapping",
						"key": "t_address",
						"label": "mapping(address => uint256)",
						"numberOfBytes": "32",
						"value": "t_uint256"
					},
					"t_uint256": {
						"encoding": "inplace",
						"label": "uint256",
						"numberOfBytes": "32"
					}
				}
			},
			"userdoc": {
				"kind": "user",
				"methods": {},
				"version": 1
			}
		}
	}
}