{
	"tests/address.sol": {
		"addressexample": {
			"abi": [
				{
					"inputs": [
						{
							"internalType": "address",
							"name": "addr",
							"type": "address"
						},
						{
							"internalType": "bytes",
							"name": "data",
							"type": "bytes"
						}
					],
					"name": "callContract",
					"outputs": [
						{
							"internalType": "bool",
							"name": "",
							"type": "bool"
						},
						{
							"internalType": "bytes",
							"name": "",
							"type": "bytes"
						}
					],
					"stateMutability": "nonpayable",
					"type": "function"
				},
				{
					"inputs": [],
					"name": "caller",
					"outputs": [
						{
							"internalType": "address",
							"name": "",
							"type": "address"
						}
					],
					"stateMutability": "view",
					"type": "function"
				},
				{
					"inputs": [
						{
							"internalType": "address",
							"name": "addr1",
							"type": "address"
						},
						{
							"internalType": "address",
							"name": "addr2",
							"type": "address"
						}
					],
					"name": "compareAddress",
					"outputs": [
						{
							"internalType": "bool",
							"name": "",
							"type": "bool"
						}
					],
					"stateMutability": "pure",
					"type": "function"
				},
				{
					"inputs": [
						{
							"internalType": "address",
							"name": "addr",
							"type": "address"
						}
					],
					"name": "getBalance",
					"outputs": [
						{
							"internalType": "uint256",
							"name": "",
							"type": "uint256"
						}
					],
					"stateMutability": "view",
					"type": "function"
				},
				{
					"inputs": [],
					"name": "myAddress",
					"outputs": [
						{
							"internalType": "address",
							"name": "",
							"type": "address"
						}
					],
					"stateMutability": "view",
					"type": "function"
				},
				{
					"inputs": [
						{
							"internalType": "address payable",
							"name": "recipient",
							"type": "address"
						}
					],
					"name": "sendEther",
					"outputs": [],
					"stateMutability": "payable",
					"type": "function"
				},
				{
					"inputs": [
						{
							"internalType": "address",
							"name": "addr",
							"type": "address"
						}
					],
					"name": "toBytes",
					"outputs": [
						{
							"internalType": "bytes",
							"name": "",
							"type": "bytes"
						}
					],
					"stateMutability": "pure",
					"type": "function"
				}
			],
			"devdoc": {
				"kind": "dev",
				"methods": {},
				"version": 1
			},
			"evm": {
				"assembly": "    /* \"tests/address.sol\":62:1103  contract addressexample {... */\n  mstore(0x40, 0x80)\n    /* \"tests/address.sol\":222:232  msg.sender */\n  caller\n    /* \"tests/address.sol\":198:232  address public caller = msg.sender */\n  0x01\n  exp(0x0100, 0x00)\n  dup2\n  sload\n  dup2\n  0xffffffffffffffffffffffffffffffffffffffff\n  mul\n  not\n  and\n  swap1\n  dup4\n  0xffffffffffffffffffffffffffffffffffffffff\n  and\n  mul\n  or\n  swap1\n  sstore\n  pop\n    /* \"tests/address.sol\":62:1103  contract addressexample {... */\n  callvalue\n  dup1\n  iszero\n  tag_1\n  jumpi\n  0x00\n  dup1\n  revert\ntag_1:\n  pop\n  dataSize(sub_0)\n  dup1\n  dataOffset(sub_0)\n  0x00\n  codecopy\n  0x00\n  return\nstop\n\nsub_0: assembly {\n        /* \"tests/address.sol\":62:1103  contract addressexample {... */\n      mstore(0x40, 0x80)\n      jumpi(tag_1, lt(calldatasize, 0x04))\n      shr(0xe0, calldataload(0x00))\n      dup1\n      0x593b79fe\n      gt\n      tag_9\n      jumpi\n      dup1\n      0x593b79fe\n      eq\n      tag_5\n      jumpi\n      dup1\n      0x95e885c0\n      eq\n      tag_6\n      jumpi\n      dup1\n      0xf8b2cb4f\n      eq\n      tag_7\n      jumpi\n      dup1\n      0xfc9c8d39\n      eq\n      tag_8\n      jumpi\n      jump(tag_1)\n    tag_9:\n      dup1\n      0x03710668\n      eq\n      tag_2\n      jumpi\n      dup1\n      0x26b85ee1\n      eq\n      tag_3\n      jumpi\n      dup1\n      0x48c981e2\n      eq\n      tag_4\n      jumpi\n    tag_1:\n      0x00\n      dup1\n      revert\n        /* \"tests/address.sol\":888:1086  function callContract(address addr, bytes memory data) public returns (bool, bytes memory) {... */\n    tag_2:\n      callvalue\n      dup1\n      iszero\n      tag_10\n      jumpi\n      0x00\n      dup1\n      revert\n    tag_10:\n      pop\n      tag_11\n      0x04\n      dup1\n      calldatasize\n      sub\n      dup2\n      add\n      swap1\n      tag_12\n      swap2\n      swap1\n      tag_13\n      jump\t// in\n    tag_12:\n      tag_14\n      jump\t// in\n    tag_11:\n      mload(0x40)\n      tag_15\n      swap3\n      swap2\n      swap1\n      tag_16\n      jump\t// in\n    tag_15:\n      mload(0x40)\n      dup1\n      swap2\n      sub\n      swap1\n      return\n        /* \"tests/address.sol\":126:150  address public myAddress */\n    tag_3:\n      callvalue\n      dup1\n      iszero\n      tag_17\n      jumpi\n      0x00\n      dup1\n      revert\n    tag_17:\n      pop\n      tag_18\n      tag_19\n      jump\t// in\n    tag_18:\n      mload(0x40)\n      tag_20\n      swap2\n      swap1\n      tag_21\n      jump\t// in\n    tag_20:\n      mload(0x40)\n      dup1\n      swap2\n      sub\n      swap1\n      return\n        /* \"tests/address.sol\":720:829  function sendEther(address payable recipient) public payable {... */\n    tag_4:\n      tag_22\n      0x04\n      dup1\n      calldatasize\n      sub\n      dup2\n      add\n      swap1\n      tag_23\n      swap2\n      swap1\n      tag_24\n      jump\t// in\n    tag_23:\n      tag_25\n      jump\t// in\n    tag_22:\n      stop\n        /* \"tests/address.sol\":436:550  function toBytes(address addr) public pure returns (bytes memory) {... */\n    tag_5:\n      callvalue\n      dup1\n      iszero\n      tag_26\n      jumpi\n      0x00\n      dup1\n      revert\n    tag_26:\n      pop\n      tag_27\n      0x04\n      dup1\n      calldatasize\n      sub\n      dup2\n      add\n      swap1\n      tag_28\n      swap2\n      swap1\n      tag_29\n      jump\t// in\n    tag_28:\n      tag_30\n      jump\t// in\n    tag_27:\n      mload(0x40)\n      tag_31\n      swap2\n      swap1\n      tag_32\n      jump\t// in\n    tag_31:\n      mload(0x40)\n      dup1\n      swap2\n      sub\n      swap1\n      return\n        /* \"tests/address.sol\":277:398  function compareAddress(address addr1, address addr2) public pure returns (bool) {... */\n    tag_6:\n      callvalue\n      dup1\n      iszero\n      tag_33\n      jumpi\n      0x00\n      dup1\n      revert\n    tag_33:\n      pop\n      tag_34\n      0x04\n      dup1\n      calldatasize\n      sub\n      dup2\n      add\n      swap1\n      tag_35\n      swap2\n      swap1\n      tag_36\n      jump\t// in\n    tag_35:\n      tag_37\n      jump\t// in\n    tag_34:\n      mload(0x40)\n      tag_38\n      swap2\n      swap1\n      tag_39\n      jump\t// in\n    tag_38:\n      mload(0x40)\n      dup1\n      swap2\n      sub\n      swap1\n      return\n        /* \"tests/address.sol\":586:688  function getBalance(address addr) public view returns (uint256) {... */\n    tag_7:\n      callvalue\n      dup1\n      iszero\n      tag_40\n      jumpi\n      0x00\n      dup1\n      revert\n    tag_40:\n      pop\n      tag_41\n      0x04\n      dup1\n      calldatasize\n      sub\n      dup2\n      add\n      swap1\n      tag_42\n      swap2\n      swap1\n      tag_29\n      jump\t// in\n    tag_42:\n      tag_43\n      jump\t// in\n    tag_41:\n      mload(0x40)\n      tag_44\n      swap2\n      swap1\n      tag_45\n      jump\t// in\n    tag_44:\n      mload(0x40)\n      dup1\n      swap2\n      sub\n      swap1\n      return\n        /* \"tests/address.sol\":198:232  address public caller = msg.sender */\n    tag_8:\n      callvalue\n      dup1\n      iszero\n      tag_46\n      jumpi\n      0x00\n      dup1\n      revert\n    tag_46:\n      pop\n      tag_47\n      tag_48\n      jump\t// in\n    tag_47:\n      mload(0x40)\n      tag_49\n      swap2\n      swap1\n      tag_21\n      jump\t// in\n    tag_49:\n      mload(0x40)\n      dup1\n      swap2\n      sub\n      swap1\n      return\n        /* \"tests/address.sol\":888:1086  function callContract(address addr, bytes memory data) public returns (bool, bytes memory) {... */\n    tag_14:\n        /* \"tests/address.sol\":959:963  bool */\n      0x00\n        /* \"tests/address.sol\":965:977  bytes memory */\n      0x60\n        /* \"tests/address.sol\":991:1003  bool success */\n      0x00\n        /* \"tests/address.sol\":1005:1024  bytes memory result */\n      dup1\n        /* \"tests/address.sol\":1028:1032  addr */\n      dup6\n        /* \"tests/address.sol\":1028:1037  addr.call */\n      0xffffffffffffffffffffffffffffffffffffffff\n      and\n        /* \"tests/address.sol\":1038:1042  data */\n      dup6\n        /* \"tests/address.sol\":1028:1043  addr.call(data) */\n      mload(0x40)\n      tag_51\n      swap2\n      swap1\n      tag_52\n      jump\t// in\n    tag_51:\n      0x00\n      mload(0x40)\n      dup1\n      dup4\n      sub\n      dup2\n      0x00\n      dup7\n      gas\n      call\n      swap2\n      pop\n      pop\n      returndatasize\n      dup1\n      0x00\n      dup2\n      eq\n      tag_55\n      jumpi\n      mload(0x40)\n      swap2\n      pop\n      and(add(returndatasize, 0x3f), not(0x1f))\n      dup3\n      add\n      0x40\n      mstore\n      returndatasize\n      dup3\n      mstore\n      returndatasize\n      0x00\n      0x20\n      dup5\n      add\n      returndatacopy\n      jump(tag_54)\n    tag_55:\n      0x60\n      swap2\n      pop\n    tag_54:\n      pop\n        /* \"tests/address.sol\":990:1043  (bool success, bytes memory result) = addr.call(data) */\n      swap2\n      pop\n      swap2\n      pop\n        /* \"tests/address.sol\":1062:1069  success */\n      dup2\n        /* \"tests/address.sol\":1071:1077  result */\n      dup2\n        /* \"tests/address.sol\":1054:1078  return (success, result) */\n      swap4\n      pop\n      swap4\n      pop\n      pop\n      pop\n        /* \"tests/address.sol\":888:1086  function callContract(address addr, bytes memory data) public returns (bool, bytes memory) {... */\n      swap3\n      pop\n      swap3\n      swap1\n      pop\n      jump\t// out\n        /* \"tests/address.sol\":126:150  address public myAddress */\n    tag_19:\n      0x00\n      dup1\n      sload\n      swap1\n      0x0100\n      exp\n      swap1\n      div\n      0xffffffffffffffffffffffffffffffffffffffff\n      and\n      dup2\n      jump\t// out\n        /* \"tests/address.sol\":720:829  function sendEther(address payable recipient) public payable {... */\n    tag_25:\n        /* \"tests/address.sol\":792:801  recipient */\n      dup1\n        /* \"tests/address.sol\":792:810  recipient.transfer */\n      0xffffffffffffffffffffffffffffffffffffffff\n      and\n        /* \"tests/address.sol\":792:821  recipient.transfer(msg.value) */\n      0x08fc\n        /* \"tests/address.sol\":811:820  msg.value */\n      callvalue\n        /* \"tests/address.sol\":792:821  recipient.transfer(msg.value) */\n      swap1\n      dup2\n      iszero\n      mul\n      swap1\n      mload(0x40)\n      0x00\n      mload(0x40)\n      dup1\n      dup4\n      sub\n      dup2\n      dup6\n      dup9\n      dup9\n      call\n      swap4\n      pop\n      pop\n      pop\n      pop\n      iszero\n      dup1\n      iszero\n      tag_58\n      jumpi\n      returndatasize\n      0x00\n      dup1\n      returndatacopy\n      revert(0x00, returndatasize)\n    tag_58:\n      pop\n        /* \"tests/address.sol\":720:829  function sendEther(address payable recipient) public payable {... */\n      pop\n      jump\t// out\n        /* \"tests/address.sol\":436:550  function toBytes(address addr) public pure returns (bytes memory) {... */\n    tag_30:\n        /* \"tests/address.sol\":488:500  bytes memory */\n      0x60\n        /* \"tests/address.sol\":537:541  addr */\n      dup2\n        /* \"tests/address.sol\":520:542  abi.encodePacked(addr) */\n      add(0x20, mload(0x40))\n      tag_60\n      swap2\n      swap1\n      tag_61\n      jump\t// in\n    tag_60:\n      mload(0x40)\n      0x20\n      dup2\n      dup4\n      sub\n      sub\n      dup2\n      mstore\n      swap1\n      0x40\n      mstore\n        /* \"tests/address.sol\":513:542  return abi.encodePacked(addr) */\n      swap1\n      pop\n        /* \"tests/address.sol\":436:550  function toBytes(address addr) public pure returns (bytes memory) {... */\n      swap2\n      swap1\n      pop\n      jump\t// out\n        /* \"tests/address.sol\":277:398  function compareAddress(address addr1, address addr2) public pure returns (bool) {... */\n    tag_37:\n        /* \"tests/address.sol\":352:356  bool */\n      0x00\n        /* \"tests/address.sol\":385:390  addr2 */\n      dup2\n        /* \"tests/address.sol\":376:390  addr1 == addr2 */\n      0xffffffffffffffffffffffffffffffffffffffff\n      and\n        /* \"tests/address.sol\":376:381  addr1 */\n      dup4\n        /* \"tests/address.sol\":376:390  addr1 == addr2 */\n      0xffffffffffffffffffffffffffffffffffffffff\n      and\n      eq\n        /* \"tests/address.sol\":369:390  return addr1 == addr2 */\n      swap1\n      pop\n        /* \"tests/address.sol\":277:398  function compareAddress(address addr1, address addr2) public pure returns (bool) {... */\n      swap3\n      swap2\n      pop\n      pop\n      jump\t// out\n        /* \"tests/address.sol\":586:688  function getBalance(address addr) public view returns (uint256) {... */\n    tag_43:\n        /* \"tests/address.sol\":641:648  uint256 */\n      0x00\n        /* \"tests/address.sol\":668:672  addr */\n      dup2\n        /* \"tests/address.sol\":668:680  addr.balance */\n      0xffffffffffffffffffffffffffffffffffffffff\n      and\n      balance\n        /* \"tests/address.sol\":661:680  return addr.balance */\n      swap1\n      pop\n        /* \"tests/address.sol\":586:688  function getBalance(address addr) public view returns (uint256) {... */\n      swap2\n      swap1\n      pop\n      jump\t// out\n        /* \"tests/address.sol\":198:232  address public caller = msg.sender */\n    tag_48:\n      0x01\n      0x00\n      swap1\n      sload\n      swap1\n      0x0100\n      exp\n      swap1\n      div\n      0xffffffffffffffffffffffffffffffffffffffff\n      and\n      dup2\n      jump\t// out\n        /* \"#utility.yul\":7:82   */\n    tag_64:\n        /* \"#utility.yul\":40:46   */\n      0x00\n        /* \"#utility.yul\":73:75   */\n      0x40\n        /* \"#utility.yul\":67:76   */\n      mload\n        /* \"#utility.yul\":57:76   */\n      swap1\n      pop\n        /* \"#utility.yul\":7:82   */\n      swap1\n      jump\t// out\n        /* \"#utility.yul\":88:205   */\n    tag_65:\n        /* \"#utility.yul\":197:198   */\n      0x00\n        /* \"#utility.yul\":194:195   */\n      dup1\n        /* \"#utility.yul\":187:199   */\n      revert\n        /* \"#utility.yul\":211:328   */\n    tag_66:\n        /* \"#utility.yul\":320:321   */\n      0x00\n        /* \"#utility.yul\":317:318   */\n      dup1\n        /* \"#utility.yul\":310:322   */\n      revert\n        /* \"#utility.yul\":334:460   */\n    tag_67:\n        /* \"#utility.yul\":371:378   */\n      0x00\n        /* \"#utility.yul\":411:453   */\n      0xffffffffffffffffffffffffffffffffffffffff\n        /* \"#utility.yul\":404:409   */\n      dup3\n        /* \"#utility.yul\":400:454   */\n      and\n        /* \"#utility.yul\":389:454   */\n      swap1\n      pop\n        /* \"#utility.yul\":334:460   */\n      swap2\n      swap1\n      pop\n      jump\t// out\n        /* \"#utility.yul\":466:562   */\n    tag_68:\n        /* \"#utility.yul\":503:510   */\n      0x00\n        /* \"#utility.yul\":532:556   */\n      tag_105\n        /* \"#utility.yul\":550:555   */\n      dup3\n        /* \"#utility.yul\":532:556   */\n      tag_67\n      jump\t// in\n    tag_105:\n        /* \"#utility.yul\":521:556   */\n      swap1\n      pop\n        /* \"#utility.yul\":466:562   */\n      swap2\n      swap1\n      pop\n      jump\t// out\n        /* \"#utility.yul\":568:690   */\n    tag_69:\n        /* \"#utility.yul\":641:665   */\n      tag_107\n        /* \"#utility.yul\":659:664   */\n      dup2\n        /* \"#utility.yul\":641:665   */\n      tag_68\n      jump\t// in\n    tag_107:\n        /* \"#utility.yul\":634:639   */\n      dup2\n        /* \"#utility.yul\":631:666   */\n      eq\n        /* \"#utility.yul\":621:684   */\n      tag_108\n      jumpi\n        /* \"#utility.yul\":680:681   */\n      0x00\n        /* \"#utility.yul\":677:678   */\n      dup1\n        /* \"#utility.yul\":670:682   */\n      revert\n        /* \"#utility.yul\":621:684   */\n    tag_108:\n        /* \"#utility.yul\":568:690   */\n      pop\n      jump\t// out\n        /* \"#utility.yul\":696:835   */\n    tag_70:\n        /* \"#utility.yul\":742:747   */\n      0x00\n        /* \"#utility.yul\":780:786   */\n      dup2\n        /* \"#utility.yul\":767:787   */\n      calldataload\n        /* \"#utility.yul\":758:787   */\n      swap1\n      pop\n        /* \"#utility.yul\":796:829   */\n      tag_110\n        /* \"#utility.yul\":823:828   */\n      dup2\n        /* \"#utility.yul\":796:829   */\n      tag_69\n      jump\t// in\n    tag_110:\n        /* \"#utility.yul\":696:835   */\n      swap3\n      swap2\n      pop\n      pop\n      jump\t// out\n        /* \"#utility.yul\":841:958   */\n    tag_71:\n        /* \"#utility.yul\":950:951   */\n      0x00\n        /* \"#utility.yul\":947:948   */\n      dup1\n        /* \"#utility.yul\":940:952   */\n      revert\n        /* \"#utility.yul\":964:1081   */\n    tag_72:\n        /* \"#utility.yul\":1073:1074   */\n      0x00\n        /* \"#utility.yul\":1070:1071   */\n      dup1\n        /* \"#utility.yul\":1063:1075   */\n      revert\n        /* \"#utility.yul\":1087:1189   */\n    tag_73:\n        /* \"#utility.yul\":1128:1134   */\n      0x00\n        /* \"#utility.yul\":1179:1181   */\n      0x1f\n        /* \"#utility.yul\":1175:1182   */\n      not\n        /* \"#utility.yul\":1170:1172   */\n      0x1f\n        /* \"#utility.yul\":1163:1168   */\n      dup4\n        /* \"#utility.yul\":1159:1173   */\n      add\n        /* \"#utility.yul\":1155:1183   */\n      and\n        /* \"#utility.yul\":1145:1183   */\n      swap1\n      pop\n        /* \"#utility.yul\":1087:1189   */\n      swap2\n      swap1\n      pop\n      jump\t// out\n        /* \"#utility.yul\":1195:1375   */\n    tag_74:\n        /* \"#utility.yul\":1243:1320   */\n      0x4e487b7100000000000000000000000000000000000000000000000000000000\n        /* \"#utility.yul\":1240:1241   */\n      0x00\n        /* \"#utility.yul\":1233:1321   */\n      mstore\n        /* \"#utility.yul\":1340:1344   */\n      0x41\n        /* \"#utility.yul\":1337:1338   */\n      0x04\n        /* \"#utility.yul\":1330:1345   */\n      mstore\n        /* \"#utility.yul\":1364:1368   */\n      0x24\n        /* \"#utility.yul\":1361:1362   */\n      0x00\n        /* \"#utility.yul\":1354:1369   */\n      revert\n        /* \"#utility.yul\":1381:1662   */\n    tag_75:\n        /* \"#utility.yul\":1464:1491   */\n      tag_116\n        /* \"#utility.yul\":1486:1490   */\n      dup3\n        /* \"#utility.yul\":1464:1491   */\n      tag_73\n      jump\t// in\n    tag_116:\n        /* \"#utility.yul\":1456:1462   */\n      dup2\n        /* \"#utility.yul\":1452:1492   */\n      add\n        /* \"#utility.yul\":1594:1600   */\n      dup2\n        /* \"#utility.yul\":1582:1592   */\n      dup2\n        /* \"#utility.yul\":1579:1601   */\n      lt\n        /* \"#utility.yul\":1558:1576   */\n      0xffffffffffffffff\n        /* \"#utility.yul\":1546:1556   */\n      dup3\n        /* \"#utility.yul\":1543:1577   */\n      gt\n        /* \"#utility.yul\":1540:1602   */\n      or\n        /* \"#utility.yul\":1537:1625   */\n      iszero\n      tag_117\n      jumpi\n        /* \"#utility.yul\":1605:1623   */\n      tag_118\n      tag_74\n      jump\t// in\n    tag_118:\n        /* \"#utility.yul\":1537:1625   */\n    tag_117:\n        /* \"#utility.yul\":1645:1655   */\n      dup1\n        /* \"#utility.yul\":1641:1643   */\n      0x40\n        /* \"#utility.yul\":1634:1656   */\n      mstore\n        /* \"#utility.yul\":1424:1662   */\n      pop\n        /* \"#utility.yul\":1381:1662   */\n      pop\n      pop\n      jump\t// out\n        /* \"#utility.yul\":1668:1797   */\n    tag_76:\n        /* \"#utility.yul\":1702:1708   */\n      0x00\n        /* \"#utility.yul\":1729:1749   */\n      tag_120\n      tag_64\n      jump\t// in\n    tag_120:\n        /* \"#utility.yul\":1719:1749   */\n      swap1\n      pop\n        /* \"#utility.yul\":1758:1791   */\n      tag_121\n        /* \"#utility.yul\":1786:1790   */\n      dup3\n        /* \"#utility.yul\":1778:1784   */\n      dup3\n        /* \"#utility.yul\":1758:1791   */\n      tag_75\n      jump\t// in\n    tag_121:\n        /* \"#utility.yul\":1668:1797   */\n      swap2\n      swap1\n      pop\n      jump\t// out\n        /* \"#utility.yul\":1803:2110   */\n    tag_77:\n        /* \"#utility.yul\":1864:1868   */\n      0x00\n        /* \"#utility.yul\":1954:1972   */\n      0xffffffffffffffff\n        /* \"#utility.yul\":1946:1952   */\n      dup3\n        /* \"#utility.yul\":1943:1973   */\n      gt\n        /* \"#utility.yul\":1940:1996   */\n      iszero\n      tag_123\n      jumpi\n        /* \"#utility.yul\":1976:1994   */\n      tag_124\n      tag_74\n      jump\t// in\n    tag_124:\n        /* \"#utility.yul\":1940:1996   */\n    tag_123:\n        /* \"#utility.yul\":2014:2043   */\n      tag_125\n        /* \"#utility.yul\":2036:2042   */\n      dup3\n        /* \"#utility.yul\":2014:2043   */\n      tag_73\n      jump\t// in\n    tag_125:\n        /* \"#utility.yul\":2006:2043   */\n      swap1\n      pop\n        /* \"#utility.yul\":2098:2102   */\n      0x20\n        /* \"#utility.yul\":2092:2096   */\n      dup2\n        /* \"#utility.yul\":2088:2103   */\n      add\n        /* \"#utility.yul\":2080:2103   */\n      swap1\n      pop\n        /* \"#utility.yul\":1803:2110   */\n      swap2\n      swap1\n      pop\n      jump\t// out\n        /* \"#utility.yul\":2116:2262   */\n    tag_78:\n        /* \"#utility.yul\":2213:2219   */\n      dup3\n        /* \"#utility.yul\":2208:2211   */\n      dup2\n        /* \"#utility.yul\":2203:2206   */\n      dup4\n        /* \"#utility.yul\":2190:2220   */\n      calldatacopy\n        /* \"#utility.yul\":2254:2255   */\n      0x00\n        /* \"#utility.yul\":2245:2251   */\n      dup4\n        /* \"#utility.yul\":2240:2243   */\n      dup4\n        /* \"#utility.yul\":2236:2252   */\n      add\n        /* \"#utility.yul\":2229:2256   */\n      mstore\n        /* \"#utility.yul\":2116:2262   */\n      pop\n      pop\n      pop\n      jump\t// out\n        /* \"#utility.yul\":2268:2691   */\n    tag_79:\n        /* \"#utility.yul\":2345:2350   */\n      0x00\n        /* \"#utility.yul\":2370:2435   */\n      tag_128\n        /* \"#utility.yul\":2386:2434   */\n      tag_129\n        /* \"#utility.yul\":2427:2433   */\n      dup5\n        /* \"#utility.yul\":2386:2434   */\n      tag_77\n      jump\t// in\n    tag_129:\n        /* \"#utility.yul\":2370:2435   */\n      tag_76\n      jump\t// in\n    tag_128:\n        /* \"#utility.yul\":2361:2435   */\n      swap1\n      pop\n        /* \"#utility.yul\":2458:2464   */\n      dup3\n        /* \"#utility.yul\":2451:2456   */\n      dup2\n        /* \"#utility.yul\":2444:2465   */\n      mstore\n        /* \"#utility.yul\":2496:2500   */\n      0x20\n        /* \"#utility.yul\":2489:2494   */\n      dup2\n        /* \"#utility.yul\":2485:2501   */\n      add\n        /* \"#utility.yul\":2534:2537   */\n      dup5\n        /* \"#utility.yul\":2525:2531   */\n      dup5\n        /* \"#utility.yul\":2520:2523   */\n      dup5\n        /* \"#utility.yul\":2516:2532   */\n      add\n        /* \"#utility.yul\":2513:2538   */\n      gt\n        /* \"#utility.yul\":2510:2622   */\n      iszero\n      tag_130\n      jumpi\n        /* \"#utility.yul\":2541:2620   */\n      tag_131\n      tag_72\n      jump\t// in\n    tag_131:\n        /* \"#utility.yul\":2510:2622   */\n    tag_130:\n        /* \"#utility.yul\":2631:2685   */\n      tag_132\n        /* \"#utility.yul\":2678:2684   */\n      dup5\n        /* \"#utility.yul\":2673:2676   */\n      dup3\n        /* \"#utility.yul\":2668:2671   */\n      dup6\n        /* \"#utility.yul\":2631:2685   */\n      tag_78\n      jump\t// in\n    tag_132:\n        /* \"#utility.yul\":2351:2691   */\n      pop\n        /* \"#utility.yul\":2268:2691   */\n      swap4\n      swap3\n      pop\n      pop\n      pop\n      jump\t// out\n        /* \"#utility.yul\":2710:3048   */\n    tag_80:\n        /* \"#utility.yul\":2765:2770   */\n      0x00\n        /* \"#utility.yul\":2814:2817   */\n      dup3\n        /* \"#utility.yul\":2807:2811   */\n      0x1f\n        /* \"#utility.yul\":2799:2805   */\n      dup4\n        /* \"#utility.yul\":2795:2812   */\n      add\n        /* \"#utility.yul\":2791:2818   */\n      slt\n        /* \"#utility.yul\":2781:2903   */\n      tag_134\n      jumpi\n        /* \"#utility.yul\":2822:2901   */\n      tag_135\n      tag_71\n      jump\t// in\n    tag_135:\n        /* \"#utility.yul\":2781:2903   */\n    tag_134:\n        /* \"#utility.yul\":2939:2945   */\n      dup2\n        /* \"#utility.yul\":2926:2946   */\n      calldataload\n        /* \"#utility.yul\":2964:3042   */\n      tag_136\n        /* \"#utility.yul\":3038:3041   */\n      dup5\n        /* \"#utility.yul\":3030:3036   */\n      dup3\n        /* \"#utility.yul\":3023:3027   */\n      0x20\n        /* \"#utility.yul\":3015:3021   */\n      dup7\n        /* \"#utility.yul\":3011:3028   */\n      add\n        /* \"#utility.yul\":2964:3042   */\n      tag_79\n      jump\t// in\n    tag_136:\n        /* \"#utility.yul\":2955:3042   */\n      swap2\n      pop\n        /* \"#utility.yul\":2771:3048   */\n      pop\n        /* \"#utility.yul\":2710:3048   */\n      swap3\n      swap2\n      pop\n      pop\n      jump\t// out\n        /* \"#utility.yul\":3054:3706   */\n    tag_13:\n        /* \"#utility.yul\":3131:3137   */\n      0x00\n        /* \"#utility.yul\":3139:3145   */\n      dup1\n        /* \"#utility.yul\":3188:3190   */\n      0x40\n        /* \"#utility.yul\":3176:3185   */\n      dup4\n        /* \"#utility.yul\":3167:3174   */\n      dup6\n        /* \"#utility.yul\":3163:3186   */\n      sub\n        /* \"#utility.yul\":3159:3191   */\n      slt\n        /* \"#utility.yul\":3156:3275   */\n      iszero\n      tag_138\n      jumpi\n        /* \"#utility.yul\":3194:3273   */\n      tag_139\n      tag_65\n      jump\t// in\n    tag_139:\n        /* \"#utility.yul\":3156:3275   */\n    tag_138:\n        /* \"#utility.yul\":3314:3315   */\n      0x00\n        /* \"#utility.yul\":3339:3392   */\n      tag_140\n        /* \"#utility.yul\":3384:3391   */\n      dup6\n        /* \"#utility.yul\":3375:3381   */\n      dup3\n        /* \"#utility.yul\":3364:3373   */\n      dup7\n        /* \"#utility.yul\":3360:3382   */\n      add\n        /* \"#utility.yul\":3339:3392   */\n      tag_70\n      jump\t// in\n    tag_140:\n        /* \"#utility.yul\":3329:3392   */\n      swap3\n      pop\n        /* \"#utility.yul\":3285:3402   */\n      pop\n        /* \"#utility.yul\":3469:3471   */\n      0x20\n        /* \"#utility.yul\":3458:3467   */\n      dup4\n        /* \"#utility.yul\":3454:3472   */\n      add\n        /* \"#utility.yul\":3441:3473   */\n      calldataload\n        /* \"#utility.yul\":3500:3518   */\n      0xffffffffffffffff\n        /* \"#utility.yul\":3492:3498   */\n      dup2\n        /* \"#utility.yul\":3489:3519   */\n      gt\n        /* \"#utility.yul\":3486:3603   */\n      iszero\n      tag_141\n      jumpi\n        /* \"#utility.yul\":3522:3601   */\n      tag_142\n      tag_66\n      jump\t// in\n    tag_142:\n        /* \"#utility.yul\":3486:3603   */\n    tag_141:\n        /* \"#utility.yul\":3627:3689   */\n      tag_143\n        /* \"#utility.yul\":3681:3688   */\n      dup6\n        /* \"#utility.yul\":3672:3678   */\n      dup3\n        /* \"#utility.yul\":3661:3670   */\n      dup7\n        /* \"#utility.yul\":3657:3679   */\n      add\n        /* \"#utility.yul\":3627:3689   */\n      tag_80\n      jump\t// in\n    tag_143:\n        /* \"#utility.yul\":3617:3689   */\n      swap2\n      pop\n        /* \"#utility.yul\":3412:3699   */\n      pop\n        /* \"#utility.yul\":3054:3706   */\n      swap3\n      pop\n      swap3\n      swap1\n      pop\n      jump\t// out\n        /* \"#utility.yul\":3712:3802   */\n    tag_81:\n        /* \"#utility.yul\":3746:3753   */\n      0x00\n        /* \"#utility.yul\":3789:3794   */\n      dup2\n        /* \"#utility.yul\":3782:3795   */\n      iszero\n        /* \"#utility.yul\":3775:3796   */\n      iszero\n        /* \"#utility.yul\":3764:3796   */\n      swap1\n      pop\n        /* \"#utility.yul\":3712:3802   */\n      swap2\n      swap1\n      pop\n      jump\t// out\n        /* \"#utility.yul\":3808:3917   */\n    tag_82:\n        /* \"#utility.yul\":3889:3910   */\n      tag_146\n        /* \"#utility.yul\":3904:3909   */\n      dup2\n        /* \"#utility.yul\":3889:3910   */\n      tag_81\n      jump\t// in\n    tag_146:\n        /* \"#utility.yul\":3884:3887   */\n      dup3\n        /* \"#utility.yul\":3877:3911   */\n      mstore\n        /* \"#utility.yul\":3808:3917   */\n      pop\n      pop\n      jump\t// out\n        /* \"#utility.yul\":3923:4021   */\n    tag_83:\n        /* \"#utility.yul\":3974:3980   */\n      0x00\n        /* \"#utility.yul\":4008:4013   */\n      dup2\n        /* \"#utility.yul\":4002:4014   */\n      mload\n        /* \"#utility.yul\":3992:4014   */\n      swap1\n      pop\n        /* \"#utility.yul\":3923:4021   */\n      swap2\n      swap1\n      pop\n      jump\t// out\n        /* \"#utility.yul\":4027:4195   */\n    tag_84:\n        /* \"#utility.yul\":4110:4121   */\n      0x00\n        /* \"#utility.yul\":4144:4150   */\n      dup3\n        /* \"#utility.yul\":4139:4142   */\n      dup3\n        /* \"#utility.yul\":4132:4151   */\n      mstore\n        /* \"#utility.yul\":4184:4188   */\n      0x20\n        /* \"#utility.yul\":4179:4182   */\n      dup3\n        /* \"#utility.yul\":4175:4189   */\n      add\n        /* \"#utility.yul\":4160:4189   */\n      swap1\n      pop\n        /* \"#utility.yul\":4027:4195   */\n      swap3\n      swap2\n      pop\n      pop\n      jump\t// out\n        /* \"#utility.yul\":4201:4447   */\n    tag_85:\n        /* \"#utility.yul\":4282:4283   */\n      0x00\n        /* \"#utility.yul\":4292:4405   */\n    tag_150:\n        /* \"#utility.yul\":4306:4312   */\n      dup4\n        /* \"#utility.yul\":4303:4304   */\n      dup2\n        /* \"#utility.yul\":4300:4313   */\n      lt\n        /* \"#utility.yul\":4292:4405   */\n      iszero\n      tag_152\n      jumpi\n        /* \"#utility.yul\":4391:4392   */\n      dup1\n        /* \"#utility.yul\":4386:4389   */\n      dup3\n        /* \"#utility.yul\":4382:4393   */\n      add\n        /* \"#utility.yul\":4376:4394   */\n      mload\n        /* \"#utility.yul\":4372:4373   */\n      dup2\n        /* \"#utility.yul\":4367:4370   */\n      dup5\n        /* \"#utility.yul\":4363:4374   */\n      add\n        /* \"#utility.yul\":4356:4395   */\n      mstore\n        /* \"#utility.yul\":4328:4330   */\n      0x20\n        /* \"#utility.yul\":4325:4326   */\n      dup2\n        /* \"#utility.yul\":4321:4331   */\n      add\n        /* \"#utility.yul\":4316:4331   */\n      swap1\n      pop\n        /* \"#utility.yul\":4292:4405   */\n      jump(tag_150)\n    tag_152:\n        /* \"#utility.yul\":4439:4440   */\n      0x00\n        /* \"#utility.yul\":4430:4436   */\n      dup5\n        /* \"#utility.yul\":4425:4428   */\n      dup5\n        /* \"#utility.yul\":4421:4437   */\n      add\n        /* \"#utility.yul\":4414:4441   */\n      mstore\n        /* \"#utility.yul\":4263:4447   */\n      pop\n        /* \"#utility.yul\":4201:4447   */\n      pop\n      pop\n      pop\n      jump\t// out\n        /* \"#utility.yul\":4453:4826   */\n    tag_86:\n        /* \"#utility.yul\":4539:4542   */\n      0x00\n        /* \"#utility.yul\":4567:4605   */\n      tag_154\n        /* \"#utility.yul\":4599:4604   */\n      dup3\n        /* \"#utility.yul\":4567:4605   */\n      tag_83\n      jump\t// in\n    tag_154:\n        /* \"#utility.yul\":4621:4691   */\n      tag_155\n        /* \"#utility.yul\":4684:4690   */\n      dup2\n        /* \"#utility.yul\":4679:4682   */\n      dup6\n        /* \"#utility.yul\":4621:4691   */\n      tag_84\n      jump\t// in\n    tag_155:\n        /* \"#utility.yul\":4614:4691   */\n      swap4\n      pop\n        /* \"#utility.yul\":4700:4765   */\n      tag_156\n        /* \"#utility.yul\":4758:4764   */\n      dup2\n        /* \"#utility.yul\":4753:4756   */\n      dup6\n        /* \"#utility.yul\":4746:4750   */\n      0x20\n        /* \"#utility.yul\":4739:4744   */\n      dup7\n        /* \"#utility.yul\":4735:4751   */\n      add\n        /* \"#utility.yul\":4700:4765   */\n      tag_85\n      jump\t// in\n    tag_156:\n        /* \"#utility.yul\":4790:4819   */\n      tag_157\n        /* \"#utility.yul\":4812:4818   */\n      dup2\n        /* \"#utility.yul\":4790:4819   */\n      tag_73\n      jump\t// in\n    tag_157:\n        /* \"#utility.yul\":4785:4788   */\n      dup5\n        /* \"#utility.yul\":4781:4820   */\n      add\n        /* \"#utility.yul\":4774:4820   */\n      swap2\n      pop\n        /* \"#utility.yul\":4543:4826   */\n      pop\n        /* \"#utility.yul\":4453:4826   */\n      swap3\n      swap2\n      pop\n      pop\n      jump\t// out\n        /* \"#utility.yul\":4832:5239   */\n    tag_16:\n        /* \"#utility.yul\":4965:4969   */\n      0x00\n        /* \"#utility.yul\":5003:5005   */\n      0x40\n        /* \"#utility.yul\":4992:5001   */\n      dup3\n        /* \"#utility.yul\":4988:5006   */\n      add\n        /* \"#utility.yul\":4980:5006   */\n      swap1\n      pop\n        /* \"#utility.yul\":5016:5081   */\n      tag_159\n        /* \"#utility.yul\":5078:5079   */\n      0x00\n        /* \"#utility.yul\":5067:5076   */\n      dup4\n        /* \"#utility.yul\":5063:5080   */\n      add\n        /* \"#utility.yul\":5054:5060   */\n      dup6\n        /* \"#utility.yul\":5016:5081   */\n      tag_82\n      jump\t// in\n    tag_159:\n        /* \"#utility.yul\":5128:5137   */\n      dup2\n        /* \"#utility.yul\":5122:5126   */\n      dup2\n        /* \"#utility.yul\":5118:5138   */\n      sub\n        /* \"#utility.yul\":5113:5115   */\n      0x20\n        /* \"#utility.yul\":5102:5111   */\n      dup4\n        /* \"#utility.yul\":5098:5116   */\n      add\n        /* \"#utility.yul\":5091:5139   */\n      mstore\n        /* \"#utility.yul\":5156:5232   */\n      tag_160\n        /* \"#utility.yul\":5227:5231   */\n      dup2\n        /* \"#utility.yul\":5218:5224   */\n      dup5\n        /* \"#utility.yul\":5156:5232   */\n      tag_86\n      jump\t// in\n    tag_160:\n        /* \"#utility.yul\":5148:5232   */\n      swap1\n      pop\n        /* \"#utility.yul\":4832:5239   */\n      swap4\n      swap3\n      pop\n      pop\n      pop\n      jump\t// out\n        /* \"#utility.yul\":5245:5363   */\n    tag_87:\n        /* \"#utility.yul\":5332:5356   */\n      tag_162\n        /* \"#utility.yul\":5350:5355   */\n      dup2\n        /* \"#utility.yul\":5332:5356   */\n      tag_68\n      jump\t// in\n    tag_162:\n        /* \"#utility.yul\":5327:5330   */\n      dup3\n        /* \"#utility.yul\":5320:5357   */\n      mstore\n        /* \"#utility.yul\":5245:5363   */\n      pop\n      pop\n      jump\t// out\n        /* \"#utility.yul\":5369:5591   */\n    tag_21:\n        /* \"#utility.yul\":5462:5466   */\n      0x00\n        /* \"#utility.yul\":5500:5502   */\n      0x20\n        /* \"#utility.yul\":5489:5498   */\n      dup3\n        /* \"#utility.yul\":5485:5503   */\n      add\n        /* \"#utility.yul\":5477:5503   */\n      swap1\n      pop\n        /* \"#utility.yul\":5513:5584   */\n      tag_164\n        /* \"#utility.yul\":5581:5582   */\n      0x00\n        /* \"#utility.yul\":5570:5579   */\n      dup4\n        /* \"#utility.yul\":5566:5583   */\n      add\n        /* \"#utility.yul\":5557:5563   */\n      dup5\n        /* \"#utility.yul\":5513:5584   */\n      tag_87\n      jump\t// in\n    tag_164:\n        /* \"#utility.yul\":5369:5591   */\n      swap3\n      swap2\n      pop\n      pop\n      jump\t// out\n        /* \"#utility.yul\":5597:5701   */\n    tag_88:\n        /* \"#utility.yul\":5642:5649   */\n      0x00\n        /* \"#utility.yul\":5671:5695   */\n      tag_166\n        /* \"#utility.yul\":5689:5694   */\n      dup3\n        /* \"#utility.yul\":5671:5695   */\n      tag_67\n      jump\t// in\n    tag_166:\n        /* \"#utility.yul\":5660:5695   */\n      swap1\n      pop\n        /* \"#utility.yul\":5597:5701   */\n      swap2\n      swap1\n      pop\n      jump\t// out\n        /* \"#utility.yul\":5707:5845   */\n    tag_89:\n        /* \"#utility.yul\":5788:5820   */\n      tag_168\n        /* \"#utility.yul\":5814:5819   */\n      dup2\n        /* \"#utility.yul\":5788:5820   */\n      tag_88\n      jump\t// in\n    tag_168:\n        /* \"#utility.yul\":5781:5786   */\n      dup2\n        /* \"#utility.yul\":5778:5821   */\n      eq\n        /* \"#utility.yul\":5768:5839   */\n      tag_169\n      jumpi\n        /* \"#utility.yul\":5835:5836   */\n      0x00\n        /* \"#utility.yul\":5832:5833   */\n      dup1\n        /* \"#utility.yul\":5825:5837   */\n      revert\n        /* \"#utility.yul\":5768:5839   */\n    tag_169:\n        /* \"#utility.yul\":5707:5845   */\n      pop\n      jump\t// out\n        /* \"#utility.yul\":5851:6006   */\n    tag_90:\n        /* \"#utility.yul\":5905:5910   */\n      0x00\n        /* \"#utility.yul\":5943:5949   */\n      dup2\n        /* \"#utility.yul\":5930:5950   */\n      calldataload\n        /* \"#utility.yul\":5921:5950   */\n      swap1\n      pop\n        /* \"#utility.yul\":5959:6000   */\n      tag_171\n        /* \"#utility.yul\":5994:5999   */\n      dup2\n        /* \"#utility.yul\":5959:6000   */\n      tag_89\n      jump\t// in\n    tag_171:\n        /* \"#utility.yul\":5851:6006   */\n      swap3\n      swap2\n      pop\n      pop\n      jump\t// out\n        /* \"#utility.yul\":6012:6357   */\n    tag_24:\n        /* \"#utility.yul\":6079:6085   */\n      0x00\n        /* \"#utility.yul\":6128:6130   */\n      0x20\n        /* \"#utility.yul\":6116:6125   */\n      dup3\n        /* \"#utility.yul\":6107:6114   */\n      dup5\n        /* \"#utility.yul\":6103:6126   */\n      sub\n        /* \"#utility.yul\":6099:6131   */\n      slt\n        /* \"#utility.yul\":6096:6215   */\n      iszero\n      tag_173\n      jumpi\n        /* \"#utility.yul\":6134:6213   */\n      tag_174\n      tag_65\n      jump\t// in\n    tag_174:\n        /* \"#utility.yul\":6096:6215   */\n    tag_173:\n        /* \"#utility.yul\":6254:6255   */\n      0x00\n        /* \"#utility.yul\":6279:6340   */\n      tag_175\n        /* \"#utility.yul\":6332:6339   */\n      dup5\n        /* \"#utility.yul\":6323:6329   */\n      dup3\n        /* \"#utility.yul\":6312:6321   */\n      dup6\n        /* \"#utility.yul\":6308:6330   */\n      add\n        /* \"#utility.yul\":6279:6340   */\n      tag_90\n      jump\t// in\n    tag_175:\n        /* \"#utility.yul\":6269:6340   */\n      swap2\n      pop\n        /* \"#utility.yul\":6225:6350   */\n      pop\n        /* \"#utility.yul\":6012:6357   */\n      swap3\n      swap2\n      pop\n      pop\n      jump\t// out\n        /* \"#utility.yul\":6363:6692   */\n    tag_29:\n        /* \"#utility.yul\":6422:6428   */\n      0x00\n        /* \"#utility.yul\":6471:6473   */\n      0x20\n        /* \"#utility.yul\":6459:6468   */\n      dup3\n        /* \"#utility.yul\":6450:6457   */\n      dup5\n        /* \"#utility.yul\":6446:6469   */\n      sub\n        /* \"#utility.yul\":6442:6474   */\n      slt\n        /* \"#utility.yul\":6439:6558   */\n      iszero\n      tag_177\n      jumpi\n        /* \"#utility.yul\":6477:6556   */\n      tag_178\n      tag_65\n      jump\t// in\n    tag_178:\n        /* \"#utility.yul\":6439:6558   */\n    tag_177:\n        /* \"#utility.yul\":6597:6598   */\n      0x00\n        /* \"#utility.yul\":6622:6675   */\n      tag_179\n        /* \"#utility.yul\":6667:6674   */\n      dup5\n        /* \"#utility.yul\":6658:6664   */\n      dup3\n        /* \"#utility.yul\":6647:6656   */\n      dup6\n        /* \"#utility.yul\":6643:6665   */\n      add\n        /* \"#utility.yul\":6622:6675   */\n      tag_70\n      jump\t// in\n    tag_179:\n        /* \"#utility.yul\":6612:6675   */\n      swap2\n      pop\n        /* \"#utility.yul\":6568:6685   */\n      pop\n        /* \"#utility.yul\":6363:6692   */\n      swap3\n      swap2\n      pop\n      pop\n      jump\t// out\n        /* \"#utility.yul\":6698:7007   */\n    tag_32:\n        /* \"#utility.yul\":6809:6813   */\n      0x00\n        /* \"#utility.yul\":6847:6849   */\n      0x20\n        /* \"#utility.yul\":6836:6845   */\n      dup3\n        /* \"#utility.yul\":6832:6850   */\n      add\n        /* \"#utility.yul\":6824:6850   */\n      swap1\n      pop\n        /* \"#utility.yul\":6896:6905   */\n      dup2\n        /* \"#utility.yul\":6890:6894   */\n      dup2\n        /* \"#utility.yul\":6886:6906   */\n      sub\n        /* \"#utility.yul\":6882:6883   */\n      0x00\n        /* \"#utility.yul\":6871:6880   */\n      dup4\n        /* \"#utility.yul\":6867:6884   */\n      add\n        /* \"#utility.yul\":6860:6907   */\n      mstore\n        /* \"#utility.yul\":6924:7000   */\n      tag_181\n        /* \"#utility.yul\":6995:6999   */\n      dup2\n        /* \"#utility.yul\":6986:6992   */\n      dup5\n        /* \"#utility.yul\":6924:7000   */\n      tag_86\n      jump\t// in\n    tag_181:\n        /* \"#utility.yul\":6916:7000   */\n      swap1\n      pop\n        /* \"#utility.yul\":6698:7007   */\n      swap3\n      swap2\n      pop\n      pop\n      jump\t// out\n        /* \"#utility.yul\":7013:7487   */\n    tag_36:\n        /* \"#utility.yul\":7081:7087   */\n      0x00\n        /* \"#utility.yul\":7089:7095   */\n      dup1\n        /* \"#utility.yul\":7138:7140   */\n      0x40\n        /* \"#utility.yul\":7126:7135   */\n      dup4\n        /* \"#utility.yul\":7117:7124   */\n      dup6\n        /* \"#utility.yul\":7113:7136   */\n      sub\n        /* \"#utility.yul\":7109:7141   */\n      slt\n        /* \"#utility.yul\":7106:7225   */\n      iszero\n      tag_183\n      jumpi\n        /* \"#utility.yul\":7144:7223   */\n      tag_184\n      tag_65\n      jump\t// in\n    tag_184:\n        /* \"#utility.yul\":7106:7225   */\n    tag_183:\n        /* \"#utility.yul\":7264:7265   */\n      0x00\n        /* \"#utility.yul\":7289:7342   */\n      tag_185\n        /* \"#utility.yul\":7334:7341   */\n      dup6\n        /* \"#utility.yul\":7325:7331   */\n      dup3\n        /* \"#utility.yul\":7314:7323   */\n      dup7\n        /* \"#utility.yul\":7310:7332   */\n      add\n        /* \"#utility.yul\":7289:7342   */\n      tag_70\n      jump\t// in\n    tag_185:\n        /* \"#utility.yul\":7279:7342   */\n      swap3\n      pop\n        /* \"#utility.yul\":7235:7352   */\n      pop\n        /* \"#utility.yul\":7391:7393   */\n      0x20\n        /* \"#utility.yul\":7417:7470   */\n      tag_186\n        /* \"#utility.yul\":7462:7469   */\n      dup6\n        /* \"#utility.yul\":7453:7459   */\n      dup3\n        /* \"#utility.yul\":7442:7451   */\n      dup7\n        /* \"#utility.yul\":7438:7460   */\n      add\n        /* \"#utility.yul\":7417:7470   */\n      tag_70\n      jump\t// in\n    tag_186:\n        /* \"#utility.yul\":7407:7470   */\n      swap2\n      pop\n        /* \"#utility.yul\":7362:7480   */\n      pop\n        /* \"#utility.yul\":7013:7487   */\n      swap3\n      pop\n      swap3\n      swap1\n      pop\n      jump\t// out\n        /* \"#utility.yul\":7493:7703   */\n    tag_39:\n        /* \"#utility.yul\":7580:7584   */\n      0x00\n        /* \"#utility.yul\":7618:7620   */\n      0x20\n        /* \"#utility.yul\":7607:7616   */\n      dup3\n        /* \"#utility.yul\":7603:7621   */\n      add\n        /* \"#utility.yul\":7595:7621   */\n      swap1\n      pop\n        /* \"#utility.yul\":7631:7696   */\n      tag_188\n        /* \"#utility.yul\":7693:7694   */\n      0x00\n        /* \"#utility.yul\":7682:7691   */\n      dup4\n        /* \"#utility.yul\":7678:7695   */\n      add\n        /* \"#utility.yul\":7669:7675   */\n      dup5\n        /* \"#utility.yul\":7631:7696   */\n      tag_82\n      jump\t// in\n    tag_188:\n        /* \"#utility.yul\":7493:7703   */\n      swap3\n      swap2\n      pop\n      pop\n      jump\t// out\n        /* \"#utility.yul\":7709:7786   */\n    tag_91:\n        /* \"#utility.yul\":7746:7753   */\n      0x00\n        /* \"#utility.yul\":7775:7780   */\n      dup2\n        /* \"#utility.yul\":7764:7780   */\n      swap1\n      pop\n        /* \"#utility.yul\":7709:7786   */\n      swap2\n      swap1\n      pop\n      jump\t// out\n        /* \"#utility.yul\":7792:7910   */\n    tag_92:\n        /* \"#utility.yul\":7879:7903   */\n      tag_191\n        /* \"#utility.yul\":7897:7902   */\n      dup2\n        /* \"#utility.yul\":7879:7903   */\n      tag_91\n      jump\t// in\n    tag_191:\n        /* \"#utility.yul\":7874:7877   */\n      dup3\n        /* \"#utility.yul\":7867:7904   */\n      mstore\n        /* \"#utility.yul\":7792:7910   */\n      pop\n      pop\n      jump\t// out\n        /* \"#utility.yul\":7916:8138   */\n    tag_45:\n        /* \"#utility.yul\":8009:8013   */\n      0x00\n        /* \"#utility.yul\":8047:8049   */\n      0x20\n        /* \"#utility.yul\":8036:8045   */\n      dup3\n        /* \"#utility.yul\":8032:8050   */\n      add\n        /* \"#utility.yul\":8024:8050   */\n      swap1\n      pop\n        /* \"#utility.yul\":8060:8131   */\n      tag_193\n        /* \"#utility.yul\":8128:8129   */\n      0x00\n        /* \"#utility.yul\":8117:8126   */\n      dup4\n        /* \"#utility.yul\":8113:8130   */\n      add\n        /* \"#utility.yul\":8104:8110   */\n      dup5\n        /* \"#utility.yul\":8060:8131   */\n      tag_92\n      jump\t// in\n    tag_193:\n        /* \"#utility.yul\":7916:8138   */\n      swap3\n      swap2\n      pop\n      pop\n      jump\t// out\n        /* \"#utility.yul\":8144:8291   */\n    tag_93:\n        /* \"#utility.yul\":8245:8256   */\n      0x00\n        /* \"#utility.yul\":8282:8285   */\n      dup2\n        /* \"#utility.yul\":8267:8285   */\n      swap1\n      pop\n        /* \"#utility.yul\":8144:8291   */\n      swap3\n      swap2\n      pop\n      pop\n      jump\t// out\n        /* \"#utility.yul\":8297:8683   */\n    tag_94:\n        /* \"#utility.yul\":8401:8404   */\n      0x00\n        /* \"#utility.yul\":8429:8467   */\n      tag_196\n        /* \"#utility.yul\":8461:8466   */\n      dup3\n        /* \"#utility.yul\":8429:8467   */\n      tag_83\n      jump\t// in\n    tag_196:\n        /* \"#utility.yul\":8483:8571   */\n      tag_197\n        /* \"#utility.yul\":8564:8570   */\n      dup2\n        /* \"#utility.yul\":8559:8562   */\n      dup6\n        /* \"#utility.yul\":8483:8571   */\n      tag_93\n      jump\t// in\n    tag_197:\n        /* \"#utility.yul\":8476:8571   */\n      swap4\n      pop\n        /* \"#utility.yul\":8580:8645   */\n      tag_198\n        /* \"#utility.yul\":8638:8644   */\n      dup2\n        /* \"#utility.yul\":8633:8636   */\n      dup6\n        /* \"#utility.yul\":8626:8630   */\n      0x20\n        /* \"#utility.yul\":8619:8624   */\n      dup7\n        /* \"#utility.yul\":8615:8631   */\n      add\n        /* \"#utility.yul\":8580:8645   */\n      tag_85\n      jump\t// in\n    tag_198:\n        /* \"#utility.yul\":8670:8676   */\n      dup1\n        /* \"#utility.yul\":8665:8668   */\n      dup5\n        /* \"#utility.yul\":8661:8677   */\n      add\n        /* \"#utility.yul\":8654:8677   */\n      swap2\n      pop\n        /* \"#utility.yul\":8405:8683   */\n      pop\n        /* \"#utility.yul\":8297:8683   */\n      swap3\n      swap2\n      pop\n      pop\n      jump\t// out\n        /* \"#utility.yul\":8689:8960   */\n    tag_52:\n        /* \"#utility.yul\":8819:8822   */\n      0x00\n        /* \"#utility.yul\":8841:8934   */\n      tag_200\n        /* \"#utility.yul\":8930:8933   */\n      dup3\n        /* \"#utility.yul\":8921:8927   */\n      dup5\n        /* \"#utility.yul\":8841:8934   */\n      tag_94\n      jump\t// in\n    tag_200:\n        /* \"#utility.yul\":8834:8934   */\n      swap2\n      pop\n        /* \"#utility.yul\":8951:8954   */\n      dup2\n        /* \"#utility.yul\":8944:8954   */\n      swap1\n      pop\n        /* \"#utility.yul\":8689:8960   */\n      swap3\n      swap2\n      pop\n      pop\n      jump\t// out\n        /* \"#utility.yul\":8966:9060   */\n    tag_95:\n        /* \"#utility.yul\":8999:9007   */\n      0x00\n        /* \"#utility.yul\":9047:9052   */\n      dup2\n        /* \"#utility.yul\":9043:9045   */\n      0x60\n        /* \"#utility.yul\":9039:9053   */\n      shl\n        /* \"#utility.yul\":9018:9053   */\n      swap1\n      pop\n        /* \"#utility.yul\":8966:9060   */\n      swap2\n      swap1\n      pop\n      jump\t// out\n        /* \"#utility.yul\":9066:9160   */\n    tag_96:\n        /* \"#utility.yul\":9105:9112   */\n      0x00\n        /* \"#utility.yul\":9134:9154   */\n      tag_203\n        /* \"#utility.yul\":9148:9153   */\n      dup3\n        /* \"#utility.yul\":9134:9154   */\n      tag_95\n      jump\t// in\n    tag_203:\n        /* \"#utility.yul\":9123:9154   */\n      swap1\n      pop\n        /* \"#utility.yul\":9066:9160   */\n      swap2\n      swap1\n      pop\n      jump\t// out\n        /* \"#utility.yul\":9166:9266   */\n    tag_97:\n        /* \"#utility.yul\":9205:9212   */\n      0x00\n        /* \"#utility.yul\":9234:9260   */\n      tag_205\n        /* \"#utility.yul\":9254:9259   */\n      dup3\n        /* \"#utility.yul\":9234:9260   */\n      tag_96\n      jump\t// in\n    tag_205:\n        /* \"#utility.yul\":9223:9260   */\n      swap1\n      pop\n        /* \"#utility.yul\":9166:9266   */\n      swap2\n      swap1\n      pop\n      jump\t// out\n        /* \"#utility.yul\":9272:9429   */\n    tag_98:\n        /* \"#utility.yul\":9377:9422   */\n      tag_207\n        /* \"#utility.yul\":9397:9421   */\n      tag_208\n        /* \"#utility.yul\":9415:9420   */\n      dup3\n        /* \"#utility.yul\":9397:9421   */\n      tag_68\n      jump\t// in\n    tag_208:\n        /* \"#utility.yul\":9377:9422   */\n      tag_97\n      jump\t// in\n    tag_207:\n        /* \"#utility.yul\":9372:9375   */\n      dup3\n        /* \"#utility.yul\":9365:9423   */\n      mstore\n        /* \"#utility.yul\":9272:9429   */\n      pop\n      pop\n      jump\t// out\n        /* \"#utility.yul\":9435:9691   */\n    tag_61:\n        /* \"#utility.yul\":9547:9550   */\n      0x00\n        /* \"#utility.yul\":9562:9637   */\n      tag_210\n        /* \"#utility.yul\":9633:9636   */\n      dup3\n        /* \"#utility.yul\":9624:9630   */\n      dup5\n        /* \"#utility.yul\":9562:9637   */\n      tag_98\n      jump\t// in\n    tag_210:\n        /* \"#utility.yul\":9662:9664   */\n      0x14\n        /* \"#utility.yul\":9657:9660   */\n      dup3\n        /* \"#utility.yul\":9653:9665   */\n      add\n        /* \"#utility.yul\":9646:9665   */\n      swap2\n      pop\n        /* \"#utility.yul\":9682:9685   */\n      dup2\n        /* \"#utility.yul\":9675:9685   */\n      swap1\n      pop\n        /* \"#utility.yul\":9435:9691   */\n      swap3\n      swap2\n      pop\n      pop\n      jump\t// out\n\n    auxdata: 0xa2646970667358221220610ac36750ac624b771e5215035b864f6aef6015f6adad59819d065aafaa94a664736f6c63430008170033\n}\n",
				"bytecode": {
					"linkReferences": {},
					"object": "60806040523360015f6101000a81548173ffffffffffffffffffffffffffffffffffffffff021916908373ffffffffffffffffffffffffffffffffffffffff16021790555034801561004f575f80fd5b506108698061005d5f395ff3fe60806040526004361061006f575f3560e01c8063593b79fe1161004d578063593b79fe146100f657806395e885c014610132578063f8b2cb4f1461016e578063fc9c8d39146101aa5761006f565b8063037106681461007357806326b85ee1146100b057806348c981e2146100da575b5f80fd5b34801561007e575f80fd5b5061009960048036038101906100949190610507565b6101d4565b6040516100a79291906105f5565b60405180910390f35b3480156100bb575f80fd5b506100c4610250565b6040516100d19190610632565b60405180910390f35b6100f460048036038101906100ef9190610686565b610273565b005b348015610101575f80fd5b5061011c600480360381019061011791906106b1565b6102ba565b60405161012991906106dc565b60405180910390f35b34801561013d575f80fd5b50610158600480360381019061015391906106fc565b6102e3565b604051610165919061073a565b60405180910390f35b348015610179575f80fd5b50610194600480360381019061018f91906106b1565b61031b565b6040516101a1919061076b565b60405180910390f35b3480156101b5575f80fd5b506101be61033b565b6040516101cb9190610632565b60405180910390f35b5f60605f808573ffffffffffffffffffffffffffffffffffffffff16856040516101fe91906107be565b5f604051808303815f865af19150503d805f8114610237576040519150601f19603f3d011682016040523d82523d5f602084013e61023c565b606091505b509150915081819350935050509250929050565b5f8054906101000a900473ffffffffffffffffffffffffffffffffffffffff1681565b8073ffffffffffffffffffffffffffffffffffffffff166108fc3490811502906040515f60405180830381858888f193505050501580156102b6573d5f803e3d5ffd5b5050565b6060816040516020016102cd9190610819565b6040516020818303038152906040529050919050565b5f8173ffffffffffffffffffffffffffffffffffffffff168373ffffffffffffffffffffffffffffffffffffffff1614905092915050565b5f8173ffffffffffffffffffffffffffffffffffffffff16319050919050565b60015f9054906101000a900473ffffffffffffffffffffffffffffffffffffffff1681565b5f604051905090565b5f80fd5b5f80fd5b5f73ffffffffffffffffffffffffffffffffffffffff82169050919050565b5f61039a82610371565b9050919050565b6103aa81610390565b81146103b4575f80fd5b50565b5f813590506103c5816103a1565b92915050565b5f80fd5b5f80fd5b5f601f19601f8301169050919050565b7f4e487b71000000000000000000000000000000000000000000000000000000005f52604160045260245ffd5b610419826103d3565b810181811067ffffffffffffffff82111715610438576104376103e3565b5b80604052505050565b5f61044a610360565b90506104568282610410565b919050565b5f67ffffffffffffffff821115610475576104746103e3565b5b61047e826103d3565b9050602081019050919050565b828183375f83830152505050565b5f6104ab6104a68461045b565b610441565b9050828152602081018484840111156104c7576104c66103cf565b5b6104d284828561048b565b509392505050565b5f82601f8301126104ee576104ed6103cb565b5b81356104fe848260208601610499565b91505092915050565b5f806040838503121561051d5761051c610369565b5b5f61052a858286016103b7565b925050602083013567ffffffffffffffff81111561054b5761054a61036d565b5b610557858286016104da565b9150509250929050565b5f8115159050919050565b61057581610561565b82525050565b5f81519050919050565b5f82825260208201905092915050565b5f5b838110156105b2578082015181840152602081019050610597565b5f8484015250505050565b5f6105c78261057b565b6105d18185610585565b93506105e1818560208601610595565b6105ea816103d3565b840191505092915050565b5f6040820190506106085f83018561056c565b818103602083015261061a81846105bd565b90509392505050565b61062c81610390565b82525050565b5f6020820190506106455f830184610623565b92915050565b5f61065582610371565b9050919050565b6106658161064b565b811461066f575f80fd5b50565b5f813590506106808161065c565b92915050565b5f6020828403121561069b5761069a610369565b5b5f6106a884828501610672565b91505092915050565b5f602082840312156106c6576106c5610369565b5b5f6106d3848285016103b7565b91505092915050565b5f6020820190508181035f8301526106f481846105bd565b905092915050565b5f806040838503121561071257610711610369565b5b5f61071f858286016103b7565b9250506020610730858286016103b7565b9150509250929050565b5f60208201905061074d5f83018461056c565b92915050565b5f819050919050565b61076581610753565b82525050565b5f60208201905061077e5f83018461075c565b92915050565b5f81905092915050565b5f6107988261057b565b6107a28185610784565b93506107b2818560208601610595565b80840191505092915050565b5f6107c9828461078e565b915081905092915050565b5f8160601b9050919050565b5f6107ea826107d4565b9050919050565b5f6107fb826107e0565b9050919050565b61081361080e82610390565b6107f1565b82525050565b5f6108248284610802565b6014820191508190509291505056fea2646970667358221220610ac36750ac624b771e5215035b864f6aef6015f6adad59819d065aafaa94a664736f6c63430008170033",
					"opcodes": "PUSH1 0x80 PUSH1 0x40 MSTORE CALLER PUSH1 0x1 PUSH0 PUSH2 0x100 EXP DUP2 SLOAD DUP2 PUSH20 0xFFFFFFFFFFFFFFFFFFFFFFFFFFFFFFFFFFFFFFFF MUL NOT AND SWAP1 DUP4 PUSH20 0xFFFFFFFFFFFFFFFFFFFFFFFFFFFFFFFFFFFFFFFF AND MUL OR SWAP1 SSTORE POP CALLVALUE DUP1 ISZERO PUSH2 0x4F JUMPI PUSH0 DUP1 REVERT JUMPDEST POP PUSH2 0x869 DUP1 PUSH2 0x5D PUSH0 CODECOPY PUSH0 RETURN INVALID PUSH1 0x80 PUSH1 0x40 MSTORE PUSH1 0x4 CALLDATASIZE LT PUSH2 0x6F JUMPI PUSH0 CALLDATALOAD PUSH1 0xE0 SHR DUP1 PUSH4 0x593B79FE GT PUSH2 0x4D JUMPI DUP1 PUSH4 0x593B79FE EQ PUSH2 0xF6 JUMPI DUP1 PUSH4 0x95E885C0 EQ PUSH2 0x132 JUMPI DUP1 PUSH4 0xF8B2CB4F EQ PUSH2 0x16E JUMPI DUP1 PUSH4 0xFC9C8D39 EQ PUSH2 0x1AA JUMPI PUSH2 0x6F JUMP JUMPDEST DUP1 PUSH4 0x3710668 EQ PUSH2 0x73 JUMPI DUP1 PUSH4 0x26B85EE1 EQ PUSH2 0xB0 JUMPI DUP1 PUSH4 0x48C981E2 EQ PUSH2 0xDA JUMPI JUMPDEST PUSH0 DUP1 REVERT JUMPDEST CALLVALUE DUP1 ISZERO PUSH2 0x7E JUMPI PUSH0 DUP1 REVERT JUMPDEST POP PUSH2 0x99 PUSH1 0x4 DUP1 CALLDATASIZE SUB DUP2 ADD SWAP1 PUSH2 0x94 SWAP2 SWAP1 PUSH2 0x507 JUMP JUMPDEST PUSH2 0x1D4 JUMP JUMPDEST PUSH1 0x40 MLOAD PUSH2 0xA7 SWAP3 SWAP2 SWAP1 PUSH2 0x5F5 JUMP JUMPDEST PUSH1 0x40 MLOAD DUP1 SWAP2 SUB SWAP1 RETURN JUMPDEST CALLVALUE DUP1 ISZERO PUSH2 0xBB JUMPI PUSH0 DUP1 REVERT JUMPDEST POP PUSH2 0xC4 PUSH2 0x250 JUMP JUMPDEST PUSH1 0x40 MLOAD PUSH2 0xD1 SWAP2 SWAP1 PUSH2 0x632 JUMP JUMPDEST PUSH1 0x40 MLOAD DUP1 SWAP2 SUB SWAP1 RETURN JUMPDEST PUSH2 0xF4 PUSH1 0x4 DUP1 CALLDATASIZE SUB DUP2 ADD SWAP1 PUSH2 0xEF SWAP2 SWAP1 PUSH2 0x686 JUMP JUMPDEST PUSH2 0x273 JUMP JUMPDEST STOP JUMPDEST CALLVALUE DUP1 ISZERO PUSH2 0x101 JUMPI PUSH0 DUP1 REVERT JUMPDEST POP PUSH2 0x11C PUSH1 0x4 DUP1 CALLDATASIZE SUB DUP2 ADD SWAP1 PUSH2 0x117 SWAP2 SWAP1 PUSH2 0x6B1 JUMP JUMPDEST PUSH2 0x2BA JUMP JUMPDEST PUSH1 0x40 MLOAD PUSH2 0x129 SWAP2 SWAP1 PUSH2 0x6DC JUMP JUMPDEST PUSH1 0x40 MLOAD DUP1 SWAP2 SUB SWAP1 RETURN JUMPDEST CALLVALUE DUP1 ISZERO PUSH2 0x13D JUMPI PUSH0 DUP1 REVERT JUMPDEST POP PUSH2 0x158 PUSH1 0x4 DUP1 CALLDATASIZE SUB DUP2 ADD SWAP1 PUSH2 0x153 SWAP2 SWAP1 PUSH2 0x6FC JUMP JUMPDEST PUSH2 0x2E3 JUMP JUMPDEST PUSH1 0x40 MLOAD PUSH2 0x165 SWAP2 SWAP1 PUSH2 0x73A JUMP JUMPDEST PUSH1 0x40 MLOAD DUP1 SWAP2 SUB SWAP1 RETURN JUMPDEST CALLVALUE DUP1 ISZERO PUSH2 0x179 JUMPI PUSH0 DUP1 REVERT JUMPDEST POP PUSH2 0x194 PUSH1 0x4 DUP1 CALLDATASIZE SUB DUP2 ADD SWAP1 PUSH2 0x18F SWAP2 SWAP1 PUSH2 0x6B1 JUMP JUMPDEST PUSH2 0x31B JUMP JUMPDEST PUSH1 0x40 MLOAD PUSH2 0x1A1 SWAP2 SWAP1 PUSH2 0x76B JUMP JUMPDEST PUSH1 0x40 MLOAD DUP1 SWAP2 SUB SWAP1 RETURN JUMPDEST CALLVALUE DUP1 ISZERO PUSH2 0x1B5 JUMPI PUSH0 DUP1 REVERT JUMPDEST POP PUSH2 0x1BE PUSH2 0x33B JUMP JUMPDEST PUSH1 0x40 MLOAD PUSH2 0x1CB SWAP2 SWAP1 PUSH2 0x632 JUMP JUMPDEST PUSH1 0x40 MLOAD DUP1 SWAP2 SUB SWAP1 RETURN JUMPDEST PUSH0 PUSH1 0x60 PUSH0 DUP1 DUP6 PUSH20 0xFFFFFFFFFFFFFFFFFFFFFFFFFFFFFFFFFFFFFFFF AND DUP6 PUSH1 0x40 MLOAD PUSH2 0x1FE SWAP2 SWAP1 PUSH2 0x7BE JUMP JUMPDEST PUSH0 PUSH1 0x40 MLOAD DUP1 DUP4 SUB DUP2 PUSH0 DUP7 GAS CALL SWAP2 POP POP RETURNDATASIZE DUP1 PUSH0 DUP2 EQ PUSH2 0x237 JUMPI PUSH1 0x40 MLOAD SWAP2 POP PUSH1 0x1F NOT PUSH1 0x3F RETURNDATASIZE ADD AND DUP3 ADD PUSH1 0x40 MSTORE RETURNDATASIZE DUP3 MSTORE RETURNDATASIZE PUSH0 PUSH1 0x20 DUP5 ADD RETURNDATACOPY PUSH2 0x23C JUMP JUMPDEST PUSH1 0x60 SWAP2 POP JUMPDEST POP SWAP2 POP SWAP2 POP DUP2 DUP2 SWAP4 POP SWAP4 POP POP POP SWAP3 POP SWAP3 SWAP1 POP JUMP JUMPDEST PUSH0 DUP1 SLOAD SWAP1 PUSH2 0x100 EXP SWAP1 DIV PUSH20 0xFFFFFFFFFFFFFFFFFFFFFFFFFFFFFFFFFFFFFFFF AND DUP2 JUMP JUMPDEST DUP1 PUSH20 0xFFFFFFFFFFFFFFFFFFFFFFFFFFFFFFFFFFFFFFFF AND PUSH2 0x8FC CALLVALUE SWAP1 DUP2 ISZERO MUL SWAP1 PUSH1 0x40 MLOAD PUSH0 PUSH1 0x40 MLOAD DUP1 DUP4 SUB DUP2 DUP6 DUP9 DUP9 CALL SWAP4 POP POP POP POP ISZERO DUP1 ISZERO PUSH2 0x2B6 JUMPI RETURNDATASIZE PUSH0 DUP1 RETURNDATACOPY RETURNDATASIZE PUSH0 REVERT JUMPDEST POP POP JUMP JUMPDEST PUSH1 0x60 DUP2 PUSH1 0x40 MLOAD PUSH1 0x20 ADD PUSH2 0x2CD SWAP2 SWAP1 PUSH2 0x819 JUMP JUMPDEST PUSH1 0x40 MLOAD PUSH1 0x20 DUP2 DUP4 SUB SUB DUP2 MSTORE SWAP1 PUSH1 0x40 MSTORE SWAP1 POP SWAP2 SWAP1 POP JUMP JUMPDEST PUSH0 DUP2 PUSH20 0xFFFFFFFFFFFFFFFFFFFFFFFFFFFFFFFFFFFFFFFF AND DUP4 PUSH20 0xFFFFFFFFFFFFFFFFFFFFFFFFFFFFFFFFFFFFFFFF AND EQ SWAP1 POP SWAP3 SWAP2 POP POP JUMP JUMPDEST PUSH0 DUP2 PUSH20 0xFFFFFFFFFFFFFFFFFFFFFFFFFFFFFFFFFFFFFFFF AND BALANCE SWAP1 POP SWAP2 SWAP1 POP JUMP JUMPDEST PUSH1 0x1 PUSH0 SWAP1 SLOAD SWAP1 PUSH2 0x100 EXP SWAP1 DIV PUSH20 0xFFFFFFFFFFFFFFFFFFFFFFFFFFFFFFFFFFFFFFFF AND DUP2 JUMP JUMPDEST PUSH0 PUSH1 0x40 MLOAD SWAP1 POP SWAP1 JUMP JUMPDEST PUSH0 DUP1 REVERT JUMPDEST PUSH0 DUP1 REVERT JUMPDEST PUSH0 PUSH20 0xFFFFFFFFFFFFFFFFFFFFFFFFFFFFFFFFFFFFFFFF DUP3 AND SWAP1 POP SWAP2 SWAP1 POP JUMP JUMPDEST PUSH0 PUSH2 0x39A DUP3 PUSH2 0x371 JUMP JUMPDEST SWAP1 POP SWAP2 SWAP1 POP JUMP JUMPDEST PUSH2 0x3AA DUP2 PUSH2 0x390 JUMP JUMPDEST DUP2 EQ PUSH2 0x3B4 JUMPI PUSH0 DUP1 REVERT JUMPDEST POP JUMP JUMPDEST PUSH0 DUP2 CALLDATALOAD SWAP1 POP PUSH2 0x3C5 DUP2 PUSH2 0x3A1 JUMP JUMPDEST SWAP3 SWAP2 POP POP JUMP JUMPDEST PUSH0 DUP1 REVERT JUMPDEST PUSH0 DUP1 REVERT JUMPDEST PUSH0 PUSH1 0x1F NOT PUSH1 0x1F DUP4 ADD AND SWAP1 POP SWAP2 SWAP1 POP JUMP JUMPDEST PUSH32 0x4E487B7100000000000000000000000000000000000000000000000000000000 PUSH0 MSTORE PUSH1 0x41 PUSH1 0x4 MSTORE PUSH1 0x24 PUSH0 REVERT JUMPDEST PUSH2 0x419 DUP3 PUSH2 0x3D3 JUMP JUMPDEST DUP2 ADD DUP2 DUP2 LT PUSH8 0xFFFFFFFFFFFFFFFF DUP3 GT OR ISZERO PUSH2 0x438 JUMPI PUSH2 0x437 PUSH2 0x3E3 JUMP JUMPDEST JUMPDEST DUP1 PUSH1 0x40 MSTORE POP POP POP JUMP JUMPDEST PUSH0 PUSH2 0x44A PUSH2 0x360 JUMP JUMPDEST SWAP1 POP PUSH2 0x456 DUP3 DUP3 PUSH2 0x410 JUMP JUMPDEST SWAP2 SWAP1 POP JUMP JUMPDEST PUSH0 PUSH8 0xFFFFFFFFFFFFFFFF DUP3 GT ISZERO PUSH2 0x475 JUMPI PUSH2 0x474 PUSH2 0x3E3 JUMP JUMPDEST JUMPDEST PUSH2 0x47E DUP3 PUSH2 0x3D3 JUMP JUMPDEST SWAP1 POP PUSH1 0x20 DUP2 ADD SWAP1 POP SWAP2 SWAP1 POP JUMP JUMPDEST DUP3 DUP2 DUP4 CALLDATACOPY PUSH0 DUP4 DUP4 ADD MSTORE POP POP POP JUMP JUMPDEST PUSH0 PUSH2 0x4AB PUSH2 0x4A6 DUP5 PUSH2 0x45B JUMP JUMPDEST PUSH2 0x441 JUMP JUMPDEST SWAP1 POP DUP3 DUP2 MSTORE PUSH1 0x20 DUP2 ADD DUP5 DUP5 DUP5 ADD GT ISZERO PUSH2 0x4C7 JUMPI PUSH2 0x4C6 PUSH2 0x3CF JUMP JUMPDEST JUMPDEST PUSH2 0x4D2 DUP5 DUP3 DUP6 PUSH2 0x48B JUMP JUMPDEST POP SWAP4 SWAP3 POP POP POP JUMP JUMPDEST PUSH0 DUP3 PUSH1 0x1F DUP4 ADD SLT PUSH2 0x4EE JUMPI PUSH2 0x4ED PUSH2 0x3CB JUMP JUMPDEST JUMPDEST DUP2 CALLDATALOAD PUSH2 0x4FE DUP5 DUP3 PUSH1 0x20 DUP7 ADD PUSH2 0x499 JUMP JUMPDEST SWAP2 POP POP SWAP3 SWAP2 POP POP JUMP JUMPDEST PUSH0 DUP1 PUSH1 0x40 DUP4 DUP6 SUB SLT ISZERO PUSH2 0x51D JUMPI PUSH2 0x51C PUSH2 0x369 JUMP JUMPDEST JUMPDEST PUSH0 PUSH2 0x52A DUP6 DUP3 DUP7 ADD PUSH2 0x3B7 JUMP JUMPDEST SWAP3 POP POP PUSH1 0x20 DUP4 ADD CALLDATALOAD PUSH8 0xFFFFFFFFFFFFFFFF DUP2 GT ISZERO PUSH2 0x54B JUMPI PUSH2 0x54A PUSH2 0x36D JUMP JUMPDEST JUMPDEST PUSH2 0x557 DUP6 DUP3 DUP7 ADD PUSH2 0x4DA JUMP JUMPDEST SWAP2 POP POP SWAP3 POP SWAP3 SWAP1 POP JUMP JUMPDEST PUSH0 DUP2 ISZERO ISZERO SWAP1 POP SWAP2 SWAP1 POP JUMP JUMPDEST PUSH2 0x575 DUP2 PUSH2 0x561 JUMP JUMPDEST DUP3 MSTORE POP POP JUMP JUMPDEST PUSH0 DUP2 MLOAD SWAP1 POP SWAP2 SWAP1 POP JUMP JUMPDEST PUSH0 DUP3 DUP3 MSTORE PUSH1 0x20 DUP3 ADD SWAP1 POP SWAP3 SWAP2 POP POP JUMP JUMPDEST PUSH0 JUMPDEST DUP4 DUP2 LT ISZERO PUSH2 0x5B2 JUMPI DUP1 DUP3 ADD MLOAD DUP2 DUP5 ADD MSTORE PUSH1 0x20 DUP2 ADD SWAP1 POP PUSH2 0x597 JUMP JUMPDEST PUSH0 DUP5 DUP5 ADD MSTORE POP POP POP POP JUMP JUMPDEST PUSH0 PUSH2 0x5C7 DUP3 PUSH2 0x57B JUMP JUMPDEST PUSH2 0x5D1 DUP2 DUP6 PUSH2 0x585 JUMP JUMPDEST SWAP4 POP PUSH2 0x5E1 DUP2 DUP6 PUSH1 0x20 DUP7 ADD PUSH2 0x595 JUMP JUMPDEST PUSH2 0x5EA DUP2 PUSH2 0x3D3 JUMP JUMPDEST DUP5 ADD SWAP2 POP POP SWAP3 SWAP2 POP POP JUMP JUMPDEST PUSH0 PUSH1 0x40 DUP3 ADD SWAP1 POP PUSH2 0x608 PUSH0 DUP4 ADD DUP6 PUSH2 0x56C JUMP JUMPDEST DUP2 DUP2 SUB PUSH1 0x20 DUP4 ADD MSTORE PUSH2 0x61A DUP2 DUP5 PUSH2 0x5BD JUMP JUMPDEST SWAP1 POP SWAP4 SWAP3 POP POP POP JUMP JUMPDEST PUSH2 0x62C DUP2 PUSH2 0x390 JUMP JUMPDEST DUP3 MSTORE POP POP JUMP JUMPDEST PUSH0 PUSH1 0x20 DUP3 ADD SWAP1 POP PUSH2 0x645 PUSH0 DUP4 ADD DUP5 PUSH2 0x623 JUMP JUMPDEST SWAP3 SWAP2 POP POP JUMP JUMPDEST PUSH0 PUSH2 0x655 DUP3 PUSH2 0x371 JUMP JUMPDEST SWAP1 POP SWAP2 SWAP1 POP JUMP JUMPDEST PUSH2 0x665 DUP2 PUSH2 0x64B JUMP JUMPDEST DUP2 EQ PUSH2 0x66F JUMPI PUSH0 DUP1 REVERT JUMPDEST POP JUMP JUMPDEST PUSH0 DUP2 CALLDATALOAD SWAP1 POP PUSH2 0x680 DUP2 PUSH2 0x65C JUMP JUMPDEST SWAP3 SWAP2 POP POP JUMP JUMPDEST PUSH0 PUSH1 0x20 DUP3 DUP5 SUB SLT ISZERO PUSH2 0x69B JUMPI PUSH2 0x69A PUSH2 0x369 JUMP JUMPDEST JUMPDEST PUSH0 PUSH2 0x6A8 DUP5 DUP3 DUP6 ADD PUSH2 0x672 JUMP JUMPDEST SWAP2 POP POP SWAP3 SWAP2 POP POP JUMP JUMPDEST PUSH0 PUSH1 0x20 DUP3 DUP5 SUB SLT ISZERO PUSH2 0x6C6 JUMPI PUSH2 0x6C5 PUSH2 0x369 JUMP JUMPDEST JUMPDEST PUSH0 PUSH2 0x6D3 DUP5 DUP3 DUP6 ADD PUSH2 0x3B7 JUMP JUMPDEST SWAP2 POP POP SWAP3 SWAP2 POP POP JUMP JUMPDEST PUSH0 PUSH1 0x20 DUP3 ADD SWAP1 POP DUP2 DUP2 SUB PUSH0 DUP4 ADD MSTORE PUSH2 0x6F4 DUP2 DUP5 PUSH2 0x5BD JUMP JUMPDEST SWAP1 POP SWAP3 SWAP2 POP POP JUMP JUMPDEST PUSH0 DUP1 PUSH1 0x40 DUP4 DUP6 SUB SLT ISZERO PUSH2 0x712 JUMPI PUSH2 0x711 PUSH2 0x369 JUMP JUMPDEST JUMPDEST PUSH0 PUSH2 0x71F DUP6 DUP3 DUP7 ADD PUSH2 0x3B7 JUMP JUMPDEST SWAP3 POP POP PUSH1 0x20 PUSH2 0x730 DUP6 DUP3 DUP7 ADD PUSH2 0x3B7 JUMP JUMPDEST SWAP2 POP POP SWAP3 POP SWAP3 SWAP1 POP JUMP JUMPDEST PUSH0 PUSH1 0x20 DUP3 ADD SWAP1 POP PUSH2 0x74D PUSH0 DUP4 ADD DUP5 PUSH2 0x56C JUMP JUMPDEST SWAP3 SWAP2 POP POP JUMP JUMPDEST PUSH0 DUP2 SWAP1 POP SWAP2 SWAP1 POP JUMP JUMPDEST PUSH2 0x765 DUP2 PUSH2 0x753 JUMP JUMPDEST DUP3 MSTORE POP POP JUMP JUMPDEST PUSH0 PUSH1 0x20 DUP3 ADD SWAP1 POP PUSH2 0x77E PUSH0 DUP4 ADD DUP5 PUSH2 0x75C JUMP JUMPDEST SWAP3 SWAP2 POP POP JUMP JUMPDEST PUSH0 DUP2 SWAP1 POP SWAP3 SWAP2 POP POP JUMP JUMPDEST PUSH0 PUSH2 0x798 DUP3 PUSH2 0x57B JUMP JUMPDEST PUSH2 0x7A2 DUP2 DUP6 PUSH2 0x784 JUMP JUMPDEST SWAP4 POP PUSH2 0x7B2 DUP2 DUP6 PUSH1 0x20 DUP7 ADD PUSH2 0x595 JUMP JUMPDEST DUP1 DUP5 ADD SWAP2 POP POP SWAP3 SWAP2 POP POP JUMP JUMPDEST PUSH0 PUSH2 0x7C9 DUP3 DUP5 PUSH2 0x78E JUMP JUMPDEST SWAP2 POP DUP2 SWAP1 POP SWAP3 SWAP2 POP POP JUMP JUMPDEST PUSH0 DUP2 PUSH1 0x60 SHL SWAP1 POP SWAP2 SWAP1 POP JUMP JUMPDEST PUSH0 PUSH2 0x7EA DUP3 PUSH2 0x7D4 JUMP JUMPDEST SWAP1 POP SWAP2 SWAP1 POP JUMP JUMPDEST PUSH0 PUSH2 0x7FB DUP3 PUSH2 0x7E0 JUMP JUMPDEST SWAP1 POP SWAP2 SWAP1 POP JUMP JUMPDEST PUSH2 0x813 PUSH2 0x80E DUP3 PUSH2 0x390 JUMP JUMPDEST PUSH2 0x7F1 JUMP JUMPDEST DUP3 MSTORE POP POP JUMP JUMPDEST PUSH0 PUSH2 0x824 DUP3 DUP5 PUSH2 0x802 JUMP JUMPDEST PUSH1 0x14 DUP3 ADD SWAP2 POP DUP2 SWAP1 POP SWAP3 SWAP2 POP POP JUMP INVALID LOG2 PUSH5 0x6970667358 0x22 SLT KECCAK256 PUSH2 0xAC3 PUSH8 0x50AC624B771E5215 SUB JUMPDEST DUP7 0x4F PUSH11 0xEF6015F6ADAD59819D065A 0xAF 0xAA SWAP5 0xA6 PUSH5 0x736F6C6343 STOP ADDMOD OR STOP CALLER "
				},
				"gasEstimates": {
					"creation": {
						"codeDepositCost": "430600",
						"executionCost": "24731",
						"totalCost": "455331"
					},
					"external": {
						"callContract(address,bytes)": "infinite",
						"caller()": "2574",
						"compareAddress(address,address)": "infinite",
						"getBalance(address)": "3291",
						"myAddress()": "2528",
						"sendEther(address)": "infinite",
						"toBytes(address)": "infinite"
					}
				},
				"methodIdentifiers": {
					"callContract(address,bytes)": "03710668",
					"caller()": "fc9c8d39",
					"compareAddress(address,address)": "95e885c0",
					"getBalance(address)": "f8b2cb4f",
					"myAddress()": "26b85ee1",
					"sendEther(address)": "48c981e2",
					"toBytes(address)": "593b79fe"
				}
			},
			"storageLayout": {
				"storage": [
					{
						"astId": 3,
						"contract": "tests/address.sol:addressexample",
						"label": "myAddress",
						"offset": 0,
						"slot": "0",
						"type": "t_address"
					},
					{
						"astId": 7,
						"contract": "tests/address.sol:addressexample",
						"label": "caller",
						"offset": 0,
						"slot": "1",
						"type": "t_address"
					}
				],
				"types": {
					"t_address": {
						"encoding": "inplace",
						"label": "address",
						"numberOfBytes": "20"
					}
				}
			},
			"userdoc": {
				"kind": "user",
				"methods": {},
				"version": 1
			}
		}
	}
}