{
	"tests/task_2_2/Begging.sol": {
		"BeggingContract": {
			"abi": [
				{
					"inputs": [],
					"stateMutability": "nonpayable",
					"type": "constructor"
				},
				{
					"anonymous": false,
					"inputs": [
						{
							"indexed": true,
							"internalType": "address",
							"name": "donor",
							"type": "address"
						},
						{
							"indexed": false,
							"internalType": "uint256",
							"name": "amount",
							"type": "uint256"
						}
					],
					"name": "DonationReceived",
					"type": "event"
				},
				{
					"anonymous": false,
					"inputs": [
						{
							"indexed": true,
							"internalType": "address",
							"name": "owner",
							"type": "address"
						},
						{
							"indexed": false,
							"internalType": "uint256",
							"name": "amount",
							"type": "uint256"
						}
					],
					"name": "Withdrawal",
					"type": "event"
				},
				{
					"inputs": [],
					"name": "donate",
					"outputs": [],
					"stateMutability": "payable",
					"type": "function"
				},
				{
					"inputs": [
						{
							"internalType": "address",
							"name": "",
							"type": "address"
						}
					],
					"name": "donations",
					"outputs": [
						{
							"internalType": "uint256",
							"name": "",
							"type": "uint256"
						}
					],
					"stateMutability": "view",
					"type": "function"
				},
				{
					"inputs": [],
					"name": "getContractBalance",
					"outputs": [
						{
							"internalType": "uint256",
							"name": "",
							"type": "uint256"
						}
					],
					"stateMutability": "view",
					"type": "function"
				},
				{
					"inputs": [
						{
							"internalType": "address",
							"name": "donor",
							"type": "address"
						}
					],
					"name": "getDonation",
					"outputs": [
						{
							"internalType": "uint256",
							"name": "",
							"type": "uint256"
						}
					],
					"stateMutability": "view",
					"type": "function"
				},
				{
					"inputs": [],
					"name": "getTotalDonors",
					"outputs": [
						{
							"internalType": "uint256",
							"name": "",
							"type": "uint256"
						}
					],
					"stateMutability": "view",
					"type": "function"
				},
				{
					"inputs": [],
					"name": "owner",
					"outputs": [
						{
							"internalType": "address",
							"name": "",
							"type": "address"
						}
					],
					"stateMutability": "view",
					"type": "function"
				},
				{
					"inputs": [],
					"name": "totalDonations",
					"outputs": [
						{
							"internalType": "uint256",
							"name": "",
							"type": "uint256"
						}
					],
					"stateMutability": "view",
					"type": "function"
				},
				{
					"inputs": [],
					"name": "withdraw",
					"outputs": [],
					"stateMutability": "nonpayable",
					"type": "function"
				}
			],
			"devdoc": {
				"kind": "dev",
				"methods": {},
				"version": 1
			},
			"evm": {
				"assembly": "    /* \"tests/task_2_2/Begging.sol\":60:2268  contract BeggingContract {\r... */\n  mstore(0x40, 0x80)\n    /* \"tests/task_2_2/Begging.sol\":720:771  constructor() {\r... */\n  callvalue\n  dup1\n  iszero\n  tag_1\n  jumpi\n  0x00\n  dup1\n  revert\ntag_1:\n  pop\n    /* \"tests/task_2_2/Begging.sol\":753:763  msg.sender */\n  caller\n    /* \"tests/task_2_2/Begging.sol\":745:750  owner */\n  0x00\n  dup1\n    /* \"tests/task_2_2/Begging.sol\":745:763  owner = msg.sender */\n  0x0100\n  exp\n  dup2\n  sload\n  dup2\n  0xffffffffffffffffffffffffffffffffffffffff\n  mul\n  not\n  and\n  swap1\n  dup4\n  0xffffffffffffffffffffffffffffffffffffffff\n  and\n  mul\n  or\n  swap1\n  sstore\n  pop\n    /* \"tests/task_2_2/Begging.sol\":60:2268  contract BeggingContract {\r... */\n  dataSize(sub_0)\n  dup1\n  dataOffset(sub_0)\n  0x00\n  codecopy\n  0x00\n  return\nstop\n\nsub_0: assembly {\n        /* \"tests/task_2_2/Begging.sol\":60:2268  contract BeggingContract {\r... */\n      mstore(0x40, 0x80)\n      jumpi(tag_1, lt(calldatasize, 0x04))\n      shr(0xe0, calldataload(0x00))\n      dup1\n      0xcc6cb19a\n      gt\n      tag_10\n      jumpi\n      dup1\n      0xcc6cb19a\n      eq\n      tag_6\n      jumpi\n      dup1\n      0xde2ed893\n      eq\n      tag_7\n      jumpi\n      dup1\n      0xe615a712\n      eq\n      tag_8\n      jumpi\n      dup1\n      0xed88c68e\n      eq\n      tag_9\n      jumpi\n      jump(tag_1)\n    tag_10:\n      dup1\n      0x3ccfd60b\n      eq\n      tag_2\n      jumpi\n      dup1\n      0x410a1d32\n      eq\n      tag_3\n      jumpi\n      dup1\n      0x6f9fb98a\n      eq\n      tag_4\n      jumpi\n      dup1\n      0x8da5cb5b\n      eq\n      tag_5\n      jumpi\n    tag_1:\n      0x00\n      dup1\n      revert\n        /* \"tests/task_2_2/Begging.sol\":1256:1575  function withdraw() external onlyOwner {\r... */\n    tag_2:\n      callvalue\n      dup1\n      iszero\n      tag_11\n      jumpi\n      0x00\n      dup1\n      revert\n    tag_11:\n      pop\n      tag_12\n      tag_13\n      jump\t// in\n    tag_12:\n      stop\n        /* \"tests/task_2_2/Begging.sol\":1644:1754  function getDonation(address donor) external view returns (uint256) {\r... */\n    tag_3:\n      callvalue\n      dup1\n      iszero\n      tag_14\n      jumpi\n      0x00\n      dup1\n      revert\n    tag_14:\n      pop\n      tag_15\n      0x04\n      dup1\n      calldatasize\n      sub\n      dup2\n      add\n      swap1\n      tag_16\n      swap2\n      swap1\n      tag_17\n      jump\t// in\n    tag_16:\n      tag_18\n      jump\t// in\n    tag_15:\n      mload(0x40)\n      tag_19\n      swap2\n      swap1\n      tag_20\n      jump\t// in\n    tag_19:\n      mload(0x40)\n      dup1\n      swap2\n      sub\n      swap1\n      return\n        /* \"tests/task_2_2/Begging.sol\":1793:1902  function getContractBalance() external view returns (uint256) {\r... */\n    tag_4:\n      callvalue\n      dup1\n      iszero\n      tag_21\n      jumpi\n      0x00\n      dup1\n      revert\n    tag_21:\n      pop\n      tag_22\n      tag_23\n      jump\t// in\n    tag_22:\n      mload(0x40)\n      tag_24\n      swap2\n      swap1\n      tag_20\n      jump\t// in\n    tag_24:\n      mload(0x40)\n      dup1\n      swap2\n      sub\n      swap1\n      return\n        /* \"tests/task_2_2/Begging.sol\":116:136  address public owner */\n    tag_5:\n      callvalue\n      dup1\n      iszero\n      tag_25\n      jumpi\n      0x00\n      dup1\n      revert\n    tag_25:\n      pop\n      tag_26\n      tag_27\n      jump\t// in\n    tag_26:\n      mload(0x40)\n      tag_28\n      swap2\n      swap1\n      tag_29\n      jump\t// in\n    tag_28:\n      mload(0x40)\n      dup1\n      swap2\n      sub\n      swap1\n      return\n        /* \"tests/task_2_2/Begging.sol\":194:238  mapping(address => uint256) public donations */\n    tag_6:\n      callvalue\n      dup1\n      iszero\n      tag_30\n      jumpi\n      0x00\n      dup1\n      revert\n    tag_30:\n      pop\n      tag_31\n      0x04\n      dup1\n      calldatasize\n      sub\n      dup2\n      add\n      swap1\n      tag_32\n      swap2\n      swap1\n      tag_17\n      jump\t// in\n    tag_32:\n      tag_33\n      jump\t// in\n    tag_31:\n      mload(0x40)\n      tag_34\n      swap2\n      swap1\n      tag_20\n      jump\t// in\n    tag_34:\n      mload(0x40)\n      dup1\n      swap2\n      sub\n      swap1\n      return\n        /* \"tests/task_2_2/Begging.sol\":272:301  uint256 public totalDonations */\n    tag_7:\n      callvalue\n      dup1\n      iszero\n      tag_35\n      jumpi\n      0x00\n      dup1\n      revert\n    tag_35:\n      pop\n      tag_36\n      tag_37\n      jump\t// in\n    tag_36:\n      mload(0x40)\n      tag_38\n      swap2\n      swap1\n      tag_20\n      jump\t// in\n    tag_38:\n      mload(0x40)\n      dup1\n      swap2\n      sub\n      swap1\n      return\n        /* \"tests/task_2_2/Begging.sol\":1968:2265  function getTotalDonors() external view returns (uint256) {\r... */\n    tag_8:\n      callvalue\n      dup1\n      iszero\n      tag_39\n      jumpi\n      0x00\n      dup1\n      revert\n    tag_39:\n      pop\n      tag_40\n      tag_41\n      jump\t// in\n    tag_40:\n      mload(0x40)\n      tag_42\n      swap2\n      swap1\n      tag_20\n      jump\t// in\n    tag_42:\n      mload(0x40)\n      dup1\n      swap2\n      sub\n      swap1\n      return\n        /* \"tests/task_2_2/Begging.sol\":843:1181  function donate() external payable {\r... */\n    tag_9:\n      tag_43\n      tag_44\n      jump\t// in\n    tag_43:\n      stop\n        /* \"tests/task_2_2/Begging.sol\":1256:1575  function withdraw() external onlyOwner {\r... */\n    tag_13:\n        /* \"tests/task_2_2/Begging.sol\":600:605  owner */\n      0x00\n      dup1\n      sload\n      swap1\n      0x0100\n      exp\n      swap1\n      div\n      0xffffffffffffffffffffffffffffffffffffffff\n      and\n        /* \"tests/task_2_2/Begging.sol\":586:605  msg.sender == owner */\n      0xffffffffffffffffffffffffffffffffffffffff\n      and\n        /* \"tests/task_2_2/Begging.sol\":586:596  msg.sender */\n      caller\n        /* \"tests/task_2_2/Begging.sol\":586:605  msg.sender == owner */\n      0xffffffffffffffffffffffffffffffffffffffff\n      and\n      eq\n        /* \"tests/task_2_2/Begging.sol\":578:643  require(msg.sender == owner, \"Only owner can call this function\") */\n      tag_46\n      jumpi\n      mload(0x40)\n      0x08c379a000000000000000000000000000000000000000000000000000000000\n      dup2\n      mstore\n      0x04\n      add\n      tag_47\n      swap1\n      tag_48\n      jump\t// in\n    tag_47:\n      mload(0x40)\n      dup1\n      swap2\n      sub\n      swap1\n      revert\n    tag_46:\n        /* \"tests/task_2_2/Begging.sol\":1306:1321  uint256 balance */\n      0x00\n        /* \"tests/task_2_2/Begging.sol\":1324:1345  address(this).balance */\n      selfbalance\n        /* \"tests/task_2_2/Begging.sol\":1306:1345  uint256 balance = address(this).balance */\n      swap1\n      pop\n        /* \"tests/task_2_2/Begging.sol\":1374:1375  0 */\n      0x00\n        /* \"tests/task_2_2/Begging.sol\":1364:1371  balance */\n      dup2\n        /* \"tests/task_2_2/Begging.sol\":1364:1375  balance > 0 */\n      gt\n        /* \"tests/task_2_2/Begging.sol\":1356:1400  require(balance > 0, \"No funds to withdraw\") */\n      tag_50\n      jumpi\n      mload(0x40)\n      0x08c379a000000000000000000000000000000000000000000000000000000000\n      dup2\n      mstore\n      0x04\n      add\n      tag_51\n      swap1\n      tag_52\n      jump\t// in\n    tag_51:\n      mload(0x40)\n      dup1\n      swap2\n      sub\n      swap1\n      revert\n    tag_50:\n        /* \"tests/task_2_2/Begging.sol\":1460:1465  owner */\n      0x00\n      dup1\n      sload\n      swap1\n      0x0100\n      exp\n      swap1\n      div\n      0xffffffffffffffffffffffffffffffffffffffff\n      and\n        /* \"tests/task_2_2/Begging.sol\":1452:1475  payable(owner).transfer */\n      0xffffffffffffffffffffffffffffffffffffffff\n      and\n        /* \"tests/task_2_2/Begging.sol\":1452:1484  payable(owner).transfer(balance) */\n      0x08fc\n        /* \"tests/task_2_2/Begging.sol\":1476:1483  balance */\n      dup3\n        /* \"tests/task_2_2/Begging.sol\":1452:1484  payable(owner).transfer(balance) */\n      swap1\n      dup2\n      iszero\n      mul\n      swap1\n      mload(0x40)\n      0x00\n      mload(0x40)\n      dup1\n      dup4\n      sub\n      dup2\n      dup6\n      dup9\n      dup9\n      call\n      swap4\n      pop\n      pop\n      pop\n      pop\n      iszero\n      dup1\n      iszero\n      tag_54\n      jumpi\n      returndatasize\n      0x00\n      dup1\n      returndatacopy\n      revert(0x00, returndatasize)\n    tag_54:\n      pop\n        /* \"tests/task_2_2/Begging.sol\":1552:1557  owner */\n      0x00\n      dup1\n      sload\n      swap1\n      0x0100\n      exp\n      swap1\n      div\n      0xffffffffffffffffffffffffffffffffffffffff\n      and\n        /* \"tests/task_2_2/Begging.sol\":1541:1567  Withdrawal(owner, balance) */\n      0xffffffffffffffffffffffffffffffffffffffff\n      and\n      0x7fcf532c15f0a6db0bd6d0e038bea71d30d808c7d98cb3bf7268a95bf5081b65\n        /* \"tests/task_2_2/Begging.sol\":1559:1566  balance */\n      dup3\n        /* \"tests/task_2_2/Begging.sol\":1541:1567  Withdrawal(owner, balance) */\n      mload(0x40)\n      tag_55\n      swap2\n      swap1\n      tag_20\n      jump\t// in\n    tag_55:\n      mload(0x40)\n      dup1\n      swap2\n      sub\n      swap1\n      log2\n        /* \"tests/task_2_2/Begging.sol\":654:655  _ */\n      pop\n        /* \"tests/task_2_2/Begging.sol\":1256:1575  function withdraw() external onlyOwner {\r... */\n      jump\t// out\n        /* \"tests/task_2_2/Begging.sol\":1644:1754  function getDonation(address donor) external view returns (uint256) {\r... */\n    tag_18:\n        /* \"tests/task_2_2/Begging.sol\":1703:1710  uint256 */\n      0x00\n        /* \"tests/task_2_2/Begging.sol\":1730:1739  donations */\n      0x01\n        /* \"tests/task_2_2/Begging.sol\":1730:1746  donations[donor] */\n      0x00\n        /* \"tests/task_2_2/Begging.sol\":1740:1745  donor */\n      dup4\n        /* \"tests/task_2_2/Begging.sol\":1730:1746  donations[donor] */\n      0xffffffffffffffffffffffffffffffffffffffff\n      and\n      0xffffffffffffffffffffffffffffffffffffffff\n      and\n      dup2\n      mstore\n      0x20\n      add\n      swap1\n      dup2\n      mstore\n      0x20\n      add\n      0x00\n      keccak256\n      sload\n        /* \"tests/task_2_2/Begging.sol\":1723:1746  return donations[donor] */\n      swap1\n      pop\n        /* \"tests/task_2_2/Begging.sol\":1644:1754  function getDonation(address donor) external view returns (uint256) {\r... */\n      swap2\n      swap1\n      pop\n      jump\t// out\n        /* \"tests/task_2_2/Begging.sol\":1793:1902  function getContractBalance() external view returns (uint256) {\r... */\n    tag_23:\n        /* \"tests/task_2_2/Begging.sol\":1846:1853  uint256 */\n      0x00\n        /* \"tests/task_2_2/Begging.sol\":1873:1894  address(this).balance */\n      selfbalance\n        /* \"tests/task_2_2/Begging.sol\":1866:1894  return address(this).balance */\n      swap1\n      pop\n        /* \"tests/task_2_2/Begging.sol\":1793:1902  function getContractBalance() external view returns (uint256) {\r... */\n      swap1\n      jump\t// out\n        /* \"tests/task_2_2/Begging.sol\":116:136  address public owner */\n    tag_27:\n      0x00\n      dup1\n      sload\n      swap1\n      0x0100\n      exp\n      swap1\n      div\n      0xffffffffffffffffffffffffffffffffffffffff\n      and\n      dup2\n      jump\t// out\n        /* \"tests/task_2_2/Begging.sol\":194:238  mapping(address => uint256) public donations */\n    tag_33:\n      mstore(0x20, 0x01)\n      dup1\n      0x00\n      mstore\n      keccak256(0x00, 0x40)\n      0x00\n      swap2\n      pop\n      swap1\n      pop\n      sload\n      dup2\n      jump\t// out\n        /* \"tests/task_2_2/Begging.sol\":272:301  uint256 public totalDonations */\n    tag_37:\n      sload(0x02)\n      dup2\n      jump\t// out\n        /* \"tests/task_2_2/Begging.sol\":1968:2265  function getTotalDonors() external view returns (uint256) {\r... */\n    tag_41:\n        /* \"tests/task_2_2/Begging.sol\":2017:2024  uint256 */\n      0x00\n        /* \"tests/task_2_2/Begging.sol\":2232:2233  0 */\n      dup1\n        /* \"tests/task_2_2/Begging.sol\":2215:2229  totalDonations */\n      sload(0x02)\n        /* \"tests/task_2_2/Begging.sol\":2215:2233  totalDonations > 0 */\n      gt\n        /* \"tests/task_2_2/Begging.sol\":2215:2241  totalDonations > 0 ? 1 : 0 */\n      tag_59\n      jumpi\n        /* \"tests/task_2_2/Begging.sol\":2240:2241  0 */\n      0x00\n        /* \"tests/task_2_2/Begging.sol\":2215:2241  totalDonations > 0 ? 1 : 0 */\n      jump(tag_60)\n    tag_59:\n        /* \"tests/task_2_2/Begging.sol\":2236:2237  1 */\n      0x01\n        /* \"tests/task_2_2/Begging.sol\":2215:2241  totalDonations > 0 ? 1 : 0 */\n    tag_60:\n        /* \"tests/task_2_2/Begging.sol\":2208:2241  return totalDonations > 0 ? 1 : 0 */\n      0xff\n      and\n      swap1\n      pop\n        /* \"tests/task_2_2/Begging.sol\":1968:2265  function getTotalDonors() external view returns (uint256) {\r... */\n      swap1\n      jump\t// out\n        /* \"tests/task_2_2/Begging.sol\":843:1181  function donate() external payable {\r... */\n    tag_44:\n        /* \"tests/task_2_2/Begging.sol\":909:910  0 */\n      0x00\n        /* \"tests/task_2_2/Begging.sol\":897:906  msg.value */\n      callvalue\n        /* \"tests/task_2_2/Begging.sol\":897:910  msg.value > 0 */\n      gt\n        /* \"tests/task_2_2/Begging.sol\":889:953  require(msg.value > 0, \"Donation amount must be greater than 0\") */\n      tag_62\n      jumpi\n      mload(0x40)\n      0x08c379a000000000000000000000000000000000000000000000000000000000\n      dup2\n      mstore\n      0x04\n      add\n      tag_63\n      swap1\n      tag_64\n      jump\t// in\n    tag_63:\n      mload(0x40)\n      dup1\n      swap2\n      sub\n      swap1\n      revert\n    tag_62:\n        /* \"tests/task_2_2/Begging.sol\":1030:1039  msg.value */\n      callvalue\n        /* \"tests/task_2_2/Begging.sol\":1005:1014  donations */\n      0x01\n        /* \"tests/task_2_2/Begging.sol\":1005:1026  donations[msg.sender] */\n      0x00\n        /* \"tests/task_2_2/Begging.sol\":1015:1025  msg.sender */\n      caller\n        /* \"tests/task_2_2/Begging.sol\":1005:1026  donations[msg.sender] */\n      0xffffffffffffffffffffffffffffffffffffffff\n      and\n      0xffffffffffffffffffffffffffffffffffffffff\n      and\n      dup2\n      mstore\n      0x20\n      add\n      swap1\n      dup2\n      mstore\n      0x20\n      add\n      0x00\n      keccak256\n      0x00\n        /* \"tests/task_2_2/Begging.sol\":1005:1039  donations[msg.sender] += msg.value */\n      dup3\n      dup3\n      sload\n      tag_65\n      swap2\n      swap1\n      tag_66\n      jump\t// in\n    tag_65:\n      swap3\n      pop\n      pop\n      dup2\n      swap1\n      sstore\n      pop\n        /* \"tests/task_2_2/Begging.sol\":1068:1077  msg.value */\n      callvalue\n        /* \"tests/task_2_2/Begging.sol\":1050:1064  totalDonations */\n      0x02\n      0x00\n        /* \"tests/task_2_2/Begging.sol\":1050:1077  totalDonations += msg.value */\n      dup3\n      dup3\n      sload\n      tag_67\n      swap2\n      swap1\n      tag_66\n      jump\t// in\n    tag_67:\n      swap3\n      pop\n      pop\n      dup2\n      swap1\n      sstore\n      pop\n        /* \"tests/task_2_2/Begging.sol\":1151:1161  msg.sender */\n      caller\n        /* \"tests/task_2_2/Begging.sol\":1134:1173  DonationReceived(msg.sender, msg.value) */\n      0xffffffffffffffffffffffffffffffffffffffff\n      and\n      0x264f630d9efa0d07053a31163641d9fcc0adafc9d9e76f1c37c2ce3a558d2c52\n        /* \"tests/task_2_2/Begging.sol\":1163:1172  msg.value */\n      callvalue\n        /* \"tests/task_2_2/Begging.sol\":1134:1173  DonationReceived(msg.sender, msg.value) */\n      mload(0x40)\n      tag_68\n      swap2\n      swap1\n      tag_20\n      jump\t// in\n    tag_68:\n      mload(0x40)\n      dup1\n      swap2\n      sub\n      swap1\n      log2\n        /* \"tests/task_2_2/Begging.sol\":843:1181  function donate() external payable {\r... */\n      jump\t// out\n        /* \"#utility.yul\":7:146   */\n    tag_70:\n      0x00\n        /* \"#utility.yul\":91:97   */\n      dup2\n        /* \"#utility.yul\":78:98   */\n      calldataload\n        /* \"#utility.yul\":69:98   */\n      swap1\n      pop\n        /* \"#utility.yul\":107:140   */\n      tag_72\n        /* \"#utility.yul\":134:139   */\n      dup2\n        /* \"#utility.yul\":107:140   */\n      tag_73\n      jump\t// in\n    tag_72:\n        /* \"#utility.yul\":59:146   */\n      swap3\n      swap2\n      pop\n      pop\n      jump\t// out\n        /* \"#utility.yul\":152:414   */\n    tag_17:\n      0x00\n        /* \"#utility.yul\":260:262   */\n      0x20\n        /* \"#utility.yul\":248:257   */\n      dup3\n        /* \"#utility.yul\":239:246   */\n      dup5\n        /* \"#utility.yul\":235:258   */\n      sub\n        /* \"#utility.yul\":231:263   */\n      slt\n        /* \"#utility.yul\":228:230   */\n      iszero\n      tag_75\n      jumpi\n        /* \"#utility.yul\":276:277   */\n      0x00\n        /* \"#utility.yul\":273:274   */\n      dup1\n        /* \"#utility.yul\":266:278   */\n      revert\n        /* \"#utility.yul\":228:230   */\n    tag_75:\n        /* \"#utility.yul\":319:320   */\n      0x00\n        /* \"#utility.yul\":344:397   */\n      tag_76\n        /* \"#utility.yul\":389:396   */\n      dup5\n        /* \"#utility.yul\":380:386   */\n      dup3\n        /* \"#utility.yul\":369:378   */\n      dup6\n        /* \"#utility.yul\":365:387   */\n      add\n        /* \"#utility.yul\":344:397   */\n      tag_70\n      jump\t// in\n    tag_76:\n        /* \"#utility.yul\":334:397   */\n      swap2\n      pop\n        /* \"#utility.yul\":290:407   */\n      pop\n        /* \"#utility.yul\":218:414   */\n      swap3\n      swap2\n      pop\n      pop\n      jump\t// out\n        /* \"#utility.yul\":420:538   */\n    tag_77:\n        /* \"#utility.yul\":507:531   */\n      tag_79\n        /* \"#utility.yul\":525:530   */\n      dup2\n        /* \"#utility.yul\":507:531   */\n      tag_80\n      jump\t// in\n    tag_79:\n        /* \"#utility.yul\":502:505   */\n      dup3\n        /* \"#utility.yul\":495:532   */\n      mstore\n        /* \"#utility.yul\":485:538   */\n      pop\n      pop\n      jump\t// out\n        /* \"#utility.yul\":544:909   */\n    tag_81:\n      0x00\n        /* \"#utility.yul\":707:774   */\n      tag_83\n        /* \"#utility.yul\":771:773   */\n      0x21\n        /* \"#utility.yul\":766:769   */\n      dup4\n        /* \"#utility.yul\":707:774   */\n      tag_84\n      jump\t// in\n    tag_83:\n        /* \"#utility.yul\":700:774   */\n      swap2\n      pop\n        /* \"#utility.yul\":804:838   */\n      0x4f6e6c79206f776e65722063616e2063616c6c20746869732066756e6374696f\n        /* \"#utility.yul\":800:801   */\n      0x00\n        /* \"#utility.yul\":795:798   */\n      dup4\n        /* \"#utility.yul\":791:802   */\n      add\n        /* \"#utility.yul\":784:839   */\n      mstore\n        /* \"#utility.yul\":870:873   */\n      0x6e00000000000000000000000000000000000000000000000000000000000000\n        /* \"#utility.yul\":865:867   */\n      0x20\n        /* \"#utility.yul\":860:863   */\n      dup4\n        /* \"#utility.yul\":856:868   */\n      add\n        /* \"#utility.yul\":849:874   */\n      mstore\n        /* \"#utility.yul\":900:902   */\n      0x40\n        /* \"#utility.yul\":895:898   */\n      dup3\n        /* \"#utility.yul\":891:903   */\n      add\n        /* \"#utility.yul\":884:903   */\n      swap1\n      pop\n        /* \"#utility.yul\":690:909   */\n      swap2\n      swap1\n      pop\n      jump\t// out\n        /* \"#utility.yul\":915:1285   */\n    tag_85:\n      0x00\n        /* \"#utility.yul\":1078:1145   */\n      tag_87\n        /* \"#utility.yul\":1142:1144   */\n      0x26\n        /* \"#utility.yul\":1137:1140   */\n      dup4\n        /* \"#utility.yul\":1078:1145   */\n      tag_84\n      jump\t// in\n    tag_87:\n        /* \"#utility.yul\":1071:1145   */\n      swap2\n      pop\n        /* \"#utility.yul\":1175:1209   */\n      0x446f6e6174696f6e20616d6f756e74206d757374206265206772656174657220\n        /* \"#utility.yul\":1171:1172   */\n      0x00\n        /* \"#utility.yul\":1166:1169   */\n      dup4\n        /* \"#utility.yul\":1162:1173   */\n      add\n        /* \"#utility.yul\":1155:1210   */\n      mstore\n        /* \"#utility.yul\":1241:1249   */\n      0x7468616e20300000000000000000000000000000000000000000000000000000\n        /* \"#utility.yul\":1236:1238   */\n      0x20\n        /* \"#utility.yul\":1231:1234   */\n      dup4\n        /* \"#utility.yul\":1227:1239   */\n      add\n        /* \"#utility.yul\":1220:1250   */\n      mstore\n        /* \"#utility.yul\":1276:1278   */\n      0x40\n        /* \"#utility.yul\":1271:1274   */\n      dup3\n        /* \"#utility.yul\":1267:1279   */\n      add\n        /* \"#utility.yul\":1260:1279   */\n      swap1\n      pop\n        /* \"#utility.yul\":1061:1285   */\n      swap2\n      swap1\n      pop\n      jump\t// out\n        /* \"#utility.yul\":1291:1609   */\n    tag_88:\n      0x00\n        /* \"#utility.yul\":1454:1521   */\n      tag_90\n        /* \"#utility.yul\":1518:1520   */\n      0x14\n        /* \"#utility.yul\":1513:1516   */\n      dup4\n        /* \"#utility.yul\":1454:1521   */\n      tag_84\n      jump\t// in\n    tag_90:\n        /* \"#utility.yul\":1447:1521   */\n      swap2\n      pop\n        /* \"#utility.yul\":1551:1573   */\n      0x4e6f2066756e647320746f207769746864726177000000000000000000000000\n        /* \"#utility.yul\":1547:1548   */\n      0x00\n        /* \"#utility.yul\":1542:1545   */\n      dup4\n        /* \"#utility.yul\":1538:1549   */\n      add\n        /* \"#utility.yul\":1531:1574   */\n      mstore\n        /* \"#utility.yul\":1600:1602   */\n      0x20\n        /* \"#utility.yul\":1595:1598   */\n      dup3\n        /* \"#utility.yul\":1591:1603   */\n      add\n        /* \"#utility.yul\":1584:1603   */\n      swap1\n      pop\n        /* \"#utility.yul\":1437:1609   */\n      swap2\n      swap1\n      pop\n      jump\t// out\n        /* \"#utility.yul\":1615:1733   */\n    tag_91:\n        /* \"#utility.yul\":1702:1726   */\n      tag_93\n        /* \"#utility.yul\":1720:1725   */\n      dup2\n        /* \"#utility.yul\":1702:1726   */\n      tag_94\n      jump\t// in\n    tag_93:\n        /* \"#utility.yul\":1697:1700   */\n      dup3\n        /* \"#utility.yul\":1690:1727   */\n      mstore\n        /* \"#utility.yul\":1680:1733   */\n      pop\n      pop\n      jump\t// out\n        /* \"#utility.yul\":1739:1961   */\n    tag_29:\n      0x00\n        /* \"#utility.yul\":1870:1872   */\n      0x20\n        /* \"#utility.yul\":1859:1868   */\n      dup3\n        /* \"#utility.yul\":1855:1873   */\n      add\n        /* \"#utility.yul\":1847:1873   */\n      swap1\n      pop\n        /* \"#utility.yul\":1883:1954   */\n      tag_96\n        /* \"#utility.yul\":1951:1952   */\n      0x00\n        /* \"#utility.yul\":1940:1949   */\n      dup4\n        /* \"#utility.yul\":1936:1953   */\n      add\n        /* \"#utility.yul\":1927:1933   */\n      dup5\n        /* \"#utility.yul\":1883:1954   */\n      tag_77\n      jump\t// in\n    tag_96:\n        /* \"#utility.yul\":1837:1961   */\n      swap3\n      swap2\n      pop\n      pop\n      jump\t// out\n        /* \"#utility.yul\":1967:2386   */\n    tag_48:\n      0x00\n        /* \"#utility.yul\":2171:2173   */\n      0x20\n        /* \"#utility.yul\":2160:2169   */\n      dup3\n        /* \"#utility.yul\":2156:2174   */\n      add\n        /* \"#utility.yul\":2148:2174   */\n      swap1\n      pop\n        /* \"#utility.yul\":2220:2229   */\n      dup2\n        /* \"#utility.yul\":2214:2218   */\n      dup2\n        /* \"#utility.yul\":2210:2230   */\n      sub\n        /* \"#utility.yul\":2206:2207   */\n      0x00\n        /* \"#utility.yul\":2195:2204   */\n      dup4\n        /* \"#utility.yul\":2191:2208   */\n      add\n        /* \"#utility.yul\":2184:2231   */\n      mstore\n        /* \"#utility.yul\":2248:2379   */\n      tag_98\n        /* \"#utility.yul\":2374:2378   */\n      dup2\n        /* \"#utility.yul\":2248:2379   */\n      tag_81\n      jump\t// in\n    tag_98:\n        /* \"#utility.yul\":2240:2379   */\n      swap1\n      pop\n        /* \"#utility.yul\":2138:2386   */\n      swap2\n      swap1\n      pop\n      jump\t// out\n        /* \"#utility.yul\":2392:2811   */\n    tag_64:\n      0x00\n        /* \"#utility.yul\":2596:2598   */\n      0x20\n        /* \"#utility.yul\":2585:2594   */\n      dup3\n        /* \"#utility.yul\":2581:2599   */\n      add\n        /* \"#utility.yul\":2573:2599   */\n      swap1\n      pop\n        /* \"#utility.yul\":2645:2654   */\n      dup2\n        /* \"#utility.yul\":2639:2643   */\n      dup2\n        /* \"#utility.yul\":2635:2655   */\n      sub\n        /* \"#utility.yul\":2631:2632   */\n      0x00\n        /* \"#utility.yul\":2620:2629   */\n      dup4\n        /* \"#utility.yul\":2616:2633   */\n      add\n        /* \"#utility.yul\":2609:2656   */\n      mstore\n        /* \"#utility.yul\":2673:2804   */\n      tag_100\n        /* \"#utility.yul\":2799:2803   */\n      dup2\n        /* \"#utility.yul\":2673:2804   */\n      tag_85\n      jump\t// in\n    tag_100:\n        /* \"#utility.yul\":2665:2804   */\n      swap1\n      pop\n        /* \"#utility.yul\":2563:2811   */\n      swap2\n      swap1\n      pop\n      jump\t// out\n        /* \"#utility.yul\":2817:3236   */\n    tag_52:\n      0x00\n        /* \"#utility.yul\":3021:3023   */\n      0x20\n        /* \"#utility.yul\":3010:3019   */\n      dup3\n        /* \"#utility.yul\":3006:3024   */\n      add\n        /* \"#utility.yul\":2998:3024   */\n      swap1\n      pop\n        /* \"#utility.yul\":3070:3079   */\n      dup2\n        /* \"#utility.yul\":3064:3068   */\n      dup2\n        /* \"#utility.yul\":3060:3080   */\n      sub\n        /* \"#utility.yul\":3056:3057   */\n      0x00\n        /* \"#utility.yul\":3045:3054   */\n      dup4\n        /* \"#utility.yul\":3041:3058   */\n      add\n        /* \"#utility.yul\":3034:3081   */\n      mstore\n        /* \"#utility.yul\":3098:3229   */\n      tag_102\n        /* \"#utility.yul\":3224:3228   */\n      dup2\n        /* \"#utility.yul\":3098:3229   */\n      tag_88\n      jump\t// in\n    tag_102:\n        /* \"#utility.yul\":3090:3229   */\n      swap1\n      pop\n        /* \"#utility.yul\":2988:3236   */\n      swap2\n      swap1\n      pop\n      jump\t// out\n        /* \"#utility.yul\":3242:3464   */\n    tag_20:\n      0x00\n        /* \"#utility.yul\":3373:3375   */\n      0x20\n        /* \"#utility.yul\":3362:3371   */\n      dup3\n        /* \"#utility.yul\":3358:3376   */\n      add\n        /* \"#utility.yul\":3350:3376   */\n      swap1\n      pop\n        /* \"#utility.yul\":3386:3457   */\n      tag_104\n        /* \"#utility.yul\":3454:3455   */\n      0x00\n        /* \"#utility.yul\":3443:3452   */\n      dup4\n        /* \"#utility.yul\":3439:3456   */\n      add\n        /* \"#utility.yul\":3430:3436   */\n      dup5\n        /* \"#utility.yul\":3386:3457   */\n      tag_91\n      jump\t// in\n    tag_104:\n        /* \"#utility.yul\":3340:3464   */\n      swap3\n      swap2\n      pop\n      pop\n      jump\t// out\n        /* \"#utility.yul\":3470:3639   */\n    tag_84:\n      0x00\n        /* \"#utility.yul\":3588:3594   */\n      dup3\n        /* \"#utility.yul\":3583:3586   */\n      dup3\n        /* \"#utility.yul\":3576:3595   */\n      mstore\n        /* \"#utility.yul\":3628:3632   */\n      0x20\n        /* \"#utility.yul\":3623:3626   */\n      dup3\n        /* \"#utility.yul\":3619:3633   */\n      add\n        /* \"#utility.yul\":3604:3633   */\n      swap1\n      pop\n        /* \"#utility.yul\":3566:3639   */\n      swap3\n      swap2\n      pop\n      pop\n      jump\t// out\n        /* \"#utility.yul\":3645:3950   */\n    tag_66:\n      0x00\n        /* \"#utility.yul\":3704:3724   */\n      tag_107\n        /* \"#utility.yul\":3722:3723   */\n      dup3\n        /* \"#utility.yul\":3704:3724   */\n      tag_94\n      jump\t// in\n    tag_107:\n        /* \"#utility.yul\":3699:3724   */\n      swap2\n      pop\n        /* \"#utility.yul\":3738:3758   */\n      tag_108\n        /* \"#utility.yul\":3756:3757   */\n      dup4\n        /* \"#utility.yul\":3738:3758   */\n      tag_94\n      jump\t// in\n    tag_108:\n        /* \"#utility.yul\":3733:3758   */\n      swap3\n      pop\n        /* \"#utility.yul\":3892:3893   */\n      dup3\n        /* \"#utility.yul\":3824:3890   */\n      0xffffffffffffffffffffffffffffffffffffffffffffffffffffffffffffffff\n        /* \"#utility.yul\":3820:3894   */\n      sub\n        /* \"#utility.yul\":3817:3818   */\n      dup3\n        /* \"#utility.yul\":3814:3895   */\n      gt\n        /* \"#utility.yul\":3811:3813   */\n      iszero\n      tag_109\n      jumpi\n        /* \"#utility.yul\":3898:3916   */\n      tag_110\n      tag_111\n      jump\t// in\n    tag_110:\n        /* \"#utility.yul\":3811:3813   */\n    tag_109:\n        /* \"#utility.yul\":3942:3943   */\n      dup3\n        /* \"#utility.yul\":3939:3940   */\n      dup3\n        /* \"#utility.yul\":3935:3944   */\n      add\n        /* \"#utility.yul\":3928:3944   */\n      swap1\n      pop\n        /* \"#utility.yul\":3689:3950   */\n      swap3\n      swap2\n      pop\n      pop\n      jump\t// out\n        /* \"#utility.yul\":3956:4052   */\n    tag_80:\n      0x00\n        /* \"#utility.yul\":4022:4046   */\n      tag_113\n        /* \"#utility.yul\":4040:4045   */\n      dup3\n        /* \"#utility.yul\":4022:4046   */\n      tag_114\n      jump\t// in\n    tag_113:\n        /* \"#utility.yul\":4011:4046   */\n      swap1\n      pop\n        /* \"#utility.yul\":4001:4052   */\n      swap2\n      swap1\n      pop\n      jump\t// out\n        /* \"#utility.yul\":4058:4184   */\n    tag_114:\n      0x00\n        /* \"#utility.yul\":4135:4177   */\n      0xffffffffffffffffffffffffffffffffffffffff\n        /* \"#utility.yul\":4128:4133   */\n      dup3\n        /* \"#utility.yul\":4124:4178   */\n      and\n        /* \"#utility.yul\":4113:4178   */\n      swap1\n      pop\n        /* \"#utility.yul\":4103:4184   */\n      swap2\n      swap1\n      pop\n      jump\t// out\n        /* \"#utility.yul\":4190:4267   */\n    tag_94:\n      0x00\n        /* \"#utility.yul\":4256:4261   */\n      dup2\n        /* \"#utility.yul\":4245:4261   */\n      swap1\n      pop\n        /* \"#utility.yul\":4235:4267   */\n      swap2\n      swap1\n      pop\n      jump\t// out\n        /* \"#utility.yul\":4273:4453   */\n    tag_111:\n        /* \"#utility.yul\":4321:4398   */\n      0x4e487b7100000000000000000000000000000000000000000000000000000000\n        /* \"#utility.yul\":4318:4319   */\n      0x00\n        /* \"#utility.yul\":4311:4399   */\n      mstore\n        /* \"#utility.yul\":4418:4422   */\n      0x11\n        /* \"#utility.yul\":4415:4416   */\n      0x04\n        /* \"#utility.yul\":4408:4423   */\n      mstore\n        /* \"#utility.yul\":4442:4446   */\n      0x24\n        /* \"#utility.yul\":4439:4440   */\n      0x00\n        /* \"#utility.yul\":4432:4447   */\n      revert\n        /* \"#utility.yul\":4459:4581   */\n    tag_73:\n        /* \"#utility.yul\":4532:4556   */\n      tag_119\n        /* \"#utility.yul\":4550:4555   */\n      dup2\n        /* \"#utility.yul\":4532:4556   */\n      tag_80\n      jump\t// in\n    tag_119:\n        /* \"#utility.yul\":4525:4530   */\n      dup2\n        /* \"#utility.yul\":4522:4557   */\n      eq\n        /* \"#utility.yul\":4512:4514   */\n      tag_120\n      jumpi\n        /* \"#utility.yul\":4571:4572   */\n      0x00\n        /* \"#utility.yul\":4568:4569   */\n      dup1\n        /* \"#utility.yul\":4561:4573   */\n      revert\n        /* \"#utility.yul\":4512:4514   */\n    tag_120:\n        /* \"#utility.yul\":4502:4581   */\n      pop\n      jump\t// out\n\n    auxdata: 0xa264697066735822122029396791a9f9407f4842b4bd1bae384b70a5c24a593a899c58c6e29089c1711e64736f6c63430008000033\n}\n",
				"bytecode": {
					"linkReferences": {},
					"object": "608060405234801561001057600080fd5b50336000806101000a81548173ffffffffffffffffffffffffffffffffffffffff021916908373ffffffffffffffffffffffffffffffffffffffff160217905550610844806100606000396000f3fe60806040526004361061007b5760003560e01c8063cc6cb19a1161004e578063cc6cb19a1461012a578063de2ed89314610167578063e615a71214610192578063ed88c68e146101bd5761007b565b80633ccfd60b14610080578063410a1d32146100975780636f9fb98a146100d45780638da5cb5b146100ff575b600080fd5b34801561008c57600080fd5b506100956101c7565b005b3480156100a357600080fd5b506100be60048036038101906100b9919061053c565b610375565b6040516100cb919061070a565b60405180910390f35b3480156100e057600080fd5b506100e96103be565b6040516100f6919061070a565b60405180910390f35b34801561010b57600080fd5b506101146103c6565b604051610121919061068f565b60405180910390f35b34801561013657600080fd5b50610151600480360381019061014c919061053c565b6103ea565b60405161015e919061070a565b60405180910390f35b34801561017357600080fd5b5061017c610402565b604051610189919061070a565b60405180910390f35b34801561019e57600080fd5b506101a7610408565b6040516101b4919061070a565b60405180910390f35b6101c5610425565b005b60008054906101000a900473ffffffffffffffffffffffffffffffffffffffff1673ffffffffffffffffffffffffffffffffffffffff163373ffffffffffffffffffffffffffffffffffffffff1614610255576040517f08c379a000000000000000000000000000000000000000000000000000000000815260040161024c906106aa565b60405180910390fd5b60004790506000811161029d576040517f08c379a0000000000000000000000000000000000000000000000000000000008152600401610294906106ea565b60405180910390fd5b60008054906101000a900473ffffffffffffffffffffffffffffffffffffffff1673ffffffffffffffffffffffffffffffffffffffff166108fc829081150290604051600060405180830381858888f19350505050158015610303573d6000803e3d6000fd5b5060008054906101000a900473ffffffffffffffffffffffffffffffffffffffff1673ffffffffffffffffffffffffffffffffffffffff167f7fcf532c15f0a6db0bd6d0e038bea71d30d808c7d98cb3bf7268a95bf5081b658260405161036a919061070a565b60405180910390a250565b6000600160008373ffffffffffffffffffffffffffffffffffffffff1673ffffffffffffffffffffffffffffffffffffffff168152602001908152602001600020549050919050565b600047905090565b60008054906101000a900473ffffffffffffffffffffffffffffffffffffffff1681565b60016020528060005260406000206000915090505481565b60025481565b6000806002541161041a57600061041d565b60015b60ff16905090565b60003411610468576040517f08c379a000000000000000000000000000000000000000000000000000000000815260040161045f906106ca565b60405180910390fd5b34600160003373ffffffffffffffffffffffffffffffffffffffff1673ffffffffffffffffffffffffffffffffffffffff16815260200190815260200160002060008282546104b79190610736565b9250508190555034600260008282546104d09190610736565b925050819055503373ffffffffffffffffffffffffffffffffffffffff167f264f630d9efa0d07053a31163641d9fcc0adafc9d9e76f1c37c2ce3a558d2c523460405161051d919061070a565b60405180910390a2565b600081359050610536816107f7565b92915050565b60006020828403121561054e57600080fd5b600061055c84828501610527565b91505092915050565b61056e8161078c565b82525050565b6000610581602183610725565b91507f4f6e6c79206f776e65722063616e2063616c6c20746869732066756e6374696f60008301527f6e000000000000000000000000000000000000000000000000000000000000006020830152604082019050919050565b60006105e7602683610725565b91507f446f6e6174696f6e20616d6f756e74206d75737420626520677265617465722060008301527f7468616e203000000000000000000000000000000000000000000000000000006020830152604082019050919050565b600061064d601483610725565b91507f4e6f2066756e647320746f2077697468647261770000000000000000000000006000830152602082019050919050565b610689816107be565b82525050565b60006020820190506106a46000830184610565565b92915050565b600060208201905081810360008301526106c381610574565b9050919050565b600060208201905081810360008301526106e3816105da565b9050919050565b6000602082019050818103600083015261070381610640565b9050919050565b600060208201905061071f6000830184610680565b92915050565b600082825260208201905092915050565b6000610741826107be565b915061074c836107be565b9250827fffffffffffffffffffffffffffffffffffffffffffffffffffffffffffffffff03821115610781576107806107c8565b5b828201905092915050565b60006107978261079e565b9050919050565b600073ffffffffffffffffffffffffffffffffffffffff82169050919050565b6000819050919050565b7f4e487b7100000000000000000000000000000000000000000000000000000000600052601160045260246000fd5b6108008161078c565b811461080b57600080fd5b5056fea264697066735822122029396791a9f9407f4842b4bd1bae384b70a5c24a593a899c58c6e29089c1711e64736f6c63430008000033",
					"opcodes": "PUSH1 0x80 PUSH1 0x40 MSTORE CALLVALUE DUP1 ISZERO PUSH2 0x10 JUMPI PUSH1 0x0 DUP1 REVERT JUMPDEST POP CALLER PUSH1 0x0 DUP1 PUSH2 0x100 EXP DUP2 SLOAD DUP2 PUSH20 0xFFFFFFFFFFFFFFFFFFFFFFFFFFFFFFFFFFFFFFFF MUL NOT AND SWAP1 DUP4 PUSH20 0xFFFFFFFFFFFFFFFFFFFFFFFFFFFFFFFFFFFFFFFF AND MUL OR SWAP1 SSTORE POP PUSH2 0x844 DUP1 PUSH2 0x60 PUSH1 0x0 CODECOPY PUSH1 0x0 RETURN INVALID PUSH1 0x80 PUSH1 0x40 MSTORE PUSH1 0x4 CALLDATASIZE LT PUSH2 0x7B JUMPI PUSH1 0x0 CALLDATALOAD PUSH1 0xE0 SHR DUP1 PUSH4 0xCC6CB19A GT PUSH2 0x4E JUMPI DUP1 PUSH4 0xCC6CB19A EQ PUSH2 0x12A JUMPI DUP1 PUSH4 0xDE2ED893 EQ PUSH2 0x167 JUMPI DUP1 PUSH4 0xE615A712 EQ PUSH2 0x192 JUMPI DUP1 PUSH4 0xED88C68E EQ PUSH2 0x1BD JUMPI PUSH2 0x7B JUMP JUMPDEST DUP1 PUSH4 0x3CCFD60B EQ PUSH2 0x80 JUMPI DUP1 PUSH4 0x410A1D32 EQ PUSH2 0x97 JUMPI DUP1 PUSH4 0x6F9FB98A EQ PUSH2 0xD4 JUMPI DUP1 PUSH4 0x8DA5CB5B EQ PUSH2 0xFF JUMPI JUMPDEST PUSH1 0x0 DUP1 REVERT JUMPDEST CALLVALUE DUP1 ISZERO PUSH2 0x8C JUMPI PUSH1 0x0 DUP1 REVERT JUMPDEST POP PUSH2 0x95 PUSH2 0x1C7 JUMP JUMPDEST STOP JUMPDEST CALLVALUE DUP1 ISZERO PUSH2 0xA3 JUMPI PUSH1 0x0 DUP1 REVERT JUMPDEST POP PUSH2 0xBE PUSH1 0x4 DUP1 CALLDATASIZE SUB DUP2 ADD SWAP1 PUSH2 0xB9 SWAP2 SWAP1 PUSH2 0x53C JUMP JUMPDEST PUSH2 0x375 JUMP JUMPDEST PUSH1 0x40 MLOAD PUSH2 0xCB SWAP2 SWAP1 PUSH2 0x70A JUMP JUMPDEST PUSH1 0x40 MLOAD DUP1 SWAP2 SUB SWAP1 RETURN JUMPDEST CALLVALUE DUP1 ISZERO PUSH2 0xE0 JUMPI PUSH1 0x0 DUP1 REVERT JUMPDEST POP PUSH2 0xE9 PUSH2 0x3BE JUMP JUMPDEST PUSH1 0x40 MLOAD PUSH2 0xF6 SWAP2 SWAP1 PUSH2 0x70A JUMP JUMPDEST PUSH1 0x40 MLOAD DUP1 SWAP2 SUB SWAP1 RETURN JUMPDEST CALLVALUE DUP1 ISZERO PUSH2 0x10B JUMPI PUSH1 0x0 DUP1 REVERT JUMPDEST POP PUSH2 0x114 PUSH2 0x3C6 JUMP JUMPDEST PUSH1 0x40 MLOAD PUSH2 0x121 SWAP2 SWAP1 PUSH2 0x68F JUMP JUMPDEST PUSH1 0x40 MLOAD DUP1 SWAP2 SUB SWAP1 RETURN JUMPDEST CALLVALUE DUP1 ISZERO PUSH2 0x136 JUMPI PUSH1 0x0 DUP1 REVERT JUMPDEST POP PUSH2 0x151 PUSH1 0x4 DUP1 CALLDATASIZE SUB DUP2 ADD SWAP1 PUSH2 0x14C SWAP2 SWAP1 PUSH2 0x53C JUMP JUMPDEST PUSH2 0x3EA JUMP JUMPDEST PUSH1 0x40 MLOAD PUSH2 0x15E SWAP2 SWAP1 PUSH2 0x70A JUMP JUMPDEST PUSH1 0x40 MLOAD DUP1 SWAP2 SUB SWAP1 RETURN JUMPDEST CALLVALUE DUP1 ISZERO PUSH2 0x173 JUMPI PUSH1 0x0 DUP1 REVERT JUMPDEST POP PUSH2 0x17C PUSH2 0x402 JUMP JUMPDEST PUSH1 0x40 MLOAD PUSH2 0x189 SWAP2 SWAP1 PUSH2 0x70A JUMP JUMPDEST PUSH1 0x40 MLOAD DUP1 SWAP2 SUB SWAP1 RETURN JUMPDEST CALLVALUE DUP1 ISZERO PUSH2 0x19E JUMPI PUSH1 0x0 DUP1 REVERT JUMPDEST POP PUSH2 0x1A7 PUSH2 0x408 JUMP JUMPDEST PUSH1 0x40 MLOAD PUSH2 0x1B4 SWAP2 SWAP1 PUSH2 0x70A JUMP JUMPDEST PUSH1 0x40 MLOAD DUP1 SWAP2 SUB SWAP1 RETURN JUMPDEST PUSH2 0x1C5 PUSH2 0x425 JUMP JUMPDEST STOP JUMPDEST PUSH1 0x0 DUP1 SLOAD SWAP1 PUSH2 0x100 EXP SWAP1 DIV PUSH20 0xFFFFFFFFFFFFFFFFFFFFFFFFFFFFFFFFFFFFFFFF AND PUSH20 0xFFFFFFFFFFFFFFFFFFFFFFFFFFFFFFFFFFFFFFFF AND CALLER PUSH20 0xFFFFFFFFFFFFFFFFFFFFFFFFFFFFFFFFFFFFFFFF AND EQ PUSH2 0x255 JUMPI PUSH1 0x40 MLOAD PUSH32 0x8C379A000000000000000000000000000000000000000000000000000000000 DUP2 MSTORE PUSH1 0x4 ADD PUSH2 0x24C SWAP1 PUSH2 0x6AA JUMP JUMPDEST PUSH1 0x40 MLOAD DUP1 SWAP2 SUB SWAP1 REVERT JUMPDEST PUSH1 0x0 SELFBALANCE SWAP1 POP PUSH1 0x0 DUP2 GT PUSH2 0x29D JUMPI PUSH1 0x40 MLOAD PUSH32 0x8C379A000000000000000000000000000000000000000000000000000000000 DUP2 MSTORE PUSH1 0x4 ADD PUSH2 0x294 SWAP1 PUSH2 0x6EA JUMP JUMPDEST PUSH1 0x40 MLOAD DUP1 SWAP2 SUB SWAP1 REVERT JUMPDEST PUSH1 0x0 DUP1 SLOAD SWAP1 PUSH2 0x100 EXP SWAP1 DIV PUSH20 0xFFFFFFFFFFFFFFFFFFFFFFFFFFFFFFFFFFFFFFFF AND PUSH20 0xFFFFFFFFFFFFFFFFFFFFFFFFFFFFFFFFFFFFFFFF AND PUSH2 0x8FC DUP3 SWAP1 DUP2 ISZERO MUL SWAP1 PUSH1 0x40 MLOAD PUSH1 0x0 PUSH1 0x40 MLOAD DUP1 DUP4 SUB DUP2 DUP6 DUP9 DUP9 CALL SWAP4 POP POP POP POP ISZERO DUP1 ISZERO PUSH2 0x303 JUMPI RETURNDATASIZE PUSH1 0x0 DUP1 RETURNDATACOPY RETURNDATASIZE PUSH1 0x0 REVERT JUMPDEST POP PUSH1 0x0 DUP1 SLOAD SWAP1 PUSH2 0x100 EXP SWAP1 DIV PUSH20 0xFFFFFFFFFFFFFFFFFFFFFFFFFFFFFFFFFFFFFFFF AND PUSH20 0xFFFFFFFFFFFFFFFFFFFFFFFFFFFFFFFFFFFFFFFF AND PUSH32 0x7FCF532C15F0A6DB0BD6D0E038BEA71D30D808C7D98CB3BF7268A95BF5081B65 DUP3 PUSH1 0x40 MLOAD PUSH2 0x36A SWAP2 SWAP1 PUSH2 0x70A JUMP JUMPDEST PUSH1 0x40 MLOAD DUP1 SWAP2 SUB SWAP1 LOG2 POP JUMP JUMPDEST PUSH1 0x0 PUSH1 0x1 PUSH1 0x0 DUP4 PUSH20 0xFFFFFFFFFFFFFFFFFFFFFFFFFFFFFFFFFFFFFFFF AND PUSH20 0xFFFFFFFFFFFFFFFFFFFFFFFFFFFFFFFFFFFFFFFF AND DUP2 MSTORE PUSH1 0x20 ADD SWAP1 DUP2 MSTORE PUSH1 0x20 ADD PUSH1 0x0 KECCAK256 SLOAD SWAP1 POP SWAP2 SWAP1 POP JUMP JUMPDEST PUSH1 0x0 SELFBALANCE SWAP1 POP SWAP1 JUMP JUMPDEST PUSH1 0x0 DUP1 SLOAD SWAP1 PUSH2 0x100 EXP SWAP1 DIV PUSH20 0xFFFFFFFFFFFFFFFFFFFFFFFFFFFFFFFFFFFFFFFF AND DUP2 JUMP JUMPDEST PUSH1 0x1 PUSH1 0x20 MSTORE DUP1 PUSH1 0x0 MSTORE PUSH1 0x40 PUSH1 0x0 KECCAK256 PUSH1 0x0 SWAP2 POP SWAP1 POP SLOAD DUP2 JUMP JUMPDEST PUSH1 0x2 SLOAD DUP2 JUMP JUMPDEST PUSH1 0x0 DUP1 PUSH1 0x2 SLOAD GT PUSH2 0x41A JUMPI PUSH1 0x0 PUSH2 0x41D JUMP JUMPDEST PUSH1 0x1 JUMPDEST PUSH1 0xFF AND SWAP1 POP SWAP1 JUMP JUMPDEST PUSH1 0x0 CALLVALUE GT PUSH2 0x468 JUMPI PUSH1 0x40 MLOAD PUSH32 0x8C379A000000000000000000000000000000000000000000000000000000000 DUP2 MSTORE PUSH1 0x4 ADD PUSH2 0x45F SWAP1 PUSH2 0x6CA JUMP JUMPDEST PUSH1 0x40 MLOAD DUP1 SWAP2 SUB SWAP1 REVERT JUMPDEST CALLVALUE PUSH1 0x1 PUSH1 0x0 CALLER PUSH20 0xFFFFFFFFFFFFFFFFFFFFFFFFFFFFFFFFFFFFFFFF AND PUSH20 0xFFFFFFFFFFFFFFFFFFFFFFFFFFFFFFFFFFFFFFFF AND DUP2 MSTORE PUSH1 0x20 ADD SWAP1 DUP2 MSTORE PUSH1 0x20 ADD PUSH1 0x0 KECCAK256 PUSH1 0x0 DUP3 DUP3 SLOAD PUSH2 0x4B7 SWAP2 SWAP1 PUSH2 0x736 JUMP JUMPDEST SWAP3 POP POP DUP2 SWAP1 SSTORE POP CALLVALUE PUSH1 0x2 PUSH1 0x0 DUP3 DUP3 SLOAD PUSH2 0x4D0 SWAP2 SWAP1 PUSH2 0x736 JUMP JUMPDEST SWAP3 POP POP DUP2 SWAP1 SSTORE POP CALLER PUSH20 0xFFFFFFFFFFFFFFFFFFFFFFFFFFFFFFFFFFFFFFFF AND PUSH32 0x264F630D9EFA0D07053A31163641D9FCC0ADAFC9D9E76F1C37C2CE3A558D2C52 CALLVALUE PUSH1 0x40 MLOAD PUSH2 0x51D SWAP2 SWAP1 PUSH2 0x70A JUMP JUMPDEST PUSH1 0x40 MLOAD DUP1 SWAP2 SUB SWAP1 LOG2 JUMP JUMPDEST PUSH1 0x0 DUP2 CALLDATALOAD SWAP1 POP PUSH2 0x536 DUP2 PUSH2 0x7F7 JUMP JUMPDEST SWAP3 SWAP2 POP POP JUMP JUMPDEST PUSH1 0x0 PUSH1 0x20 DUP3 DUP5 SUB SLT ISZERO PUSH2 0x54E JUMPI PUSH1 0x0 DUP1 REVERT JUMPDEST PUSH1 0x0 PUSH2 0x55C DUP5 DUP3 DUP6 ADD PUSH2 0x527 JUMP JUMPDEST SWAP2 POP POP SWAP3 SWAP2 POP POP JUMP JUMPDEST PUSH2 0x56E DUP2 PUSH2 0x78C JUMP JUMPDEST DUP3 MSTORE POP POP JUMP JUMPDEST PUSH1 0x0 PUSH2 0x581 PUSH1 0x21 DUP4 PUSH2 0x725 JUMP JUMPDEST SWAP2 POP PUSH32 0x4F6E6C79206F776E65722063616E2063616C6C20746869732066756E6374696F PUSH1 0x0 DUP4 ADD MSTORE PUSH32 0x6E00000000000000000000000000000000000000000000000000000000000000 PUSH1 0x20 DUP4 ADD MSTORE PUSH1 0x40 DUP3 ADD SWAP1 POP SWAP2 SWAP1 POP JUMP JUMPDEST PUSH1 0x0 PUSH2 0x5E7 PUSH1 0x26 DUP4 PUSH2 0x725 JUMP JUMPDEST SWAP2 POP PUSH32 0x446F6E6174696F6E20616D6F756E74206D757374206265206772656174657220 PUSH1 0x0 DUP4 ADD MSTORE PUSH32 0x7468616E20300000000000000000000000000000000000000000000000000000 PUSH1 0x20 DUP4 ADD MSTORE PUSH1 0x40 DUP3 ADD SWAP1 POP SWAP2 SWAP1 POP JUMP JUMPDEST PUSH1 0x0 PUSH2 0x64D PUSH1 0x14 DUP4 PUSH2 0x725 JUMP JUMPDEST SWAP2 POP PUSH32 0x4E6F2066756E647320746F207769746864726177000000000000000000000000 PUSH1 0x0 DUP4 ADD MSTORE PUSH1 0x20 DUP3 ADD SWAP1 POP SWAP2 SWAP1 POP JUMP JUMPDEST PUSH2 0x689 DUP2 PUSH2 0x7BE JUMP JUMPDEST DUP3 MSTORE POP POP JUMP JUMPDEST PUSH1 0x0 PUSH1 0x20 DUP3 ADD SWAP1 POP PUSH2 0x6A4 PUSH1 0x0 DUP4 ADD DUP5 PUSH2 0x565 JUMP JUMPDEST SWAP3 SWAP2 POP POP JUMP JUMPDEST PUSH1 0x0 PUSH1 0x20 DUP3 ADD SWAP1 POP DUP2 DUP2 SUB PUSH1 0x0 DUP4 ADD MSTORE PUSH2 0x6C3 DUP2 PUSH2 0x574 JUMP JUMPDEST SWAP1 POP SWAP2 SWAP1 POP JUMP JUMPDEST PUSH1 0x0 PUSH1 0x20 DUP3 ADD SWAP1 POP DUP2 DUP2 SUB PUSH1 0x0 DUP4 ADD MSTORE PUSH2 0x6E3 DUP2 PUSH2 0x5DA JUMP JUMPDEST SWAP1 POP SWAP2 SWAP1 POP JUMP JUMPDEST PUSH1 0x0 PUSH1 0x20 DUP3 ADD SWAP1 POP DUP2 DUP2 SUB PUSH1 0x0 DUP4 ADD MSTORE PUSH2 0x703 DUP2 PUSH2 0x640 JUMP JUMPDEST SWAP1 POP SWAP2 SWAP1 POP JUMP JUMPDEST PUSH1 0x0 PUSH1 0x20 DUP3 ADD SWAP1 POP PUSH2 0x71F PUSH1 0x0 DUP4 ADD DUP5 PUSH2 0x680 JUMP JUMPDEST SWAP3 SWAP2 POP POP JUMP JUMPDEST PUSH1 0x0 DUP3 DUP3 MSTORE PUSH1 0x20 DUP3 ADD SWAP1 POP SWAP3 SWAP2 POP POP JUMP JUMPDEST PUSH1 0x0 PUSH2 0x741 DUP3 PUSH2 0x7BE JUMP JUMPDEST SWAP2 POP PUSH2 0x74C DUP4 PUSH2 0x7BE JUMP JUMPDEST SWAP3 POP DUP3 PUSH32 0xFFFFFFFFFFFFFFFFFFFFFFFFFFFFFFFFFFFFFFFFFFFFFFFFFFFFFFFFFFFFFFFF SUB DUP3 GT ISZERO PUSH2 0x781 JUMPI PUSH2 0x780 PUSH2 0x7C8 JUMP JUMPDEST JUMPDEST DUP3 DUP3 ADD SWAP1 POP SWAP3 SWAP2 POP POP JUMP JUMPDEST PUSH1 0x0 PUSH2 0x797 DUP3 PUSH2 0x79E JUMP JUMPDEST SWAP1 POP SWAP2 SWAP1 POP JUMP JUMPDEST PUSH1 0x0 PUSH20 0xFFFFFFFFFFFFFFFFFFFFFFFFFFFFFFFFFFFFFFFF DUP3 AND SWAP1 POP SWAP2 SWAP1 POP JUMP JUMPDEST PUSH1 0x0 DUP2 SWAP1 POP SWAP2 SWAP1 POP JUMP JUMPDEST PUSH32 0x4E487B7100000000000000000000000000000000000000000000000000000000 PUSH1 0x0 MSTORE PUSH1 0x11 PUSH1 0x4 MSTORE PUSH1 0x24 PUSH1 0x0 REVERT JUMPDEST PUSH2 0x800 DUP2 PUSH2 0x78C JUMP JUMPDEST DUP2 EQ PUSH2 0x80B JUMPI PUSH1 0x0 DUP1 REVERT JUMPDEST POP JUMP INVALID LOG2 PUSH5 0x6970667358 0x22 SLT KECCAK256 0x29 CODECOPY PUSH8 0x91A9F9407F4842B4 0xBD SHL 0xAE CODESIZE 0x4B PUSH17 0xA5C24A593A899C58C6E29089C1711E6473 PUSH16 0x6C634300080000330000000000000000 "
				},
				"gasEstimates": {
					"creation": {
						"codeDepositCost": "423200",
						"executionCost": "21327",
						"totalCost": "444527"
					},
					"external": {
						"donate()": "infinite",
						"donations(address)": "1514",
						"getContractBalance()": "384",
						"getDonation(address)": "1564",
						"getTotalDonors()": "1221",
						"owner()": "1278",
						"totalDonations()": "1151",
						"withdraw()": "infinite"
					}
				},
				"methodIdentifiers": {
					"donate()": "ed88c68e",
					"donations(address)": "cc6cb19a",
					"getContractBalance()": "6f9fb98a",
					"getDonation(address)": "410a1d32",
					"getTotalDonors()": "e615a712",
					"owner()": "8da5cb5b",
					"totalDonations()": "de2ed893",
					"withdraw()": "3ccfd60b"
				}
			},
			"storageLayout": {
				"storage": [
					{
						"astId": 3,
						"contract": "tests/task_2_2/Begging.sol:BeggingContract",
						"label": "owner",
						"offset": 0,
						"slot": "0",
						"type": "t_address"
					},
					{
						"astId": 7,
						"contract": "tests/task_2_2/Begging.sol:BeggingContract",
						"label": "donations",
						"offset": 0,
						"slot": "1",
						"type": "t_mapping(t_address,t_uint256)"
					},
					{
						"astId": 9,
						"contract": "tests/task_2_2/Begging.sol:BeggingContract",
						"label": "totalDonations",
						"offset": 0,
						"slot": "2",
						"type": "t_uint256"
					}
				],
				"types": {
					"t_address": {
						"encoding": "inplace",
						"label": "address",
						"numberOfBytes": "20"
					},
					"t_mapping(t_address,t_uint256)": {
						"encoding": "mapping",
						"key": "t_address",
						"label": "mapping(address => uint256)",
						"numberOfBytes": "32",
						"value": "t_uint256"
					},
					"t_uint256": {
						"encoding": "inplace",
						"label": "uint256",
						"numberOfBytes": "32"
					}
				}
			},
			"userdoc": {
				"kind": "user",
				"methods": {},
				"version": 1
			}
		}
	}
}