{
	"tests/task_2/task_2_3_RomanNumerals.sol": {
		"RomanNumerals": {
			"abi": [
				{
					"inputs": [],
					"stateMutability": "nonpayable",
					"type": "constructor"
				},
				{
					"inputs": [
						{
							"internalType": "uint256",
							"name": "num",
							"type": "uint256"
						}
					],
					"name": "toRoman",
					"outputs": [
						{
							"internalType": "string",
							"name": "",
							"type": "string"
						}
					],
					"stateMutability": "view",
					"type": "function"
				}
			],
			"devdoc": {
				"kind": "dev",
				"methods": {},
				"version": 1
			},
			"evm": {
				"assembly": "    /* \"tests/task_2/task_2_3_RomanNumerals.sol\":110:1637  contract RomanNumerals {... */\n  mstore(0x40, 0x80)\n    /* \"tests/task_2/task_2_3_RomanNumerals.sol\":265:1003  constructor() {... */\n  callvalue\n  dup1\n  iszero\n  tag_1\n  jumpi\n  0x00\n  dup1\n  revert\ntag_1:\n  pop\n    /* \"tests/task_2/task_2_3_RomanNumerals.sol\":348:360  romanSymbols */\n  0x00\n    /* \"tests/task_2/task_2_3_RomanNumerals.sol\":366:388  RomanSymbol(1000, \"M\") */\n  mload(0x40)\n  dup1\n  0x40\n  add\n  0x40\n  mstore\n  dup1\n    /* \"tests/task_2/task_2_3_RomanNumerals.sol\":378:382  1000 */\n  0x03e8\n    /* \"tests/task_2/task_2_3_RomanNumerals.sol\":366:388  RomanSymbol(1000, \"M\") */\n  dup2\n  mstore\n  0x20\n  add\n  mload(0x40)\n  dup1\n  0x40\n  add\n  0x40\n  mstore\n  dup1\n  0x01\n  dup2\n  mstore\n  0x20\n  add\n  0x4d00000000000000000000000000000000000000000000000000000000000000\n  dup2\n  mstore\n  pop\n  dup2\n  mstore\n  pop\n    /* \"tests/task_2/task_2_3_RomanNumerals.sol\":348:389  romanSymbols.push(RomanSymbol(1000, \"M\")) */\n  swap1\n  dup1\n  0x01\n  dup2\n  sload\n  add\n  dup1\n  dup3\n  sstore\n  dup1\n  swap2\n  pop\n  pop\n  0x01\n  swap1\n  sub\n  swap1\n  0x00\n  mstore\n  keccak256(0x00, 0x20)\n  swap1\n  0x02\n  mul\n  add\n  0x00\n  swap1\n  swap2\n  swap1\n  swap2\n  swap1\n  swap2\n  pop\n  0x00\n  dup3\n  add\n  mload\n  dup2\n  0x00\n  add\n  sstore\n  0x20\n  dup3\n  add\n  mload\n  dup2\n  0x01\n  add\n  swap1\n  dup2\n  tag_5\n  swap2\n  swap1\n  tag_6\n  jump\t// in\ntag_5:\n  pop\n  pop\n  pop\n    /* \"tests/task_2/task_2_3_RomanNumerals.sol\":400:412  romanSymbols */\n  0x00\n    /* \"tests/task_2/task_2_3_RomanNumerals.sol\":418:440  RomanSymbol(900, \"CM\") */\n  mload(0x40)\n  dup1\n  0x40\n  add\n  0x40\n  mstore\n  dup1\n    /* \"tests/task_2/task_2_3_RomanNumerals.sol\":430:433  900 */\n  0x0384\n    /* \"tests/task_2/task_2_3_RomanNumerals.sol\":418:440  RomanSymbol(900, \"CM\") */\n  dup2\n  mstore\n  0x20\n  add\n  mload(0x40)\n  dup1\n  0x40\n  add\n  0x40\n  mstore\n  dup1\n  0x02\n  dup2\n  mstore\n  0x20\n  add\n  0x434d000000000000000000000000000000000000000000000000000000000000\n  dup2\n  mstore\n  pop\n  dup2\n  mstore\n  pop\n    /* \"tests/task_2/task_2_3_RomanNumerals.sol\":400:441  romanSymbols.push(RomanSymbol(900, \"CM\")) */\n  swap1\n  dup1\n  0x01\n  dup2\n  sload\n  add\n  dup1\n  dup3\n  sstore\n  dup1\n  swap2\n  pop\n  pop\n  0x01\n  swap1\n  sub\n  swap1\n  0x00\n  mstore\n  keccak256(0x00, 0x20)\n  swap1\n  0x02\n  mul\n  add\n  0x00\n  swap1\n  swap2\n  swap1\n  swap2\n  swap1\n  swap2\n  pop\n  0x00\n  dup3\n  add\n  mload\n  dup2\n  0x00\n  add\n  sstore\n  0x20\n  dup3\n  add\n  mload\n  dup2\n  0x01\n  add\n  swap1\n  dup2\n  tag_8\n  swap2\n  swap1\n  tag_6\n  jump\t// in\ntag_8:\n  pop\n  pop\n  pop\n    /* \"tests/task_2/task_2_3_RomanNumerals.sol\":452:464  romanSymbols */\n  0x00\n    /* \"tests/task_2/task_2_3_RomanNumerals.sol\":470:491  RomanSymbol(500, \"D\") */\n  mload(0x40)\n  dup1\n  0x40\n  add\n  0x40\n  mstore\n  dup1\n    /* \"tests/task_2/task_2_3_RomanNumerals.sol\":482:485  500 */\n  0x01f4\n    /* \"tests/task_2/task_2_3_RomanNumerals.sol\":470:491  RomanSymbol(500, \"D\") */\n  dup2\n  mstore\n  0x20\n  add\n  mload(0x40)\n  dup1\n  0x40\n  add\n  0x40\n  mstore\n  dup1\n  0x01\n  dup2\n  mstore\n  0x20\n  add\n  0x4400000000000000000000000000000000000000000000000000000000000000\n  dup2\n  mstore\n  pop\n  dup2\n  mstore\n  pop\n    /* \"tests/task_2/task_2_3_RomanNumerals.sol\":452:492  romanSymbols.push(RomanSymbol(500, \"D\")) */\n  swap1\n  dup1\n  0x01\n  dup2\n  sload\n  add\n  dup1\n  dup3\n  sstore\n  dup1\n  swap2\n  pop\n  pop\n  0x01\n  swap1\n  sub\n  swap1\n  0x00\n  mstore\n  keccak256(0x00, 0x20)\n  swap1\n  0x02\n  mul\n  add\n  0x00\n  swap1\n  swap2\n  swap1\n  swap2\n  swap1\n  swap2\n  pop\n  0x00\n  dup3\n  add\n  mload\n  dup2\n  0x00\n  add\n  sstore\n  0x20\n  dup3\n  add\n  mload\n  dup2\n  0x01\n  add\n  swap1\n  dup2\n  tag_10\n  swap2\n  swap1\n  tag_6\n  jump\t// in\ntag_10:\n  pop\n  pop\n  pop\n    /* \"tests/task_2/task_2_3_RomanNumerals.sol\":503:515  romanSymbols */\n  0x00\n    /* \"tests/task_2/task_2_3_RomanNumerals.sol\":521:543  RomanSymbol(400, \"CD\") */\n  mload(0x40)\n  dup1\n  0x40\n  add\n  0x40\n  mstore\n  dup1\n    /* \"tests/task_2/task_2_3_RomanNumerals.sol\":533:536  400 */\n  0x0190\n    /* \"tests/task_2/task_2_3_RomanNumerals.sol\":521:543  RomanSymbol(400, \"CD\") */\n  dup2\n  mstore\n  0x20\n  add\n  mload(0x40)\n  dup1\n  0x40\n  add\n  0x40\n  mstore\n  dup1\n  0x02\n  dup2\n  mstore\n  0x20\n  add\n  0x4344000000000000000000000000000000000000000000000000000000000000\n  dup2\n  mstore\n  pop\n  dup2\n  mstore\n  pop\n    /* \"tests/task_2/task_2_3_RomanNumerals.sol\":503:544  romanSymbols.push(RomanSymbol(400, \"CD\")) */\n  swap1\n  dup1\n  0x01\n  dup2\n  sload\n  add\n  dup1\n  dup3\n  sstore\n  dup1\n  swap2\n  pop\n  pop\n  0x01\n  swap1\n  sub\n  swap1\n  0x00\n  mstore\n  keccak256(0x00, 0x20)\n  swap1\n  0x02\n  mul\n  add\n  0x00\n  swap1\n  swap2\n  swap1\n  swap2\n  swap1\n  swap2\n  pop\n  0x00\n  dup3\n  add\n  mload\n  dup2\n  0x00\n  add\n  sstore\n  0x20\n  dup3\n  add\n  mload\n  dup2\n  0x01\n  add\n  swap1\n  dup2\n  tag_12\n  swap2\n  swap1\n  tag_6\n  jump\t// in\ntag_12:\n  pop\n  pop\n  pop\n    /* \"tests/task_2/task_2_3_RomanNumerals.sol\":555:567  romanSymbols */\n  0x00\n    /* \"tests/task_2/task_2_3_RomanNumerals.sol\":573:594  RomanSymbol(100, \"C\") */\n  mload(0x40)\n  dup1\n  0x40\n  add\n  0x40\n  mstore\n  dup1\n    /* \"tests/task_2/task_2_3_RomanNumerals.sol\":585:588  100 */\n  0x64\n    /* \"tests/task_2/task_2_3_RomanNumerals.sol\":573:594  RomanSymbol(100, \"C\") */\n  dup2\n  mstore\n  0x20\n  add\n  mload(0x40)\n  dup1\n  0x40\n  add\n  0x40\n  mstore\n  dup1\n  0x01\n  dup2\n  mstore\n  0x20\n  add\n  0x4300000000000000000000000000000000000000000000000000000000000000\n  dup2\n  mstore\n  pop\n  dup2\n  mstore\n  pop\n    /* \"tests/task_2/task_2_3_RomanNumerals.sol\":555:595  romanSymbols.push(RomanSymbol(100, \"C\")) */\n  swap1\n  dup1\n  0x01\n  dup2\n  sload\n  add\n  dup1\n  dup3\n  sstore\n  dup1\n  swap2\n  pop\n  pop\n  0x01\n  swap1\n  sub\n  swap1\n  0x00\n  mstore\n  keccak256(0x00, 0x20)\n  swap1\n  0x02\n  mul\n  add\n  0x00\n  swap1\n  swap2\n  swap1\n  swap2\n  swap1\n  swap2\n  pop\n  0x00\n  dup3\n  add\n  mload\n  dup2\n  0x00\n  add\n  sstore\n  0x20\n  dup3\n  add\n  mload\n  dup2\n  0x01\n  add\n  swap1\n  dup2\n  tag_14\n  swap2\n  swap1\n  tag_6\n  jump\t// in\ntag_14:\n  pop\n  pop\n  pop\n    /* \"tests/task_2/task_2_3_RomanNumerals.sol\":606:618  romanSymbols */\n  0x00\n    /* \"tests/task_2/task_2_3_RomanNumerals.sol\":624:645  RomanSymbol(90, \"XC\") */\n  mload(0x40)\n  dup1\n  0x40\n  add\n  0x40\n  mstore\n  dup1\n    /* \"tests/task_2/task_2_3_RomanNumerals.sol\":636:638  90 */\n  0x5a\n    /* \"tests/task_2/task_2_3_RomanNumerals.sol\":624:645  RomanSymbol(90, \"XC\") */\n  dup2\n  mstore\n  0x20\n  add\n  mload(0x40)\n  dup1\n  0x40\n  add\n  0x40\n  mstore\n  dup1\n  0x02\n  dup2\n  mstore\n  0x20\n  add\n  0x5843000000000000000000000000000000000000000000000000000000000000\n  dup2\n  mstore\n  pop\n  dup2\n  mstore\n  pop\n    /* \"tests/task_2/task_2_3_RomanNumerals.sol\":606:646  romanSymbols.push(RomanSymbol(90, \"XC\")) */\n  swap1\n  dup1\n  0x01\n  dup2\n  sload\n  add\n  dup1\n  dup3\n  sstore\n  dup1\n  swap2\n  pop\n  pop\n  0x01\n  swap1\n  sub\n  swap1\n  0x00\n  mstore\n  keccak256(0x00, 0x20)\n  swap1\n  0x02\n  mul\n  add\n  0x00\n  swap1\n  swap2\n  swap1\n  swap2\n  swap1\n  swap2\n  pop\n  0x00\n  dup3\n  add\n  mload\n  dup2\n  0x00\n  add\n  sstore\n  0x20\n  dup3\n  add\n  mload\n  dup2\n  0x01\n  add\n  swap1\n  dup2\n  tag_16\n  swap2\n  swap1\n  tag_6\n  jump\t// in\ntag_16:\n  pop\n  pop\n  pop\n    /* \"tests/task_2/task_2_3_RomanNumerals.sol\":657:669  romanSymbols */\n  0x00\n    /* \"tests/task_2/task_2_3_RomanNumerals.sol\":675:695  RomanSymbol(50, \"L\") */\n  mload(0x40)\n  dup1\n  0x40\n  add\n  0x40\n  mstore\n  dup1\n    /* \"tests/task_2/task_2_3_RomanNumerals.sol\":687:689  50 */\n  0x32\n    /* \"tests/task_2/task_2_3_RomanNumerals.sol\":675:695  RomanSymbol(50, \"L\") */\n  dup2\n  mstore\n  0x20\n  add\n  mload(0x40)\n  dup1\n  0x40\n  add\n  0x40\n  mstore\n  dup1\n  0x01\n  dup2\n  mstore\n  0x20\n  add\n  0x4c00000000000000000000000000000000000000000000000000000000000000\n  dup2\n  mstore\n  pop\n  dup2\n  mstore\n  pop\n    /* \"tests/task_2/task_2_3_RomanNumerals.sol\":657:696  romanSymbols.push(RomanSymbol(50, \"L\")) */\n  swap1\n  dup1\n  0x01\n  dup2\n  sload\n  add\n  dup1\n  dup3\n  sstore\n  dup1\n  swap2\n  pop\n  pop\n  0x01\n  swap1\n  sub\n  swap1\n  0x00\n  mstore\n  keccak256(0x00, 0x20)\n  swap1\n  0x02\n  mul\n  add\n  0x00\n  swap1\n  swap2\n  swap1\n  swap2\n  swap1\n  swap2\n  pop\n  0x00\n  dup3\n  add\n  mload\n  dup2\n  0x00\n  add\n  sstore\n  0x20\n  dup3\n  add\n  mload\n  dup2\n  0x01\n  add\n  swap1\n  dup2\n  tag_18\n  swap2\n  swap1\n  tag_6\n  jump\t// in\ntag_18:\n  pop\n  pop\n  pop\n    /* \"tests/task_2/task_2_3_RomanNumerals.sol\":707:719  romanSymbols */\n  0x00\n    /* \"tests/task_2/task_2_3_RomanNumerals.sol\":725:746  RomanSymbol(40, \"XL\") */\n  mload(0x40)\n  dup1\n  0x40\n  add\n  0x40\n  mstore\n  dup1\n    /* \"tests/task_2/task_2_3_RomanNumerals.sol\":737:739  40 */\n  0x28\n    /* \"tests/task_2/task_2_3_RomanNumerals.sol\":725:746  RomanSymbol(40, \"XL\") */\n  dup2\n  mstore\n  0x20\n  add\n  mload(0x40)\n  dup1\n  0x40\n  add\n  0x40\n  mstore\n  dup1\n  0x02\n  dup2\n  mstore\n  0x20\n  add\n  0x584c000000000000000000000000000000000000000000000000000000000000\n  dup2\n  mstore\n  pop\n  dup2\n  mstore\n  pop\n    /* \"tests/task_2/task_2_3_RomanNumerals.sol\":707:747  romanSymbols.push(RomanSymbol(40, \"XL\")) */\n  swap1\n  dup1\n  0x01\n  dup2\n  sload\n  add\n  dup1\n  dup3\n  sstore\n  dup1\n  swap2\n  pop\n  pop\n  0x01\n  swap1\n  sub\n  swap1\n  0x00\n  mstore\n  keccak256(0x00, 0x20)\n  swap1\n  0x02\n  mul\n  add\n  0x00\n  swap1\n  swap2\n  swap1\n  swap2\n  swap1\n  swap2\n  pop\n  0x00\n  dup3\n  add\n  mload\n  dup2\n  0x00\n  add\n  sstore\n  0x20\n  dup3\n  add\n  mload\n  dup2\n  0x01\n  add\n  swap1\n  dup2\n  tag_20\n  swap2\n  swap1\n  tag_6\n  jump\t// in\ntag_20:\n  pop\n  pop\n  pop\n    /* \"tests/task_2/task_2_3_RomanNumerals.sol\":758:770  romanSymbols */\n  0x00\n    /* \"tests/task_2/task_2_3_RomanNumerals.sol\":776:796  RomanSymbol(10, \"X\") */\n  mload(0x40)\n  dup1\n  0x40\n  add\n  0x40\n  mstore\n  dup1\n    /* \"tests/task_2/task_2_3_RomanNumerals.sol\":788:790  10 */\n  0x0a\n    /* \"tests/task_2/task_2_3_RomanNumerals.sol\":776:796  RomanSymbol(10, \"X\") */\n  dup2\n  mstore\n  0x20\n  add\n  mload(0x40)\n  dup1\n  0x40\n  add\n  0x40\n  mstore\n  dup1\n  0x01\n  dup2\n  mstore\n  0x20\n  add\n  0x5800000000000000000000000000000000000000000000000000000000000000\n  dup2\n  mstore\n  pop\n  dup2\n  mstore\n  pop\n    /* \"tests/task_2/task_2_3_RomanNumerals.sol\":758:797  romanSymbols.push(RomanSymbol(10, \"X\")) */\n  swap1\n  dup1\n  0x01\n  dup2\n  sload\n  add\n  dup1\n  dup3\n  sstore\n  dup1\n  swap2\n  pop\n  pop\n  0x01\n  swap1\n  sub\n  swap1\n  0x00\n  mstore\n  keccak256(0x00, 0x20)\n  swap1\n  0x02\n  mul\n  add\n  0x00\n  swap1\n  swap2\n  swap1\n  swap2\n  swap1\n  swap2\n  pop\n  0x00\n  dup3\n  add\n  mload\n  dup2\n  0x00\n  add\n  sstore\n  0x20\n  dup3\n  add\n  mload\n  dup2\n  0x01\n  add\n  swap1\n  dup2\n  tag_22\n  swap2\n  swap1\n  tag_6\n  jump\t// in\ntag_22:\n  pop\n  pop\n  pop\n    /* \"tests/task_2/task_2_3_RomanNumerals.sol\":808:820  romanSymbols */\n  0x00\n    /* \"tests/task_2/task_2_3_RomanNumerals.sol\":826:846  RomanSymbol(9, \"IX\") */\n  mload(0x40)\n  dup1\n  0x40\n  add\n  0x40\n  mstore\n  dup1\n    /* \"tests/task_2/task_2_3_RomanNumerals.sol\":838:839  9 */\n  0x09\n    /* \"tests/task_2/task_2_3_RomanNumerals.sol\":826:846  RomanSymbol(9, \"IX\") */\n  dup2\n  mstore\n  0x20\n  add\n  mload(0x40)\n  dup1\n  0x40\n  add\n  0x40\n  mstore\n  dup1\n  0x02\n  dup2\n  mstore\n  0x20\n  add\n  0x4958000000000000000000000000000000000000000000000000000000000000\n  dup2\n  mstore\n  pop\n  dup2\n  mstore\n  pop\n    /* \"tests/task_2/task_2_3_RomanNumerals.sol\":808:847  romanSymbols.push(RomanSymbol(9, \"IX\")) */\n  swap1\n  dup1\n  0x01\n  dup2\n  sload\n  add\n  dup1\n  dup3\n  sstore\n  dup1\n  swap2\n  pop\n  pop\n  0x01\n  swap1\n  sub\n  swap1\n  0x00\n  mstore\n  keccak256(0x00, 0x20)\n  swap1\n  0x02\n  mul\n  add\n  0x00\n  swap1\n  swap2\n  swap1\n  swap2\n  swap1\n  swap2\n  pop\n  0x00\n  dup3\n  add\n  mload\n  dup2\n  0x00\n  add\n  sstore\n  0x20\n  dup3\n  add\n  mload\n  dup2\n  0x01\n  add\n  swap1\n  dup2\n  tag_24\n  swap2\n  swap1\n  tag_6\n  jump\t// in\ntag_24:\n  pop\n  pop\n  pop\n    /* \"tests/task_2/task_2_3_RomanNumerals.sol\":858:870  romanSymbols */\n  0x00\n    /* \"tests/task_2/task_2_3_RomanNumerals.sol\":876:895  RomanSymbol(5, \"V\") */\n  mload(0x40)\n  dup1\n  0x40\n  add\n  0x40\n  mstore\n  dup1\n    /* \"tests/task_2/task_2_3_RomanNumerals.sol\":888:889  5 */\n  0x05\n    /* \"tests/task_2/task_2_3_RomanNumerals.sol\":876:895  RomanSymbol(5, \"V\") */\n  dup2\n  mstore\n  0x20\n  add\n  mload(0x40)\n  dup1\n  0x40\n  add\n  0x40\n  mstore\n  dup1\n  0x01\n  dup2\n  mstore\n  0x20\n  add\n  0x5600000000000000000000000000000000000000000000000000000000000000\n  dup2\n  mstore\n  pop\n  dup2\n  mstore\n  pop\n    /* \"tests/task_2/task_2_3_RomanNumerals.sol\":858:896  romanSymbols.push(RomanSymbol(5, \"V\")) */\n  swap1\n  dup1\n  0x01\n  dup2\n  sload\n  add\n  dup1\n  dup3\n  sstore\n  dup1\n  swap2\n  pop\n  pop\n  0x01\n  swap1\n  sub\n  swap1\n  0x00\n  mstore\n  keccak256(0x00, 0x20)\n  swap1\n  0x02\n  mul\n  add\n  0x00\n  swap1\n  swap2\n  swap1\n  swap2\n  swap1\n  swap2\n  pop\n  0x00\n  dup3\n  add\n  mload\n  dup2\n  0x00\n  add\n  sstore\n  0x20\n  dup3\n  add\n  mload\n  dup2\n  0x01\n  add\n  swap1\n  dup2\n  tag_26\n  swap2\n  swap1\n  tag_6\n  jump\t// in\ntag_26:\n  pop\n  pop\n  pop\n    /* \"tests/task_2/task_2_3_RomanNumerals.sol\":907:919  romanSymbols */\n  0x00\n    /* \"tests/task_2/task_2_3_RomanNumerals.sol\":925:945  RomanSymbol(4, \"IV\") */\n  mload(0x40)\n  dup1\n  0x40\n  add\n  0x40\n  mstore\n  dup1\n    /* \"tests/task_2/task_2_3_RomanNumerals.sol\":937:938  4 */\n  0x04\n    /* \"tests/task_2/task_2_3_RomanNumerals.sol\":925:945  RomanSymbol(4, \"IV\") */\n  dup2\n  mstore\n  0x20\n  add\n  mload(0x40)\n  dup1\n  0x40\n  add\n  0x40\n  mstore\n  dup1\n  0x02\n  dup2\n  mstore\n  0x20\n  add\n  0x4956000000000000000000000000000000000000000000000000000000000000\n  dup2\n  mstore\n  pop\n  dup2\n  mstore\n  pop\n    /* \"tests/task_2/task_2_3_RomanNumerals.sol\":907:946  romanSymbols.push(RomanSymbol(4, \"IV\")) */\n  swap1\n  dup1\n  0x01\n  dup2\n  sload\n  add\n  dup1\n  dup3\n  sstore\n  dup1\n  swap2\n  pop\n  pop\n  0x01\n  swap1\n  sub\n  swap1\n  0x00\n  mstore\n  keccak256(0x00, 0x20)\n  swap1\n  0x02\n  mul\n  add\n  0x00\n  swap1\n  swap2\n  swap1\n  swap2\n  swap1\n  swap2\n  pop\n  0x00\n  dup3\n  add\n  mload\n  dup2\n  0x00\n  add\n  sstore\n  0x20\n  dup3\n  add\n  mload\n  dup2\n  0x01\n  add\n  swap1\n  dup2\n  tag_28\n  swap2\n  swap1\n  tag_6\n  jump\t// in\ntag_28:\n  pop\n  pop\n  pop\n    /* \"tests/task_2/task_2_3_RomanNumerals.sol\":957:969  romanSymbols */\n  0x00\n    /* \"tests/task_2/task_2_3_RomanNumerals.sol\":975:994  RomanSymbol(1, \"I\") */\n  mload(0x40)\n  dup1\n  0x40\n  add\n  0x40\n  mstore\n  dup1\n    /* \"tests/task_2/task_2_3_RomanNumerals.sol\":987:988  1 */\n  0x01\n    /* \"tests/task_2/task_2_3_RomanNumerals.sol\":975:994  RomanSymbol(1, \"I\") */\n  dup2\n  mstore\n  0x20\n  add\n  mload(0x40)\n  dup1\n  0x40\n  add\n  0x40\n  mstore\n  dup1\n  0x01\n  dup2\n  mstore\n  0x20\n  add\n  0x4900000000000000000000000000000000000000000000000000000000000000\n  dup2\n  mstore\n  pop\n  dup2\n  mstore\n  pop\n    /* \"tests/task_2/task_2_3_RomanNumerals.sol\":957:995  romanSymbols.push(RomanSymbol(1, \"I\")) */\n  swap1\n  dup1\n  0x01\n  dup2\n  sload\n  add\n  dup1\n  dup3\n  sstore\n  dup1\n  swap2\n  pop\n  pop\n  0x01\n  swap1\n  sub\n  swap1\n  0x00\n  mstore\n  keccak256(0x00, 0x20)\n  swap1\n  0x02\n  mul\n  add\n  0x00\n  swap1\n  swap2\n  swap1\n  swap2\n  swap1\n  swap2\n  pop\n  0x00\n  dup3\n  add\n  mload\n  dup2\n  0x00\n  add\n  sstore\n  0x20\n  dup3\n  add\n  mload\n  dup2\n  0x01\n  add\n  swap1\n  dup2\n  tag_30\n  swap2\n  swap1\n  tag_6\n  jump\t// in\ntag_30:\n  pop\n  pop\n  pop\n    /* \"tests/task_2/task_2_3_RomanNumerals.sol\":110:1637  contract RomanNumerals {... */\n  jump(tag_31)\n    /* \"#utility.yul\":7:106   */\ntag_32:\n    /* \"#utility.yul\":59:65   */\n  0x00\n    /* \"#utility.yul\":93:98   */\n  dup2\n    /* \"#utility.yul\":87:99   */\n  mload\n    /* \"#utility.yul\":77:99   */\n  swap1\n  pop\n    /* \"#utility.yul\":7:106   */\n  swap2\n  swap1\n  pop\n  jump\t// out\n    /* \"#utility.yul\":112:292   */\ntag_33:\n    /* \"#utility.yul\":160:237   */\n  0x4e487b7100000000000000000000000000000000000000000000000000000000\n    /* \"#utility.yul\":157:158   */\n  0x00\n    /* \"#utility.yul\":150:238   */\n  mstore\n    /* \"#utility.yul\":257:261   */\n  0x41\n    /* \"#utility.yul\":254:255   */\n  0x04\n    /* \"#utility.yul\":247:262   */\n  mstore\n    /* \"#utility.yul\":281:285   */\n  0x24\n    /* \"#utility.yul\":278:279   */\n  0x00\n    /* \"#utility.yul\":271:286   */\n  revert\n    /* \"#utility.yul\":298:478   */\ntag_34:\n    /* \"#utility.yul\":346:423   */\n  0x4e487b7100000000000000000000000000000000000000000000000000000000\n    /* \"#utility.yul\":343:344   */\n  0x00\n    /* \"#utility.yul\":336:424   */\n  mstore\n    /* \"#utility.yul\":443:447   */\n  0x22\n    /* \"#utility.yul\":440:441   */\n  0x04\n    /* \"#utility.yul\":433:448   */\n  mstore\n    /* \"#utility.yul\":467:471   */\n  0x24\n    /* \"#utility.yul\":464:465   */\n  0x00\n    /* \"#utility.yul\":457:472   */\n  revert\n    /* \"#utility.yul\":484:804   */\ntag_35:\n    /* \"#utility.yul\":528:534   */\n  0x00\n    /* \"#utility.yul\":565:566   */\n  0x02\n    /* \"#utility.yul\":559:563   */\n  dup3\n    /* \"#utility.yul\":555:567   */\n  div\n    /* \"#utility.yul\":545:567   */\n  swap1\n  pop\n    /* \"#utility.yul\":612:613   */\n  0x01\n    /* \"#utility.yul\":606:610   */\n  dup3\n    /* \"#utility.yul\":602:614   */\n  and\n    /* \"#utility.yul\":633:651   */\n  dup1\n    /* \"#utility.yul\":623:704   */\n  tag_57\n  jumpi\n    /* \"#utility.yul\":689:693   */\n  0x7f\n    /* \"#utility.yul\":681:687   */\n  dup3\n    /* \"#utility.yul\":677:694   */\n  and\n    /* \"#utility.yul\":667:694   */\n  swap2\n  pop\n    /* \"#utility.yul\":623:704   */\ntag_57:\n    /* \"#utility.yul\":751:753   */\n  0x20\n    /* \"#utility.yul\":743:749   */\n  dup3\n    /* \"#utility.yul\":740:754   */\n  lt\n    /* \"#utility.yul\":720:738   */\n  dup2\n    /* \"#utility.yul\":717:755   */\n  sub\n    /* \"#utility.yul\":714:798   */\n  tag_58\n  jumpi\n    /* \"#utility.yul\":770:788   */\n  tag_59\n  tag_34\n  jump\t// in\ntag_59:\n    /* \"#utility.yul\":714:798   */\ntag_58:\n    /* \"#utility.yul\":535:804   */\n  pop\n    /* \"#utility.yul\":484:804   */\n  swap2\n  swap1\n  pop\n  jump\t// out\n    /* \"#utility.yul\":810:951   */\ntag_36:\n    /* \"#utility.yul\":859:863   */\n  0x00\n    /* \"#utility.yul\":882:885   */\n  dup2\n    /* \"#utility.yul\":874:885   */\n  swap1\n  pop\n    /* \"#utility.yul\":905:908   */\n  dup2\n    /* \"#utility.yul\":902:903   */\n  0x00\n    /* \"#utility.yul\":895:909   */\n  mstore\n    /* \"#utility.yul\":939:943   */\n  0x20\n    /* \"#utility.yul\":936:937   */\n  0x00\n    /* \"#utility.yul\":926:944   */\n  keccak256\n    /* \"#utility.yul\":918:944   */\n  swap1\n  pop\n    /* \"#utility.yul\":810:951   */\n  swap2\n  swap1\n  pop\n  jump\t// out\n    /* \"#utility.yul\":957:1050   */\ntag_37:\n    /* \"#utility.yul\":994:1000   */\n  0x00\n    /* \"#utility.yul\":1041:1043   */\n  0x20\n    /* \"#utility.yul\":1036:1038   */\n  0x1f\n    /* \"#utility.yul\":1029:1034   */\n  dup4\n    /* \"#utility.yul\":1025:1039   */\n  add\n    /* \"#utility.yul\":1021:1044   */\n  div\n    /* \"#utility.yul\":1011:1044   */\n  swap1\n  pop\n    /* \"#utility.yul\":957:1050   */\n  swap2\n  swap1\n  pop\n  jump\t// out\n    /* \"#utility.yul\":1056:1163   */\ntag_38:\n    /* \"#utility.yul\":1100:1108   */\n  0x00\n    /* \"#utility.yul\":1150:1155   */\n  dup3\n    /* \"#utility.yul\":1144:1148   */\n  dup3\n    /* \"#utility.yul\":1140:1156   */\n  shl\n    /* \"#utility.yul\":1119:1156   */\n  swap1\n  pop\n    /* \"#utility.yul\":1056:1163   */\n  swap3\n  swap2\n  pop\n  pop\n  jump\t// out\n    /* \"#utility.yul\":1169:1562   */\ntag_39:\n    /* \"#utility.yul\":1238:1244   */\n  0x00\n    /* \"#utility.yul\":1288:1289   */\n  0x08\n    /* \"#utility.yul\":1276:1286   */\n  dup4\n    /* \"#utility.yul\":1272:1290   */\n  mul\n    /* \"#utility.yul\":1311:1408   */\n  tag_64\n    /* \"#utility.yul\":1341:1407   */\n  0xffffffffffffffffffffffffffffffffffffffffffffffffffffffffffffffff\n    /* \"#utility.yul\":1330:1339   */\n  dup3\n    /* \"#utility.yul\":1311:1408   */\n  tag_38\n  jump\t// in\ntag_64:\n    /* \"#utility.yul\":1429:1468   */\n  tag_65\n    /* \"#utility.yul\":1459:1467   */\n  dup7\n    /* \"#utility.yul\":1448:1457   */\n  dup4\n    /* \"#utility.yul\":1429:1468   */\n  tag_38\n  jump\t// in\ntag_65:\n    /* \"#utility.yul\":1417:1468   */\n  swap6\n  pop\n    /* \"#utility.yul\":1501:1505   */\n  dup1\n    /* \"#utility.yul\":1497:1506   */\n  not\n    /* \"#utility.yul\":1490:1495   */\n  dup5\n    /* \"#utility.yul\":1486:1507   */\n  and\n    /* \"#utility.yul\":1477:1507   */\n  swap4\n  pop\n    /* \"#utility.yul\":1550:1554   */\n  dup1\n    /* \"#utility.yul\":1540:1548   */\n  dup7\n    /* \"#utility.yul\":1536:1555   */\n  and\n    /* \"#utility.yul\":1529:1534   */\n  dup5\n    /* \"#utility.yul\":1526:1556   */\n  or\n    /* \"#utility.yul\":1516:1556   */\n  swap3\n  pop\n    /* \"#utility.yul\":1245:1562   */\n  pop\n  pop\n    /* \"#utility.yul\":1169:1562   */\n  swap4\n  swap3\n  pop\n  pop\n  pop\n  jump\t// out\n    /* \"#utility.yul\":1568:1645   */\ntag_40:\n    /* \"#utility.yul\":1605:1612   */\n  0x00\n    /* \"#utility.yul\":1634:1639   */\n  dup2\n    /* \"#utility.yul\":1623:1639   */\n  swap1\n  pop\n    /* \"#utility.yul\":1568:1645   */\n  swap2\n  swap1\n  pop\n  jump\t// out\n    /* \"#utility.yul\":1651:1711   */\ntag_41:\n    /* \"#utility.yul\":1679:1682   */\n  0x00\n    /* \"#utility.yul\":1700:1705   */\n  dup2\n    /* \"#utility.yul\":1693:1705   */\n  swap1\n  pop\n    /* \"#utility.yul\":1651:1711   */\n  swap2\n  swap1\n  pop\n  jump\t// out\n    /* \"#utility.yul\":1717:1859   */\ntag_42:\n    /* \"#utility.yul\":1767:1776   */\n  0x00\n    /* \"#utility.yul\":1800:1853   */\n  tag_69\n    /* \"#utility.yul\":1818:1852   */\n  tag_70\n    /* \"#utility.yul\":1827:1851   */\n  tag_71\n    /* \"#utility.yul\":1845:1850   */\n  dup5\n    /* \"#utility.yul\":1827:1851   */\n  tag_40\n  jump\t// in\ntag_71:\n    /* \"#utility.yul\":1818:1852   */\n  tag_41\n  jump\t// in\ntag_70:\n    /* \"#utility.yul\":1800:1853   */\n  tag_40\n  jump\t// in\ntag_69:\n    /* \"#utility.yul\":1787:1853   */\n  swap1\n  pop\n    /* \"#utility.yul\":1717:1859   */\n  swap2\n  swap1\n  pop\n  jump\t// out\n    /* \"#utility.yul\":1865:1940   */\ntag_43:\n    /* \"#utility.yul\":1908:1911   */\n  0x00\n    /* \"#utility.yul\":1929:1934   */\n  dup2\n    /* \"#utility.yul\":1922:1934   */\n  swap1\n  pop\n    /* \"#utility.yul\":1865:1940   */\n  swap2\n  swap1\n  pop\n  jump\t// out\n    /* \"#utility.yul\":1946:2215   */\ntag_44:\n    /* \"#utility.yul\":2056:2095   */\n  tag_74\n    /* \"#utility.yul\":2087:2094   */\n  dup4\n    /* \"#utility.yul\":2056:2095   */\n  tag_42\n  jump\t// in\ntag_74:\n    /* \"#utility.yul\":2117:2208   */\n  tag_75\n    /* \"#utility.yul\":2166:2207   */\n  tag_76\n    /* \"#utility.yul\":2190:2206   */\n  dup3\n    /* \"#utility.yul\":2166:2207   */\n  tag_43\n  jump\t// in\ntag_76:\n    /* \"#utility.yul\":2158:2164   */\n  dup5\n    /* \"#utility.yul\":2151:2155   */\n  dup5\n    /* \"#utility.yul\":2145:2156   */\n  sload\n    /* \"#utility.yul\":2117:2208   */\n  tag_39\n  jump\t// in\ntag_75:\n    /* \"#utility.yul\":2111:2115   */\n  dup3\n    /* \"#utility.yul\":2104:2209   */\n  sstore\n    /* \"#utility.yul\":2022:2215   */\n  pop\n    /* \"#utility.yul\":1946:2215   */\n  pop\n  pop\n  pop\n  jump\t// out\n    /* \"#utility.yul\":2221:2294   */\ntag_45:\n    /* \"#utility.yul\":2266:2269   */\n  0x00\n    /* \"#utility.yul\":2221:2294   */\n  swap1\n  jump\t// out\n    /* \"#utility.yul\":2300:2489   */\ntag_46:\n    /* \"#utility.yul\":2377:2409   */\n  tag_79\n  tag_45\n  jump\t// in\ntag_79:\n    /* \"#utility.yul\":2418:2483   */\n  tag_80\n    /* \"#utility.yul\":2476:2482   */\n  dup2\n    /* \"#utility.yul\":2468:2474   */\n  dup5\n    /* \"#utility.yul\":2462:2466   */\n  dup5\n    /* \"#utility.yul\":2418:2483   */\n  tag_44\n  jump\t// in\ntag_80:\n    /* \"#utility.yul\":2353:2489   */\n  pop\n    /* \"#utility.yul\":2300:2489   */\n  pop\n  pop\n  jump\t// out\n    /* \"#utility.yul\":2495:2681   */\ntag_47:\n    /* \"#utility.yul\":2555:2675   */\ntag_82:\n    /* \"#utility.yul\":2572:2575   */\n  dup2\n    /* \"#utility.yul\":2565:2570   */\n  dup2\n    /* \"#utility.yul\":2562:2576   */\n  lt\n    /* \"#utility.yul\":2555:2675   */\n  iszero\n  tag_84\n  jumpi\n    /* \"#utility.yul\":2626:2665   */\n  tag_85\n    /* \"#utility.yul\":2663:2664   */\n  0x00\n    /* \"#utility.yul\":2656:2661   */\n  dup3\n    /* \"#utility.yul\":2626:2665   */\n  tag_46\n  jump\t// in\ntag_85:\n    /* \"#utility.yul\":2599:2600   */\n  0x01\n    /* \"#utility.yul\":2592:2597   */\n  dup2\n    /* \"#utility.yul\":2588:2601   */\n  add\n    /* \"#utility.yul\":2579:2601   */\n  swap1\n  pop\n    /* \"#utility.yul\":2555:2675   */\n  jump(tag_82)\ntag_84:\n    /* \"#utility.yul\":2495:2681   */\n  pop\n  pop\n  jump\t// out\n    /* \"#utility.yul\":2687:3230   */\ntag_48:\n    /* \"#utility.yul\":2788:2790   */\n  0x1f\n    /* \"#utility.yul\":2783:2786   */\n  dup3\n    /* \"#utility.yul\":2780:2791   */\n  gt\n    /* \"#utility.yul\":2777:3223   */\n  iszero\n  tag_87\n  jumpi\n    /* \"#utility.yul\":2822:2860   */\n  tag_88\n    /* \"#utility.yul\":2854:2859   */\n  dup2\n    /* \"#utility.yul\":2822:2860   */\n  tag_36\n  jump\t// in\ntag_88:\n    /* \"#utility.yul\":2906:2935   */\n  tag_89\n    /* \"#utility.yul\":2924:2934   */\n  dup5\n    /* \"#utility.yul\":2906:2935   */\n  tag_37\n  jump\t// in\ntag_89:\n    /* \"#utility.yul\":2896:2904   */\n  dup2\n    /* \"#utility.yul\":2892:2936   */\n  add\n    /* \"#utility.yul\":3089:3091   */\n  0x20\n    /* \"#utility.yul\":3077:3087   */\n  dup6\n    /* \"#utility.yul\":3074:3092   */\n  lt\n    /* \"#utility.yul\":3071:3120   */\n  iszero\n  tag_90\n  jumpi\n    /* \"#utility.yul\":3110:3118   */\n  dup2\n    /* \"#utility.yul\":3095:3118   */\n  swap1\n  pop\n    /* \"#utility.yul\":3071:3120   */\ntag_90:\n    /* \"#utility.yul\":3133:3213   */\n  tag_91\n    /* \"#utility.yul\":3189:3211   */\n  tag_92\n    /* \"#utility.yul\":3207:3210   */\n  dup6\n    /* \"#utility.yul\":3189:3211   */\n  tag_37\n  jump\t// in\ntag_92:\n    /* \"#utility.yul\":3179:3187   */\n  dup4\n    /* \"#utility.yul\":3175:3212   */\n  add\n    /* \"#utility.yul\":3162:3173   */\n  dup3\n    /* \"#utility.yul\":3133:3213   */\n  tag_47\n  jump\t// in\ntag_91:\n    /* \"#utility.yul\":2792:3223   */\n  pop\n  pop\n    /* \"#utility.yul\":2777:3223   */\ntag_87:\n    /* \"#utility.yul\":2687:3230   */\n  pop\n  pop\n  pop\n  jump\t// out\n    /* \"#utility.yul\":3236:3353   */\ntag_49:\n    /* \"#utility.yul\":3290:3298   */\n  0x00\n    /* \"#utility.yul\":3340:3345   */\n  dup3\n    /* \"#utility.yul\":3334:3338   */\n  dup3\n    /* \"#utility.yul\":3330:3346   */\n  shr\n    /* \"#utility.yul\":3309:3346   */\n  swap1\n  pop\n    /* \"#utility.yul\":3236:3353   */\n  swap3\n  swap2\n  pop\n  pop\n  jump\t// out\n    /* \"#utility.yul\":3359:3528   */\ntag_50:\n    /* \"#utility.yul\":3403:3409   */\n  0x00\n    /* \"#utility.yul\":3436:3487   */\n  tag_95\n    /* \"#utility.yul\":3484:3485   */\n  0x00\n    /* \"#utility.yul\":3480:3486   */\n  not\n    /* \"#utility.yul\":3472:3477   */\n  dup5\n    /* \"#utility.yul\":3469:3470   */\n  0x08\n    /* \"#utility.yul\":3465:3478   */\n  mul\n    /* \"#utility.yul\":3436:3487   */\n  tag_49\n  jump\t// in\ntag_95:\n    /* \"#utility.yul\":3432:3488   */\n  not\n    /* \"#utility.yul\":3517:3521   */\n  dup1\n    /* \"#utility.yul\":3511:3515   */\n  dup4\n    /* \"#utility.yul\":3507:3522   */\n  and\n    /* \"#utility.yul\":3497:3522   */\n  swap2\n  pop\n    /* \"#utility.yul\":3410:3528   */\n  pop\n    /* \"#utility.yul\":3359:3528   */\n  swap3\n  swap2\n  pop\n  pop\n  jump\t// out\n    /* \"#utility.yul\":3533:3828   */\ntag_51:\n    /* \"#utility.yul\":3609:3613   */\n  0x00\n    /* \"#utility.yul\":3755:3784   */\n  tag_97\n    /* \"#utility.yul\":3780:3783   */\n  dup4\n    /* \"#utility.yul\":3774:3778   */\n  dup4\n    /* \"#utility.yul\":3755:3784   */\n  tag_50\n  jump\t// in\ntag_97:\n    /* \"#utility.yul\":3747:3784   */\n  swap2\n  pop\n    /* \"#utility.yul\":3817:3820   */\n  dup3\n    /* \"#utility.yul\":3814:3815   */\n  0x02\n    /* \"#utility.yul\":3810:3821   */\n  mul\n    /* \"#utility.yul\":3804:3808   */\n  dup3\n    /* \"#utility.yul\":3801:3822   */\n  or\n    /* \"#utility.yul\":3793:3822   */\n  swap1\n  pop\n    /* \"#utility.yul\":3533:3828   */\n  swap3\n  swap2\n  pop\n  pop\n  jump\t// out\n    /* \"#utility.yul\":3833:5228   */\ntag_6:\n    /* \"#utility.yul\":3950:3987   */\n  tag_99\n    /* \"#utility.yul\":3983:3986   */\n  dup3\n    /* \"#utility.yul\":3950:3987   */\n  tag_32\n  jump\t// in\ntag_99:\n    /* \"#utility.yul\":4052:4070   */\n  0xffffffffffffffff\n    /* \"#utility.yul\":4044:4050   */\n  dup2\n    /* \"#utility.yul\":4041:4071   */\n  gt\n    /* \"#utility.yul\":4038:4094   */\n  iszero\n  tag_100\n  jumpi\n    /* \"#utility.yul\":4074:4092   */\n  tag_101\n  tag_33\n  jump\t// in\ntag_101:\n    /* \"#utility.yul\":4038:4094   */\ntag_100:\n    /* \"#utility.yul\":4118:4156   */\n  tag_102\n    /* \"#utility.yul\":4150:4154   */\n  dup3\n    /* \"#utility.yul\":4144:4155   */\n  sload\n    /* \"#utility.yul\":4118:4156   */\n  tag_35\n  jump\t// in\ntag_102:\n    /* \"#utility.yul\":4203:4270   */\n  tag_103\n    /* \"#utility.yul\":4263:4269   */\n  dup3\n    /* \"#utility.yul\":4255:4261   */\n  dup3\n    /* \"#utility.yul\":4249:4253   */\n  dup6\n    /* \"#utility.yul\":4203:4270   */\n  tag_48\n  jump\t// in\ntag_103:\n    /* \"#utility.yul\":4297:4298   */\n  0x00\n    /* \"#utility.yul\":4321:4325   */\n  0x20\n    /* \"#utility.yul\":4308:4325   */\n  swap1\n  pop\n    /* \"#utility.yul\":4353:4355   */\n  0x1f\n    /* \"#utility.yul\":4345:4351   */\n  dup4\n    /* \"#utility.yul\":4342:4356   */\n  gt\n    /* \"#utility.yul\":4370:4371   */\n  0x01\n    /* \"#utility.yul\":4365:4983   */\n  dup2\n  eq\n  tag_105\n  jumpi\n    /* \"#utility.yul\":5027:5028   */\n  0x00\n    /* \"#utility.yul\":5044:5050   */\n  dup5\n    /* \"#utility.yul\":5041:5118   */\n  iszero\n  tag_106\n  jumpi\n    /* \"#utility.yul\":5093:5102   */\n  dup3\n    /* \"#utility.yul\":5088:5091   */\n  dup8\n    /* \"#utility.yul\":5084:5103   */\n  add\n    /* \"#utility.yul\":5078:5104   */\n  mload\n    /* \"#utility.yul\":5069:5104   */\n  swap1\n  pop\n    /* \"#utility.yul\":5041:5118   */\ntag_106:\n    /* \"#utility.yul\":5144:5211   */\n  tag_107\n    /* \"#utility.yul\":5204:5210   */\n  dup6\n    /* \"#utility.yul\":5197:5202   */\n  dup3\n    /* \"#utility.yul\":5144:5211   */\n  tag_51\n  jump\t// in\ntag_107:\n    /* \"#utility.yul\":5138:5142   */\n  dup7\n    /* \"#utility.yul\":5131:5212   */\n  sstore\n    /* \"#utility.yul\":5000:5222   */\n  pop\n    /* \"#utility.yul\":4335:5222   */\n  jump(tag_104)\n    /* \"#utility.yul\":4365:4983   */\ntag_105:\n    /* \"#utility.yul\":4417:4421   */\n  0x1f\n    /* \"#utility.yul\":4413:4422   */\n  not\n    /* \"#utility.yul\":4405:4411   */\n  dup5\n    /* \"#utility.yul\":4401:4423   */\n  and\n    /* \"#utility.yul\":4451:4488   */\n  tag_108\n    /* \"#utility.yul\":4483:4487   */\n  dup7\n    /* \"#utility.yul\":4451:4488   */\n  tag_36\n  jump\t// in\ntag_108:\n    /* \"#utility.yul\":4510:4511   */\n  0x00\n    /* \"#utility.yul\":4524:4732   */\ntag_109:\n    /* \"#utility.yul\":4538:4545   */\n  dup3\n    /* \"#utility.yul\":4535:4536   */\n  dup2\n    /* \"#utility.yul\":4532:4546   */\n  lt\n    /* \"#utility.yul\":4524:4732   */\n  iszero\n  tag_111\n  jumpi\n    /* \"#utility.yul\":4617:4626   */\n  dup5\n    /* \"#utility.yul\":4612:4615   */\n  dup10\n    /* \"#utility.yul\":4608:4627   */\n  add\n    /* \"#utility.yul\":4602:4628   */\n  mload\n    /* \"#utility.yul\":4594:4600   */\n  dup3\n    /* \"#utility.yul\":4587:4629   */\n  sstore\n    /* \"#utility.yul\":4668:4669   */\n  0x01\n    /* \"#utility.yul\":4660:4666   */\n  dup3\n    /* \"#utility.yul\":4656:4670   */\n  add\n    /* \"#utility.yul\":4646:4670   */\n  swap2\n  pop\n    /* \"#utility.yul\":4715:4717   */\n  0x20\n    /* \"#utility.yul\":4704:4713   */\n  dup6\n    /* \"#utility.yul\":4700:4718   */\n  add\n    /* \"#utility.yul\":4687:4718   */\n  swap5\n  pop\n    /* \"#utility.yul\":4561:4565   */\n  0x20\n    /* \"#utility.yul\":4558:4559   */\n  dup2\n    /* \"#utility.yul\":4554:4566   */\n  add\n    /* \"#utility.yul\":4549:4566   */\n  swap1\n  pop\n    /* \"#utility.yul\":4524:4732   */\n  jump(tag_109)\ntag_111:\n    /* \"#utility.yul\":4760:4766   */\n  dup7\n    /* \"#utility.yul\":4751:4758   */\n  dup4\n    /* \"#utility.yul\":4748:4767   */\n  lt\n    /* \"#utility.yul\":4745:4924   */\n  iszero\n  tag_112\n  jumpi\n    /* \"#utility.yul\":4818:4827   */\n  dup5\n    /* \"#utility.yul\":4813:4816   */\n  dup10\n    /* \"#utility.yul\":4809:4828   */\n  add\n    /* \"#utility.yul\":4803:4829   */\n  mload\n    /* \"#utility.yul\":4861:4909   */\n  tag_113\n    /* \"#utility.yul\":4903:4907   */\n  0x1f\n    /* \"#utility.yul\":4895:4901   */\n  dup10\n    /* \"#utility.yul\":4891:4908   */\n  and\n    /* \"#utility.yul\":4880:4889   */\n  dup3\n    /* \"#utility.yul\":4861:4909   */\n  tag_50\n  jump\t// in\ntag_113:\n    /* \"#utility.yul\":4853:4859   */\n  dup4\n    /* \"#utility.yul\":4846:4910   */\n  sstore\n    /* \"#utility.yul\":4768:4924   */\n  pop\n    /* \"#utility.yul\":4745:4924   */\ntag_112:\n    /* \"#utility.yul\":4970:4971   */\n  0x01\n    /* \"#utility.yul\":4966:4967   */\n  0x02\n    /* \"#utility.yul\":4958:4964   */\n  dup9\n    /* \"#utility.yul\":4954:4968   */\n  mul\n    /* \"#utility.yul\":4950:4972   */\n  add\n    /* \"#utility.yul\":4944:4948   */\n  dup9\n    /* \"#utility.yul\":4937:4973   */\n  sstore\n    /* \"#utility.yul\":4372:4983   */\n  pop\n  pop\n  pop\n    /* \"#utility.yul\":4335:5222   */\ntag_104:\n  pop\n    /* \"#utility.yul\":3925:5228   */\n  pop\n  pop\n  pop\n    /* \"#utility.yul\":3833:5228   */\n  pop\n  pop\n  jump\t// out\n    /* \"tests/task_2/task_2_3_RomanNumerals.sol\":110:1637  contract RomanNumerals {... */\ntag_31:\n  dataSize(sub_0)\n  dup1\n  dataOffset(sub_0)\n  0x00\n  codecopy\n  0x00\n  return\nstop\n\nsub_0: assembly {\n        /* \"tests/task_2/task_2_3_RomanNumerals.sol\":110:1637  contract RomanNumerals {... */\n      mstore(0x40, 0x80)\n      callvalue\n      dup1\n      iszero\n      tag_1\n      jumpi\n      0x00\n      dup1\n      revert\n    tag_1:\n      pop\n      jumpi(tag_2, lt(calldatasize, 0x04))\n      shr(0xe0, calldataload(0x00))\n      dup1\n      0xab7baabe\n      eq\n      tag_3\n      jumpi\n    tag_2:\n      0x00\n      dup1\n      revert\n        /* \"tests/task_2/task_2_3_RomanNumerals.sol\":1010:1624  function toRoman(uint256 num) public view returns (string memory) {... */\n    tag_3:\n      tag_4\n      0x04\n      dup1\n      calldatasize\n      sub\n      dup2\n      add\n      swap1\n      tag_5\n      swap2\n      swap1\n      tag_6\n      jump\t// in\n    tag_5:\n      tag_7\n      jump\t// in\n    tag_4:\n      mload(0x40)\n      tag_8\n      swap2\n      swap1\n      tag_9\n      jump\t// in\n    tag_8:\n      mload(0x40)\n      dup1\n      swap2\n      sub\n      swap1\n      return\n    tag_7:\n        /* \"tests/task_2/task_2_3_RomanNumerals.sol\":1061:1074  string memory */\n      0x60\n        /* \"tests/task_2/task_2_3_RomanNumerals.sol\":1101:1102  0 */\n      0x00\n        /* \"tests/task_2/task_2_3_RomanNumerals.sol\":1095:1098  num */\n      dup3\n        /* \"tests/task_2/task_2_3_RomanNumerals.sol\":1095:1102  num > 0 */\n      gt\n        /* \"tests/task_2/task_2_3_RomanNumerals.sol\":1095:1116  num > 0 && num < 4000 */\n      dup1\n      iszero\n      tag_11\n      jumpi\n      pop\n        /* \"tests/task_2/task_2_3_RomanNumerals.sol\":1112:1116  4000 */\n      0x0fa0\n        /* \"tests/task_2/task_2_3_RomanNumerals.sol\":1106:1109  num */\n      dup3\n        /* \"tests/task_2/task_2_3_RomanNumerals.sol\":1106:1116  num < 4000 */\n      lt\n        /* \"tests/task_2/task_2_3_RomanNumerals.sol\":1095:1116  num > 0 && num < 4000 */\n    tag_11:\n        /* \"tests/task_2/task_2_3_RomanNumerals.sol\":1087:1149  require(num > 0 && num < 4000, \"Number out of range (1-3999)\") */\n      tag_12\n      jumpi\n      mload(0x40)\n      0x08c379a000000000000000000000000000000000000000000000000000000000\n      dup2\n      mstore\n      0x04\n      add\n      tag_13\n      swap1\n      tag_14\n      jump\t// in\n    tag_13:\n      mload(0x40)\n      dup1\n      swap2\n      sub\n      swap1\n      revert\n    tag_12:\n        /* \"tests/task_2/task_2_3_RomanNumerals.sol\":1170:1188  bytes memory roman */\n      0x60\n        /* \"tests/task_2/task_2_3_RomanNumerals.sol\":1199:1216  uint256 remaining */\n      0x00\n        /* \"tests/task_2/task_2_3_RomanNumerals.sol\":1219:1222  num */\n      dup4\n        /* \"tests/task_2/task_2_3_RomanNumerals.sol\":1199:1222  uint256 remaining = num */\n      swap1\n      pop\n        /* \"tests/task_2/task_2_3_RomanNumerals.sol\":1298:1307  uint256 i */\n      0x00\n        /* \"tests/task_2/task_2_3_RomanNumerals.sol\":1293:1586  for (uint256 i = 0; i < romanSymbols.length; i++) {... */\n    tag_15:\n        /* \"tests/task_2/task_2_3_RomanNumerals.sol\":1317:1329  romanSymbols */\n      0x00\n        /* \"tests/task_2/task_2_3_RomanNumerals.sol\":1317:1336  romanSymbols.length */\n      dup1\n      sload\n      swap1\n      pop\n        /* \"tests/task_2/task_2_3_RomanNumerals.sol\":1313:1314  i */\n      dup2\n        /* \"tests/task_2/task_2_3_RomanNumerals.sol\":1313:1336  i < romanSymbols.length */\n      lt\n        /* \"tests/task_2/task_2_3_RomanNumerals.sol\":1293:1586  for (uint256 i = 0; i < romanSymbols.length; i++) {... */\n      iszero\n      tag_16\n      jumpi\n        /* \"tests/task_2/task_2_3_RomanNumerals.sol\":1358:1383  RomanSymbol memory symbol */\n      0x00\n        /* \"tests/task_2/task_2_3_RomanNumerals.sol\":1386:1398  romanSymbols */\n      dup1\n        /* \"tests/task_2/task_2_3_RomanNumerals.sol\":1399:1400  i */\n      dup3\n        /* \"tests/task_2/task_2_3_RomanNumerals.sol\":1386:1401  romanSymbols[i] */\n      dup2\n      sload\n      dup2\n      lt\n      tag_18\n      jumpi\n      tag_19\n      tag_20\n      jump\t// in\n    tag_19:\n    tag_18:\n      swap1\n      0x00\n      mstore\n      keccak256(0x00, 0x20)\n      swap1\n      0x02\n      mul\n      add\n        /* \"tests/task_2/task_2_3_RomanNumerals.sol\":1358:1401  RomanSymbol memory symbol = romanSymbols[i] */\n      mload(0x40)\n      dup1\n      0x40\n      add\n      0x40\n      mstore\n      swap1\n      dup2\n      0x00\n      dup3\n      add\n      sload\n      dup2\n      mstore\n      0x20\n      add\n      0x01\n      dup3\n      add\n      dup1\n      sload\n      tag_22\n      swap1\n      tag_23\n      jump\t// in\n    tag_22:\n      dup1\n      0x1f\n      add\n      0x20\n      dup1\n      swap2\n      div\n      mul\n      0x20\n      add\n      mload(0x40)\n      swap1\n      dup2\n      add\n      0x40\n      mstore\n      dup1\n      swap3\n      swap2\n      swap1\n      dup2\n      dup2\n      mstore\n      0x20\n      add\n      dup3\n      dup1\n      sload\n      tag_24\n      swap1\n      tag_23\n      jump\t// in\n    tag_24:\n      dup1\n      iszero\n      tag_25\n      jumpi\n      dup1\n      0x1f\n      lt\n      tag_26\n      jumpi\n      0x0100\n      dup1\n      dup4\n      sload\n      div\n      mul\n      dup4\n      mstore\n      swap2\n      0x20\n      add\n      swap2\n      jump(tag_25)\n    tag_26:\n      dup3\n      add\n      swap2\n      swap1\n      0x00\n      mstore\n      keccak256(0x00, 0x20)\n      swap1\n    tag_27:\n      dup2\n      sload\n      dup2\n      mstore\n      swap1\n      0x01\n      add\n      swap1\n      0x20\n      add\n      dup1\n      dup4\n      gt\n      tag_27\n      jumpi\n      dup3\n      swap1\n      sub\n      0x1f\n      and\n      dup3\n      add\n      swap2\n    tag_25:\n      pop\n      pop\n      pop\n      pop\n      pop\n      dup2\n      mstore\n      pop\n      pop\n      swap1\n      pop\n        /* \"tests/task_2/task_2_3_RomanNumerals.sol\":1416:1575  while (remaining >= symbol.value) {... */\n    tag_28:\n        /* \"tests/task_2/task_2_3_RomanNumerals.sol\":1436:1442  symbol */\n      dup1\n        /* \"tests/task_2/task_2_3_RomanNumerals.sol\":1436:1448  symbol.value */\n      0x00\n      add\n      mload\n        /* \"tests/task_2/task_2_3_RomanNumerals.sol\":1423:1432  remaining */\n      dup4\n        /* \"tests/task_2/task_2_3_RomanNumerals.sol\":1423:1448  remaining >= symbol.value */\n      lt\n        /* \"tests/task_2/task_2_3_RomanNumerals.sol\":1416:1575  while (remaining >= symbol.value) {... */\n      tag_29\n      jumpi\n        /* \"tests/task_2/task_2_3_RomanNumerals.sol\":1494:1499  roman */\n      dup4\n        /* \"tests/task_2/task_2_3_RomanNumerals.sol\":1501:1507  symbol */\n      dup2\n        /* \"tests/task_2/task_2_3_RomanNumerals.sol\":1501:1514  symbol.symbol */\n      0x20\n      add\n      mload\n        /* \"tests/task_2/task_2_3_RomanNumerals.sol\":1477:1515  abi.encodePacked(roman, symbol.symbol) */\n      add(0x20, mload(0x40))\n      tag_30\n      swap3\n      swap2\n      swap1\n      tag_31\n      jump\t// in\n    tag_30:\n      mload(0x40)\n      0x20\n      dup2\n      dup4\n      sub\n      sub\n      dup2\n      mstore\n      swap1\n      0x40\n      mstore\n        /* \"tests/task_2/task_2_3_RomanNumerals.sol\":1469:1515  roman = abi.encodePacked(roman, symbol.symbol) */\n      swap4\n      pop\n        /* \"tests/task_2/task_2_3_RomanNumerals.sol\":1547:1553  symbol */\n      dup1\n        /* \"tests/task_2/task_2_3_RomanNumerals.sol\":1547:1559  symbol.value */\n      0x00\n      add\n      mload\n        /* \"tests/task_2/task_2_3_RomanNumerals.sol\":1534:1559  remaining -= symbol.value */\n      dup4\n      tag_32\n      swap2\n      swap1\n      tag_33\n      jump\t// in\n    tag_32:\n      swap3\n      pop\n        /* \"tests/task_2/task_2_3_RomanNumerals.sol\":1416:1575  while (remaining >= symbol.value) {... */\n      jump(tag_28)\n    tag_29:\n        /* \"tests/task_2/task_2_3_RomanNumerals.sol\":1343:1586  {... */\n      pop\n        /* \"tests/task_2/task_2_3_RomanNumerals.sol\":1338:1341  i++ */\n      dup1\n      dup1\n      0x01\n      add\n      swap2\n      pop\n      pop\n        /* \"tests/task_2/task_2_3_RomanNumerals.sol\":1293:1586  for (uint256 i = 0; i < romanSymbols.length; i++) {... */\n      jump(tag_15)\n    tag_16:\n      pop\n        /* \"tests/task_2/task_2_3_RomanNumerals.sol\":1610:1615  roman */\n      dup2\n        /* \"tests/task_2/task_2_3_RomanNumerals.sol\":1596:1616  return string(roman) */\n      swap3\n      pop\n      pop\n      pop\n        /* \"tests/task_2/task_2_3_RomanNumerals.sol\":1010:1624  function toRoman(uint256 num) public view returns (string memory) {... */\n      swap2\n      swap1\n      pop\n      jump\t// out\n        /* \"#utility.yul\":88:205   */\n    tag_35:\n        /* \"#utility.yul\":197:198   */\n      0x00\n        /* \"#utility.yul\":194:195   */\n      dup1\n        /* \"#utility.yul\":187:199   */\n      revert\n        /* \"#utility.yul\":334:411   */\n    tag_37:\n        /* \"#utility.yul\":371:378   */\n      0x00\n        /* \"#utility.yul\":400:405   */\n      dup2\n        /* \"#utility.yul\":389:405   */\n      swap1\n      pop\n        /* \"#utility.yul\":334:411   */\n      swap2\n      swap1\n      pop\n      jump\t// out\n        /* \"#utility.yul\":417:539   */\n    tag_38:\n        /* \"#utility.yul\":490:514   */\n      tag_60\n        /* \"#utility.yul\":508:513   */\n      dup2\n        /* \"#utility.yul\":490:514   */\n      tag_37\n      jump\t// in\n    tag_60:\n        /* \"#utility.yul\":483:488   */\n      dup2\n        /* \"#utility.yul\":480:515   */\n      eq\n        /* \"#utility.yul\":470:533   */\n      tag_61\n      jumpi\n        /* \"#utility.yul\":529:530   */\n      0x00\n        /* \"#utility.yul\":526:527   */\n      dup1\n        /* \"#utility.yul\":519:531   */\n      revert\n        /* \"#utility.yul\":470:533   */\n    tag_61:\n        /* \"#utility.yul\":417:539   */\n      pop\n      jump\t// out\n        /* \"#utility.yul\":545:684   */\n    tag_39:\n        /* \"#utility.yul\":591:596   */\n      0x00\n        /* \"#utility.yul\":629:635   */\n      dup2\n        /* \"#utility.yul\":616:636   */\n      calldataload\n        /* \"#utility.yul\":607:636   */\n      swap1\n      pop\n        /* \"#utility.yul\":645:678   */\n      tag_63\n        /* \"#utility.yul\":672:677   */\n      dup2\n        /* \"#utility.yul\":645:678   */\n      tag_38\n      jump\t// in\n    tag_63:\n        /* \"#utility.yul\":545:684   */\n      swap3\n      swap2\n      pop\n      pop\n      jump\t// out\n        /* \"#utility.yul\":690:1019   */\n    tag_6:\n        /* \"#utility.yul\":749:755   */\n      0x00\n        /* \"#utility.yul\":798:800   */\n      0x20\n        /* \"#utility.yul\":786:795   */\n      dup3\n        /* \"#utility.yul\":777:784   */\n      dup5\n        /* \"#utility.yul\":773:796   */\n      sub\n        /* \"#utility.yul\":769:801   */\n      slt\n        /* \"#utility.yul\":766:885   */\n      iszero\n      tag_65\n      jumpi\n        /* \"#utility.yul\":804:883   */\n      tag_66\n      tag_35\n      jump\t// in\n    tag_66:\n        /* \"#utility.yul\":766:885   */\n    tag_65:\n        /* \"#utility.yul\":924:925   */\n      0x00\n        /* \"#utility.yul\":949:1002   */\n      tag_67\n        /* \"#utility.yul\":994:1001   */\n      dup5\n        /* \"#utility.yul\":985:991   */\n      dup3\n        /* \"#utility.yul\":974:983   */\n      dup6\n        /* \"#utility.yul\":970:992   */\n      add\n        /* \"#utility.yul\":949:1002   */\n      tag_39\n      jump\t// in\n    tag_67:\n        /* \"#utility.yul\":939:1002   */\n      swap2\n      pop\n        /* \"#utility.yul\":895:1012   */\n      pop\n        /* \"#utility.yul\":690:1019   */\n      swap3\n      swap2\n      pop\n      pop\n      jump\t// out\n        /* \"#utility.yul\":1025:1124   */\n    tag_40:\n        /* \"#utility.yul\":1077:1083   */\n      0x00\n        /* \"#utility.yul\":1111:1116   */\n      dup2\n        /* \"#utility.yul\":1105:1117   */\n      mload\n        /* \"#utility.yul\":1095:1117   */\n      swap1\n      pop\n        /* \"#utility.yul\":1025:1124   */\n      swap2\n      swap1\n      pop\n      jump\t// out\n        /* \"#utility.yul\":1130:1299   */\n    tag_41:\n        /* \"#utility.yul\":1214:1225   */\n      0x00\n        /* \"#utility.yul\":1248:1254   */\n      dup3\n        /* \"#utility.yul\":1243:1246   */\n      dup3\n        /* \"#utility.yul\":1236:1255   */\n      mstore\n        /* \"#utility.yul\":1288:1292   */\n      0x20\n        /* \"#utility.yul\":1283:1286   */\n      dup3\n        /* \"#utility.yul\":1279:1293   */\n      add\n        /* \"#utility.yul\":1264:1293   */\n      swap1\n      pop\n        /* \"#utility.yul\":1130:1299   */\n      swap3\n      swap2\n      pop\n      pop\n      jump\t// out\n        /* \"#utility.yul\":1305:1551   */\n    tag_42:\n        /* \"#utility.yul\":1386:1387   */\n      0x00\n        /* \"#utility.yul\":1396:1509   */\n    tag_71:\n        /* \"#utility.yul\":1410:1416   */\n      dup4\n        /* \"#utility.yul\":1407:1408   */\n      dup2\n        /* \"#utility.yul\":1404:1417   */\n      lt\n        /* \"#utility.yul\":1396:1509   */\n      iszero\n      tag_73\n      jumpi\n        /* \"#utility.yul\":1495:1496   */\n      dup1\n        /* \"#utility.yul\":1490:1493   */\n      dup3\n        /* \"#utility.yul\":1486:1497   */\n      add\n        /* \"#utility.yul\":1480:1498   */\n      mload\n        /* \"#utility.yul\":1476:1477   */\n      dup2\n        /* \"#utility.yul\":1471:1474   */\n      dup5\n        /* \"#utility.yul\":1467:1478   */\n      add\n        /* \"#utility.yul\":1460:1499   */\n      mstore\n        /* \"#utility.yul\":1432:1434   */\n      0x20\n        /* \"#utility.yul\":1429:1430   */\n      dup2\n        /* \"#utility.yul\":1425:1435   */\n      add\n        /* \"#utility.yul\":1420:1435   */\n      swap1\n      pop\n        /* \"#utility.yul\":1396:1509   */\n      jump(tag_71)\n    tag_73:\n        /* \"#utility.yul\":1543:1544   */\n      0x00\n        /* \"#utility.yul\":1534:1540   */\n      dup5\n        /* \"#utility.yul\":1529:1532   */\n      dup5\n        /* \"#utility.yul\":1525:1541   */\n      add\n        /* \"#utility.yul\":1518:1545   */\n      mstore\n        /* \"#utility.yul\":1367:1551   */\n      pop\n        /* \"#utility.yul\":1305:1551   */\n      pop\n      pop\n      pop\n      jump\t// out\n        /* \"#utility.yul\":1557:1659   */\n    tag_43:\n        /* \"#utility.yul\":1598:1604   */\n      0x00\n        /* \"#utility.yul\":1649:1651   */\n      0x1f\n        /* \"#utility.yul\":1645:1652   */\n      not\n        /* \"#utility.yul\":1640:1642   */\n      0x1f\n        /* \"#utility.yul\":1633:1638   */\n      dup4\n        /* \"#utility.yul\":1629:1643   */\n      add\n        /* \"#utility.yul\":1625:1653   */\n      and\n        /* \"#utility.yul\":1615:1653   */\n      swap1\n      pop\n        /* \"#utility.yul\":1557:1659   */\n      swap2\n      swap1\n      pop\n      jump\t// out\n        /* \"#utility.yul\":1665:2042   */\n    tag_44:\n        /* \"#utility.yul\":1753:1756   */\n      0x00\n        /* \"#utility.yul\":1781:1820   */\n      tag_76\n        /* \"#utility.yul\":1814:1819   */\n      dup3\n        /* \"#utility.yul\":1781:1820   */\n      tag_40\n      jump\t// in\n    tag_76:\n        /* \"#utility.yul\":1836:1907   */\n      tag_77\n        /* \"#utility.yul\":1900:1906   */\n      dup2\n        /* \"#utility.yul\":1895:1898   */\n      dup6\n        /* \"#utility.yul\":1836:1907   */\n      tag_41\n      jump\t// in\n    tag_77:\n        /* \"#utility.yul\":1829:1907   */\n      swap4\n      pop\n        /* \"#utility.yul\":1916:1981   */\n      tag_78\n        /* \"#utility.yul\":1974:1980   */\n      dup2\n        /* \"#utility.yul\":1969:1972   */\n      dup6\n        /* \"#utility.yul\":1962:1966   */\n      0x20\n        /* \"#utility.yul\":1955:1960   */\n      dup7\n        /* \"#utility.yul\":1951:1967   */\n      add\n        /* \"#utility.yul\":1916:1981   */\n      tag_42\n      jump\t// in\n    tag_78:\n        /* \"#utility.yul\":2006:2035   */\n      tag_79\n        /* \"#utility.yul\":2028:2034   */\n      dup2\n        /* \"#utility.yul\":2006:2035   */\n      tag_43\n      jump\t// in\n    tag_79:\n        /* \"#utility.yul\":2001:2004   */\n      dup5\n        /* \"#utility.yul\":1997:2036   */\n      add\n        /* \"#utility.yul\":1990:2036   */\n      swap2\n      pop\n        /* \"#utility.yul\":1757:2042   */\n      pop\n        /* \"#utility.yul\":1665:2042   */\n      swap3\n      swap2\n      pop\n      pop\n      jump\t// out\n        /* \"#utility.yul\":2048:2361   */\n    tag_9:\n        /* \"#utility.yul\":2161:2165   */\n      0x00\n        /* \"#utility.yul\":2199:2201   */\n      0x20\n        /* \"#utility.yul\":2188:2197   */\n      dup3\n        /* \"#utility.yul\":2184:2202   */\n      add\n        /* \"#utility.yul\":2176:2202   */\n      swap1\n      pop\n        /* \"#utility.yul\":2248:2257   */\n      dup2\n        /* \"#utility.yul\":2242:2246   */\n      dup2\n        /* \"#utility.yul\":2238:2258   */\n      sub\n        /* \"#utility.yul\":2234:2235   */\n      0x00\n        /* \"#utility.yul\":2223:2232   */\n      dup4\n        /* \"#utility.yul\":2219:2236   */\n      add\n        /* \"#utility.yul\":2212:2259   */\n      mstore\n        /* \"#utility.yul\":2276:2354   */\n      tag_81\n        /* \"#utility.yul\":2349:2353   */\n      dup2\n        /* \"#utility.yul\":2340:2346   */\n      dup5\n        /* \"#utility.yul\":2276:2354   */\n      tag_44\n      jump\t// in\n    tag_81:\n        /* \"#utility.yul\":2268:2354   */\n      swap1\n      pop\n        /* \"#utility.yul\":2048:2361   */\n      swap3\n      swap2\n      pop\n      pop\n      jump\t// out\n        /* \"#utility.yul\":2367:2545   */\n    tag_45:\n        /* \"#utility.yul\":2507:2537   */\n      0x4e756d626572206f7574206f662072616e67652028312d333939392900000000\n        /* \"#utility.yul\":2503:2504   */\n      0x00\n        /* \"#utility.yul\":2495:2501   */\n      dup3\n        /* \"#utility.yul\":2491:2505   */\n      add\n        /* \"#utility.yul\":2484:2538   */\n      mstore\n        /* \"#utility.yul\":2367:2545   */\n      pop\n      jump\t// out\n        /* \"#utility.yul\":2551:2917   */\n    tag_46:\n        /* \"#utility.yul\":2693:2696   */\n      0x00\n        /* \"#utility.yul\":2714:2781   */\n      tag_84\n        /* \"#utility.yul\":2778:2780   */\n      0x1c\n        /* \"#utility.yul\":2773:2776   */\n      dup4\n        /* \"#utility.yul\":2714:2781   */\n      tag_41\n      jump\t// in\n    tag_84:\n        /* \"#utility.yul\":2707:2781   */\n      swap2\n      pop\n        /* \"#utility.yul\":2790:2883   */\n      tag_85\n        /* \"#utility.yul\":2879:2882   */\n      dup3\n        /* \"#utility.yul\":2790:2883   */\n      tag_45\n      jump\t// in\n    tag_85:\n        /* \"#utility.yul\":2908:2910   */\n      0x20\n        /* \"#utility.yul\":2903:2906   */\n      dup3\n        /* \"#utility.yul\":2899:2911   */\n      add\n        /* \"#utility.yul\":2892:2911   */\n      swap1\n      pop\n        /* \"#utility.yul\":2551:2917   */\n      swap2\n      swap1\n      pop\n      jump\t// out\n        /* \"#utility.yul\":2923:3342   */\n    tag_14:\n        /* \"#utility.yul\":3089:3093   */\n      0x00\n        /* \"#utility.yul\":3127:3129   */\n      0x20\n        /* \"#utility.yul\":3116:3125   */\n      dup3\n        /* \"#utility.yul\":3112:3130   */\n      add\n        /* \"#utility.yul\":3104:3130   */\n      swap1\n      pop\n        /* \"#utility.yul\":3176:3185   */\n      dup2\n        /* \"#utility.yul\":3170:3174   */\n      dup2\n        /* \"#utility.yul\":3166:3186   */\n      sub\n        /* \"#utility.yul\":3162:3163   */\n      0x00\n        /* \"#utility.yul\":3151:3160   */\n      dup4\n        /* \"#utility.yul\":3147:3164   */\n      add\n        /* \"#utility.yul\":3140:3187   */\n      mstore\n        /* \"#utility.yul\":3204:3335   */\n      tag_87\n        /* \"#utility.yul\":3330:3334   */\n      dup2\n        /* \"#utility.yul\":3204:3335   */\n      tag_46\n      jump\t// in\n    tag_87:\n        /* \"#utility.yul\":3196:3335   */\n      swap1\n      pop\n        /* \"#utility.yul\":2923:3342   */\n      swap2\n      swap1\n      pop\n      jump\t// out\n        /* \"#utility.yul\":3348:3528   */\n    tag_20:\n        /* \"#utility.yul\":3396:3473   */\n      0x4e487b7100000000000000000000000000000000000000000000000000000000\n        /* \"#utility.yul\":3393:3394   */\n      0x00\n        /* \"#utility.yul\":3386:3474   */\n      mstore\n        /* \"#utility.yul\":3493:3497   */\n      0x32\n        /* \"#utility.yul\":3490:3491   */\n      0x04\n        /* \"#utility.yul\":3483:3498   */\n      mstore\n        /* \"#utility.yul\":3517:3521   */\n      0x24\n        /* \"#utility.yul\":3514:3515   */\n      0x00\n        /* \"#utility.yul\":3507:3522   */\n      revert\n        /* \"#utility.yul\":3534:3714   */\n    tag_47:\n        /* \"#utility.yul\":3582:3659   */\n      0x4e487b7100000000000000000000000000000000000000000000000000000000\n        /* \"#utility.yul\":3579:3580   */\n      0x00\n        /* \"#utility.yul\":3572:3660   */\n      mstore\n        /* \"#utility.yul\":3679:3683   */\n      0x22\n        /* \"#utility.yul\":3676:3677   */\n      0x04\n        /* \"#utility.yul\":3669:3684   */\n      mstore\n        /* \"#utility.yul\":3703:3707   */\n      0x24\n        /* \"#utility.yul\":3700:3701   */\n      0x00\n        /* \"#utility.yul\":3693:3708   */\n      revert\n        /* \"#utility.yul\":3720:4040   */\n    tag_23:\n        /* \"#utility.yul\":3764:3770   */\n      0x00\n        /* \"#utility.yul\":3801:3802   */\n      0x02\n        /* \"#utility.yul\":3795:3799   */\n      dup3\n        /* \"#utility.yul\":3791:3803   */\n      div\n        /* \"#utility.yul\":3781:3803   */\n      swap1\n      pop\n        /* \"#utility.yul\":3848:3849   */\n      0x01\n        /* \"#utility.yul\":3842:3846   */\n      dup3\n        /* \"#utility.yul\":3838:3850   */\n      and\n        /* \"#utility.yul\":3869:3887   */\n      dup1\n        /* \"#utility.yul\":3859:3940   */\n      tag_91\n      jumpi\n        /* \"#utility.yul\":3925:3929   */\n      0x7f\n        /* \"#utility.yul\":3917:3923   */\n      dup3\n        /* \"#utility.yul\":3913:3930   */\n      and\n        /* \"#utility.yul\":3903:3930   */\n      swap2\n      pop\n        /* \"#utility.yul\":3859:3940   */\n    tag_91:\n        /* \"#utility.yul\":3987:3989   */\n      0x20\n        /* \"#utility.yul\":3979:3985   */\n      dup3\n        /* \"#utility.yul\":3976:3990   */\n      lt\n        /* \"#utility.yul\":3956:3974   */\n      dup2\n        /* \"#utility.yul\":3953:3991   */\n      sub\n        /* \"#utility.yul\":3950:4034   */\n      tag_92\n      jumpi\n        /* \"#utility.yul\":4006:4024   */\n      tag_93\n      tag_47\n      jump\t// in\n    tag_93:\n        /* \"#utility.yul\":3950:4034   */\n    tag_92:\n        /* \"#utility.yul\":3771:4040   */\n      pop\n        /* \"#utility.yul\":3720:4040   */\n      swap2\n      swap1\n      pop\n      jump\t// out\n        /* \"#utility.yul\":4046:4144   */\n    tag_48:\n        /* \"#utility.yul\":4097:4103   */\n      0x00\n        /* \"#utility.yul\":4131:4136   */\n      dup2\n        /* \"#utility.yul\":4125:4137   */\n      mload\n        /* \"#utility.yul\":4115:4137   */\n      swap1\n      pop\n        /* \"#utility.yul\":4046:4144   */\n      swap2\n      swap1\n      pop\n      jump\t// out\n        /* \"#utility.yul\":4150:4297   */\n    tag_49:\n        /* \"#utility.yul\":4251:4262   */\n      0x00\n        /* \"#utility.yul\":4288:4291   */\n      dup2\n        /* \"#utility.yul\":4273:4291   */\n      swap1\n      pop\n        /* \"#utility.yul\":4150:4297   */\n      swap3\n      swap2\n      pop\n      pop\n      jump\t// out\n        /* \"#utility.yul\":4303:4689   */\n    tag_50:\n        /* \"#utility.yul\":4407:4410   */\n      0x00\n        /* \"#utility.yul\":4435:4473   */\n      tag_97\n        /* \"#utility.yul\":4467:4472   */\n      dup3\n        /* \"#utility.yul\":4435:4473   */\n      tag_48\n      jump\t// in\n    tag_97:\n        /* \"#utility.yul\":4489:4577   */\n      tag_98\n        /* \"#utility.yul\":4570:4576   */\n      dup2\n        /* \"#utility.yul\":4565:4568   */\n      dup6\n        /* \"#utility.yul\":4489:4577   */\n      tag_49\n      jump\t// in\n    tag_98:\n        /* \"#utility.yul\":4482:4577   */\n      swap4\n      pop\n        /* \"#utility.yul\":4586:4651   */\n      tag_99\n        /* \"#utility.yul\":4644:4650   */\n      dup2\n        /* \"#utility.yul\":4639:4642   */\n      dup6\n        /* \"#utility.yul\":4632:4636   */\n      0x20\n        /* \"#utility.yul\":4625:4630   */\n      dup7\n        /* \"#utility.yul\":4621:4637   */\n      add\n        /* \"#utility.yul\":4586:4651   */\n      tag_42\n      jump\t// in\n    tag_99:\n        /* \"#utility.yul\":4676:4682   */\n      dup1\n        /* \"#utility.yul\":4671:4674   */\n      dup5\n        /* \"#utility.yul\":4667:4683   */\n      add\n        /* \"#utility.yul\":4660:4683   */\n      swap2\n      pop\n        /* \"#utility.yul\":4411:4689   */\n      pop\n        /* \"#utility.yul\":4303:4689   */\n      swap3\n      swap2\n      pop\n      pop\n      jump\t// out\n        /* \"#utility.yul\":4695:4843   */\n    tag_51:\n        /* \"#utility.yul\":4797:4808   */\n      0x00\n        /* \"#utility.yul\":4834:4837   */\n      dup2\n        /* \"#utility.yul\":4819:4837   */\n      swap1\n      pop\n        /* \"#utility.yul\":4695:4843   */\n      swap3\n      swap2\n      pop\n      pop\n      jump\t// out\n        /* \"#utility.yul\":4849:5239   */\n    tag_52:\n        /* \"#utility.yul\":4955:4958   */\n      0x00\n        /* \"#utility.yul\":4983:5022   */\n      tag_102\n        /* \"#utility.yul\":5016:5021   */\n      dup3\n        /* \"#utility.yul\":4983:5022   */\n      tag_40\n      jump\t// in\n    tag_102:\n        /* \"#utility.yul\":5038:5127   */\n      tag_103\n        /* \"#utility.yul\":5120:5126   */\n      dup2\n        /* \"#utility.yul\":5115:5118   */\n      dup6\n        /* \"#utility.yul\":5038:5127   */\n      tag_51\n      jump\t// in\n    tag_103:\n        /* \"#utility.yul\":5031:5127   */\n      swap4\n      pop\n        /* \"#utility.yul\":5136:5201   */\n      tag_104\n        /* \"#utility.yul\":5194:5200   */\n      dup2\n        /* \"#utility.yul\":5189:5192   */\n      dup6\n        /* \"#utility.yul\":5182:5186   */\n      0x20\n        /* \"#utility.yul\":5175:5180   */\n      dup7\n        /* \"#utility.yul\":5171:5187   */\n      add\n        /* \"#utility.yul\":5136:5201   */\n      tag_42\n      jump\t// in\n    tag_104:\n        /* \"#utility.yul\":5226:5232   */\n      dup1\n        /* \"#utility.yul\":5221:5224   */\n      dup5\n        /* \"#utility.yul\":5217:5233   */\n      add\n        /* \"#utility.yul\":5210:5233   */\n      swap2\n      pop\n        /* \"#utility.yul\":4959:5239   */\n      pop\n        /* \"#utility.yul\":4849:5239   */\n      swap3\n      swap2\n      pop\n      pop\n      jump\t// out\n        /* \"#utility.yul\":5245:5676   */\n    tag_31:\n        /* \"#utility.yul\":5423:5426   */\n      0x00\n        /* \"#utility.yul\":5445:5538   */\n      tag_106\n        /* \"#utility.yul\":5534:5537   */\n      dup3\n        /* \"#utility.yul\":5525:5531   */\n      dup6\n        /* \"#utility.yul\":5445:5538   */\n      tag_50\n      jump\t// in\n    tag_106:\n        /* \"#utility.yul\":5438:5538   */\n      swap2\n      pop\n        /* \"#utility.yul\":5555:5650   */\n      tag_107\n        /* \"#utility.yul\":5646:5649   */\n      dup3\n        /* \"#utility.yul\":5637:5643   */\n      dup5\n        /* \"#utility.yul\":5555:5650   */\n      tag_52\n      jump\t// in\n    tag_107:\n        /* \"#utility.yul\":5548:5650   */\n      swap2\n      pop\n        /* \"#utility.yul\":5667:5670   */\n      dup2\n        /* \"#utility.yul\":5660:5670   */\n      swap1\n      pop\n        /* \"#utility.yul\":5245:5676   */\n      swap4\n      swap3\n      pop\n      pop\n      pop\n      jump\t// out\n        /* \"#utility.yul\":5682:5862   */\n    tag_53:\n        /* \"#utility.yul\":5730:5807   */\n      0x4e487b7100000000000000000000000000000000000000000000000000000000\n        /* \"#utility.yul\":5727:5728   */\n      0x00\n        /* \"#utility.yul\":5720:5808   */\n      mstore\n        /* \"#utility.yul\":5827:5831   */\n      0x11\n        /* \"#utility.yul\":5824:5825   */\n      0x04\n        /* \"#utility.yul\":5817:5832   */\n      mstore\n        /* \"#utility.yul\":5851:5855   */\n      0x24\n        /* \"#utility.yul\":5848:5849   */\n      0x00\n        /* \"#utility.yul\":5841:5856   */\n      revert\n        /* \"#utility.yul\":5868:6062   */\n    tag_33:\n        /* \"#utility.yul\":5908:5912   */\n      0x00\n        /* \"#utility.yul\":5928:5948   */\n      tag_110\n        /* \"#utility.yul\":5946:5947   */\n      dup3\n        /* \"#utility.yul\":5928:5948   */\n      tag_37\n      jump\t// in\n    tag_110:\n        /* \"#utility.yul\":5923:5948   */\n      swap2\n      pop\n        /* \"#utility.yul\":5962:5982   */\n      tag_111\n        /* \"#utility.yul\":5980:5981   */\n      dup4\n        /* \"#utility.yul\":5962:5982   */\n      tag_37\n      jump\t// in\n    tag_111:\n        /* \"#utility.yul\":5957:5982   */\n      swap3\n      pop\n        /* \"#utility.yul\":6006:6007   */\n      dup3\n        /* \"#utility.yul\":6003:6004   */\n      dup3\n        /* \"#utility.yul\":5999:6008   */\n      sub\n        /* \"#utility.yul\":5991:6008   */\n      swap1\n      pop\n        /* \"#utility.yul\":6030:6031   */\n      dup2\n        /* \"#utility.yul\":6024:6028   */\n      dup2\n        /* \"#utility.yul\":6021:6032   */\n      gt\n        /* \"#utility.yul\":6018:6055   */\n      iszero\n      tag_112\n      jumpi\n        /* \"#utility.yul\":6035:6053   */\n      tag_113\n      tag_53\n      jump\t// in\n    tag_113:\n        /* \"#utility.yul\":6018:6055   */\n    tag_112:\n        /* \"#utility.yul\":5868:6062   */\n      swap3\n      swap2\n      pop\n      pop\n      jump\t// out\n\n    auxdata: 0xa2646970667358221220ee3b211ebdfa0dab44cec66fd6de8721580f57f1d620d848ee915fea75d6b51764736f6c63430008170033\n}\n",
				"bytecode": {
					"linkReferences": {},
					"object": "608060405234801562000010575f80fd5b505f60405180604001604052806103e881526020016040518060400160405280600181526020017f4d00000000000000000000000000000000000000000000000000000000000000815250815250908060018154018082558091505060019003905f5260205f2090600202015f909190919091505f820151815f01556020820151816001019081620000a3919062000a03565b5050505f604051806040016040528061038481526020016040518060400160405280600281526020017f434d000000000000000000000000000000000000000000000000000000000000815250815250908060018154018082558091505060019003905f5260205f2090600202015f909190919091505f820151815f0155602082015181600101908162000138919062000a03565b5050505f60405180604001604052806101f481526020016040518060400160405280600181526020017f4400000000000000000000000000000000000000000000000000000000000000815250815250908060018154018082558091505060019003905f5260205f2090600202015f909190919091505f820151815f01556020820151816001019081620001cd919062000a03565b5050505f604051806040016040528061019081526020016040518060400160405280600281526020017f4344000000000000000000000000000000000000000000000000000000000000815250815250908060018154018082558091505060019003905f5260205f2090600202015f909190919091505f820151815f0155602082015181600101908162000262919062000a03565b5050505f6040518060400160405280606481526020016040518060400160405280600181526020017f4300000000000000000000000000000000000000000000000000000000000000815250815250908060018154018082558091505060019003905f5260205f2090600202015f909190919091505f820151815f01556020820151816001019081620002f6919062000a03565b5050505f6040518060400160405280605a81526020016040518060400160405280600281526020017f5843000000000000000000000000000000000000000000000000000000000000815250815250908060018154018082558091505060019003905f5260205f2090600202015f909190919091505f820151815f015560208201518160010190816200038a919062000a03565b5050505f6040518060400160405280603281526020016040518060400160405280600181526020017f4c00000000000000000000000000000000000000000000000000000000000000815250815250908060018154018082558091505060019003905f5260205f2090600202015f909190919091505f820151815f015560208201518160010190816200041e919062000a03565b5050505f6040518060400160405280602881526020016040518060400160405280600281526020017f584c000000000000000000000000000000000000000000000000000000000000815250815250908060018154018082558091505060019003905f5260205f2090600202015f909190919091505f820151815f01556020820151816001019081620004b2919062000a03565b5050505f6040518060400160405280600a81526020016040518060400160405280600181526020017f5800000000000000000000000000000000000000000000000000000000000000815250815250908060018154018082558091505060019003905f5260205f2090600202015f909190919091505f820151815f0155602082015181600101908162000546919062000a03565b5050505f6040518060400160405280600981526020016040518060400160405280600281526020017f4958000000000000000000000000000000000000000000000000000000000000815250815250908060018154018082558091505060019003905f5260205f2090600202015f909190919091505f820151815f01556020820151816001019081620005da919062000a03565b5050505f6040518060400160405280600581526020016040518060400160405280600181526020017f5600000000000000000000000000000000000000000000000000000000000000815250815250908060018154018082558091505060019003905f5260205f2090600202015f909190919091505f820151815f015560208201518160010190816200066e919062000a03565b5050505f6040518060400160405280600481526020016040518060400160405280600281526020017f4956000000000000000000000000000000000000000000000000000000000000815250815250908060018154018082558091505060019003905f5260205f2090600202015f909190919091505f820151815f0155602082015181600101908162000702919062000a03565b5050505f6040518060400160405280600181526020016040518060400160405280600181526020017f4900000000000000000000000000000000000000000000000000000000000000815250815250908060018154018082558091505060019003905f5260205f2090600202015f909190919091505f820151815f0155602082015181600101908162000796919062000a03565b50505062000ae7565b5f81519050919050565b7f4e487b71000000000000000000000000000000000000000000000000000000005f52604160045260245ffd5b7f4e487b71000000000000000000000000000000000000000000000000000000005f52602260045260245ffd5b5f60028204905060018216806200081b57607f821691505b602082108103620008315762000830620007d6565b5b50919050565b5f819050815f5260205f209050919050565b5f6020601f8301049050919050565b5f82821b905092915050565b5f60088302620008957fffffffffffffffffffffffffffffffffffffffffffffffffffffffffffffffff8262000858565b620008a1868362000858565b95508019841693508086168417925050509392505050565b5f819050919050565b5f819050919050565b5f620008eb620008e5620008df84620008b9565b620008c2565b620008b9565b9050919050565b5f819050919050565b6200090683620008cb565b6200091e6200091582620008f2565b84845462000864565b825550505050565b5f90565b6200093462000926565b62000941818484620008fb565b505050565b5b8181101562000968576200095c5f826200092a565b60018101905062000947565b5050565b601f821115620009b757620009818162000837565b6200098c8462000849565b810160208510156200099c578190505b620009b4620009ab8562000849565b83018262000946565b50505b505050565b5f82821c905092915050565b5f620009d95f1984600802620009bc565b1980831691505092915050565b5f620009f38383620009c8565b9150826002028217905092915050565b62000a0e826200079f565b67ffffffffffffffff81111562000a2a5762000a29620007a9565b5b62000a36825462000803565b62000a438282856200096c565b5f60209050601f83116001811462000a79575f841562000a64578287015190505b62000a708582620009e6565b86555062000adf565b601f19841662000a898662000837565b5f5b8281101562000ab25784890151825560018201915060208501945060208101905062000a8b565b8683101562000ad2578489015162000ace601f891682620009c8565b8355505b6001600288020188555050505b505050505050565b61051f8062000af55f395ff3fe608060405234801561000f575f80fd5b5060043610610029575f3560e01c8063ab7baabe1461002d575b5f80fd5b61004760048036038101906100429190610221565b61005d565b60405161005491906102d6565b60405180910390f35b60605f8211801561006f5750610fa082105b6100ae576040517f08c379a00000000000000000000000000000000000000000000000000000000081526004016100a590610340565b60405180910390fd5b60605f8390505f5b5f805490508110156101df575f8082815481106100d6576100d561035e565b5b905f5260205f2090600202016040518060400160405290815f8201548152602001600182018054610106906103b8565b80601f0160208091040260200160405190810160405280929190818152602001828054610132906103b8565b801561017d5780601f106101545761010080835404028352916020019161017d565b820191905f5260205f20905b81548152906001019060200180831161016057829003601f168201915b50505050508152505090505b805f015183106101d1578381602001516040516020016101aa929190610466565b6040516020818303038152906040529350805f0151836101ca91906104b6565b9250610189565b5080806001019150506100b6565b508192505050919050565b5f80fd5b5f819050919050565b610200816101ee565b811461020a575f80fd5b50565b5f8135905061021b816101f7565b92915050565b5f60208284031215610236576102356101ea565b5b5f6102438482850161020d565b91505092915050565b5f81519050919050565b5f82825260208201905092915050565b5f5b83811015610283578082015181840152602081019050610268565b5f8484015250505050565b5f601f19601f8301169050919050565b5f6102a88261024c565b6102b28185610256565b93506102c2818560208601610266565b6102cb8161028e565b840191505092915050565b5f6020820190508181035f8301526102ee818461029e565b905092915050565b7f4e756d626572206f7574206f662072616e67652028312d3339393929000000005f82015250565b5f61032a601c83610256565b9150610335826102f6565b602082019050919050565b5f6020820190508181035f8301526103578161031e565b9050919050565b7f4e487b71000000000000000000000000000000000000000000000000000000005f52603260045260245ffd5b7f4e487b71000000000000000000000000000000000000000000000000000000005f52602260045260245ffd5b5f60028204905060018216806103cf57607f821691505b6020821081036103e2576103e161038b565b5b50919050565b5f81519050919050565b5f81905092915050565b5f610406826103e8565b61041081856103f2565b9350610420818560208601610266565b80840191505092915050565b5f81905092915050565b5f6104408261024c565b61044a818561042c565b935061045a818560208601610266565b80840191505092915050565b5f61047182856103fc565b915061047d8284610436565b91508190509392505050565b7f4e487b71000000000000000000000000000000000000000000000000000000005f52601160045260245ffd5b5f6104c0826101ee565b91506104cb836101ee565b92508282039050818111156104e3576104e2610489565b5b9291505056fea2646970667358221220ee3b211ebdfa0dab44cec66fd6de8721580f57f1d620d848ee915fea75d6b51764736f6c63430008170033",
					"opcodes": "PUSH1 0x80 PUSH1 0x40 MSTORE CALLVALUE DUP1 ISZERO PUSH3 0x10 JUMPI PUSH0 DUP1 REVERT JUMPDEST POP PUSH0 PUSH1 0x40 MLOAD DUP1 PUSH1 0x40 ADD PUSH1 0x40 MSTORE DUP1 PUSH2 0x3E8 DUP2 MSTORE PUSH1 0x20 ADD PUSH1 0x40 MLOAD DUP1 PUSH1 0x40 ADD PUSH1 0x40 MSTORE DUP1 PUSH1 0x1 DUP2 MSTORE PUSH1 0x20 ADD PUSH32 0x4D00000000000000000000000000000000000000000000000000000000000000 DUP2 MSTORE POP DUP2 MSTORE POP SWAP1 DUP1 PUSH1 0x1 DUP2 SLOAD ADD DUP1 DUP3 SSTORE DUP1 SWAP2 POP POP PUSH1 0x1 SWAP1 SUB SWAP1 PUSH0 MSTORE PUSH1 0x20 PUSH0 KECCAK256 SWAP1 PUSH1 0x2 MUL ADD PUSH0 SWAP1 SWAP2 SWAP1 SWAP2 SWAP1 SWAP2 POP PUSH0 DUP3 ADD MLOAD DUP2 PUSH0 ADD SSTORE PUSH1 0x20 DUP3 ADD MLOAD DUP2 PUSH1 0x1 ADD SWAP1 DUP2 PUSH3 0xA3 SWAP2 SWAP1 PUSH3 0xA03 JUMP JUMPDEST POP POP POP PUSH0 PUSH1 0x40 MLOAD DUP1 PUSH1 0x40 ADD PUSH1 0x40 MSTORE DUP1 PUSH2 0x384 DUP2 MSTORE PUSH1 0x20 ADD PUSH1 0x40 MLOAD DUP1 PUSH1 0x40 ADD PUSH1 0x40 MSTORE DUP1 PUSH1 0x2 DUP2 MSTORE PUSH1 0x20 ADD PUSH32 0x434D000000000000000000000000000000000000000000000000000000000000 DUP2 MSTORE POP DUP2 MSTORE POP SWAP1 DUP1 PUSH1 0x1 DUP2 SLOAD ADD DUP1 DUP3 SSTORE DUP1 SWAP2 POP POP PUSH1 0x1 SWAP1 SUB SWAP1 PUSH0 MSTORE PUSH1 0x20 PUSH0 KECCAK256 SWAP1 PUSH1 0x2 MUL ADD PUSH0 SWAP1 SWAP2 SWAP1 SWAP2 SWAP1 SWAP2 POP PUSH0 DUP3 ADD MLOAD DUP2 PUSH0 ADD SSTORE PUSH1 0x20 DUP3 ADD MLOAD DUP2 PUSH1 0x1 ADD SWAP1 DUP2 PUSH3 0x138 SWAP2 SWAP1 PUSH3 0xA03 JUMP JUMPDEST POP POP POP PUSH0 PUSH1 0x40 MLOAD DUP1 PUSH1 0x40 ADD PUSH1 0x40 MSTORE DUP1 PUSH2 0x1F4 DUP2 MSTORE PUSH1 0x20 ADD PUSH1 0x40 MLOAD DUP1 PUSH1 0x40 ADD PUSH1 0x40 MSTORE DUP1 PUSH1 0x1 DUP2 MSTORE PUSH1 0x20 ADD PUSH32 0x4400000000000000000000000000000000000000000000000000000000000000 DUP2 MSTORE POP DUP2 MSTORE POP SWAP1 DUP1 PUSH1 0x1 DUP2 SLOAD ADD DUP1 DUP3 SSTORE DUP1 SWAP2 POP POP PUSH1 0x1 SWAP1 SUB SWAP1 PUSH0 MSTORE PUSH1 0x20 PUSH0 KECCAK256 SWAP1 PUSH1 0x2 MUL ADD PUSH0 SWAP1 SWAP2 SWAP1 SWAP2 SWAP1 SWAP2 POP PUSH0 DUP3 ADD MLOAD DUP2 PUSH0 ADD SSTORE PUSH1 0x20 DUP3 ADD MLOAD DUP2 PUSH1 0x1 ADD SWAP1 DUP2 PUSH3 0x1CD SWAP2 SWAP1 PUSH3 0xA03 JUMP JUMPDEST POP POP POP PUSH0 PUSH1 0x40 MLOAD DUP1 PUSH1 0x40 ADD PUSH1 0x40 MSTORE DUP1 PUSH2 0x190 DUP2 MSTORE PUSH1 0x20 ADD PUSH1 0x40 MLOAD DUP1 PUSH1 0x40 ADD PUSH1 0x40 MSTORE DUP1 PUSH1 0x2 DUP2 MSTORE PUSH1 0x20 ADD PUSH32 0x4344000000000000000000000000000000000000000000000000000000000000 DUP2 MSTORE POP DUP2 MSTORE POP SWAP1 DUP1 PUSH1 0x1 DUP2 SLOAD ADD DUP1 DUP3 SSTORE DUP1 SWAP2 POP POP PUSH1 0x1 SWAP1 SUB SWAP1 PUSH0 MSTORE PUSH1 0x20 PUSH0 KECCAK256 SWAP1 PUSH1 0x2 MUL ADD PUSH0 SWAP1 SWAP2 SWAP1 SWAP2 SWAP1 SWAP2 POP PUSH0 DUP3 ADD MLOAD DUP2 PUSH0 ADD SSTORE PUSH1 0x20 DUP3 ADD MLOAD DUP2 PUSH1 0x1 ADD SWAP1 DUP2 PUSH3 0x262 SWAP2 SWAP1 PUSH3 0xA03 JUMP JUMPDEST POP POP POP PUSH0 PUSH1 0x40 MLOAD DUP1 PUSH1 0x40 ADD PUSH1 0x40 MSTORE DUP1 PUSH1 0x64 DUP2 MSTORE PUSH1 0x20 ADD PUSH1 0x40 MLOAD DUP1 PUSH1 0x40 ADD PUSH1 0x40 MSTORE DUP1 PUSH1 0x1 DUP2 MSTORE PUSH1 0x20 ADD PUSH32 0x4300000000000000000000000000000000000000000000000000000000000000 DUP2 MSTORE POP DUP2 MSTORE POP SWAP1 DUP1 PUSH1 0x1 DUP2 SLOAD ADD DUP1 DUP3 SSTORE DUP1 SWAP2 POP POP PUSH1 0x1 SWAP1 SUB SWAP1 PUSH0 MSTORE PUSH1 0x20 PUSH0 KECCAK256 SWAP1 PUSH1 0x2 MUL ADD PUSH0 SWAP1 SWAP2 SWAP1 SWAP2 SWAP1 SWAP2 POP PUSH0 DUP3 ADD MLOAD DUP2 PUSH0 ADD SSTORE PUSH1 0x20 DUP3 ADD MLOAD DUP2 PUSH1 0x1 ADD SWAP1 DUP2 PUSH3 0x2F6 SWAP2 SWAP1 PUSH3 0xA03 JUMP JUMPDEST POP POP POP PUSH0 PUSH1 0x40 MLOAD DUP1 PUSH1 0x40 ADD PUSH1 0x40 MSTORE DUP1 PUSH1 0x5A DUP2 MSTORE PUSH1 0x20 ADD PUSH1 0x40 MLOAD DUP1 PUSH1 0x40 ADD PUSH1 0x40 MSTORE DUP1 PUSH1 0x2 DUP2 MSTORE PUSH1 0x20 ADD PUSH32 0x5843000000000000000000000000000000000000000000000000000000000000 DUP2 MSTORE POP DUP2 MSTORE POP SWAP1 DUP1 PUSH1 0x1 DUP2 SLOAD ADD DUP1 DUP3 SSTORE DUP1 SWAP2 POP POP PUSH1 0x1 SWAP1 SUB SWAP1 PUSH0 MSTORE PUSH1 0x20 PUSH0 KECCAK256 SWAP1 PUSH1 0x2 MUL ADD PUSH0 SWAP1 SWAP2 SWAP1 SWAP2 SWAP1 SWAP2 POP PUSH0 DUP3 ADD MLOAD DUP2 PUSH0 ADD SSTORE PUSH1 0x20 DUP3 ADD MLOAD DUP2 PUSH1 0x1 ADD SWAP1 DUP2 PUSH3 0x38A SWAP2 SWAP1 PUSH3 0xA03 JUMP JUMPDEST POP POP POP PUSH0 PUSH1 0x40 MLOAD DUP1 PUSH1 0x40 ADD PUSH1 0x40 MSTORE DUP1 PUSH1 0x32 DUP2 MSTORE PUSH1 0x20 ADD PUSH1 0x40 MLOAD DUP1 PUSH1 0x40 ADD PUSH1 0x40 MSTORE DUP1 PUSH1 0x1 DUP2 MSTORE PUSH1 0x20 ADD PUSH32 0x4C00000000000000000000000000000000000000000000000000000000000000 DUP2 MSTORE POP DUP2 MSTORE POP SWAP1 DUP1 PUSH1 0x1 DUP2 SLOAD ADD DUP1 DUP3 SSTORE DUP1 SWAP2 POP POP PUSH1 0x1 SWAP1 SUB SWAP1 PUSH0 MSTORE PUSH1 0x20 PUSH0 KECCAK256 SWAP1 PUSH1 0x2 MUL ADD PUSH0 SWAP1 SWAP2 SWAP1 SWAP2 SWAP1 SWAP2 POP PUSH0 DUP3 ADD MLOAD DUP2 PUSH0 ADD SSTORE PUSH1 0x20 DUP3 ADD MLOAD DUP2 PUSH1 0x1 ADD SWAP1 DUP2 PUSH3 0x41E SWAP2 SWAP1 PUSH3 0xA03 JUMP JUMPDEST POP POP POP PUSH0 PUSH1 0x40 MLOAD DUP1 PUSH1 0x40 ADD PUSH1 0x40 MSTORE DUP1 PUSH1 0x28 DUP2 MSTORE PUSH1 0x20 ADD PUSH1 0x40 MLOAD DUP1 PUSH1 0x40 ADD PUSH1 0x40 MSTORE DUP1 PUSH1 0x2 DUP2 MSTORE PUSH1 0x20 ADD PUSH32 0x584C000000000000000000000000000000000000000000000000000000000000 DUP2 MSTORE POP DUP2 MSTORE POP SWAP1 DUP1 PUSH1 0x1 DUP2 SLOAD ADD DUP1 DUP3 SSTORE DUP1 SWAP2 POP POP PUSH1 0x1 SWAP1 SUB SWAP1 PUSH0 MSTORE PUSH1 0x20 PUSH0 KECCAK256 SWAP1 PUSH1 0x2 MUL ADD PUSH0 SWAP1 SWAP2 SWAP1 SWAP2 SWAP1 SWAP2 POP PUSH0 DUP3 ADD MLOAD DUP2 PUSH0 ADD SSTORE PUSH1 0x20 DUP3 ADD MLOAD DUP2 PUSH1 0x1 ADD SWAP1 DUP2 PUSH3 0x4B2 SWAP2 SWAP1 PUSH3 0xA03 JUMP JUMPDEST POP POP POP PUSH0 PUSH1 0x40 MLOAD DUP1 PUSH1 0x40 ADD PUSH1 0x40 MSTORE DUP1 PUSH1 0xA DUP2 MSTORE PUSH1 0x20 ADD PUSH1 0x40 MLOAD DUP1 PUSH1 0x40 ADD PUSH1 0x40 MSTORE DUP1 PUSH1 0x1 DUP2 MSTORE PUSH1 0x20 ADD PUSH32 0x5800000000000000000000000000000000000000000000000000000000000000 DUP2 MSTORE POP DUP2 MSTORE POP SWAP1 DUP1 PUSH1 0x1 DUP2 SLOAD ADD DUP1 DUP3 SSTORE DUP1 SWAP2 POP POP PUSH1 0x1 SWAP1 SUB SWAP1 PUSH0 MSTORE PUSH1 0x20 PUSH0 KECCAK256 SWAP1 PUSH1 0x2 MUL ADD PUSH0 SWAP1 SWAP2 SWAP1 SWAP2 SWAP1 SWAP2 POP PUSH0 DUP3 ADD MLOAD DUP2 PUSH0 ADD SSTORE PUSH1 0x20 DUP3 ADD MLOAD DUP2 PUSH1 0x1 ADD SWAP1 DUP2 PUSH3 0x546 SWAP2 SWAP1 PUSH3 0xA03 JUMP JUMPDEST POP POP POP PUSH0 PUSH1 0x40 MLOAD DUP1 PUSH1 0x40 ADD PUSH1 0x40 MSTORE DUP1 PUSH1 0x9 DUP2 MSTORE PUSH1 0x20 ADD PUSH1 0x40 MLOAD DUP1 PUSH1 0x40 ADD PUSH1 0x40 MSTORE DUP1 PUSH1 0x2 DUP2 MSTORE PUSH1 0x20 ADD PUSH32 0x4958000000000000000000000000000000000000000000000000000000000000 DUP2 MSTORE POP DUP2 MSTORE POP SWAP1 DUP1 PUSH1 0x1 DUP2 SLOAD ADD DUP1 DUP3 SSTORE DUP1 SWAP2 POP POP PUSH1 0x1 SWAP1 SUB SWAP1 PUSH0 MSTORE PUSH1 0x20 PUSH0 KECCAK256 SWAP1 PUSH1 0x2 MUL ADD PUSH0 SWAP1 SWAP2 SWAP1 SWAP2 SWAP1 SWAP2 POP PUSH0 DUP3 ADD MLOAD DUP2 PUSH0 ADD SSTORE PUSH1 0x20 DUP3 ADD MLOAD DUP2 PUSH1 0x1 ADD SWAP1 DUP2 PUSH3 0x5DA SWAP2 SWAP1 PUSH3 0xA03 JUMP JUMPDEST POP POP POP PUSH0 PUSH1 0x40 MLOAD DUP1 PUSH1 0x40 ADD PUSH1 0x40 MSTORE DUP1 PUSH1 0x5 DUP2 MSTORE PUSH1 0x20 ADD PUSH1 0x40 MLOAD DUP1 PUSH1 0x40 ADD PUSH1 0x40 MSTORE DUP1 PUSH1 0x1 DUP2 MSTORE PUSH1 0x20 ADD PUSH32 0x5600000000000000000000000000000000000000000000000000000000000000 DUP2 MSTORE POP DUP2 MSTORE POP SWAP1 DUP1 PUSH1 0x1 DUP2 SLOAD ADD DUP1 DUP3 SSTORE DUP1 SWAP2 POP POP PUSH1 0x1 SWAP1 SUB SWAP1 PUSH0 MSTORE PUSH1 0x20 PUSH0 KECCAK256 SWAP1 PUSH1 0x2 MUL ADD PUSH0 SWAP1 SWAP2 SWAP1 SWAP2 SWAP1 SWAP2 POP PUSH0 DUP3 ADD MLOAD DUP2 PUSH0 ADD SSTORE PUSH1 0x20 DUP3 ADD MLOAD DUP2 PUSH1 0x1 ADD SWAP1 DUP2 PUSH3 0x66E SWAP2 SWAP1 PUSH3 0xA03 JUMP JUMPDEST POP POP POP PUSH0 PUSH1 0x40 MLOAD DUP1 PUSH1 0x40 ADD PUSH1 0x40 MSTORE DUP1 PUSH1 0x4 DUP2 MSTORE PUSH1 0x20 ADD PUSH1 0x40 MLOAD DUP1 PUSH1 0x40 ADD PUSH1 0x40 MSTORE DUP1 PUSH1 0x2 DUP2 MSTORE PUSH1 0x20 ADD PUSH32 0x4956000000000000000000000000000000000000000000000000000000000000 DUP2 MSTORE POP DUP2 MSTORE POP SWAP1 DUP1 PUSH1 0x1 DUP2 SLOAD ADD DUP1 DUP3 SSTORE DUP1 SWAP2 POP POP PUSH1 0x1 SWAP1 SUB SWAP1 PUSH0 MSTORE PUSH1 0x20 PUSH0 KECCAK256 SWAP1 PUSH1 0x2 MUL ADD PUSH0 SWAP1 SWAP2 SWAP1 SWAP2 SWAP1 SWAP2 POP PUSH0 DUP3 ADD MLOAD DUP2 PUSH0 ADD SSTORE PUSH1 0x20 DUP3 ADD MLOAD DUP2 PUSH1 0x1 ADD SWAP1 DUP2 PUSH3 0x702 SWAP2 SWAP1 PUSH3 0xA03 JUMP JUMPDEST POP POP POP PUSH0 PUSH1 0x40 MLOAD DUP1 PUSH1 0x40 ADD PUSH1 0x40 MSTORE DUP1 PUSH1 0x1 DUP2 MSTORE PUSH1 0x20 ADD PUSH1 0x40 MLOAD DUP1 PUSH1 0x40 ADD PUSH1 0x40 MSTORE DUP1 PUSH1 0x1 DUP2 MSTORE PUSH1 0x20 ADD PUSH32 0x4900000000000000000000000000000000000000000000000000000000000000 DUP2 MSTORE POP DUP2 MSTORE POP SWAP1 DUP1 PUSH1 0x1 DUP2 SLOAD ADD DUP1 DUP3 SSTORE DUP1 SWAP2 POP POP PUSH1 0x1 SWAP1 SUB SWAP1 PUSH0 MSTORE PUSH1 0x20 PUSH0 KECCAK256 SWAP1 PUSH1 0x2 MUL ADD PUSH0 SWAP1 SWAP2 SWAP1 SWAP2 SWAP1 SWAP2 POP PUSH0 DUP3 ADD MLOAD DUP2 PUSH0 ADD SSTORE PUSH1 0x20 DUP3 ADD MLOAD DUP2 PUSH1 0x1 ADD SWAP1 DUP2 PUSH3 0x796 SWAP2 SWAP1 PUSH3 0xA03 JUMP JUMPDEST POP POP POP PUSH3 0xAE7 JUMP JUMPDEST PUSH0 DUP2 MLOAD SWAP1 POP SWAP2 SWAP1 POP JUMP JUMPDEST PUSH32 0x4E487B7100000000000000000000000000000000000000000000000000000000 PUSH0 MSTORE PUSH1 0x41 PUSH1 0x4 MSTORE PUSH1 0x24 PUSH0 REVERT JUMPDEST PUSH32 0x4E487B7100000000000000000000000000000000000000000000000000000000 PUSH0 MSTORE PUSH1 0x22 PUSH1 0x4 MSTORE PUSH1 0x24 PUSH0 REVERT JUMPDEST PUSH0 PUSH1 0x2 DUP3 DIV SWAP1 POP PUSH1 0x1 DUP3 AND DUP1 PUSH3 0x81B JUMPI PUSH1 0x7F DUP3 AND SWAP2 POP JUMPDEST PUSH1 0x20 DUP3 LT DUP2 SUB PUSH3 0x831 JUMPI PUSH3 0x830 PUSH3 0x7D6 JUMP JUMPDEST JUMPDEST POP SWAP2 SWAP1 POP JUMP JUMPDEST PUSH0 DUP2 SWAP1 POP DUP2 PUSH0 MSTORE PUSH1 0x20 PUSH0 KECCAK256 SWAP1 POP SWAP2 SWAP1 POP JUMP JUMPDEST PUSH0 PUSH1 0x20 PUSH1 0x1F DUP4 ADD DIV SWAP1 POP SWAP2 SWAP1 POP JUMP JUMPDEST PUSH0 DUP3 DUP3 SHL SWAP1 POP SWAP3 SWAP2 POP POP JUMP JUMPDEST PUSH0 PUSH1 0x8 DUP4 MUL PUSH3 0x895 PUSH32 0xFFFFFFFFFFFFFFFFFFFFFFFFFFFFFFFFFFFFFFFFFFFFFFFFFFFFFFFFFFFFFFFF DUP3 PUSH3 0x858 JUMP JUMPDEST PUSH3 0x8A1 DUP7 DUP4 PUSH3 0x858 JUMP JUMPDEST SWAP6 POP DUP1 NOT DUP5 AND SWAP4 POP DUP1 DUP7 AND DUP5 OR SWAP3 POP POP POP SWAP4 SWAP3 POP POP POP JUMP JUMPDEST PUSH0 DUP2 SWAP1 POP SWAP2 SWAP1 POP JUMP JUMPDEST PUSH0 DUP2 SWAP1 POP SWAP2 SWAP1 POP JUMP JUMPDEST PUSH0 PUSH3 0x8EB PUSH3 0x8E5 PUSH3 0x8DF DUP5 PUSH3 0x8B9 JUMP JUMPDEST PUSH3 0x8C2 JUMP JUMPDEST PUSH3 0x8B9 JUMP JUMPDEST SWAP1 POP SWAP2 SWAP1 POP JUMP JUMPDEST PUSH0 DUP2 SWAP1 POP SWAP2 SWAP1 POP JUMP JUMPDEST PUSH3 0x906 DUP4 PUSH3 0x8CB JUMP JUMPDEST PUSH3 0x91E PUSH3 0x915 DUP3 PUSH3 0x8F2 JUMP JUMPDEST DUP5 DUP5 SLOAD PUSH3 0x864 JUMP JUMPDEST DUP3 SSTORE POP POP POP POP JUMP JUMPDEST PUSH0 SWAP1 JUMP JUMPDEST PUSH3 0x934 PUSH3 0x926 JUMP JUMPDEST PUSH3 0x941 DUP2 DUP5 DUP5 PUSH3 0x8FB JUMP JUMPDEST POP POP POP JUMP JUMPDEST JUMPDEST DUP2 DUP2 LT ISZERO PUSH3 0x968 JUMPI PUSH3 0x95C PUSH0 DUP3 PUSH3 0x92A JUMP JUMPDEST PUSH1 0x1 DUP2 ADD SWAP1 POP PUSH3 0x947 JUMP JUMPDEST POP POP JUMP JUMPDEST PUSH1 0x1F DUP3 GT ISZERO PUSH3 0x9B7 JUMPI PUSH3 0x981 DUP2 PUSH3 0x837 JUMP JUMPDEST PUSH3 0x98C DUP5 PUSH3 0x849 JUMP JUMPDEST DUP2 ADD PUSH1 0x20 DUP6 LT ISZERO PUSH3 0x99C JUMPI DUP2 SWAP1 POP JUMPDEST PUSH3 0x9B4 PUSH3 0x9AB DUP6 PUSH3 0x849 JUMP JUMPDEST DUP4 ADD DUP3 PUSH3 0x946 JUMP JUMPDEST POP POP JUMPDEST POP POP POP JUMP JUMPDEST PUSH0 DUP3 DUP3 SHR SWAP1 POP SWAP3 SWAP2 POP POP JUMP JUMPDEST PUSH0 PUSH3 0x9D9 PUSH0 NOT DUP5 PUSH1 0x8 MUL PUSH3 0x9BC JUMP JUMPDEST NOT DUP1 DUP4 AND SWAP2 POP POP SWAP3 SWAP2 POP POP JUMP JUMPDEST PUSH0 PUSH3 0x9F3 DUP4 DUP4 PUSH3 0x9C8 JUMP JUMPDEST SWAP2 POP DUP3 PUSH1 0x2 MUL DUP3 OR SWAP1 POP SWAP3 SWAP2 POP POP JUMP JUMPDEST PUSH3 0xA0E DUP3 PUSH3 0x79F JUMP JUMPDEST PUSH8 0xFFFFFFFFFFFFFFFF DUP2 GT ISZERO PUSH3 0xA2A JUMPI PUSH3 0xA29 PUSH3 0x7A9 JUMP JUMPDEST JUMPDEST PUSH3 0xA36 DUP3 SLOAD PUSH3 0x803 JUMP JUMPDEST PUSH3 0xA43 DUP3 DUP3 DUP6 PUSH3 0x96C JUMP JUMPDEST PUSH0 PUSH1 0x20 SWAP1 POP PUSH1 0x1F DUP4 GT PUSH1 0x1 DUP2 EQ PUSH3 0xA79 JUMPI PUSH0 DUP5 ISZERO PUSH3 0xA64 JUMPI DUP3 DUP8 ADD MLOAD SWAP1 POP JUMPDEST PUSH3 0xA70 DUP6 DUP3 PUSH3 0x9E6 JUMP JUMPDEST DUP7 SSTORE POP PUSH3 0xADF JUMP JUMPDEST PUSH1 0x1F NOT DUP5 AND PUSH3 0xA89 DUP7 PUSH3 0x837 JUMP JUMPDEST PUSH0 JUMPDEST DUP3 DUP2 LT ISZERO PUSH3 0xAB2 JUMPI DUP5 DUP10 ADD MLOAD DUP3 SSTORE PUSH1 0x1 DUP3 ADD SWAP2 POP PUSH1 0x20 DUP6 ADD SWAP5 POP PUSH1 0x20 DUP2 ADD SWAP1 POP PUSH3 0xA8B JUMP JUMPDEST DUP7 DUP4 LT ISZERO PUSH3 0xAD2 JUMPI DUP5 DUP10 ADD MLOAD PUSH3 0xACE PUSH1 0x1F DUP10 AND DUP3 PUSH3 0x9C8 JUMP JUMPDEST DUP4 SSTORE POP JUMPDEST PUSH1 0x1 PUSH1 0x2 DUP9 MUL ADD DUP9 SSTORE POP POP POP JUMPDEST POP POP POP POP POP POP JUMP JUMPDEST PUSH2 0x51F DUP1 PUSH3 0xAF5 PUSH0 CODECOPY PUSH0 RETURN INVALID PUSH1 0x80 PUSH1 0x40 MSTORE CALLVALUE DUP1 ISZERO PUSH2 0xF JUMPI PUSH0 DUP1 REVERT JUMPDEST POP PUSH1 0x4 CALLDATASIZE LT PUSH2 0x29 JUMPI PUSH0 CALLDATALOAD PUSH1 0xE0 SHR DUP1 PUSH4 0xAB7BAABE EQ PUSH2 0x2D JUMPI JUMPDEST PUSH0 DUP1 REVERT JUMPDEST PUSH2 0x47 PUSH1 0x4 DUP1 CALLDATASIZE SUB DUP2 ADD SWAP1 PUSH2 0x42 SWAP2 SWAP1 PUSH2 0x221 JUMP JUMPDEST PUSH2 0x5D JUMP JUMPDEST PUSH1 0x40 MLOAD PUSH2 0x54 SWAP2 SWAP1 PUSH2 0x2D6 JUMP JUMPDEST PUSH1 0x40 MLOAD DUP1 SWAP2 SUB SWAP1 RETURN JUMPDEST PUSH1 0x60 PUSH0 DUP3 GT DUP1 ISZERO PUSH2 0x6F JUMPI POP PUSH2 0xFA0 DUP3 LT JUMPDEST PUSH2 0xAE JUMPI PUSH1 0x40 MLOAD PUSH32 0x8C379A000000000000000000000000000000000000000000000000000000000 DUP2 MSTORE PUSH1 0x4 ADD PUSH2 0xA5 SWAP1 PUSH2 0x340 JUMP JUMPDEST PUSH1 0x40 MLOAD DUP1 SWAP2 SUB SWAP1 REVERT JUMPDEST PUSH1 0x60 PUSH0 DUP4 SWAP1 POP PUSH0 JUMPDEST PUSH0 DUP1 SLOAD SWAP1 POP DUP2 LT ISZERO PUSH2 0x1DF JUMPI PUSH0 DUP1 DUP3 DUP2 SLOAD DUP2 LT PUSH2 0xD6 JUMPI PUSH2 0xD5 PUSH2 0x35E JUMP JUMPDEST JUMPDEST SWAP1 PUSH0 MSTORE PUSH1 0x20 PUSH0 KECCAK256 SWAP1 PUSH1 0x2 MUL ADD PUSH1 0x40 MLOAD DUP1 PUSH1 0x40 ADD PUSH1 0x40 MSTORE SWAP1 DUP2 PUSH0 DUP3 ADD SLOAD DUP2 MSTORE PUSH1 0x20 ADD PUSH1 0x1 DUP3 ADD DUP1 SLOAD PUSH2 0x106 SWAP1 PUSH2 0x3B8 JUMP JUMPDEST DUP1 PUSH1 0x1F ADD PUSH1 0x20 DUP1 SWAP2 DIV MUL PUSH1 0x20 ADD PUSH1 0x40 MLOAD SWAP1 DUP2 ADD PUSH1 0x40 MSTORE DUP1 SWAP3 SWAP2 SWAP1 DUP2 DUP2 MSTORE PUSH1 0x20 ADD DUP3 DUP1 SLOAD PUSH2 0x132 SWAP1 PUSH2 0x3B8 JUMP JUMPDEST DUP1 ISZERO PUSH2 0x17D JUMPI DUP1 PUSH1 0x1F LT PUSH2 0x154 JUMPI PUSH2 0x100 DUP1 DUP4 SLOAD DIV MUL DUP4 MSTORE SWAP2 PUSH1 0x20 ADD SWAP2 PUSH2 0x17D JUMP JUMPDEST DUP3 ADD SWAP2 SWAP1 PUSH0 MSTORE PUSH1 0x20 PUSH0 KECCAK256 SWAP1 JUMPDEST DUP2 SLOAD DUP2 MSTORE SWAP1 PUSH1 0x1 ADD SWAP1 PUSH1 0x20 ADD DUP1 DUP4 GT PUSH2 0x160 JUMPI DUP3 SWAP1 SUB PUSH1 0x1F AND DUP3 ADD SWAP2 JUMPDEST POP POP POP POP POP DUP2 MSTORE POP POP SWAP1 POP JUMPDEST DUP1 PUSH0 ADD MLOAD DUP4 LT PUSH2 0x1D1 JUMPI DUP4 DUP2 PUSH1 0x20 ADD MLOAD PUSH1 0x40 MLOAD PUSH1 0x20 ADD PUSH2 0x1AA SWAP3 SWAP2 SWAP1 PUSH2 0x466 JUMP JUMPDEST PUSH1 0x40 MLOAD PUSH1 0x20 DUP2 DUP4 SUB SUB DUP2 MSTORE SWAP1 PUSH1 0x40 MSTORE SWAP4 POP DUP1 PUSH0 ADD MLOAD DUP4 PUSH2 0x1CA SWAP2 SWAP1 PUSH2 0x4B6 JUMP JUMPDEST SWAP3 POP PUSH2 0x189 JUMP JUMPDEST POP DUP1 DUP1 PUSH1 0x1 ADD SWAP2 POP POP PUSH2 0xB6 JUMP JUMPDEST POP DUP2 SWAP3 POP POP POP SWAP2 SWAP1 POP JUMP JUMPDEST PUSH0 DUP1 REVERT JUMPDEST PUSH0 DUP2 SWAP1 POP SWAP2 SWAP1 POP JUMP JUMPDEST PUSH2 0x200 DUP2 PUSH2 0x1EE JUMP JUMPDEST DUP2 EQ PUSH2 0x20A JUMPI PUSH0 DUP1 REVERT JUMPDEST POP JUMP JUMPDEST PUSH0 DUP2 CALLDATALOAD SWAP1 POP PUSH2 0x21B DUP2 PUSH2 0x1F7 JUMP JUMPDEST SWAP3 SWAP2 POP POP JUMP JUMPDEST PUSH0 PUSH1 0x20 DUP3 DUP5 SUB SLT ISZERO PUSH2 0x236 JUMPI PUSH2 0x235 PUSH2 0x1EA JUMP JUMPDEST JUMPDEST PUSH0 PUSH2 0x243 DUP5 DUP3 DUP6 ADD PUSH2 0x20D JUMP JUMPDEST SWAP2 POP POP SWAP3 SWAP2 POP POP JUMP JUMPDEST PUSH0 DUP2 MLOAD SWAP1 POP SWAP2 SWAP1 POP JUMP JUMPDEST PUSH0 DUP3 DUP3 MSTORE PUSH1 0x20 DUP3 ADD SWAP1 POP SWAP3 SWAP2 POP POP JUMP JUMPDEST PUSH0 JUMPDEST DUP4 DUP2 LT ISZERO PUSH2 0x283 JUMPI DUP1 DUP3 ADD MLOAD DUP2 DUP5 ADD MSTORE PUSH1 0x20 DUP2 ADD SWAP1 POP PUSH2 0x268 JUMP JUMPDEST PUSH0 DUP5 DUP5 ADD MSTORE POP POP POP POP JUMP JUMPDEST PUSH0 PUSH1 0x1F NOT PUSH1 0x1F DUP4 ADD AND SWAP1 POP SWAP2 SWAP1 POP JUMP JUMPDEST PUSH0 PUSH2 0x2A8 DUP3 PUSH2 0x24C JUMP JUMPDEST PUSH2 0x2B2 DUP2 DUP6 PUSH2 0x256 JUMP JUMPDEST SWAP4 POP PUSH2 0x2C2 DUP2 DUP6 PUSH1 0x20 DUP7 ADD PUSH2 0x266 JUMP JUMPDEST PUSH2 0x2CB DUP2 PUSH2 0x28E JUMP JUMPDEST DUP5 ADD SWAP2 POP POP SWAP3 SWAP2 POP POP JUMP JUMPDEST PUSH0 PUSH1 0x20 DUP3 ADD SWAP1 POP DUP2 DUP2 SUB PUSH0 DUP4 ADD MSTORE PUSH2 0x2EE DUP2 DUP5 PUSH2 0x29E JUMP JUMPDEST SWAP1 POP SWAP3 SWAP2 POP POP JUMP JUMPDEST PUSH32 0x4E756D626572206F7574206F662072616E67652028312D333939392900000000 PUSH0 DUP3 ADD MSTORE POP JUMP JUMPDEST PUSH0 PUSH2 0x32A PUSH1 0x1C DUP4 PUSH2 0x256 JUMP JUMPDEST SWAP2 POP PUSH2 0x335 DUP3 PUSH2 0x2F6 JUMP JUMPDEST PUSH1 0x20 DUP3 ADD SWAP1 POP SWAP2 SWAP1 POP JUMP JUMPDEST PUSH0 PUSH1 0x20 DUP3 ADD SWAP1 POP DUP2 DUP2 SUB PUSH0 DUP4 ADD MSTORE PUSH2 0x357 DUP2 PUSH2 0x31E JUMP JUMPDEST SWAP1 POP SWAP2 SWAP1 POP JUMP JUMPDEST PUSH32 0x4E487B7100000000000000000000000000000000000000000000000000000000 PUSH0 MSTORE PUSH1 0x32 PUSH1 0x4 MSTORE PUSH1 0x24 PUSH0 REVERT JUMPDEST PUSH32 0x4E487B7100000000000000000000000000000000000000000000000000000000 PUSH0 MSTORE PUSH1 0x22 PUSH1 0x4 MSTORE PUSH1 0x24 PUSH0 REVERT JUMPDEST PUSH0 PUSH1 0x2 DUP3 DIV SWAP1 POP PUSH1 0x1 DUP3 AND DUP1 PUSH2 0x3CF JUMPI PUSH1 0x7F DUP3 AND SWAP2 POP JUMPDEST PUSH1 0x20 DUP3 LT DUP2 SUB PUSH2 0x3E2 JUMPI PUSH2 0x3E1 PUSH2 0x38B JUMP JUMPDEST JUMPDEST POP SWAP2 SWAP1 POP JUMP JUMPDEST PUSH0 DUP2 MLOAD SWAP1 POP SWAP2 SWAP1 POP JUMP JUMPDEST PUSH0 DUP2 SWAP1 POP SWAP3 SWAP2 POP POP JUMP JUMPDEST PUSH0 PUSH2 0x406 DUP3 PUSH2 0x3E8 JUMP JUMPDEST PUSH2 0x410 DUP2 DUP6 PUSH2 0x3F2 JUMP JUMPDEST SWAP4 POP PUSH2 0x420 DUP2 DUP6 PUSH1 0x20 DUP7 ADD PUSH2 0x266 JUMP JUMPDEST DUP1 DUP5 ADD SWAP2 POP POP SWAP3 SWAP2 POP POP JUMP JUMPDEST PUSH0 DUP2 SWAP1 POP SWAP3 SWAP2 POP POP JUMP JUMPDEST PUSH0 PUSH2 0x440 DUP3 PUSH2 0x24C JUMP JUMPDEST PUSH2 0x44A DUP2 DUP6 PUSH2 0x42C JUMP JUMPDEST SWAP4 POP PUSH2 0x45A DUP2 DUP6 PUSH1 0x20 DUP7 ADD PUSH2 0x266 JUMP JUMPDEST DUP1 DUP5 ADD SWAP2 POP POP SWAP3 SWAP2 POP POP JUMP JUMPDEST PUSH0 PUSH2 0x471 DUP3 DUP6 PUSH2 0x3FC JUMP JUMPDEST SWAP2 POP PUSH2 0x47D DUP3 DUP5 PUSH2 0x436 JUMP JUMPDEST SWAP2 POP DUP2 SWAP1 POP SWAP4 SWAP3 POP POP POP JUMP JUMPDEST PUSH32 0x4E487B7100000000000000000000000000000000000000000000000000000000 PUSH0 MSTORE PUSH1 0x11 PUSH1 0x4 MSTORE PUSH1 0x24 PUSH0 REVERT JUMPDEST PUSH0 PUSH2 0x4C0 DUP3 PUSH2 0x1EE JUMP JUMPDEST SWAP2 POP PUSH2 0x4CB DUP4 PUSH2 0x1EE JUMP JUMPDEST SWAP3 POP DUP3 DUP3 SUB SWAP1 POP DUP2 DUP2 GT ISZERO PUSH2 0x4E3 JUMPI PUSH2 0x4E2 PUSH2 0x489 JUMP JUMPDEST JUMPDEST SWAP3 SWAP2 POP POP JUMP INVALID LOG2 PUSH5 0x6970667358 0x22 SLT KECCAK256 0xEE EXTCODESIZE 0x21 0x1E 0xBD STATICCALL 0xD 0xAB PREVRANDAO 0xCE 0xC6 PUSH16 0xD6DE8721580F57F1D620D848EE915FEA PUSH22 0xD6B51764736F6C634300081700330000000000000000 "
				},
				"gasEstimates": {
					"creation": {
						"codeDepositCost": "262200",
						"executionCost": "infinite",
						"totalCost": "infinite"
					},
					"external": {
						"toRoman(uint256)": "infinite"
					}
				},
				"methodIdentifiers": {
					"toRoman(uint256)": "ab7baabe"
				}
			},
			"storageLayout": {
				"storage": [
					{
						"astId": 10,
						"contract": "tests/task_2/task_2_3_RomanNumerals.sol:RomanNumerals",
						"label": "romanSymbols",
						"offset": 0,
						"slot": "0",
						"type": "t_array(t_struct(RomanSymbol)6_storage)dyn_storage"
					}
				],
				"types": {
					"t_array(t_struct(RomanSymbol)6_storage)dyn_storage": {
						"base": "t_struct(RomanSymbol)6_storage",
						"encoding": "dynamic_array",
						"label": "struct RomanNumerals.RomanSymbol[]",
						"numberOfBytes": "32"
					},
					"t_string_storage": {
						"encoding": "bytes",
						"label": "string",
						"numberOfBytes": "32"
					},
					"t_struct(RomanSymbol)6_storage": {
						"encoding": "inplace",
						"label": "struct RomanNumerals.RomanSymbol",
						"members": [
							{
								"astId": 3,
								"contract": "tests/task_2/task_2_3_RomanNumerals.sol:RomanNumerals",
								"label": "value",
								"offset": 0,
								"slot": "0",
								"type": "t_uint256"
							},
							{
								"astId": 5,
								"contract": "tests/task_2/task_2_3_RomanNumerals.sol:RomanNumerals",
								"label": "symbol",
								"offset": 0,
								"slot": "1",
								"type": "t_string_storage"
							}
						],
						"numberOfBytes": "64"
					},
					"t_uint256": {
						"encoding": "inplace",
						"label": "uint256",
						"numberOfBytes": "32"
					}
				}
			},
			"userdoc": {
				"kind": "user",
				"methods": {},
				"version": 1
			}
		}
	}
}