{
	"data": {
		"bytecode": {
			"linkReferences": {},
			"object": "608060405234801561000f575f80fd5b506115df8061001d5f395ff3fe608060405234801562000010575f80fd5b506004361062000050575f3560e01c806353bf97dd14620000545780635e0a94cb146200008a578063867263fb1462000096578063aeb914cb14620000cc575b5f80fd5b6200007260048036038101906200006c9190620003e9565b620000ec565b604051620000819190620004c2565b60405180910390f35b62000094620001b4565b005b620000b46004803603810190620000ae9190620004e4565b6200029c565b604051620000c391906200059a565b60405180910390f35b620000ea6004803603810190620000e49190620006fd565b620002e3565b005b60606001838154811062000105576200010462000775565b5b905f5260205f20015f9054906101000a900473ffffffffffffffffffffffffffffffffffffffff1673ffffffffffffffffffffffffffffffffffffffff166342257b31836040518263ffffffff1660e01b8152600401620001679190620007b3565b5f60405180830381865afa15801562000182573d5f803e3d5ffd5b505050506040513d5f823e3d601f19601f82011682018060405250810190620001ac91906200084a565b905092915050565b604051620001c29062000392565b604051809103905ff080158015620001dc573d5f803e3d5ffd5b505f806101000a81548173ffffffffffffffffffffffffffffffffffffffff021916908373ffffffffffffffffffffffffffffffffffffffff16021790555060015f8054906101000a900473ffffffffffffffffffffffffffffffffffffffff16908060018154018082558091505060019003905f5260205f20015f9091909190916101000a81548173ffffffffffffffffffffffffffffffffffffffff021916908373ffffffffffffffffffffffffffffffffffffffff160217905550565b5f60018281548110620002b457620002b362000775565b5b905f5260205f20015f9054906101000a900473ffffffffffffffffffffffffffffffffffffffff169050919050565b60018381548110620002fa57620002f962000775565b5b905f5260205f20015f9054906101000a900473ffffffffffffffffffffffffffffffffffffffff1673ffffffffffffffffffffffffffffffffffffffff16635d641b8983836040518363ffffffff1660e01b81526004016200035e92919062000899565b5f604051808303815f87803b15801562000376575f80fd5b505af115801562000389573d5f803e3d5ffd5b50505050505050565b610cde80620008cc83390190565b5f604051905090565b5f80fd5b5f80fd5b5f819050919050565b620003c581620003b1565b8114620003d0575f80fd5b50565b5f81359050620003e381620003ba565b92915050565b5f8060408385031215620004025762000401620003a9565b5b5f6200041185828601620003d3565b92505060206200042485828601620003d3565b9150509250929050565b5f81519050919050565b5f82825260208201905092915050565b5f5b83811015620004675780820151818401526020810190506200044a565b5f8484015250505050565b5f601f19601f8301169050919050565b5f6200048e826200042e565b6200049a818562000438565b9350620004ac81856020860162000448565b620004b78162000472565b840191505092915050565b5f6020820190508181035f830152620004dc818462000482565b905092915050565b5f60208284031215620004fc57620004fb620003a9565b5b5f6200050b84828501620003d3565b91505092915050565b5f73ffffffffffffffffffffffffffffffffffffffff82169050919050565b5f819050919050565b5f6200055c62000556620005508462000514565b62000533565b62000514565b9050919050565b5f6200056f826200053c565b9050919050565b5f620005828262000563565b9050919050565b620005948162000576565b82525050565b5f602082019050620005af5f83018462000589565b92915050565b5f80fd5b5f80fd5b7f4e487b71000000000000000000000000000000000000000000000000000000005f52604160045260245ffd5b620005f58262000472565b810181811067ffffffffffffffff82111715620006175762000616620005bd565b5b80604052505050565b5f6200062b620003a0565b9050620006398282620005ea565b919050565b5f67ffffffffffffffff8211156200065b576200065a620005bd565b5b620006668262000472565b9050602081019050919050565b828183375f83830152505050565b5f6200069762000691846200063e565b62000620565b905082815260208101848484011115620006b657620006b5620005b9565b5b620006c384828562000673565b509392505050565b5f82601f830112620006e257620006e1620005b5565b5b8135620006f484826020860162000681565b91505092915050565b5f805f60608486031215620007175762000716620003a9565b5b5f6200072686828701620003d3565b935050602084013567ffffffffffffffff8111156200074a5762000749620003ad565b5b6200075886828701620006cb565b92505060406200076b86828701620003d3565b9150509250925092565b7f4e487b71000000000000000000000000000000000000000000000000000000005f52603260045260245ffd5b620007ad81620003b1565b82525050565b5f602082019050620007c85f830184620007a2565b92915050565b5f620007e4620007de846200063e565b62000620565b905082815260208101848484011115620008035762000802620005b9565b5b6200081084828562000448565b509392505050565b5f82601f8301126200082f576200082e620005b5565b5b815162000841848260208601620007ce565b91505092915050565b5f60208284031215620008625762000861620003a9565b5b5f82015167ffffffffffffffff811115620008825762000881620003ad565b5b620008908482850162000818565b91505092915050565b5f6040820190508181035f830152620008b3818562000482565b9050620008c46020830184620007a2565b939250505056fe60806040526040518060400160405280600b81526020017f48656c6c6f20576f726c640000000000000000000000000000000000000000008152505f9081620000499190620002c1565b5034801562000056575f80fd5b50620003a5565b5f81519050919050565b7f4e487b71000000000000000000000000000000000000000000000000000000005f52604160045260245ffd5b7f4e487b71000000000000000000000000000000000000000000000000000000005f52602260045260245ffd5b5f6002820490506001821680620000d957607f821691505b602082108103620000ef57620000ee62000094565b5b50919050565b5f819050815f5260205f209050919050565b5f6020601f8301049050919050565b5f82821b905092915050565b5f60088302620001537fffffffffffffffffffffffffffffffffffffffffffffffffffffffffffffffff8262000116565b6200015f868362000116565b95508019841693508086168417925050509392505050565b5f819050919050565b5f819050919050565b5f620001a9620001a36200019d8462000177565b62000180565b62000177565b9050919050565b5f819050919050565b620001c48362000189565b620001dc620001d382620001b0565b84845462000122565b825550505050565b5f90565b620001f2620001e4565b620001ff818484620001b9565b505050565b5b8181101562000226576200021a5f82620001e8565b60018101905062000205565b5050565b601f82111562000275576200023f81620000f5565b6200024a8462000107565b810160208510156200025a578190505b62000272620002698562000107565b83018262000204565b50505b505050565b5f82821c905092915050565b5f620002975f19846008026200027a565b1980831691505092915050565b5f620002b1838362000286565b9150826002028217905092915050565b620002cc826200005d565b67ffffffffffffffff811115620002e857620002e762000067565b5b620002f48254620000c1565b620003018282856200022a565b5f60209050601f83116001811462000337575f841562000322578287015190505b6200032e8582620002a4565b8655506200039d565b601f1984166200034786620000f5565b5f5b82811015620003705784890151825560018201915060208501945060208101905062000349565b868310156200039057848901516200038c601f89168262000286565b8355505b6001600288020188555050505b505050505050565b61092b80620003b35f395ff3fe608060405234801561000f575f80fd5b5060043610610034575f3560e01c806342257b31146100385780635d641b8914610068575b5f80fd5b610052600480360381019061004d919061034c565b610084565b60405161005f9190610401565b60405180910390f35b610082600480360381019061007d919061054d565b61022d565b005b60605f73ffffffffffffffffffffffffffffffffffffffff1660025f8481526020019081526020015f206002015f9054906101000a900473ffffffffffffffffffffffffffffffffffffffff1673ffffffffffffffffffffffffffffffffffffffff16036101835761017c5f80546100fb906105d4565b80601f0160208091040260200160405190810160405280929190818152602001828054610127906105d4565b80156101725780601f1061014957610100808354040283529160200191610172565b820191905f5260205f20905b81548152906001019060200180831161015557829003601f168201915b50505050506102df565b9050610228565b61022560025f8481526020019081526020015f205f0180546101a4906105d4565b80601f01602080910402602001604051908101604052809291908181526020018280546101d0906105d4565b801561021b5780601f106101f25761010080835404028352916020019161021b565b820191905f5260205f20905b8154815290600101906020018083116101fe57829003601f168201915b50505050506102df565b90505b919050565b5f60405180606001604052808481526020018381526020013373ffffffffffffffffffffffffffffffffffffffff1681525090508060025f8481526020019081526020015f205f820151815f01908161028691906107a1565b50602082015181600101556040820151816002015f6101000a81548173ffffffffffffffffffffffffffffffffffffffff021916908373ffffffffffffffffffffffffffffffffffffffff160217905550905050505050565b6060816040516020016102f291906108d0565b6040516020818303038152906040529050919050565b5f604051905090565b5f80fd5b5f80fd5b5f819050919050565b61032b81610319565b8114610335575f80fd5b50565b5f8135905061034681610322565b92915050565b5f6020828403121561036157610360610311565b5b5f61036e84828501610338565b91505092915050565b5f81519050919050565b5f82825260208201905092915050565b5f5b838110156103ae578082015181840152602081019050610393565b5f8484015250505050565b5f601f19601f8301169050919050565b5f6103d382610377565b6103dd8185610381565b93506103ed818560208601610391565b6103f6816103b9565b840191505092915050565b5f6020820190508181035f83015261041981846103c9565b905092915050565b5f80fd5b5f80fd5b7f4e487b71000000000000000000000000000000000000000000000000000000005f52604160045260245ffd5b61045f826103b9565b810181811067ffffffffffffffff8211171561047e5761047d610429565b5b80604052505050565b5f610490610308565b905061049c8282610456565b919050565b5f67ffffffffffffffff8211156104bb576104ba610429565b5b6104c4826103b9565b9050602081019050919050565b828183375f83830152505050565b5f6104f16104ec846104a1565b610487565b90508281526020810184848401111561050d5761050c610425565b5b6105188482856104d1565b509392505050565b5f82601f83011261053457610533610421565b5b81356105448482602086016104df565b91505092915050565b5f806040838503121561056357610562610311565b5b5f83013567ffffffffffffffff8111156105805761057f610315565b5b61058c85828601610520565b925050602061059d85828601610338565b9150509250929050565b7f4e487b71000000000000000000000000000000000000000000000000000000005f52602260045260245ffd5b5f60028204905060018216806105eb57607f821691505b6020821081036105fe576105fd6105a7565b5b50919050565b5f819050815f5260205f209050919050565b5f6020601f8301049050919050565b5f82821b905092915050565b5f600883026106607fffffffffffffffffffffffffffffffffffffffffffffffffffffffffffffffff82610625565b61066a8683610625565b95508019841693508086168417925050509392505050565b5f819050919050565b5f6106a56106a061069b84610319565b610682565b610319565b9050919050565b5f819050919050565b6106be8361068b565b6106d26106ca826106ac565b848454610631565b825550505050565b5f90565b6106e66106da565b6106f18184846106b5565b505050565b5b81811015610714576107095f826106de565b6001810190506106f7565b5050565b601f8211156107595761072a81610604565b61073384610616565b81016020851015610742578190505b61075661074e85610616565b8301826106f6565b50505b505050565b5f82821c905092915050565b5f6107795f198460080261075e565b1980831691505092915050565b5f610791838361076a565b9150826002028217905092915050565b6107aa82610377565b67ffffffffffffffff8111156107c3576107c2610429565b5b6107cd82546105d4565b6107d8828285610718565b5f60209050601f831160018114610809575f84156107f7578287015190505b6108018582610786565b865550610868565b601f19841661081786610604565b5f5b8281101561083e57848901518255600182019150602085019450602081019050610819565b8683101561085b5784890151610857601f89168261076a565b8355505b6001600288020188555050505b505050505050565b5f81905092915050565b5f61088482610377565b61088e8185610870565b935061089e818560208601610391565b80840191505092915050565b7f2066726f6d204672616e6b277320636f6e74726163742e000000000000000000815250565b5f6108db828461087a565b91506108e6826108aa565b6017820191508190509291505056fea264697066735822122091f5123feeee5ac4e64124d4635e9f97a0d1b9c08cfe31425663ec6899725f2d64736f6c63430008160033a26469706673582212206c6d1511bed82e964fcae6dc29784ba9a533fe99cf4c921d7ab0c88551e7f16164736f6c63430008160033",
			"opcodes": "PUSH1 0x80 PUSH1 0x40 MSTORE CALLVALUE DUP1 ISZERO PUSH2 0xF JUMPI PUSH0 DUP1 REVERT JUMPDEST POP PUSH2 0x15DF DUP1 PUSH2 0x1D PUSH0 CODECOPY PUSH0 RETURN INVALID PUSH1 0x80 PUSH1 0x40 MSTORE CALLVALUE DUP1 ISZERO PUSH3 0x10 JUMPI PUSH0 DUP1 REVERT JUMPDEST POP PUSH1 0x4 CALLDATASIZE LT PUSH3 0x50 JUMPI PUSH0 CALLDATALOAD PUSH1 0xE0 SHR DUP1 PUSH4 0x53BF97DD EQ PUSH3 0x54 JUMPI DUP1 PUSH4 0x5E0A94CB EQ PUSH3 0x8A JUMPI DUP1 PUSH4 0x867263FB EQ PUSH3 0x96 JUMPI DUP1 PUSH4 0xAEB914CB EQ PUSH3 0xCC JUMPI JUMPDEST PUSH0 DUP1 REVERT JUMPDEST PUSH3 0x72 PUSH1 0x4 DUP1 CALLDATASIZE SUB DUP2 ADD SWAP1 PUSH3 0x6C SWAP2 SWAP1 PUSH3 0x3E9 JUMP JUMPDEST PUSH3 0xEC JUMP JUMPDEST PUSH1 0x40 MLOAD PUSH3 0x81 SWAP2 SWAP1 PUSH3 0x4C2 JUMP JUMPDEST PUSH1 0x40 MLOAD DUP1 SWAP2 SUB SWAP1 RETURN JUMPDEST PUSH3 0x94 PUSH3 0x1B4 JUMP JUMPDEST STOP JUMPDEST PUSH3 0xB4 PUSH1 0x4 DUP1 CALLDATASIZE SUB DUP2 ADD SWAP1 PUSH3 0xAE SWAP2 SWAP1 PUSH3 0x4E4 JUMP JUMPDEST PUSH3 0x29C JUMP JUMPDEST PUSH1 0x40 MLOAD PUSH3 0xC3 SWAP2 SWAP1 PUSH3 0x59A JUMP JUMPDEST PUSH1 0x40 MLOAD DUP1 SWAP2 SUB SWAP1 RETURN JUMPDEST PUSH3 0xEA PUSH1 0x4 DUP1 CALLDATASIZE SUB DUP2 ADD SWAP1 PUSH3 0xE4 SWAP2 SWAP1 PUSH3 0x6FD JUMP JUMPDEST PUSH3 0x2E3 JUMP JUMPDEST STOP JUMPDEST PUSH1 0x60 PUSH1 0x1 DUP4 DUP2 SLOAD DUP2 LT PUSH3 0x105 JUMPI PUSH3 0x104 PUSH3 0x775 JUMP JUMPDEST JUMPDEST SWAP1 PUSH0 MSTORE PUSH1 0x20 PUSH0 KECCAK256 ADD PUSH0 SWAP1 SLOAD SWAP1 PUSH2 0x100 EXP SWAP1 DIV PUSH20 0xFFFFFFFFFFFFFFFFFFFFFFFFFFFFFFFFFFFFFFFF AND PUSH20 0xFFFFFFFFFFFFFFFFFFFFFFFFFFFFFFFFFFFFFFFF AND PUSH4 0x42257B31 DUP4 PUSH1 0x40 MLOAD DUP3 PUSH4 0xFFFFFFFF AND PUSH1 0xE0 SHL DUP2 MSTORE PUSH1 0x4 ADD PUSH3 0x167 SWAP2 SWAP1 PUSH3 0x7B3 JUMP JUMPDEST PUSH0 PUSH1 0x40 MLOAD DUP1 DUP4 SUB DUP2 DUP7 GAS STATICCALL ISZERO DUP1 ISZERO PUSH3 0x182 JUMPI RETURNDATASIZE PUSH0 DUP1 RETURNDATACOPY RETURNDATASIZE PUSH0 REVERT JUMPDEST POP POP POP POP PUSH1 0x40 MLOAD RETURNDATASIZE PUSH0 DUP3 RETURNDATACOPY RETURNDATASIZE PUSH1 0x1F NOT PUSH1 0x1F DUP3 ADD AND DUP3 ADD DUP1 PUSH1 0x40 MSTORE POP DUP2 ADD SWAP1 PUSH3 0x1AC SWAP2 SWAP1 PUSH3 0x84A JUMP JUMPDEST SWAP1 POP SWAP3 SWAP2 POP POP JUMP JUMPDEST PUSH1 0x40 MLOAD PUSH3 0x1C2 SWAP1 PUSH3 0x392 JUMP JUMPDEST PUSH1 0x40 MLOAD DUP1 SWAP2 SUB SWAP1 PUSH0 CREATE DUP1 ISZERO DUP1 ISZERO PUSH3 0x1DC JUMPI RETURNDATASIZE PUSH0 DUP1 RETURNDATACOPY RETURNDATASIZE PUSH0 REVERT JUMPDEST POP PUSH0 DUP1 PUSH2 0x100 EXP DUP2 SLOAD DUP2 PUSH20 0xFFFFFFFFFFFFFFFFFFFFFFFFFFFFFFFFFFFFFFFF MUL NOT AND SWAP1 DUP4 PUSH20 0xFFFFFFFFFFFFFFFFFFFFFFFFFFFFFFFFFFFFFFFF AND MUL OR SWAP1 SSTORE POP PUSH1 0x1 PUSH0 DUP1 SLOAD SWAP1 PUSH2 0x100 EXP SWAP1 DIV PUSH20 0xFFFFFFFFFFFFFFFFFFFFFFFFFFFFFFFFFFFFFFFF AND SWAP1 DUP1 PUSH1 0x1 DUP2 SLOAD ADD DUP1 DUP3 SSTORE DUP1 SWAP2 POP POP PUSH1 0x1 SWAP1 SUB SWAP1 PUSH0 MSTORE PUSH1 0x20 PUSH0 KECCAK256 ADD PUSH0 SWAP1 SWAP2 SWAP1 SWAP2 SWAP1 SWAP2 PUSH2 0x100 EXP DUP2 SLOAD DUP2 PUSH20 0xFFFFFFFFFFFFFFFFFFFFFFFFFFFFFFFFFFFFFFFF MUL NOT AND SWAP1 DUP4 PUSH20 0xFFFFFFFFFFFFFFFFFFFFFFFFFFFFFFFFFFFFFFFF AND MUL OR SWAP1 SSTORE POP JUMP JUMPDEST PUSH0 PUSH1 0x1 DUP3 DUP2 SLOAD DUP2 LT PUSH3 0x2B4 JUMPI PUSH3 0x2B3 PUSH3 0x775 JUMP JUMPDEST JUMPDEST SWAP1 PUSH0 MSTORE PUSH1 0x20 PUSH0 KECCAK256 ADD PUSH0 SWAP1 SLOAD SWAP1 PUSH2 0x100 EXP SWAP1 DIV PUSH20 0xFFFFFFFFFFFFFFFFFFFFFFFFFFFFFFFFFFFFFFFF AND SWAP1 POP SWAP2 SWAP1 POP JUMP JUMPDEST PUSH1 0x1 DUP4 DUP2 SLOAD DUP2 LT PUSH3 0x2FA JUMPI PUSH3 0x2F9 PUSH3 0x775 JUMP JUMPDEST JUMPDEST SWAP1 PUSH0 MSTORE PUSH1 0x20 PUSH0 KECCAK256 ADD PUSH0 SWAP1 SLOAD SWAP1 PUSH2 0x100 EXP SWAP1 DIV PUSH20 0xFFFFFFFFFFFFFFFFFFFFFFFFFFFFFFFFFFFFFFFF AND PUSH20 0xFFFFFFFFFFFFFFFFFFFFFFFFFFFFFFFFFFFFFFFF AND PUSH4 0x5D641B89 DUP4 DUP4 PUSH1 0x40 MLOAD DUP4 PUSH4 0xFFFFFFFF AND PUSH1 0xE0 SHL DUP2 MSTORE PUSH1 0x4 ADD PUSH3 0x35E SWAP3 SWAP2 SWAP1 PUSH3 0x899 JUMP JUMPDEST PUSH0 PUSH1 0x40 MLOAD DUP1 DUP4 SUB DUP2 PUSH0 DUP8 DUP1 EXTCODESIZE ISZERO DUP1 ISZERO PUSH3 0x376 JUMPI PUSH0 DUP1 REVERT JUMPDEST POP GAS CALL ISZERO DUP1 ISZERO PUSH3 0x389 JUMPI RETURNDATASIZE PUSH0 DUP1 RETURNDATACOPY RETURNDATASIZE PUSH0 REVERT JUMPDEST POP POP POP POP POP POP POP JUMP JUMPDEST PUSH2 0xCDE DUP1 PUSH3 0x8CC DUP4 CODECOPY ADD SWAP1 JUMP JUMPDEST PUSH0 PUSH1 0x40 MLOAD SWAP1 POP SWAP1 JUMP JUMPDEST PUSH0 DUP1 REVERT JUMPDEST PUSH0 DUP1 REVERT JUMPDEST PUSH0 DUP2 SWAP1 POP SWAP2 SWAP1 POP JUMP JUMPDEST PUSH3 0x3C5 DUP2 PUSH3 0x3B1 JUMP JUMPDEST DUP2 EQ PUSH3 0x3D0 JUMPI PUSH0 DUP1 REVERT JUMPDEST POP JUMP JUMPDEST PUSH0 DUP2 CALLDATALOAD SWAP1 POP PUSH3 0x3E3 DUP2 PUSH3 0x3BA JUMP JUMPDEST SWAP3 SWAP2 POP POP JUMP JUMPDEST PUSH0 DUP1 PUSH1 0x40 DUP4 DUP6 SUB SLT ISZERO PUSH3 0x402 JUMPI PUSH3 0x401 PUSH3 0x3A9 JUMP JUMPDEST JUMPDEST PUSH0 PUSH3 0x411 DUP6 DUP3 DUP7 ADD PUSH3 0x3D3 JUMP JUMPDEST SWAP3 POP POP PUSH1 0x20 PUSH3 0x424 DUP6 DUP3 DUP7 ADD PUSH3 0x3D3 JUMP JUMPDEST SWAP2 POP POP SWAP3 POP SWAP3 SWAP1 POP JUMP JUMPDEST PUSH0 DUP2 MLOAD SWAP1 POP SWAP2 SWAP1 POP JUMP JUMPDEST PUSH0 DUP3 DUP3 MSTORE PUSH1 0x20 DUP3 ADD SWAP1 POP SWAP3 SWAP2 POP POP JUMP JUMPDEST PUSH0 JUMPDEST DUP4 DUP2 LT ISZERO PUSH3 0x467 JUMPI DUP1 DUP3 ADD MLOAD DUP2 DUP5 ADD MSTORE PUSH1 0x20 DUP2 ADD SWAP1 POP PUSH3 0x44A JUMP JUMPDEST PUSH0 DUP5 DUP5 ADD MSTORE POP POP POP POP JUMP JUMPDEST PUSH0 PUSH1 0x1F NOT PUSH1 0x1F DUP4 ADD AND SWAP1 POP SWAP2 SWAP1 POP JUMP JUMPDEST PUSH0 PUSH3 0x48E DUP3 PUSH3 0x42E JUMP JUMPDEST PUSH3 0x49A DUP2 DUP6 PUSH3 0x438 JUMP JUMPDEST SWAP4 POP PUSH3 0x4AC DUP2 DUP6 PUSH1 0x20 DUP7 ADD PUSH3 0x448 JUMP JUMPDEST PUSH3 0x4B7 DUP2 PUSH3 0x472 JUMP JUMPDEST DUP5 ADD SWAP2 POP POP SWAP3 SWAP2 POP POP JUMP JUMPDEST PUSH0 PUSH1 0x20 DUP3 ADD SWAP1 POP DUP2 DUP2 SUB PUSH0 DUP4 ADD MSTORE PUSH3 0x4DC DUP2 DUP5 PUSH3 0x482 JUMP JUMPDEST SWAP1 POP SWAP3 SWAP2 POP POP JUMP JUMPDEST PUSH0 PUSH1 0x20 DUP3 DUP5 SUB SLT ISZERO PUSH3 0x4FC JUMPI PUSH3 0x4FB PUSH3 0x3A9 JUMP JUMPDEST JUMPDEST PUSH0 PUSH3 0x50B DUP5 DUP3 DUP6 ADD PUSH3 0x3D3 JUMP JUMPDEST SWAP2 POP POP SWAP3 SWAP2 POP POP JUMP JUMPDEST PUSH0 PUSH20 0xFFFFFFFFFFFFFFFFFFFFFFFFFFFFFFFFFFFFFFFF DUP3 AND SWAP1 POP SWAP2 SWAP1 POP JUMP JUMPDEST PUSH0 DUP2 SWAP1 POP SWAP2 SWAP1 POP JUMP JUMPDEST PUSH0 PUSH3 0x55C PUSH3 0x556 PUSH3 0x550 DUP5 PUSH3 0x514 JUMP JUMPDEST PUSH3 0x533 JUMP JUMPDEST PUSH3 0x514 JUMP JUMPDEST SWAP1 POP SWAP2 SWAP1 POP JUMP JUMPDEST PUSH0 PUSH3 0x56F DUP3 PUSH3 0x53C JUMP JUMPDEST SWAP1 POP SWAP2 SWAP1 POP JUMP JUMPDEST PUSH0 PUSH3 0x582 DUP3 PUSH3 0x563 JUMP JUMPDEST SWAP1 POP SWAP2 SWAP1 POP JUMP JUMPDEST PUSH3 0x594 DUP2 PUSH3 0x576 JUMP JUMPDEST DUP3 MSTORE POP POP JUMP JUMPDEST PUSH0 PUSH1 0x20 DUP3 ADD SWAP1 POP PUSH3 0x5AF PUSH0 DUP4 ADD DUP5 PUSH3 0x589 JUMP JUMPDEST SWAP3 SWAP2 POP POP JUMP JUMPDEST PUSH0 DUP1 REVERT JUMPDEST PUSH0 DUP1 REVERT JUMPDEST PUSH32 0x4E487B7100000000000000000000000000000000000000000000000000000000 PUSH0 MSTORE PUSH1 0x41 PUSH1 0x4 MSTORE PUSH1 0x24 PUSH0 REVERT JUMPDEST PUSH3 0x5F5 DUP3 PUSH3 0x472 JUMP JUMPDEST DUP2 ADD DUP2 DUP2 LT PUSH8 0xFFFFFFFFFFFFFFFF DUP3 GT OR ISZERO PUSH3 0x617 JUMPI PUSH3 0x616 PUSH3 0x5BD JUMP JUMPDEST JUMPDEST DUP1 PUSH1 0x40 MSTORE POP POP POP JUMP JUMPDEST PUSH0 PUSH3 0x62B PUSH3 0x3A0 JUMP JUMPDEST SWAP1 POP PUSH3 0x639 DUP3 DUP3 PUSH3 0x5EA JUMP JUMPDEST SWAP2 SWAP1 POP JUMP JUMPDEST PUSH0 PUSH8 0xFFFFFFFFFFFFFFFF DUP3 GT ISZERO PUSH3 0x65B JUMPI PUSH3 0x65A PUSH3 0x5BD JUMP JUMPDEST JUMPDEST PUSH3 0x666 DUP3 PUSH3 0x472 JUMP JUMPDEST SWAP1 POP PUSH1 0x20 DUP2 ADD SWAP1 POP SWAP2 SWAP1 POP JUMP JUMPDEST DUP3 DUP2 DUP4 CALLDATACOPY PUSH0 DUP4 DUP4 ADD MSTORE POP POP POP JUMP JUMPDEST PUSH0 PUSH3 0x697 PUSH3 0x691 DUP5 PUSH3 0x63E JUMP JUMPDEST PUSH3 0x620 JUMP JUMPDEST SWAP1 POP DUP3 DUP2 MSTORE PUSH1 0x20 DUP2 ADD DUP5 DUP5 DUP5 ADD GT ISZERO PUSH3 0x6B6 JUMPI PUSH3 0x6B5 PUSH3 0x5B9 JUMP JUMPDEST JUMPDEST PUSH3 0x6C3 DUP5 DUP3 DUP6 PUSH3 0x673 JUMP JUMPDEST POP SWAP4 SWAP3 POP POP POP JUMP JUMPDEST PUSH0 DUP3 PUSH1 0x1F DUP4 ADD SLT PUSH3 0x6E2 JUMPI PUSH3 0x6E1 PUSH3 0x5B5 JUMP JUMPDEST JUMPDEST DUP2 CALLDATALOAD PUSH3 0x6F4 DUP5 DUP3 PUSH1 0x20 DUP7 ADD PUSH3 0x681 JUMP JUMPDEST SWAP2 POP POP SWAP3 SWAP2 POP POP JUMP JUMPDEST PUSH0 DUP1 PUSH0 PUSH1 0x60 DUP5 DUP7 SUB SLT ISZERO PUSH3 0x717 JUMPI PUSH3 0x716 PUSH3 0x3A9 JUMP JUMPDEST JUMPDEST PUSH0 PUSH3 0x726 DUP7 DUP3 DUP8 ADD PUSH3 0x3D3 JUMP JUMPDEST SWAP4 POP POP PUSH1 0x20 DUP5 ADD CALLDATALOAD PUSH8 0xFFFFFFFFFFFFFFFF DUP2 GT ISZERO PUSH3 0x74A JUMPI PUSH3 0x749 PUSH3 0x3AD JUMP JUMPDEST JUMPDEST PUSH3 0x758 DUP7 DUP3 DUP8 ADD PUSH3 0x6CB JUMP JUMPDEST SWAP3 POP POP PUSH1 0x40 PUSH3 0x76B DUP7 DUP3 DUP8 ADD PUSH3 0x3D3 JUMP JUMPDEST SWAP2 POP POP SWAP3 POP SWAP3 POP SWAP3 JUMP JUMPDEST PUSH32 0x4E487B7100000000000000000000000000000000000000000000000000000000 PUSH0 MSTORE PUSH1 0x32 PUSH1 0x4 MSTORE PUSH1 0x24 PUSH0 REVERT JUMPDEST PUSH3 0x7AD DUP2 PUSH3 0x3B1 JUMP JUMPDEST DUP3 MSTORE POP POP JUMP JUMPDEST PUSH0 PUSH1 0x20 DUP3 ADD SWAP1 POP PUSH3 0x7C8 PUSH0 DUP4 ADD DUP5 PUSH3 0x7A2 JUMP JUMPDEST SWAP3 SWAP2 POP POP JUMP JUMPDEST PUSH0 PUSH3 0x7E4 PUSH3 0x7DE DUP5 PUSH3 0x63E JUMP JUMPDEST PUSH3 0x620 JUMP JUMPDEST SWAP1 POP DUP3 DUP2 MSTORE PUSH1 0x20 DUP2 ADD DUP5 DUP5 DUP5 ADD GT ISZERO PUSH3 0x803 JUMPI PUSH3 0x802 PUSH3 0x5B9 JUMP JUMPDEST JUMPDEST PUSH3 0x810 DUP5 DUP3 DUP6 PUSH3 0x448 JUMP JUMPDEST POP SWAP4 SWAP3 POP POP POP JUMP JUMPDEST PUSH0 DUP3 PUSH1 0x1F DUP4 ADD SLT PUSH3 0x82F JUMPI PUSH3 0x82E PUSH3 0x5B5 JUMP JUMPDEST JUMPDEST DUP2 MLOAD PUSH3 0x841 DUP5 DUP3 PUSH1 0x20 DUP7 ADD PUSH3 0x7CE JUMP JUMPDEST SWAP2 POP POP SWAP3 SWAP2 POP POP JUMP JUMPDEST PUSH0 PUSH1 0x20 DUP3 DUP5 SUB SLT ISZERO PUSH3 0x862 JUMPI PUSH3 0x861 PUSH3 0x3A9 JUMP JUMPDEST JUMPDEST PUSH0 DUP3 ADD MLOAD PUSH8 0xFFFFFFFFFFFFFFFF DUP2 GT ISZERO PUSH3 0x882 JUMPI PUSH3 0x881 PUSH3 0x3AD JUMP JUMPDEST JUMPDEST PUSH3 0x890 DUP5 DUP3 DUP6 ADD PUSH3 0x818 JUMP JUMPDEST SWAP2 POP POP SWAP3 SWAP2 POP POP JUMP JUMPDEST PUSH0 PUSH1 0x40 DUP3 ADD SWAP1 POP DUP2 DUP2 SUB PUSH0 DUP4 ADD MSTORE PUSH3 0x8B3 DUP2 DUP6 PUSH3 0x482 JUMP JUMPDEST SWAP1 POP PUSH3 0x8C4 PUSH1 0x20 DUP4 ADD DUP5 PUSH3 0x7A2 JUMP JUMPDEST SWAP4 SWAP3 POP POP POP JUMP INVALID PUSH1 0x80 PUSH1 0x40 MSTORE PUSH1 0x40 MLOAD DUP1 PUSH1 0x40 ADD PUSH1 0x40 MSTORE DUP1 PUSH1 0xB DUP2 MSTORE PUSH1 0x20 ADD PUSH32 0x48656C6C6F20576F726C64000000000000000000000000000000000000000000 DUP2 MSTORE POP PUSH0 SWAP1 DUP2 PUSH3 0x49 SWAP2 SWAP1 PUSH3 0x2C1 JUMP JUMPDEST POP CALLVALUE DUP1 ISZERO PUSH3 0x56 JUMPI PUSH0 DUP1 REVERT JUMPDEST POP PUSH3 0x3A5 JUMP JUMPDEST PUSH0 DUP2 MLOAD SWAP1 POP SWAP2 SWAP1 POP JUMP JUMPDEST PUSH32 0x4E487B7100000000000000000000000000000000000000000000000000000000 PUSH0 MSTORE PUSH1 0x41 PUSH1 0x4 MSTORE PUSH1 0x24 PUSH0 REVERT JUMPDEST PUSH32 0x4E487B7100000000000000000000000000000000000000000000000000000000 PUSH0 MSTORE PUSH1 0x22 PUSH1 0x4 MSTORE PUSH1 0x24 PUSH0 REVERT JUMPDEST PUSH0 PUSH1 0x2 DUP3 DIV SWAP1 POP PUSH1 0x1 DUP3 AND DUP1 PUSH3 0xD9 JUMPI PUSH1 0x7F DUP3 AND SWAP2 POP JUMPDEST PUSH1 0x20 DUP3 LT DUP2 SUB PUSH3 0xEF JUMPI PUSH3 0xEE PUSH3 0x94 JUMP JUMPDEST JUMPDEST POP SWAP2 SWAP1 POP JUMP JUMPDEST PUSH0 DUP2 SWAP1 POP DUP2 PUSH0 MSTORE PUSH1 0x20 PUSH0 KECCAK256 SWAP1 POP SWAP2 SWAP1 POP JUMP JUMPDEST PUSH0 PUSH1 0x20 PUSH1 0x1F DUP4 ADD DIV SWAP1 POP SWAP2 SWAP1 POP JUMP JUMPDEST PUSH0 DUP3 DUP3 SHL SWAP1 POP SWAP3 SWAP2 POP POP JUMP JUMPDEST PUSH0 PUSH1 0x8 DUP4 MUL PUSH3 0x153 PUSH32 0xFFFFFFFFFFFFFFFFFFFFFFFFFFFFFFFFFFFFFFFFFFFFFFFFFFFFFFFFFFFFFFFF DUP3 PUSH3 0x116 JUMP JUMPDEST PUSH3 0x15F DUP7 DUP4 PUSH3 0x116 JUMP JUMPDEST SWAP6 POP DUP1 NOT DUP5 AND SWAP4 POP DUP1 DUP7 AND DUP5 OR SWAP3 POP POP POP SWAP4 SWAP3 POP POP POP JUMP JUMPDEST PUSH0 DUP2 SWAP1 POP SWAP2 SWAP1 POP JUMP JUMPDEST PUSH0 DUP2 SWAP1 POP SWAP2 SWAP1 POP JUMP JUMPDEST PUSH0 PUSH3 0x1A9 PUSH3 0x1A3 PUSH3 0x19D DUP5 PUSH3 0x177 JUMP JUMPDEST PUSH3 0x180 JUMP JUMPDEST PUSH3 0x177 JUMP JUMPDEST SWAP1 POP SWAP2 SWAP1 POP JUMP JUMPDEST PUSH0 DUP2 SWAP1 POP SWAP2 SWAP1 POP JUMP JUMPDEST PUSH3 0x1C4 DUP4 PUSH3 0x189 JUMP JUMPDEST PUSH3 0x1DC PUSH3 0x1D3 DUP3 PUSH3 0x1B0 JUMP JUMPDEST DUP5 DUP5 SLOAD PUSH3 0x122 JUMP JUMPDEST DUP3 SSTORE POP POP POP POP JUMP JUMPDEST PUSH0 SWAP1 JUMP JUMPDEST PUSH3 0x1F2 PUSH3 0x1E4 JUMP JUMPDEST PUSH3 0x1FF DUP2 DUP5 DUP5 PUSH3 0x1B9 JUMP JUMPDEST POP POP POP JUMP JUMPDEST JUMPDEST DUP2 DUP2 LT ISZERO PUSH3 0x226 JUMPI PUSH3 0x21A PUSH0 DUP3 PUSH3 0x1E8 JUMP JUMPDEST PUSH1 0x1 DUP2 ADD SWAP1 POP PUSH3 0x205 JUMP JUMPDEST POP POP JUMP JUMPDEST PUSH1 0x1F DUP3 GT ISZERO PUSH3 0x275 JUMPI PUSH3 0x23F DUP2 PUSH3 0xF5 JUMP JUMPDEST PUSH3 0x24A DUP5 PUSH3 0x107 JUMP JUMPDEST DUP2 ADD PUSH1 0x20 DUP6 LT ISZERO PUSH3 0x25A JUMPI DUP2 SWAP1 POP JUMPDEST PUSH3 0x272 PUSH3 0x269 DUP6 PUSH3 0x107 JUMP JUMPDEST DUP4 ADD DUP3 PUSH3 0x204 JUMP JUMPDEST POP POP JUMPDEST POP POP POP JUMP JUMPDEST PUSH0 DUP3 DUP3 SHR SWAP1 POP SWAP3 SWAP2 POP POP JUMP JUMPDEST PUSH0 PUSH3 0x297 PUSH0 NOT DUP5 PUSH1 0x8 MUL PUSH3 0x27A JUMP JUMPDEST NOT DUP1 DUP4 AND SWAP2 POP POP SWAP3 SWAP2 POP POP JUMP JUMPDEST PUSH0 PUSH3 0x2B1 DUP4 DUP4 PUSH3 0x286 JUMP JUMPDEST SWAP2 POP DUP3 PUSH1 0x2 MUL DUP3 OR SWAP1 POP SWAP3 SWAP2 POP POP JUMP JUMPDEST PUSH3 0x2CC DUP3 PUSH3 0x5D JUMP JUMPDEST PUSH8 0xFFFFFFFFFFFFFFFF DUP2 GT ISZERO PUSH3 0x2E8 JUMPI PUSH3 0x2E7 PUSH3 0x67 JUMP JUMPDEST JUMPDEST PUSH3 0x2F4 DUP3 SLOAD PUSH3 0xC1 JUMP JUMPDEST PUSH3 0x301 DUP3 DUP3 DUP6 PUSH3 0x22A JUMP JUMPDEST PUSH0 PUSH1 0x20 SWAP1 POP PUSH1 0x1F DUP4 GT PUSH1 0x1 DUP2 EQ PUSH3 0x337 JUMPI PUSH0 DUP5 ISZERO PUSH3 0x322 JUMPI DUP3 DUP8 ADD MLOAD SWAP1 POP JUMPDEST PUSH3 0x32E DUP6 DUP3 PUSH3 0x2A4 JUMP JUMPDEST DUP7 SSTORE POP PUSH3 0x39D JUMP JUMPDEST PUSH1 0x1F NOT DUP5 AND PUSH3 0x347 DUP7 PUSH3 0xF5 JUMP JUMPDEST PUSH0 JUMPDEST DUP3 DUP2 LT ISZERO PUSH3 0x370 JUMPI DUP5 DUP10 ADD MLOAD DUP3 SSTORE PUSH1 0x1 DUP3 ADD SWAP2 POP PUSH1 0x20 DUP6 ADD SWAP5 POP PUSH1 0x20 DUP2 ADD SWAP1 POP PUSH3 0x349 JUMP JUMPDEST DUP7 DUP4 LT ISZERO PUSH3 0x390 JUMPI DUP5 DUP10 ADD MLOAD PUSH3 0x38C PUSH1 0x1F DUP10 AND DUP3 PUSH3 0x286 JUMP JUMPDEST DUP4 SSTORE POP JUMPDEST PUSH1 0x1 PUSH1 0x2 DUP9 MUL ADD DUP9 SSTORE POP POP POP JUMPDEST POP POP POP POP POP POP JUMP JUMPDEST PUSH2 0x92B DUP1 PUSH3 0x3B3 PUSH0 CODECOPY PUSH0 RETURN INVALID PUSH1 0x80 PUSH1 0x40 MSTORE CALLVALUE DUP1 ISZERO PUSH2 0xF JUMPI PUSH0 DUP1 REVERT JUMPDEST POP PUSH1 0x4 CALLDATASIZE LT PUSH2 0x34 JUMPI PUSH0 CALLDATALOAD PUSH1 0xE0 SHR DUP1 PUSH4 0x42257B31 EQ PUSH2 0x38 JUMPI DUP1 PUSH4 0x5D641B89 EQ PUSH2 0x68 JUMPI JUMPDEST PUSH0 DUP1 REVERT JUMPDEST PUSH2 0x52 PUSH1 0x4 DUP1 CALLDATASIZE SUB DUP2 ADD SWAP1 PUSH2 0x4D SWAP2 SWAP1 PUSH2 0x34C JUMP JUMPDEST PUSH2 0x84 JUMP JUMPDEST PUSH1 0x40 MLOAD PUSH2 0x5F SWAP2 SWAP1 PUSH2 0x401 JUMP JUMPDEST PUSH1 0x40 MLOAD DUP1 SWAP2 SUB SWAP1 RETURN JUMPDEST PUSH2 0x82 PUSH1 0x4 DUP1 CALLDATASIZE SUB DUP2 ADD SWAP1 PUSH2 0x7D SWAP2 SWAP1 PUSH2 0x54D JUMP JUMPDEST PUSH2 0x22D JUMP JUMPDEST STOP JUMPDEST PUSH1 0x60 PUSH0 PUSH20 0xFFFFFFFFFFFFFFFFFFFFFFFFFFFFFFFFFFFFFFFF AND PUSH1 0x2 PUSH0 DUP5 DUP2 MSTORE PUSH1 0x20 ADD SWAP1 DUP2 MSTORE PUSH1 0x20 ADD PUSH0 KECCAK256 PUSH1 0x2 ADD PUSH0 SWAP1 SLOAD SWAP1 PUSH2 0x100 EXP SWAP1 DIV PUSH20 0xFFFFFFFFFFFFFFFFFFFFFFFFFFFFFFFFFFFFFFFF AND PUSH20 0xFFFFFFFFFFFFFFFFFFFFFFFFFFFFFFFFFFFFFFFF AND SUB PUSH2 0x183 JUMPI PUSH2 0x17C PUSH0 DUP1 SLOAD PUSH2 0xFB SWAP1 PUSH2 0x5D4 JUMP JUMPDEST DUP1 PUSH1 0x1F ADD PUSH1 0x20 DUP1 SWAP2 DIV MUL PUSH1 0x20 ADD PUSH1 0x40 MLOAD SWAP1 DUP2 ADD PUSH1 0x40 MSTORE DUP1 SWAP3 SWAP2 SWAP1 DUP2 DUP2 MSTORE PUSH1 0x20 ADD DUP3 DUP1 SLOAD PUSH2 0x127 SWAP1 PUSH2 0x5D4 JUMP JUMPDEST DUP1 ISZERO PUSH2 0x172 JUMPI DUP1 PUSH1 0x1F LT PUSH2 0x149 JUMPI PUSH2 0x100 DUP1 DUP4 SLOAD DIV MUL DUP4 MSTORE SWAP2 PUSH1 0x20 ADD SWAP2 PUSH2 0x172 JUMP JUMPDEST DUP3 ADD SWAP2 SWAP1 PUSH0 MSTORE PUSH1 0x20 PUSH0 KECCAK256 SWAP1 JUMPDEST DUP2 SLOAD DUP2 MSTORE SWAP1 PUSH1 0x1 ADD SWAP1 PUSH1 0x20 ADD DUP1 DUP4 GT PUSH2 0x155 JUMPI DUP3 SWAP1 SUB PUSH1 0x1F AND DUP3 ADD SWAP2 JUMPDEST POP POP POP POP POP PUSH2 0x2DF JUMP JUMPDEST SWAP1 POP PUSH2 0x228 JUMP JUMPDEST PUSH2 0x225 PUSH1 0x2 PUSH0 DUP5 DUP2 MSTORE PUSH1 0x20 ADD SWAP1 DUP2 MSTORE PUSH1 0x20 ADD PUSH0 KECCAK256 PUSH0 ADD DUP1 SLOAD PUSH2 0x1A4 SWAP1 PUSH2 0x5D4 JUMP JUMPDEST DUP1 PUSH1 0x1F ADD PUSH1 0x20 DUP1 SWAP2 DIV MUL PUSH1 0x20 ADD PUSH1 0x40 MLOAD SWAP1 DUP2 ADD PUSH1 0x40 MSTORE DUP1 SWAP3 SWAP2 SWAP1 DUP2 DUP2 MSTORE PUSH1 0x20 ADD DUP3 DUP1 SLOAD PUSH2 0x1D0 SWAP1 PUSH2 0x5D4 JUMP JUMPDEST DUP1 ISZERO PUSH2 0x21B JUMPI DUP1 PUSH1 0x1F LT PUSH2 0x1F2 JUMPI PUSH2 0x100 DUP1 DUP4 SLOAD DIV MUL DUP4 MSTORE SWAP2 PUSH1 0x20 ADD SWAP2 PUSH2 0x21B JUMP JUMPDEST DUP3 ADD SWAP2 SWAP1 PUSH0 MSTORE PUSH1 0x20 PUSH0 KECCAK256 SWAP1 JUMPDEST DUP2 SLOAD DUP2 MSTORE SWAP1 PUSH1 0x1 ADD SWAP1 PUSH1 0x20 ADD DUP1 DUP4 GT PUSH2 0x1FE JUMPI DUP3 SWAP1 SUB PUSH1 0x1F AND DUP3 ADD SWAP2 JUMPDEST POP POP POP POP POP PUSH2 0x2DF JUMP JUMPDEST SWAP1 POP JUMPDEST SWAP2 SWAP1 POP JUMP JUMPDEST PUSH0 PUSH1 0x40 MLOAD DUP1 PUSH1 0x60 ADD PUSH1 0x40 MSTORE DUP1 DUP5 DUP2 MSTORE PUSH1 0x20 ADD DUP4 DUP2 MSTORE PUSH1 0x20 ADD CALLER PUSH20 0xFFFFFFFFFFFFFFFFFFFFFFFFFFFFFFFFFFFFFFFF AND DUP2 MSTORE POP SWAP1 POP DUP1 PUSH1 0x2 PUSH0 DUP5 DUP2 MSTORE PUSH1 0x20 ADD SWAP1 DUP2 MSTORE PUSH1 0x20 ADD PUSH0 KECCAK256 PUSH0 DUP3 ADD MLOAD DUP2 PUSH0 ADD SWAP1 DUP2 PUSH2 0x286 SWAP2 SWAP1 PUSH2 0x7A1 JUMP JUMPDEST POP PUSH1 0x20 DUP3 ADD MLOAD DUP2 PUSH1 0x1 ADD SSTORE PUSH1 0x40 DUP3 ADD MLOAD DUP2 PUSH1 0x2 ADD PUSH0 PUSH2 0x100 EXP DUP2 SLOAD DUP2 PUSH20 0xFFFFFFFFFFFFFFFFFFFFFFFFFFFFFFFFFFFFFFFF MUL NOT AND SWAP1 DUP4 PUSH20 0xFFFFFFFFFFFFFFFFFFFFFFFFFFFFFFFFFFFFFFFF AND MUL OR SWAP1 SSTORE POP SWAP1 POP POP POP POP POP JUMP JUMPDEST PUSH1 0x60 DUP2 PUSH1 0x40 MLOAD PUSH1 0x20 ADD PUSH2 0x2F2 SWAP2 SWAP1 PUSH2 0x8D0 JUMP JUMPDEST PUSH1 0x40 MLOAD PUSH1 0x20 DUP2 DUP4 SUB SUB DUP2 MSTORE SWAP1 PUSH1 0x40 MSTORE SWAP1 POP SWAP2 SWAP1 POP JUMP JUMPDEST PUSH0 PUSH1 0x40 MLOAD SWAP1 POP SWAP1 JUMP JUMPDEST PUSH0 DUP1 REVERT JUMPDEST PUSH0 DUP1 REVERT JUMPDEST PUSH0 DUP2 SWAP1 POP SWAP2 SWAP1 POP JUMP JUMPDEST PUSH2 0x32B DUP2 PUSH2 0x319 JUMP JUMPDEST DUP2 EQ PUSH2 0x335 JUMPI PUSH0 DUP1 REVERT JUMPDEST POP JUMP JUMPDEST PUSH0 DUP2 CALLDATALOAD SWAP1 POP PUSH2 0x346 DUP2 PUSH2 0x322 JUMP JUMPDEST SWAP3 SWAP2 POP POP JUMP JUMPDEST PUSH0 PUSH1 0x20 DUP3 DUP5 SUB SLT ISZERO PUSH2 0x361 JUMPI PUSH2 0x360 PUSH2 0x311 JUMP JUMPDEST JUMPDEST PUSH0 PUSH2 0x36E DUP5 DUP3 DUP6 ADD PUSH2 0x338 JUMP JUMPDEST SWAP2 POP POP SWAP3 SWAP2 POP POP JUMP JUMPDEST PUSH0 DUP2 MLOAD SWAP1 POP SWAP2 SWAP1 POP JUMP JUMPDEST PUSH0 DUP3 DUP3 MSTORE PUSH1 0x20 DUP3 ADD SWAP1 POP SWAP3 SWAP2 POP POP JUMP JUMPDEST PUSH0 JUMPDEST DUP4 DUP2 LT ISZERO PUSH2 0x3AE JUMPI DUP1 DUP3 ADD MLOAD DUP2 DUP5 ADD MSTORE PUSH1 0x20 DUP2 ADD SWAP1 POP PUSH2 0x393 JUMP JUMPDEST PUSH0 DUP5 DUP5 ADD MSTORE POP POP POP POP JUMP JUMPDEST PUSH0 PUSH1 0x1F NOT PUSH1 0x1F DUP4 ADD AND SWAP1 POP SWAP2 SWAP1 POP JUMP JUMPDEST PUSH0 PUSH2 0x3D3 DUP3 PUSH2 0x377 JUMP JUMPDEST PUSH2 0x3DD DUP2 DUP6 PUSH2 0x381 JUMP JUMPDEST SWAP4 POP PUSH2 0x3ED DUP2 DUP6 PUSH1 0x20 DUP7 ADD PUSH2 0x391 JUMP JUMPDEST PUSH2 0x3F6 DUP2 PUSH2 0x3B9 JUMP JUMPDEST DUP5 ADD SWAP2 POP POP SWAP3 SWAP2 POP POP JUMP JUMPDEST PUSH0 PUSH1 0x20 DUP3 ADD SWAP1 POP DUP2 DUP2 SUB PUSH0 DUP4 ADD MSTORE PUSH2 0x419 DUP2 DUP5 PUSH2 0x3C9 JUMP JUMPDEST SWAP1 POP SWAP3 SWAP2 POP POP JUMP JUMPDEST PUSH0 DUP1 REVERT JUMPDEST PUSH0 DUP1 REVERT JUMPDEST PUSH32 0x4E487B7100000000000000000000000000000000000000000000000000000000 PUSH0 MSTORE PUSH1 0x41 PUSH1 0x4 MSTORE PUSH1 0x24 PUSH0 REVERT JUMPDEST PUSH2 0x45F DUP3 PUSH2 0x3B9 JUMP JUMPDEST DUP2 ADD DUP2 DUP2 LT PUSH8 0xFFFFFFFFFFFFFFFF DUP3 GT OR ISZERO PUSH2 0x47E JUMPI PUSH2 0x47D PUSH2 0x429 JUMP JUMPDEST JUMPDEST DUP1 PUSH1 0x40 MSTORE POP POP POP JUMP JUMPDEST PUSH0 PUSH2 0x490 PUSH2 0x308 JUMP JUMPDEST SWAP1 POP PUSH2 0x49C DUP3 DUP3 PUSH2 0x456 JUMP JUMPDEST SWAP2 SWAP1 POP JUMP JUMPDEST PUSH0 PUSH8 0xFFFFFFFFFFFFFFFF DUP3 GT ISZERO PUSH2 0x4BB JUMPI PUSH2 0x4BA PUSH2 0x429 JUMP JUMPDEST JUMPDEST PUSH2 0x4C4 DUP3 PUSH2 0x3B9 JUMP JUMPDEST SWAP1 POP PUSH1 0x20 DUP2 ADD SWAP1 POP SWAP2 SWAP1 POP JUMP JUMPDEST DUP3 DUP2 DUP4 CALLDATACOPY PUSH0 DUP4 DUP4 ADD MSTORE POP POP POP JUMP JUMPDEST PUSH0 PUSH2 0x4F1 PUSH2 0x4EC DUP5 PUSH2 0x4A1 JUMP JUMPDEST PUSH2 0x487 JUMP JUMPDEST SWAP1 POP DUP3 DUP2 MSTORE PUSH1 0x20 DUP2 ADD DUP5 DUP5 DUP5 ADD GT ISZERO PUSH2 0x50D JUMPI PUSH2 0x50C PUSH2 0x425 JUMP JUMPDEST JUMPDEST PUSH2 0x518 DUP5 DUP3 DUP6 PUSH2 0x4D1 JUMP JUMPDEST POP SWAP4 SWAP3 POP POP POP JUMP JUMPDEST PUSH0 DUP3 PUSH1 0x1F DUP4 ADD SLT PUSH2 0x534 JUMPI PUSH2 0x533 PUSH2 0x421 JUMP JUMPDEST JUMPDEST DUP2 CALLDATALOAD PUSH2 0x544 DUP5 DUP3 PUSH1 0x20 DUP7 ADD PUSH2 0x4DF JUMP JUMPDEST SWAP2 POP POP SWAP3 SWAP2 POP POP JUMP JUMPDEST PUSH0 DUP1 PUSH1 0x40 DUP4 DUP6 SUB SLT ISZERO PUSH2 0x563 JUMPI PUSH2 0x562 PUSH2 0x311 JUMP JUMPDEST JUMPDEST PUSH0 DUP4 ADD CALLDATALOAD PUSH8 0xFFFFFFFFFFFFFFFF DUP2 GT ISZERO PUSH2 0x580 JUMPI PUSH2 0x57F PUSH2 0x315 JUMP JUMPDEST JUMPDEST PUSH2 0x58C DUP6 DUP3 DUP7 ADD PUSH2 0x520 JUMP JUMPDEST SWAP3 POP POP PUSH1 0x20 PUSH2 0x59D DUP6 DUP3 DUP7 ADD PUSH2 0x338 JUMP JUMPDEST SWAP2 POP POP SWAP3 POP SWAP3 SWAP1 POP JUMP JUMPDEST PUSH32 0x4E487B7100000000000000000000000000000000000000000000000000000000 PUSH0 MSTORE PUSH1 0x22 PUSH1 0x4 MSTORE PUSH1 0x24 PUSH0 REVERT JUMPDEST PUSH0 PUSH1 0x2 DUP3 DIV SWAP1 POP PUSH1 0x1 DUP3 AND DUP1 PUSH2 0x5EB JUMPI PUSH1 0x7F DUP3 AND SWAP2 POP JUMPDEST PUSH1 0x20 DUP3 LT DUP2 SUB PUSH2 0x5FE JUMPI PUSH2 0x5FD PUSH2 0x5A7 JUMP JUMPDEST JUMPDEST POP SWAP2 SWAP1 POP JUMP JUMPDEST PUSH0 DUP2 SWAP1 POP DUP2 PUSH0 MSTORE PUSH1 0x20 PUSH0 KECCAK256 SWAP1 POP SWAP2 SWAP1 POP JUMP JUMPDEST PUSH0 PUSH1 0x20 PUSH1 0x1F DUP4 ADD DIV SWAP1 POP SWAP2 SWAP1 POP JUMP JUMPDEST PUSH0 DUP3 DUP3 SHL SWAP1 POP SWAP3 SWAP2 POP POP JUMP JUMPDEST PUSH0 PUSH1 0x8 DUP4 MUL PUSH2 0x660 PUSH32 0xFFFFFFFFFFFFFFFFFFFFFFFFFFFFFFFFFFFFFFFFFFFFFFFFFFFFFFFFFFFFFFFF DUP3 PUSH2 0x625 JUMP JUMPDEST PUSH2 0x66A DUP7 DUP4 PUSH2 0x625 JUMP JUMPDEST SWAP6 POP DUP1 NOT DUP5 AND SWAP4 POP DUP1 DUP7 AND DUP5 OR SWAP3 POP POP POP SWAP4 SWAP3 POP POP POP JUMP JUMPDEST PUSH0 DUP2 SWAP1 POP SWAP2 SWAP1 POP JUMP JUMPDEST PUSH0 PUSH2 0x6A5 PUSH2 0x6A0 PUSH2 0x69B DUP5 PUSH2 0x319 JUMP JUMPDEST PUSH2 0x682 JUMP JUMPDEST PUSH2 0x319 JUMP JUMPDEST SWAP1 POP SWAP2 SWAP1 POP JUMP JUMPDEST PUSH0 DUP2 SWAP1 POP SWAP2 SWAP1 POP JUMP JUMPDEST PUSH2 0x6BE DUP4 PUSH2 0x68B JUMP JUMPDEST PUSH2 0x6D2 PUSH2 0x6CA DUP3 PUSH2 0x6AC JUMP JUMPDEST DUP5 DUP5 SLOAD PUSH2 0x631 JUMP JUMPDEST DUP3 SSTORE POP POP POP POP JUMP JUMPDEST PUSH0 SWAP1 JUMP JUMPDEST PUSH2 0x6E6 PUSH2 0x6DA JUMP JUMPDEST PUSH2 0x6F1 DUP2 DUP5 DUP5 PUSH2 0x6B5 JUMP JUMPDEST POP POP POP JUMP JUMPDEST JUMPDEST DUP2 DUP2 LT ISZERO PUSH2 0x714 JUMPI PUSH2 0x709 PUSH0 DUP3 PUSH2 0x6DE JUMP JUMPDEST PUSH1 0x1 DUP2 ADD SWAP1 POP PUSH2 0x6F7 JUMP JUMPDEST POP POP JUMP JUMPDEST PUSH1 0x1F DUP3 GT ISZERO PUSH2 0x759 JUMPI PUSH2 0x72A DUP2 PUSH2 0x604 JUMP JUMPDEST PUSH2 0x733 DUP5 PUSH2 0x616 JUMP JUMPDEST DUP2 ADD PUSH1 0x20 DUP6 LT ISZERO PUSH2 0x742 JUMPI DUP2 SWAP1 POP JUMPDEST PUSH2 0x756 PUSH2 0x74E DUP6 PUSH2 0x616 JUMP JUMPDEST DUP4 ADD DUP3 PUSH2 0x6F6 JUMP JUMPDEST POP POP JUMPDEST POP POP POP JUMP JUMPDEST PUSH0 DUP3 DUP3 SHR SWAP1 POP SWAP3 SWAP2 POP POP JUMP JUMPDEST PUSH0 PUSH2 0x779 PUSH0 NOT DUP5 PUSH1 0x8 MUL PUSH2 0x75E JUMP JUMPDEST NOT DUP1 DUP4 AND SWAP2 POP POP SWAP3 SWAP2 POP POP JUMP JUMPDEST PUSH0 PUSH2 0x791 DUP4 DUP4 PUSH2 0x76A JUMP JUMPDEST SWAP2 POP DUP3 PUSH1 0x2 MUL DUP3 OR SWAP1 POP SWAP3 SWAP2 POP POP JUMP JUMPDEST PUSH2 0x7AA DUP3 PUSH2 0x377 JUMP JUMPDEST PUSH8 0xFFFFFFFFFFFFFFFF DUP2 GT ISZERO PUSH2 0x7C3 JUMPI PUSH2 0x7C2 PUSH2 0x429 JUMP JUMPDEST JUMPDEST PUSH2 0x7CD DUP3 SLOAD PUSH2 0x5D4 JUMP JUMPDEST PUSH2 0x7D8 DUP3 DUP3 DUP6 PUSH2 0x718 JUMP JUMPDEST PUSH0 PUSH1 0x20 SWAP1 POP PUSH1 0x1F DUP4 GT PUSH1 0x1 DUP2 EQ PUSH2 0x809 JUMPI PUSH0 DUP5 ISZERO PUSH2 0x7F7 JUMPI DUP3 DUP8 ADD MLOAD SWAP1 POP JUMPDEST PUSH2 0x801 DUP6 DUP3 PUSH2 0x786 JUMP JUMPDEST DUP7 SSTORE POP PUSH2 0x868 JUMP JUMPDEST PUSH1 0x1F NOT DUP5 AND PUSH2 0x817 DUP7 PUSH2 0x604 JUMP JUMPDEST PUSH0 JUMPDEST DUP3 DUP2 LT ISZERO PUSH2 0x83E JUMPI DUP5 DUP10 ADD MLOAD DUP3 SSTORE PUSH1 0x1 DUP3 ADD SWAP2 POP PUSH1 0x20 DUP6 ADD SWAP5 POP PUSH1 0x20 DUP2 ADD SWAP1 POP PUSH2 0x819 JUMP JUMPDEST DUP7 DUP4 LT ISZERO PUSH2 0x85B JUMPI DUP5 DUP10 ADD MLOAD PUSH2 0x857 PUSH1 0x1F DUP10 AND DUP3 PUSH2 0x76A JUMP JUMPDEST DUP4 SSTORE POP JUMPDEST PUSH1 0x1 PUSH1 0x2 DUP9 MUL ADD DUP9 SSTORE POP POP POP JUMPDEST POP POP POP POP POP POP JUMP JUMPDEST PUSH0 DUP2 SWAP1 POP SWAP3 SWAP2 POP POP JUMP JUMPDEST PUSH0 PUSH2 0x884 DUP3 PUSH2 0x377 JUMP JUMPDEST PUSH2 0x88E DUP2 DUP6 PUSH2 0x870 JUMP JUMPDEST SWAP4 POP PUSH2 0x89E DUP2 DUP6 PUSH1 0x20 DUP7 ADD PUSH2 0x391 JUMP JUMPDEST DUP1 DUP5 ADD SWAP2 POP POP SWAP3 SWAP2 POP POP JUMP JUMPDEST PUSH32 0x2066726F6D204672616E6B277320636F6E74726163742E000000000000000000 DUP2 MSTORE POP JUMP JUMPDEST PUSH0 PUSH2 0x8DB DUP3 DUP5 PUSH2 0x87A JUMP JUMPDEST SWAP2 POP PUSH2 0x8E6 DUP3 PUSH2 0x8AA JUMP JUMPDEST PUSH1 0x17 DUP3 ADD SWAP2 POP DUP2 SWAP1 POP SWAP3 SWAP2 POP POP JUMP INVALID LOG2 PUSH5 0x6970667358 0x22 SLT KECCAK256 SWAP2 CREATE2 SLT EXTCODEHASH 0xEE 0xEE GAS 0xC4 0xE6 COINBASE 0x24 0xD4 PUSH4 0x5E9F97A0 0xD1 0xB9 0xC0 DUP13 INVALID BALANCE TIMESTAMP JUMP PUSH4 0xEC689972 PUSH0 0x2D PUSH5 0x736F6C6343 STOP ADDMOD AND STOP CALLER LOG2 PUSH5 0x6970667358 0x22 SLT KECCAK256 PUSH13 0x6D1511BED82E964FCAE6DC2978 0x4B 0xA9 0xA5 CALLER INVALID SWAP10 0xCF 0x4C SWAP3 SAR PUSH27 0xB0C88551E7F16164736F6C63430008160033000000000000000000 "
		},
		"gasEstimates": {
			"creation": {
				"codeDepositCost": "1119800",
				"executionCost": "1158",
				"totalCost": "1120958"
			},
			"external": {
				"callSayHelloFromFactory(uint256,uint256)": "infinite",
				"callSetHelloWorldFromFactory(uint256,string,uint256)": "infinite",
				"createHelloWorld()": "infinite",
				"getHelloWorldByIndex(uint256)": "infinite"
			}
		},
		"methodIdentifiers": {
			"callSayHelloFromFactory(uint256,uint256)": "53bf97dd",
			"callSetHelloWorldFromFactory(uint256,string,uint256)": "aeb914cb",
			"createHelloWorld()": "5e0a94cb",
			"getHelloWorldByIndex(uint256)": "867263fb"
		}
	},
	"abi": [
		{
			"inputs": [
				{
					"internalType": "uint256",
					"name": "_index",
					"type": "uint256"
				},
				{
					"internalType": "uint256",
					"name": "_id",
					"type": "uint256"
				}
			],
			"name": "callSayHelloFromFactory",
			"outputs": [
				{
					"internalType": "string",
					"name": "",
					"type": "string"
				}
			],
			"stateMutability": "view",
			"type": "function"
		},
		{
			"inputs": [
				{
					"internalType": "uint256",
					"name": "_index",
					"type": "uint256"
				},
				{
					"internalType": "string",
					"name": "newString",
					"type": "string"
				},
				{
					"internalType": "uint256",
					"name": "_id",
					"type": "uint256"
				}
			],
			"name": "callSetHelloWorldFromFactory",
			"outputs": [],
			"stateMutability": "nonpayable",
			"type": "function"
		},
		{
			"inputs": [],
			"name": "createHelloWorld",
			"outputs": [],
			"stateMutability": "nonpayable",
			"type": "function"
		},
		{
			"inputs": [
				{
					"internalType": "uint256",
					"name": "_index",
					"type": "uint256"
				}
			],
			"name": "getHelloWorldByIndex",
			"outputs": [
				{
					"internalType": "contract HelloWorld",
					"name": "",
					"type": "address"
				}
			],
			"stateMutability": "view",
			"type": "function"
		}
	]
}